:020000040800F2
:10000000903B0020C10100082F300008C11D0008EE
:10001000992E00082D090008D95900080000000099
:100020000000000000000000000000000D55000866
:10003000BD13000800000000D13800087156000808
:10004000DF010008DF010008DF010008DF01000810
:10005000DF010008DF01000859170008DF01000870
:10006000DF010008DF010008DF010008DF010008F0
:10007000DF010008DF010008DF010008DF010008E0
:10008000DF010008DF010008DF010008DF010008D0
:10009000DF010008DF010008DF010008DF010008C0
:1000A000DF010008DF010008DF010008DF010008B0
:1000B000DF010008DF010008DF010008DF010008A0
:1000C000DF010008DF010008DF010008DF01000890
:1000D000DF010008DF010008DF010008DF01000880
:1000E00079170008DF010008DF010008DF010008C0
:1000F000DF010008DF010008DF010008DF01000860
:10010000DF010008D93E0008DF010008DF01000818
:10011000DF010008DF010008DF010008DF0100083F
:10012000F50E00089D0F0008DF0100081D100008F3
:10013000DF010008DF010008DF010008DF0100081F
:10014000DF010008DF010008DF010008DF0100080F
:10015000DF010008DF010008DF010008DF010008FF
:10016000DF010008DF010008DF010008DF010008EF
:10017000DF010008DF010008350D0008DF0100087D
:10018000DF010008DF010008DF010008DF010008CF
:10019000DF010008DF010008DF010008DF010008BF
:1001A000DF010008DF010008DF010008DFF80CD0E4
:1001B00000F040FB004800477D8C0008903B002089
:1001C000074880470748804707480047FEE7FEE7A3
:1001D000FEE7FEE7FEE7FEE7FEE7FEE7FEE7FEE7F7
:1001E0000957000819430008AD0100082DE9F05F28
:1001F0000546002092469B46884606468146402496
:100200001BE0284641464746224600F044FA534642
:100210005A46C01A914110D311461846224600F0A2
:100220002BFA2D1A67EB01084F46224601200021C8
:1002300000F022FA17EB00094E41201EA4F1010440
:10024000DFDC484631462A464346BDE8F09F40EA97
:1002500001039B0703D009E008C9121F08C0042A44
:10026000FAD203E011F8013B00F8013B521EF9D22B
:1002700070472DE9FE4F804681EA0300C00F0C460F
:10028000009021F0004123F00045B8EB0200A941A5
:1002900005D24046214690461C460B46024623F0B6
:1002A0000040104347D0270DC7F30A00C3F30A519B
:1002B0000290401A019040286BDAC3F3130040F417
:1002C000801B0098924620B10023D2EB030A63EB17
:1002D0000B0B01985946C0F14002504600F0CCF992
:1002E00006460D4650465946019A00F0E4F910EBD7
:1002F00008006141002487EA115284EAE7731A4337
:1003000040D0009A62B3019A012A4FEA075215DCE5
:10031000001B61EB02014FF0004202EA0752CDE9F7
:100320000042001C41F5801132462B4600F01BFABA
:1003300003B0BDE8F08F40462146F9E7001B61EBB2
:100340000201001C41F5801300185B412018A2F542
:10035000001747EB030140EAD570B6196D4111E073
:100360006D084FEA360645EAC0754FEA0752001B92
:1003700061EB0201001C41F5801149084FEA300091
:100380000019514132462B4603B0BDE8F04F00F052
:10039000DBB90098012240000023D0EB020263EB9E
:1003A000E073009821464FEAE074B8EB000061EB7F
:1003B0000401E9E783F000435BE781F0004158E77F
:1003C0002DE9FE4F81EA030404F0004421F00041CE
:1003D00000944FF0000B23F0004350EA01045ED07C
:1003E00052EA03045BD0C3F30A54C1F30A552C4408
:1003F000A4F2F3340194A0FB0254C1F3130141F4BD
:100400008011C3F3130343F4801301FB024400FB88
:10041000034E840A970A44EA815447EA8357A4FBAF
:10042000076802958D0A05FB07854FEA932C04FBAC
:100430000C542705029D4FEA065847EA1637B5EBDC
:1004400008056EEB070C870E920E47EA811742EA09
:100450008312A7FB0201B6EB0B0164EB00042B0D2A
:1004600043EA0C335E1844EB1C50DA465146E7FB76
:100470000201C5F313044FEA0B3343EA14534FEA66
:100480000432019C43EA0603A4F10C040294009C8C
:10049000CDE900B400F067F903B0BDE8F08F0020AB
:1004A0000146F9E72DE9F04D81EA030404F0004B21
:1004B00021F0004514464FF0000A23F0004150EAB5
:1004C000050220D054EA01021DD0C5F30A570246A6
:1004D000C5F31303C1F31300C1F30A5640F48015AA
:1004E00043F48013A7EB0608101BD64608F2FD382C
:1004F00073EB050002D308F1010801E092185B419B
:10050000B8F1000F03DA00200146BDE8F08D0020AD
:100510004FF48011064684460EE0171B73EB050767
:1005200005D3121B63EB050306434CEA010C490893
:100530004FEA300092185B4150EA0107EDD152EAD0
:10054000030012D082EA040083EA0501084305D0C3
:10055000101BAB4106D20122002306E000224FF01F
:10056000004302E06FF0010253101AEB06004CEB5F
:10057000085110EB0A0041EB0B01BDE8F04D00F013
:10058000E3B80EB5C10F80EAE0700844CA07002145
:1005900040F233438DE80E000A460B4600F0E3F8C4
:1005A00003B000BD0EB540F2334102910021CDE908
:1005B00000110A460B4600F0D6F803B000BD00F06B
:1005C000004230F000400AD0C10D01F56071C0F367
:1005D000160042EA0151C20840071143704700204B
:1005E0000146704730B5041E71F1000404DB4FF082
:1005F0000044404264EB0101141E73F1000405DB6A
:100600001C464FF00043524263EB0403994208BF7B
:10061000904230BD01F0004330B421F0004150EA77
:10062000010206D00A0DA2F56072C1F31301002A7F
:1006300002DC30BC00207047440F44EAC104C10012
:10064000E01830BC00EBC25000F047B830B50B46A4
:10065000014600202022012409E021FA02F59D42F2
:1006600005D303FA02F5491B04FA02F52844151EC6
:10067000A2F10102F1DC30BD202A04DB203A00FAAD
:1006800002F1002070479140C2F1200320FA03F3E9
:10069000194390407047202A04DB203A21FA02F0E7
:1006A0000021704721FA02F3D040C2F120029140AC
:1006B000084319467047202A06DBCB17203A41FA37
:1006C00002F043EAE07306E041FA02F3D040C2F1DF
:1006D000200291400843194670470029A8BF70477F
:1006E000401C490008BF20F00100704710B4B0FA68
:1006F00080FC00FA0CF050EA010404BF10BC704703
:1007000049B1CCF1200421FA04F411FA0CF118BF1C
:10071000012121430843A3EB0C01CB1D4FEA0061EB
:100720004FEA102042BF002010BC704700EBC350BE
:1007300010440029A4BF10BC7047401C490008BFEA
:1007400020F0010010BC704710B5141E73F10004B6
:1007500008DA401C41F1000192185B411A4301D1B3
:1007600020F0010010BD2DE9F04D92469B4611B1DD
:10077000B1FA81F202E0B0FA80F220329046FFF73F
:100780007BFF04460F4640EA0A0041EA0B0153464C
:100790005A46084313D0114653EA010019D0C8F154
:1007A00040025046FFF777FF05460E465046594631
:1007B0004246FFF761FF084305D0012004E02046D0
:1007C0003946BDE8F08D0020054346EAE0762C432B
:1007D00037430A986305E40AA0EB08000022FD0AEB
:1007E00044EA47540A3002D500200146E9E70105F2
:1007F00010196941DDE9084500196941BDE8F04D6E
:10080000A2E7C1F30A52C1F3130140F2FF3341F4EE
:1008100080119A4202DA00200146704740F23343C9
:100820009A42A2F2334202DC5242FFF734BFFFF792
:1008300023BF0000064C074D06E0E06840F00103CE
:1008400094E8070098471034AC42F6D3FFF7B2FCA7
:100850008C6D0308BC6D030870B5C1F30A5201F03A
:1008600000450024C1F3130140F2FF3341F480112D
:100870009A4201DA002070BD40F233439A42A2F25C
:10088000334203DC5242FFF706FF00E090402C4366
:10089000F1D0404270BD70B58C1810F8015B15F0B6
:1008A000070301D110F8013B2A1106D110F8012BE2
:1008B00003E010F8016B01F8016B5B1EF9D12B0707
:1008C00005D40023521E0DD401F8013BFAE710F8BD
:1008D000013BCB1A921C03E013F8015B01F8015BAA
:1008E000521EF9D5A142D8D3002070BD1CB50121FC
:1008F000402002F0EFFF4FF40070009001208DF8CF
:10090000040000208DF8060002208DF8070000206A
:100910008DF805006946044801F096F94FF400711E
:10092000014801F0FCF91CBD0018024000BFFEE7C1
:1009300070B500254FF4803400E0641E24B180209F
:1009400003F09EFA0028F8D014B90325284670BD9C
:1009500040F2FF5003F050FA2846F8E72DE9F04145
:10096000064600274848056801E04748056805F045
:1009700045000028F9D005F0040030B10327042019
:1009800003F03AFA3846BDE8F08105F0010028B1DD
:100990000127012003F030FA3846F4E703F06AFA41
:1009A000B04202D010273846EDE740F2FF5003F086
:1009B00023FA002003F084FA04463448204008B9A2
:1009C0003846E0E704F0004008B11C20DBE704F003
:1009D000804008B10920D6E704F0005008B10A2091
:1009E000D1E704F0805008B10B20CCE704F00060A0
:1009F00008B10C20C7E704F0806008B10D20C2E701
:100A000004F0807008B10E20BDE704F4000008B1C6
:100A10000F20B8E704F4800008B11020B3E704F415
:100A2000001008B11120AEE704F4801008B11220C4
:100A3000A9E704F4002008B11320A4E704F48020FF
:100A400008B114209FE704F4003008B115209AE79C
:100A500004F4803008B1162095E704F4004008B192
:100A6000172090E704F4804008B118208BE704F4C5
:100A7000005008B1192086E704F0080008B11A20D8
:100A800081E738467FE70000342C014008E0FFFD95
:100A900070B500251048046801E00F48046804F0B0
:100AA00045000028F9D004F0040028B103250420F3
:100AB00003F0A2F9284670BD04F0010028B1012519
:100AC000012003F099F92846F5E740F2FF5003F0C2
:100AD00093F92846EFE70000342C014070B500255B
:100AE0000B48046801E00A48046804F04500002847
:100AF000F9D004F0040028B10325042003F07CF9A8
:100B0000284670BD40F2FF5003F076F92846F8E71A
:100B1000342C01402DE9F04106460F464FF0000805
:100B20002248056801E02148056805F045000028D5
:100B3000F9D005F0040038B14FF00308042003F0A9
:100B40005BF94046BDE8F08105F0010030B14FF09F
:100B50000108012003F050F94046F3E703F08AF959
:100B6000B04203D04FF010084046EBE740F2FF5090
:100B700003F042F9002003F0A3F9044604F46040B6
:100B800018B9200C38804046DCE704F4005008B166
:100B90001320D7E704F4804008B11020D2E704F412
:100BA000004008B10F20CDE74046CBE7342C014090
:100BB00070B500264FF480350F48046802E06D1EC2
:100BC0000D48046804F0450008B9002DF7D115B1AF
:100BD00004F0040028B10326042003F00DF9304688
:100BE00070BD04F0400028B10026402003F004F955
:100BF0003046F5E73046F3E7342C0140F0B50020ED
:100C00002CE0184D441C2C5DE410E100441C2C5DCC
:100C10006407A40E2D5C04EB6514A200114C245C47
:100C2000E406230E40F22B1511FB05F540F24B268E
:100C300012FB06F63544C3EBC306C6EB831605EB81
:100C4000460505F5FA754FF47A76B5FBF6F500EB37
:100C5000D0767610044FBD55841CA0B2B0F5F05F7D
:100C6000CFDBF0BD000000D0E406002030B500204E
:100C70001FE0124C235CDC1703EB5474E1100F4CA3
:100C8000235CDC1703EB9474A210C2F3C20303EBE2
:100C9000C103DCB24FF4F05303EB40035B1C084D7F
:100CA000EC5401EB42134FF4F05404EB40042B5589
:100CB000401CB0F5706FDCD330BD0000E4060020AE
:100CC000000000D030B10749096841F00101054A30
:100CD000116005E00349096821F00101014A116032
:100CE000704700000000055001494861704700004E
:100CF0000000055030B10749096841F48041054AB8
:100D0000116005E00349096821F48041014A11603E
:100D10007047000000000550014600200022044BEF
:100D20001B6903EA01020AB1012000E000207047BC
:100D30000000055010B50120FFF7EEFF01280CD18F
:100D400000200649088006480078401C04490870C5
:100D5000012004490870FFF7C7FF10BD32000020D2
:100D6000260000203C00002029B1074AD268024337
:100D7000054BDA6006E0044AD268C3439BB21A40CE
:100D8000014BDA60704700000000055000210E4A58
:100D9000126844F201039A430B4B1A601A46116819
:100DA00040F6F2729143028843881A4383881A43BB
:100DB000C3881A4303891A4343891A4383891A4310
:100DC0001143014A116070470000055010B5012120
:100DD000C80502F08FFD00214FF4000002F08AFDEB
:100DE00010BD000001460020034A52680A400AB1C3
:100DF000012000E00020704700B0024070B50021E3
:100E0000002200230024344D2D68344E3540324EEC
:100E1000356035462D68066835432F4E35603546BA
:100E20006D6B25F00705756335466D6B4668354378
:100E3000294E7563456835B9C5682902058A2A04B3
:100E4000057D2B0621E04568012D05D1C5682902E5
:100E5000058A2A04002318E04568022D05D1C568DB
:100E600069010569EA0200230FE04568032D06D1F8
:100E7000C56869010569AA024569EB0305E0C56813
:100E8000290105692A0245692B0341EA02058668A2
:100E900035431D43104EB66B35430F4EB563856920
:100EA000F56335462D6C6FF30D05356435462D6CB5
:100EB000C6693543084E3564858C2C0435466D6C07
:100EC00005F04045756435466D6C066A264335432A
:100ED000014E756470BD000000B00240FCE0FCFFF4
:100EE0000348006840F001000149086070470000B5
:100EF00000B0024010B51549154800F0E3F901288B
:100F00001ED114480088401C1249088008460088F9
:100F1000612802DB0120088012E00F4A128853008A
:100F20000C4A1288521E0D4C03FB0240094A1288DB
:100F3000521E0B4B4FF4C86404FB023100F072F8F0
:100F40000249034800F0D6F810BD000020800010D0
:100F500010640240300000205A000020000000D041
:100F6000003C00D008B50121880502F0B3FC382010
:100F70008DF8000000208DF8010001208DF802009E
:100F80008DF80300684602F06DF801221021024836
:100F900000F0CAF908BD00001064024070B517499E
:100FA000174800F08FF9012826D116480088401C08
:100FB000144908800846008813490988884202D1EC
:100FC000002010490880114A12885400E21704EBEF
:100FD000927291100E4A128853000E4A1288094DDF
:100FE0002D88521B521E0C4D03FB025002F080F85C
:100FF0000249034800F07EF870BD00000088001030
:101000002864024032000020600000205E000020C2
:101010005A0000205C000020000000D010B503F052
:10102000D3FE10BD30B58FB004460D4601218805B2
:1010300002F050FC204800F083F800BF1E4800F08A
:1010400036F90028FAD1009001940295802003908F
:10105000502004904FF4007005904000069040002E
:10106000079080000890002009904FF440300A90CB
:1010700004200B9003200C904FF080700D90002006
:101080000E9069460C4800F06DF90C490A4800F0D2
:1010900017F801221021084800F046F901210648FE
:1010A00000F042F800BF0448183000F000F90128B1
:1010B000F9D10FB030BD00001064024020000010D4
:1010C0000246094B9A4201D2084801E0064810380E
:1010D00001F000531BB1064B0B40C36002E0044B10
:1010E0000B408360704700001064024000600240C3
:1010F0007D0F7D0F0246094B9A4201D2084801E05C
:101100000648103801F000531BB1064B0B40C3607A
:1011100002E0044B0B408360704700001064024003
:10112000006002407D0F7D0F21B1026842F0010294
:10113000026003E0026822F00102026070470000D2
:10114000016821F0010101600021016041608160BE
:10115000C1600161212141614A49884204D13D2198
:10116000484A103A91608CE046491831884205D1CE
:101170004FF47461434A103A916082E04149303142
:10118000884205D14FF474113E4A103A916078E0DC
:101190003C494831884205D14FF07461394A103AD0
:1011A00091606EE037496031884204D13649354A52
:1011B000103AD16065E033497831884204D133492F
:1011C000304A103AD1605CE02E499031884204D117
:1011D0002F492C4A103AD16053E02A49A83188425D
:1011E00005D14FF03D51274A103AD16049E02949D5
:1011F000884204D13D21274A083A116041E025493F
:101200001831884205D14FF47461224A083A1160BE
:1012100037E020493031884205D14FF474111D4A1E
:10122000083A11602DE01B494831884205D14FF042
:101230007461184A083A116023E016496031884207
:1012400004D11149134A121F11601AE01149783173
:10125000884204D10D490F4A121F116011E00D4957
:101260009031884204D10A490A4A121F116008E0ED
:101270000849A831884204D14FF03D51054A121F58
:1012800011607047106002403D000020400F0020B8
:1012900000003D201064024021B1026842F02002AB
:1012A000026003E0026822F02002026070470146FB
:1012B00000200A6802F001020AB1012000E00020CB
:1012C0007047000070B50246002000240025124E31
:1012D000B24201D2114B01E00F4B103B104E0E40B9
:1012E00036B11E2606EAD124166806EA040502E095
:1012F000566906F0800501F000560EB15C6800E00A
:101300001C68084E344004EA010616B10DB10120F4
:1013100000E0002070BD0000106402400060024048
:101320003C0F3C0F7D0F7D0F10B501F080034BB1DA
:1013300022B1436943F08003436103E0436923F032
:101340008003436180290BD02AB1036801F01E0499
:101350002343036004E0036801F01E04A343036019
:1013600010BD000010B500220268134B1A40CC6873
:101370000B6823434C6923438C692343CC69234383
:101380000C6A23434C6A23438C6A23434C6B2343EC
:101390008C6B23431A430260426922F00702D1E9B1
:1013A0000B3423431A4342610B6943604B688360EB
:1013B0008B68C36010BD00003F801CF070470000C8
:1013C00000B587B00121084602F084FA01211020FF
:1013D00002F0E0FA07220A211D4800F07DFC0722F6
:1013E00009211B4800F078FC00208DF81A0001202C
:1013F0008DF81B0002208DF81800000205900220D5
:101400008DF8190005A9124800F01EFC02208DF885
:1014100018004002059005A90D4800F015FC4FF496
:10142000E13001900020ADF80800ADF80A00ADF8F9
:101430000C00ADF810000C20ADF80E0001A9054815
:1014400004F05CFA0121034804F03EFA07B000BD45
:10145000000002400010014001B5044900980860F6
:1014600000BF024800680028FBD108BD1C06002010
:1014700010B52DED028B47F6FF714FF6FF7001F0AE
:101480003FFB32A1354804F003FB01F09DFAC08810
:1014900000EB400101EBC00084B23049204600F06F
:1014A00009FF01F091FAC088C0EBC0004004040CB1
:1014B0002A49204600F0FEFE29480068FFF77FF821
:1014C00041EC180B53EC182B26A1244804F0E0FA49
:1014D00001F07AFAC08800EB80004004040C23A1DC
:1014E000204600F0E7FE01F06FFAC08800EB4001F3
:1014F00001EBC00084B21949204600F0DBFE1E4813
:101500000068FFF75CF841EC180B53EC182B15A1A1
:10151000124804F0BDFA01F057FAC08800EB8001D0
:1015200001EBC00084B215A1204600F0C3FE01F01B
:101530004BFAC088C0EBC0004004040C07492046A9
:1015400000F0B8FEBDEC028B10BD00002020202072
:1015500020202020202020200000000080060020E5
:1015600034000020252E326600000000C6ABD2C633
:10157000BEE0C0EBA3BA000038000020CBAEC6BD71
:10158000CBD9B6C8A3BA000070B500256148006881
:10159000002877D15F49086047F6FF71481C01F0C9
:1015A000AFFA40F2BD1340F221220021EB2000F0FF
:1015B000DFFF47F6FF714FF6FF7001F0A1FA01F06F
:1015C00003FAC68854A1304600F074FE01F0FCF91D
:1015D000C08800EB80004004060C55A1304600F0A6
:1015E00069FE00234FF407726D21F02001F012F81C
:1015F00000234FF407726E21F02001F00BF8002356
:101600004FF407726F21F02001F004F800234FF42B
:10161000077240F24911F02000F0FCFF00234FF464
:1016200007724FF4A571F02000F0F4FF00234FF48F
:10163000077240F24B11F02000F0ECFF0123C822AA
:101640000A21EF2000F0E6FF0123C8220A21F02042
:1016500000F0E0FF0123C8220A21F12000F0DAFFA8
:101660000123C822E621EF2000F0D4FF0123C82285
:10167000E621F02000F0CEFF0123C822E621F12070
:1016800000F0C8FF23480068401C224908602E482B
:1016900090ED000ADFED2D0A30EE200ABDEEC00A03
:1016A00010EE104A47F6FF7148F29F2001F028FA29
:1016B000A1B2184A128802EB4202F02303EB420265
:1016C00090B2022200F00AFF214890ED000ADFEDFF
:1016D000210A30EE200ABDEEC00A10EE105A47F67D
:1016E000FF7148F29F2001F00BFAA9B2094A128853
:1016F00002EB4202F02303EB420290B2022200F01E
:10170000EDFE04480068592802DB0020014908600A
:1017100070BD000044000020202020202020202038
:1017200020202020202020206C656E677468000037
:1017300020202020202020202020202020202020A9
:101740007370656564000000340000200000DC4216
:10175000380000200000A54310B5012000F02AF851
:1017600038B10448006808B100F0BCFC012000F06A
:101770001BF810BD2800002010B54FF4005000F0F9
:1017800019F870B107480068012803D10020054905
:10179000086002E00120034908604FF4005000F0A7
:1017A00003F810BD280000200149086070470000C0
:1017B000143C014001460020034A12680A400AB165
:1017C000012000E000207047143C01400021234923
:1017D0008279002A3AD00A46126803689A430B4677
:1017E0001A600A1D126803689A430B1D1A60027979
:1017F00011440A6803681A430A60184A08321268DA
:1018000003689A43154B08331A601A1D126803685F
:101810009A43124B0C331A604279102A0ED11A1FC8
:10182000126803681A430D4B08331A601A1D1268B8
:1018300003681A43094B0C331A600DE007494279DB
:1018400011440A6803681A430A6005E002791144EA
:101850000A6803689A430A6070470000003C014030
:101860001FB50121052002F035F80121880302F09F
:1018700091F801F0DDFB0120029000208DF80C00B2
:101880008DF80F0002A9184800F0DEF90021084683
:1018900003F03EFE0120009000208DF80400082097
:1018A0008DF8050001208DF806006846FFF78EFFD1
:1018B0004FF40050029002A90C4800F0C5F90D2128
:1018C000022003F025FE4FF40050009000208DF818
:1018D00004000C208DF8050001208DF806006846F4
:1018E000FFF774FF1FBD0000000002400008024027
:1018F00010B5024600200023102A03D14FF02044E7
:10190000636E0FE0B2F5807F02D10A4C236809E0D4
:10191000B2F5805F03D1074C2034236802E0054C08
:10192000D434236803EA01048C4201D0002000E093
:10193000012010BD840000A00021D0E900231A433B
:1019400083685B1E42EA4312C36842EA4321014AAC
:1019500011607047500100A070B5002200210023E3
:1019600000240568AD00A5F1C045D5F840216FF30E
:101970000E02D0E901563543C66835430669354342
:101980004669354386693543C6693543066A35433A
:10199000466A35432A43056835B90568AD00A5F1A7
:1019A000C045C5F8402111E03B4D2B686FF30E0395
:1019B000D0E907563543466A35432B43364D2B60F5
:1019C0000568AD00A5F1C045C5F84021056875BBA7
:1019D000314D0835066855F8261001F07041856ACA
:1019E0002D686D1E866A7668761E45EA0616856A3B
:1019F000AD686D1E46EA0526856AED686D1E46EAED
:101A00000536856A2D8A6D1E46EA0546856AAD8AC9
:101A10006D1E46EA0556856A2D7E6D1E46EA0565F1
:101A200029431D4D0835066845F8261032E0FFE7CA
:101A3000194D0835066855F8261001F07041856A81
:101A40002D686D1E866A7668761E45EA0616856ADA
:101A5000AD686D1E46EA0526856A2D8A6D1E46EA2A
:101A6000054529430C4D08352C6804F07044856AFF
:101A7000ED686D1E2E03856AAD8A6D1E46EA05551A
:101A80002C434FF02045C5F84841034D0835066802
:101A900045F8261070BD0000400100A00449096807
:101AA00041EA40014FF02042C2F854117047000053
:101AB000540100A02DE9FC4107460D4600260024F4
:101AC00000200090019008205B49086010204860C9
:101AD000402088600020C8604FF48060086108469C
:101AE00002F02CFA1020FEF739FF044614B120460C
:101AF000BDE8FC815148008800044F490860372048
:101B00004860402088600020C8604FF48060086111
:101B1000084602F013FA3720FEF720FF04460CB106
:101B20002046E5E74FF0FF3045490860082048604F
:101B3000302088600220C8600020086101204861D0
:101B4000084602F071F900203B49086033204860E4
:101B5000402088600020C8604FF48060086108461B
:101B600002F0ECF93320FEF7F9FE04460CB12046F2
:101B7000BEE709E04FF4001002F082F920B102F054
:101B8000D7F94DF82600761C2E48006840F22A61ED
:101B900008400028EED0082002F072F928B1082091
:101BA00002F02AF904242046A2E7022002F068F994
:101BB00028B1022002F020F90224204698E72020D4
:101BC00002F05EF928B1202002F016F90624204622
:101BD0008EE74FF4007002F053F930B14FF400700B
:101BE00002F00AF90724204682E740F2FF5002F093
:101BF00003F900980006009901F47F4140EA0120B2
:101C0000009901F47F0140EA1120009940EA116037
:101C1000686001980006019901F47F4140EA0120C3
:101C2000019901F47F0140EA1120019940EA116015
:101C3000286020465CE700002827002024060020BA
:101C40003C270020342C0140F0B50A460021002337
:101C5000002400BF3DE0012505FA01F3156805EAFF
:101C600003049C4234D105684F000326BE40B543AF
:101C7000056015794E00B540066835430560157955
:101C8000012D02D01579022D16D185684F0003264B
:101C9000BE40B543856055794E00B54086683543F2
:101CA0008560456801268E40B54345604568967954
:101CB0008E40B6B235434560C5684F000326BE402E
:101CC000B543C560D5794E00B540C6683543C5609B
:101CD000491C1029BFD3F0BDF0B5002300244D07E7
:101CE000ED0E02FA05F3CE1000F1200555F826504E
:101CF0004E07F70E0F26BE40B543CF1000F1200669
:101D000046F82750CE1000F1200555F8265045EA38
:101D10000304CE1000F1200545F82640F0BD4183B4
:101D200070470183704700002DE9F04180460C4662
:101D30001248007820B903F0EDFA01200F4908702D
:101D40002512E6B2A5F1A101C1EB011202EB41118E
:101D500006EB4101A13901EB4101C90001EB410151
:101D6000C800C11700EB5171CF1007F5AA01482236
:101D7000404603F0A7FA0020BDE8F08114060020D9
:101D800010B50246501E00EB80004401481E04EBD3
:101D90004003024800EB5300007810BDE406002029
:101DA00010B50246501E00EB80004401481E04EBB3
:101DB0004003024800EB5300007810BDE4150020FA
:101DC00002E002A003F054FEFBE700000D0A2068C9
:101DD0006172646661756C742100000021B1028833
:101DE00042F48062028004E002884FF6FF331A401A
:101DF0000280704770B502460024002500230020B1
:101E0000958A138B1B0445EA030626F07F4404EAF7
:101E100001068E4201D1012000E0002070BD21B1F9
:101E2000028842F00102028004E002884FF6FE734D
:101E30001A4002807047000010B5044613488442DF
:101E400009D10121480501F095FD00214FF4001052
:101E500001F090FD18E00E48844209D10121880567
:101E600001F088FD00214FF4800001F083FD0BE0BC
:101E70000848844208D10121C80501F07BFD0021FA
:101E80004FF4000001F076FD10BD0000005400404A
:101E900000580040005C004021B1028842F480728A
:101EA000028004E002884FF6FF631A400280704708
:101EB00021B1028842F40072028004E002884FF6E9
:101EC000FF531A40028070472DE9FF4704460D4634
:101ED0000026B1460427DFF8CC80A6884FF6C070F4
:101EE0000640684601F076FDDDF808802E48B8FB14
:101EF000F0F01FFA80F946EA0906A68020884FF61E
:101F0000FE710840208000262849286888420CD8A5
:101F100028684000B8FBF0F087B2042F00DA0427ED
:101F20003E4309F10100208427E0E8884BF6FF7169
:101F3000884206D1286800EB4000B8FBF0F087B279
:101F400009E0286800EBC00101EB0010B8FBF0F0DD
:101F500087B247F48047C7F30B0008B947F0010781
:101F600047F4004006434FF4967009FB00F04FF42D
:101F70007A7190FBF1F0401C2084A683208840F009
:101F80000100208026884FF6F5300640A888698930
:101F9000084306432680A889298908432081BDE893
:101FA000FF87000000127A0040420F00A086010067
:101FB0000146088AC0B2704712B141F0010101E048
:101FC00001F0FE01018270470182704770B52DED6E
:101FD000048B01240FE001250AE0A9B2A0B2FFF7AB
:101FE000CFFE0646A9B2A0B2324603F05DFC6D1CDE
:101FF000502DF2D9641C302CEDD901240FE00125BD
:102000000AE0A9B2A0B2FFF7CBFE0646A9B2A0B281
:10201000324603F039FC6D1C502DF2D9641C302C73
:10202000EDD9294890ED000ADFED280A30EE200AAC
:1020300080ED000A90ED000ADFED250AB4EEE00A1B
:10204000F1EE10FA03DB9FED230A80ED000A1E4833
:102050000068FEF7B4FA41EC190BB0EE490AF0EE55
:10206000690A03F0A5FDB0EE408AF0EE608A51ECFB
:10207000180BFEF7CFFA00EE100ADFED170A20EE7C
:10208000200A164880ED000A0F480068FEF797FA0C
:1020900041EC190BB0EE490AF0EE690A03F024FD99
:1020A000B0EE408AF0EE608A51EC180BFEF7B2FAFF
:1020B00000EE100ADFED080A20EE200A084880ED45
:1020C000000ABDEC048B70BD40000020CDCCCC3D9F
:1020D00000009D4300000000000048423400002042
:1020E0003800002010B50120FEF7ECFD0020124959
:1020F00008704FF47A701149486200BF0F48406A77
:1021000018B10D4800780028F8D0FEF777FDFFF7EA
:102110005DFFFEF7ABFD03F061FCFFF7A9F9FFF7E8
:1021200033FA07490748FEF77DFF0748006808B102
:1021300003F01EFB10BD00003C00002058060020EC
:10214000003C00D0000000D02C000020F0B58BB087
:1021500004460025002600271D48008800F478402A
:10216000C5121B48007800F01F071948008800F4CA
:10217000FC604611FEF72AFE4FF440300190022029
:10218000029004960397059504F4004008B1FF20DF
:1021900000E0002006900F4800680790002008909B
:1021A0004FF4F07009904FF448700A9001A8FEF7C0
:1021B00025FEFEF795FE00BF0220FEF713FE002865
:1021C000FAD00348008800F0C3FC0BB0F0BD00005B
:1021D0004C000020500000202DE9F04F93B007463E
:1021E0008846914600BF00264FF4487078434FEA76
:1021F000400B4644494601A8FFF796FD002535E00F
:1022000005EB450001A90C5C240205EB4500401CD0
:10221000085C0443240205EB4500801C085C044371
:102220004FF0000A1BE004F4000048B11248008897
:1022300012490968022202FB061121F80B0008E08E
:102240000F4800880D490968022202FB061121F897
:102250000B00761C64000AF1010000F0FF0ABAF1DD
:10226000180FE0DB06F54276681CC5B2182DC7DBF7
:1022700013B0BDE8F08F00004C000020500000209B
:102280004E00002070B505460E461446A4F120000D
:10229000C4B207480068016805480068C088604308
:1022A00001EB40023146284600F044F870BD0000C2
:1022B000480000202DE9F04107460C4600251DE0AE
:1022C00020787E280BDC227829463846FFF7DAFF93
:1022D000174800688088284485B2641C0EE0268870
:1022E000300200EB262086B2324629463846FFF7F8
:1022F00073FF05F1180085B2A41C00BFB5F5487F37
:1023000014DA0B4800688088284480B208490968BC
:102310008988884201DB012000E00020217809B192
:10232000012100E0002108400028C9D1BDE8F0816A
:10233000480000202DE9F04104460D46134600BF39
:10234000002200BF00204FF4487767437E002844F6
:1023500000214DE000223FE0294F3F68BF884FF049
:102360000C0C97FBFCF74FEAC70C802707FA0CF719
:10237000174133F811C007EA0C0727B9204F3F680F
:10238000BF880C2F0DDD33F811704FF0010C0CFAE3
:1023900002FC07EA0C078FB9194F3F68BF880C2F62
:1023A0000CDD184F3F88DFF860C0DCF800C04FF04C
:1023B000020808FB00CC2CF806700BE0134F3F8896
:1023C000DFF844C0DCF800C04FF0020808FB00CC86
:1023D0002CF80670401C521C094F3F68BF8897427A
:1023E000BAD8074F3F68BF88C7F548773844491CBB
:1023F000034F3F68FF888F42ACD8BDE8F0810000F2
:10240000480000204E000020500000204C0000201A
:102410002DE9F04303460C461546684200216F0043
:10242000C7F1020200BF2B4F3F88A3EB000C04EB67
:1024300001084FF4487909FB08CCDFF89C80D8F8F4
:10244000008028F81C70234F3F8803EB000C04EB3E
:10245000010809FB08CCDFF88080D8F8008028F854
:102460001C701C4F3F8803EB000CA4EB010809FB18
:1024700008CCDFF86480D8F8008028F81C70154F6D
:102480003F88A3EB000CA4EB010809FB08CCDFF8A4
:102490004880D8F8008028F81C7016468E420BDC65
:1024A0004F1C39464FF0010C0CEB47073A44C84229
:1024B00002D1864200DC0026864206DD471C3846F3
:1024C0004FF0010C0CEB47073A440028ABDDBDE8A8
:1024D000F08300004C000020500000202DE9F04760
:1024E00006460F4690460320A0EB480900244546C7
:1024F00034E08DB16B041A0C7B1B99B2331B98B27C
:10250000012300F087F86B041A0C7B1B99B2331976
:1025100098B2012300F07EF88CB163041A0C3B1BC7
:1025200099B2731B98B2012300F074F863041A0C7B
:102530003B1B99B2731998B2012300F06BF8B9F103
:10254000000F04DA062000EB8400814405E0601BE4
:102550000A2101EB800081446D1E641CAC42C8D985
:10256000424639463046FFF753FFBDE8F08700008A
:102570002DE9F04F8BB005460E4614461F464FF02E
:102580000008C146C246C3462048008800F478408F
:102590004FEAE0291D48007800F01F0B1B48008817
:1025A00000F4FC604FEA601A4FF4487000FB0650DC
:1025B00017490968022202FB0018FEF707FC4FF4D6
:1025C0004030019002200290CDF810A0CDF80CB060
:1025D000CDF814900F200690CDF81C80C4F54870FB
:1025E000089009970A9401A8FEF708FCFEF778FC0A
:1025F00000BF0220FEF7F6FB0028FAD0034800884F
:1026000000F0A6FA0BB0BDE8F08F00004C000020EF
:10261000500000202DE9F04F8BB005460E461446C1
:102620001F464FF00008C146C246C3464FF44870EB
:1026300000FB065020490968022202FB00181F48CF
:10264000008800F478404FEAE0291C48007800F048
:102650001F0B1A48008800F4FC604FEA601AFEF76E
:10266000B5FB4FF44030019002200290CDF810A04D
:10267000CDF80CB0CDF814900F200690CDF81C804A
:102680002FB900200890012009900A9405E040F23B
:102690001F300890099401200A9001A8FEF7AEFBB4
:1026A000FEF71EFC00BF0220FEF79CFB0028FAD0BC
:1026B0000BB0BDE8F08F0000500000204C0000205F
:1026C0001CB5012140F2FF1001F004F90420009034
:1026D00002208DF805008DF8040000208DF806001A
:1026E0008DF807006946AF48FFF7AEFA0E220221C7
:1026F000AC48FFF7F1FA082000906946A948FFF7B7
:10270000A3FA0E220321A748FFF7E6FA4FF48070E0
:1027100000906946A348FFF797FA0E220821A148C6
:10272000FFF7DAFA0120009069469F48FFF78CFA1C
:10273000092200219C48FFF7CFFA4FF40060009077
:1027400069469A48FFF780FA0E220B219748FFF757
:10275000C3FA4FF48050009069469448FFF774FA2A
:102760000E220C219148FFF7B7FA0220009069462B
:102770008D48FFF769FA092201218B48FFF7ACFA6F
:102780004020009069468A48FFF75EFA0E22062133
:102790008748FFF7A1FA2020009069468548FFF797
:1027A00053FA0E2205218348FFF796FA4020009045
:1027B00069468048FFF748FA0E2206217D48FFF758
:1027C0008BFA4FF40050009069467648FFF73CFAC8
:1027D0000E220D217348FFF77FFA4FF480600090BE
:1027E00069467348FFF730FA09220A217048FFF75B
:1027F00073FA4FF40040009069466A48FFF724FAE4
:102800000E220F216748FFF767FA01200090694602
:102810006948FFF719FA0E2200216748FFF75CFAB2
:102820008020009069466548FFF70EFA0E220721C6
:102830006248FFF751FA0420009069465E48FFF7AE
:1028400003FA0E2202215C48FFF746FA102000909E
:1028500069465848FFF7F8F90E2204215548FFF75A
:102860003BFA4FF48050009069465148FFF7ECF96D
:102870000E220C214E48FFF72FFA402000906946A7
:102880004F48FFF7E1F90E2206214D48FFF724FAE1
:102890004FF40060009069464548FFF7D5F90E22D5
:1028A0000B214348FFF718FA102000906946424870
:1028B000FFF7CAF90E2204213F48FFF70DFA08205E
:1028C000009069463948FFF7BFF90E2203213748C7
:1028D000FFF702FA4FF48070009069463248FFF724
:1028E000B3F90E2208213048FFF7F6F94FF40070D3
:1028F000009069462C48FFF7A7F90E2209212A48C3
:10290000FFF7EAF98020009069462948FFF79CF913
:102910000E2207212648FFF7DFF94FF48060009070
:1029200069462548FFF790F90E220A212248FFF751
:10293000D3F94FF40070009069461F48FFF784F9FF
:102940000E2209211C48FFF7C7F94FF48060009060
:1029500069461C48FFF778F90E220A211948FFF74B
:10296000BBF91020009002208DF8050001208DF8A1
:10297000040000208DF8060001208DF8070069464C
:102980000F48FFF761F98020009069460C48FFF777
:102990005BF910210A48FFF7C4F980210848FFF7C6
:1029A000C0F91CBD001C02400004024000000240AF
:1029B00000180240001002400020024000080240BF
:1029C000000C0240001402400148006870470000FB
:1029D0004800002000B58FB00121880600F0DAFF22
:1029E0000121C80500F076FFFFF76AFE0020009085
:1029F0000190029003900C900D900E9004220721FC
:102A00004FF4C07001F08CF84FF4803001F076F88C
:102A1000012001F07FF800BF3D2001F04FF80028B1
:102A2000FAD00020049005902E20069017200790E1
:102A300040F24E30089040F2F710099040F26230B8
:102A40000A9040F20D200B90684600F0C3F80FB0DA
:102A500000BD000000B591B02F20019040F24E3033
:102A600002901820039040F2F71004900220059085
:102A7000FF20069000200790089009900A904FF4DC
:102A800080600B9005200C9040F243600E90C01EB9
:102A90000F904FF4F070109015480D9001A9154853
:102AA00000F069F90320059013480D904FF4C060C1
:102AB0000B9007200C9001A90E48803000F05BF9C4
:102AC000012000F0E3F901210A4800F049F9012151
:102AD0000848803000F044F9012000F0D7F9074899
:102AE00000F018F8012000F063F811B000BD0000FC
:102AF000003C00D08468014000F40BD0F4050020B5
:102B0000024A1080024A1180704700004C000020E9
:102B10004E00002001490860704700004800002076
:102B200030B90749074A11600021074A116005E0E2
:102B30000649044A11600121034A116070470000F0
:102B4000003C00D0500000205400002000F40BD0C6
:102B500001490880704700004C00002010B5044671
:102B60000848006820B92146074800F0F7F804E05B
:102B700021460548803000F0F1F8012000F086F988
:102B800010BD0000540000208468014030B10749A6
:102B9000096841F00101054A116005E0034909682F
:102BA00021F00101014A11607047000018680140DE
:102BB00030B10749096841F48031054A116005E0E8
:102BC0000349096821F48031014A1160704700000F
:102BD00018680140F0B500210022002300240025E0
:102BE00000265B4F3F68DFF86CC107EA0C07DFF88F
:102BF00060C1CCF80070078A390467463F68D0F896
:102C000014C04CEA010C47EA0C07DFF844C1CCF8C9
:102C100000700CF104073F68DFF838C107EA0C07C1
:102C2000DFF82CC10CF1040CCCF80070078B3A04CF
:102C300067463F68D0F81CC04CEA020C47EA0C0714
:102C4000DFF80CC10CF1040CCCF800700CF1040797
:102C50003F68DFF800C107EA0C07DFF8F4C00CF1A9
:102C6000080CCCF80070078C3B0467463F68D0F82E
:102C700024C04CEA030C47EA0C07DFF8D4C00CF17F
:102C8000080CCCF800700CF104073F68DFF8C4C0F2
:102C900007EA0C07DFF8B8C00CF10C0CCCF8007098
:102CA000078D3C046746D7F800C0C76A27434CEA43
:102CB000070C274F0C37C7F800C03F1D3F68DFF8EF
:102CC00098C007EA0C07DFF888C00CF1100CCCF8AC
:102CD0000070D0E9007C47EA0C07D0F808C047EA4A
:102CE0000C07D0F80CC047EA0C07DFF864C00CF101
:102CF000100CDCF800C047EA0C07DFF854C00CF1F8
:102D0000100CCCF80070476B3D02078E3E04104F4C
:102D100024373F6807F07F47DFF834C00CF1240CFC
:102D2000CCF8007046EA0507D0F838C047EA0C072F
:102D3000DFF81CC00CF1240CDCF800C047EA0C07DB
:102D4000DFF80CC00CF1240CCCF80070F0BD0000D2
:102D50000868014000F800F08F88FE0F416170475D
:102D600021B1026842F00102026003E0026822F031
:102D70000102026070472DE9F04100240025002681
:102D8000002200270023B1F804C04FEA0C44D0F819
:102D900004C00CF4704CC0F804C0D1F800C04CEA78
:102DA000040CC0F804C0B1F80CC04FEA0C45D0F8D0
:102DB00008C00CF4704CC0F808C0D1F808C04CEA48
:102DC000050CC0F808C0D0F810C02CF0070CC0F8F3
:102DD00010C0D1F810C0C0F810C0D1F81CC04FEA24
:102DE0000C26B1F820C04FEA0C4291F824C04FEAFB
:102DF0000C67D0F818C09C46C0F818C0D1F818C0AD
:102E00004CEA060C4CEA020C4CEA070CC0F818C05D
:102E1000D0F814C02CF0FF0CC0F814C0D1F814C0C6
:102E2000C0F814C0D0F81CC040F207782CEA080C97
:102E3000C0F81CC0D1E90AC84CEA080CC0F81CC094
:102E4000D0F828C09C46C0F828C0D1F830C0C0F8DF
:102E500028C0B1F838C04FEA0C43D0F82CC00CF0B1
:102E6000E02CC0F82CC0D1F834C04CEA030CC0F8F8
:102E70002CC0D0F830C06FF30A0CC0F830C0D1F8C5
:102E80003CC0C0F830C0BDE8F081000001490860D6
:102E9000704700002468014000BFFEE710B522A083
:102EA00002F0E6FDFFF790FDC08800EB400101EB6A
:102EB000001084B225A12046FFF7FCF900F05EF96E
:102EC0002C4800F0C1FB2B480078562808D100BFE1
:102ED0002848437802783D2127A002F0C9FD18E078
:102EE0004FF47C40FFF734FEFFF76EFD00242AA16B
:102EF0002046FFF7DFF900BF4721324802F0B8FD56
:102F000000BF00BF4B2130A002F0B2FD00BF00BFE8
:102F1000FEE700F061FA00F0C3FA0120FDF7EAFED7
:102F20000120FDF7CFFE10BD0D0A53544D3332463C
:102F30003432392044434D4920C7FDB6AF4F563592
:102F4000363430C0FDB3CC0D0A0000004F56353684
:102F50003430CDBCCFF1B4A6C0EDB2E2CAD4A3AC3C
:102F6000D3B2BCFEB0E6B1BEA3BABEC9B0E6463429
:102F700032390000240000203C3C2D43414D455295
:102F8000412D44454255472D3E3E205B25645D253D
:102F9000782025780D0A0A002020202020202020DB
:102FA00020C3BBD3D0BCECB2E2B5BD4F56353634EE
:102FB00030A3ACC7EBD6D8D0C2BCECB2E9C1ACBD33
:102FC000D3A1A300486D03083C3C2D43414D45521D
:102FD000412D44454255472D3E3E205B25645DCE44
:102FE000B4BCECB2E2B5BDC9E3CFF1CDB70D0A0A6E
:102FF0000000000010B5FFF7EDFCFFF72BFD0120EE
:10300000FFF7C4FD0020FFF78BFDFF20FFF7A6FDB3
:103010004FF40040FFF79AF80120FFF781FDFF20F1
:10302000FFF79CFD47F6FF70FFF790F810BD704763
:1030300008B54FF4C06000F051F806208DF800008C
:1030400001208DF801008DF802008DF8030068461C
:1030500000F008F828208DF80000684600F002F81B
:1030600008BD000070B5002100230F22C4781CB3F6
:10307000174C246804F4E064C4F5E064C4F3072149
:10308000C1F10404E3B20A4144789C40E1B284787F
:10309000144021430C07210E0E4C0578615504782D
:1030A00004F01F050124AC4005786D11AD0005F159
:1030B000E025C5F8004109E0047804F01F0501246B
:1030C000AC40054D0678761145F8264070BD0000ED
:1030D0000CED00E000E400E080E100E00249014383
:1030E000024A1160704700000000FA050CED00E094
:1030F00030B58FB004460D460121880500F0EAFB8B
:1031000000211C48FEF710F800BF1A48FEF7CFF860
:103110000028FAD14FF000700090174801900294F7
:1031200000200390049505904FF480600690800085
:10313000079040000890401109904FF440300A90E9
:1031400004200B9003200C904FF080700D90002015
:103150000E9069460748FEF705F901210548FDF77D
:10316000E3FF00BF0348FEF7A2F80128FAD10FB031
:1031700030BD0000286402402800055000B587B02B
:1031800088A002F075FC012140F2C91000F0A2FBFA
:103190002020059002208DF8180003208DF81900DA
:1031A00000208DF81A0001208DF81B0005A9824827
:1031B000FEF74AFD0D2205217F48FEF78DFD102008
:1031C000059005A97D48FEF73FFD0D2204217B48AF
:1031D000FEF782FD4020059005A97848FEF734FDF2
:1031E0000D2206217548FEF777FD4FF4007005901B
:1031F00005A97348FEF728FD0D2209217048FEF746
:103200006BFD4FF48060059005A96D48FEF71CFD2D
:103210000D220A216A48FEF75FFD4FF40060059019
:1032200005A96748FEF710FD0D220B216448FEF743
:1032300053FD4FF48050059005A96148FEF704FD49
:103240000D220C215E48FEF747FD4FF480400590AB
:1032500005A95B48FEF7F8FC0D220E215848FEF741
:103260003BFD0820059005A95648FEF7EDFC0D2210
:1032700003215448FEF730FD4020059005A94E4833
:10328000FEF7E2FC0D2206214B48FEF725FD8020CB
:10329000059005A94848FEF7D7FC0D2207214648AE
:1032A000FEF71AFD01208DF8180000208DF8190096
:1032B0008DF81A0001208DF81B000820059005A943
:1032C0004148FEF7C1FC0420059005A93E48FEF7E1
:1032D000BBFC04213C48FEF722FD08213A48FEF7DA
:1032E00020FD0A20FEF7B8F808213748FEF717FD41
:1032F0000A20FEF7B1F804213348FEF712FD012140
:10330000480500F027FB0121022000F0E3FA042227
:1033100006212E48FEF7E0FC042207212B48FEF789
:10332000DBFC4020059002208DF8180000208DF86D
:10333000190001208DF81A0000208DF81B0005A946
:103340002248FEF781FC042206212048FEF7C4FC37
:103350008020059005A91D48FEF776FC1C48FEF765
:103360006BFD0020ADF808004BF6FF70ADF80A00C9
:10337000FE20ADF80C004FF48060ADF80E000001A7
:10338000ADF810001348019001A91148FEF79CFD0B
:1033900001210F48FEF743FD3220FEF75DF807B02C
:1033A00000BD00000D0AB3F5CABCBBAF4750494F82
:1033B000BACD4949430D0A000020024000000240F6
:1033C000001C0240000C02400018024000040240B1
:1033D00000540040801A060010B586B0012108464E
:1033E00000F098FA0220ADF808000020ADF80A00BD
:1033F0002020ADF80C008020ADF80E000020ADF8C4
:103400001000ADF81200ADF8140002A8FDF7BEFCE4
:103410001E4A12885400E21704EB927291101C4A63
:103420001288521E1B4B1B885A431B4B03EB420056
:10343000FFF75EFE4FF4C060FFF750FE39208DF8B5
:10344000040000208DF8050001208DF806008DF89D
:10345000070001A8FFF706FE012210210F48FDF723
:1034600063FF4E208DF8040000208DF80500012038
:103470008DF806008DF8070001A8FFF7F3FD012184
:103480000846FDF771FC06B010BD00005E0000208C
:103490005C0000205A000020000000D02864024098
:1034A00038B504215248FEF73AFC0220FDF7D4FF5C
:1034B00004214F48FEF735FC1E20FDF7CDFF00F03C
:1034C0008BF91E20FDF7C8FF002423E0494A02EBD8
:1034D00084029178474A32F8240000F085F9454982
:1034E00031F8240000F0C8F8434921F8140000BF67
:1034F000084630F8140000903E4800EB84004388F2
:103500003C4830F8242040F2B3313CA002F0B0FA3D
:1035100000BF641CD02CD9D34FF4FA70FDF79CFF88
:103520000520434908700846007806284FD2DFE896
:1035300000F0034E1221303F002409E03D4A02EB27
:10354000840291783B4A32F8240000F04DF9641C63
:103550000B2CF3D34AE0002409E0374A02EB840243
:103560009178354A32F8240000F03EF9641C0B2CA7
:10357000F3D33BE0002409E0304A02EB8402917867
:103580002E4A32F8240000F02FF9641C2A2CF3D3C1
:103590002CE0002409E02A4A02EB84029178284AB0
:1035A00032F8240000F020F9641C2A2CF3D31DE02B
:1035B000002409E0234A02EB84029178214A32F880
:1035C000240000F011F9641C2A2CF3D30EE000242F
:1035D00009E01A4A02EB84029178184A32F8240072
:1035E00000F002F9641C2A2CF3D300BF00BF38BDE1
:1035F0000018024062000020E42400203C3C2D43DF
:10360000414D4552412D44454255472D3E3E205B9C
:1036100025645D73656E736F725F7265675B30788A
:1036200025785D3A25782D25780D0A0A00000000DE
:1036300058000020A2030020CE030020FA0300203F
:10364000A20400204A05002010B5044606A002F09E
:103650000FFA43F20A0000F00FF8207043F20B005B
:1036600000F00AF8607010BD0D0AB6C1C9E3CFF1D1
:10367000CDB749440D0A000070B5054642F21074FA
:10368000002601215148FEF707FC00BF05E0201E7F
:10369000A4F1010401D1FF2070BD4D494B48FEF754
:1036A000A9FB0028F3D0002278214848FEF784FCCB
:1036B00042F2107405E0201EA4F1010401D1FF20A4
:1036C000EAE744494148FEF795FB0028F3D0290A70
:1036D0003E48FEF779FC42F2107405E0201EA4F18A
:1036E000010401D1FF20D7E73A49891C3748FEF78A
:1036F00081FB0028F2D035481430008840F4806007
:10370000324914310880E9B23048FEF75DFC42F2DC
:10371000107405E0201EA4F1010401D1FF20BBE7D5
:103720002C49891C2948FEF765FB0028F2D0274860
:103730001430008840F4806024491431088001214D
:103740002248FEF7A9FB42F2107405E0201EA4F106
:10375000010401D1FF209FE71D491C48FEF74AFBE9
:103760000028F3D0012278211848FEF725FC42F208
:10377000107405E0201EA4F1010401D1FF208BE7A5
:103780001349491C1148FEF735FB0028F2D00021EF
:103790000E48FEF723FB42F2107405E0201EA4F150
:1037A000010401D1FF2077E709493F310748FEF7BF
:1037B00021FB0028F2D001210448FEF779FB0348E1
:1037C000FEF7F6FB0646304666E700000054004070
:1037D000010003008200070010B5802143F20800B9
:1037E00000F002F810BD000070B505460E4642F22A
:1037F000107401213348FEF74FFB00BF05E0201E87
:10380000A4F1010401D1FF2070BD2F492D48FEF71E
:10381000F1FA0028F3D0002278212A48FEF7CCFBE9
:1038200042F2107405E0201EA4F1010401D1FF2032
:10383000EAE726492348FEF7DDFA0028F3D0290AF3
:103840002048FEF7C1FB42F2107405E0201EA4F1EF
:10385000010401D1FF20D7E71C49891C1948FEF754
:10386000C9FA0028F2D0E9B21648FEF7ADFB42F2E1
:10387000107405E0201EA4F1010401D1FF20C3E76C
:103880001249891C0F48FEF7B5FA0028F2D03146DC
:103890000C48FEF799FB42F2107405E0201EA4F1DB
:1038A000010401D1FF20AFE70849891C0548FEF754
:1038B000A1FA0028F2D001210248FEF7F9FA00200F
:1038C000A2E700000054004001000300820007004E
:1038D0007047000029B1064A12680243044B1A607F
:1038E00004E0034A12688243014B1A6070470000EB
:1038F0003038024029B1064A12680243044B1A606C
:1039000004E0034A12688243014B1A6070470000CA
:103910001038024029B1064A12680243044B1A606B
:1039200004E0034A12688243014B1A6070470000AA
:103930003438024029B1064A12680243044B1A6027
:1039400004E0034A12688243014B1A60704700008A
:103950003838024029B1064A12680243044B1A6003
:1039600004E0034A12688243014B1A60704700006A
:103970004038024029B1064A12680243044B1A60DB
:1039800004E0034A12688243014B1A60704700004A
:103990002038024029B1064A12680243044B1A60DB
:1039A00004E0034A12688243014B1A60704700002A
:1039B0004438024029B1064A12680243044B1A6097
:1039C00004E0034A12688243014B1A60704700000A
:1039D00024380240F0B500210022002402250026F0
:1039E0000223324F3F6807F00C0121B1042905D0B2
:1039F000082937D105E02E4F076036E02D4F0760CC
:103A000033E02A4F3F1F3F68C7F38056274F3F1FC1
:103A10003F6807F03F036EB1264FB7FBF3F7DFF8BF
:103A20008CC0ACF1040CDCF800C0CCF3881C07FBA4
:103A30000CF40CE01E4FB7FBF3F7DFF870C0ACF1ED
:103A4000040CDCF800C0CCF3881C07FB0CF4174F07
:103A50003F1F3F68C7F301477F1C7D00B4FBF5F7AC
:103A6000076002E0124F076000BF00BF0F4F3F68C2
:103A700007F0F0010909104F7A5C0768D7404760EA
:103A80000A4F3F6807F4E051890A0B4F7A5C476898
:103A9000D7408760054F3F6807F46041490B064FE8
:103AA0007A5C4768D740C760F0BD00000838024024
:103AB0000024F40040787D011400002010B5014678
:103AC0000022002300204A11012A02D10A4C236857
:103AD00008E0022A03D1084C7034236802E0064C47
:103AE0007434236801F01F02012494401C400CB17F
:103AF000012000E0002010BD0038024001460020F7
:103B0000034A106820F440300843106070470000FA
:103B10008C380240014908677047000000004742A6
:103B200010B5830143EA016343EA0273014C236049
:103B300010BD000088380240422101704D214170C3
:103B4000362181702D21C170002101714171817177
:103B5000C17101724172362181720021C1720173FB
:103B60004173282181730021C17301744174502174
:103B700081740021C1740175417530218175002166
:103B8000C1750176417681760121C17618210177D0
:103B9000002141778177C17780F8201080F82110CB
:103BA00080F822102D2180F82310002180F82410A5
:103BB00080F8251080F8261080F8271080F828104B
:103BC00080F8291080F82A1080F82B1080F82C102B
:103BD00080F82D1080F82E1080F82F1080F830100B
:103BE00080F8311080F8321080F8331080F83410EB
:103BF00080F835107047000010B5ADF5825DFCF718
:103C000075FE012216A104A804F0AEF904460D2C9D
:103C100020D114A001F02CFF0022114610A003F0C7
:103C200061FE04467CB91AA001F022FF01220CA11A
:103C3000002004F099F90446012209A104A804F027
:103C400093F9044609E01AA001F012FF00200DF5D7
:103C5000825D10BD1CA001F00BFF0120F7E7000002
:103C6000303A0000A1B75344BFA8BBB9C3BBD3D0FF
:103C7000CEC4BCFECFB5CDB3A3ACBCB4BDABBDF818
:103C8000D0D0B8F1CABDBBAF2E2E2E0D0A00000059
:103C9000A1B75344BFA8D2D1B3C9B9A6B8F1CABD20
:103CA000BBAFCEC4BCFECFB5CDB3A1A30D0A0000FF
:103CB000A1B6A1B6B8F1CABDBBAFCAA7B0DCA1A37B
:103CC000A1B7A1B70D0A0000A1B75344BFA8B9D24C
:103CD000D4D8B3C9B9A60D0A000000007CB50546CA
:103CE000002400200090019000F0EAF800F000703D
:103CF00010B10E2420467CBD3D49098888B2694632
:103D0000FDF7D8FE04460CB12046F4E7012D36D16C
:103D1000019800F4802000282ED035480088000447
:103D20003449086037204860402088600020C8601F
:103D3000A8020861084600F001F93720FCF70EFEE2
:103D400004460CB12046D6E702202A490860062026
:103D50004860402088600020C8604FF4806008619F
:103D6000084600F0EBF80620FCF7F8FD04460CB11D
:103D70002046C0E72046BEE725242046BBE7019841
:103D800000F4803078B31A480088000419490860AC
:103D900037204860402088600020C8604FF4806071
:103DA0000861084600F0CAF83720FCF7D7FD044642
:103DB0000CB120469FE700200E49086006204860AD
:103DC000402088600020C8604FF480600861084689
:103DD00000F0B4F80620FCF7C1FD04460CB1204603
:103DE00089E7204687E7FFE72524204683E7000090
:103DF00024060020282700200149086070470000A1
:103E0000382C01400149086070470000382C0140FF
:103E10000149086070470000A08025420149086000
:103E2000704700008C85254200210B4B02681A6008
:103E30001B1D42681A601A1D116821F0F701D0E9B4
:103E400002231A4303691A4343691A431143024A7E
:103E50000832116070470000242C014010B5012188
:103E6000C802FFF7A7FD00214FF40060FFF7A2FD95
:103E700010BD000001480068C0B27047102C01401E
:103E800001460020034A12680A400AB1012000E0FE
:103E900000207047342C014001460020034A12687C
:103EA0000A400AB1012000E000207047342C014094
:103EB0000248006800F0030070470000002C014039
:103EC00008B5014600200090024808440090009880
:103ED000006808BD142C014010B500F089FF10BD2A
:103EE00029B1064A12680243044B1A6004E0034AEF
:103EF00012688243014B1A60704700003C2C01405D
:103F000000210A4A116847F6FF629143027D8368E7
:103F10001A4343681A43C3681A4303681A43036980
:103F20001A431143014A116070470000042C0140FC
:103F30000148006870470000802C01400021094BB7
:103F400002681A601A1D11686FF30A01D0E9012393
:103F50001A43C3681A4303691A431143014A121DE5
:103F600011607047082C014001490860704700004B
:103F7000002C01401CB50121FC20FFF7ABFC022006
:103F80008DF804008DF8050000208DF806008DF8EE
:103F90000700012000906946D948FDF755FE0C2224
:103FA0000021D748FDF798FE022000906946D448CA
:103FB000FDF74AFE0C220121D148FDF78DFE0420B9
:103FC00000906946CE48FDF73FFE0C220221CC4806
:103FD000FDF782FE082000906946C948FDF734FECF
:103FE0000C220321C648FDF777FE10200090694699
:103FF000C348FDF729FE0C220421C148FDF76CFEE1
:10400000202000906946BE48FDF71EFE0C220521C7
:10401000BB48FDF761FE4FF4805000906946B848F8
:10402000FDF712FE0C221146B548FDF755FE4FF480
:10403000005000906946B248FDF706FE0C220D21A3
:10404000AF48FDF749FE4FF4804000906946AC4808
:10405000FDF7FAFD0C220E21A948FDF73DFE4FF4B5
:10406000004000906946A648FDF7EEFD0C220F21A6
:10407000A348FDF731FE012000906946A148FDF7F5
:10408000E3FD0C2200219F48FDF726FE0220009050
:1040900069469C48FDF7D8FD0C2201219948FDF79F
:1040A0001BFE4FF48040009069469748FDF7CCFD19
:1040B0000C220E219448FDF70FFE4FF400400090B3
:1040C00069469148FDF7C0FD0C220F218E48FDF78F
:1040D00003FE0120009069468B48FDF7B5FD0C22D8
:1040E00000218948FDF7F8FD0220009069468648C6
:1040F000FDF7AAFD0C2201218348FDF7EDFD80208C
:10410000009069468148FDF79FFD0C2207217F48FA
:10411000FDF7E2FD4FF48070009069467B48FDF7A3
:1041200093FD0C2208217948FDF7D6FD4FF400706D
:10413000009069467548FDF787FD0C2209217348F8
:10414000FDF7CAFD4FF48060009069466F48FDF7A7
:104150007BFD0C220A216D48FDF7BEFD4FF4006087
:10416000009069466948FDF76FFD0C220B216748F6
:10417000FDF7B2FD4FF48050009069466348FDF7AB
:1041800063FD0C2211466148FDF7A6FD4FF4005077
:10419000009069465D48FDF757FD0C220D215B48F4
:1041A000FDF79AFD4FF48040009069465748FDF7AF
:1041B0004BFD0C220E215548FDF78EFD4FF40040BB
:1041C000009069465148FDF73FFD0C220F214F48F2
:1041D000FDF782FD4FF48070009069464A48FDF774
:1041E00033FD0C2208214848FDF776FD4FF400709E
:1041F000009069464448FDF727FD0C2209214248FA
:10420000FDF76AFD4FF48060009069463E48FDF777
:104210001BFD0C220A213C48FDF75EFD402000906A
:1042200069463B48FDF710FD0C2206213848FDF792
:1042300053FD1020009069463248FDF705FD0C2221
:1042400004213048FDF748FD2020009069462D48A4
:10425000FDF7FAFC0C2205212A48FDF73DFD01205F
:10426000009069462B48FDF7EFFC0C2200212948FD
:10427000FDF732FD4FF40060009069462048FDF7DD
:10428000E3FC0C220B211E48FDF726FD4FF40040F5
:10429000009069461B48FDF7D7FC0C220F211948F6
:1042A000FDF71AFD4FF48070009069461548FDF740
:1042B000CBFC0C2208211348FDF70EFD8020009056
:1042C00069461348FDF7C0FC0C2207211048FDF792
:1042D00003FD0220009069460C48FDF7B5FC0C2256
:1042E00001210A48FDF7F8FC0120009069460748C3
:1042F000FDF7AAFC0C2200210448FDF7EDFC1CBDD3
:104300000014024000180240000C0240001002405D
:10431000001C02400008024000B593B0FFF72AFEDF
:1043200001210846FFF706FB0220019007200290BA
:104330000420039007200490022005900690079027
:10434000012008900020099004200A9010200B9072
:1043500040200C904FF4C0700D9000200E904FF450
:1043600000600F90002010904FF40050119001A8B1
:10437000129008A8FDF7F0FA00F002F813B000BDA3
:104380001FB5002401200090082001900120029018
:104390000020039000BF20210120FDF7A9FA00288A
:1043A000F9D16846FDF7C8FA0A2000F04DF802205E
:1043B000009008200190012002900020039000BF8F
:1043C00020210120FDF794FA0028F9D16846FDF775
:1043D000B3FA0320009008200190042002900020EE
:1043E000039000BF20210120FDF782FA0028F9D1B7
:1043F0006846FDF7A1FA00BF20210120FDF778FAF9
:104400000028F9D16846FDF797FA40F231240420DC
:1044100000900820019001200290039400BF202109
:104420000120FDF765FA0028F9D16846FDF784FA06
:1044300040F26A50FDF732FB00BF20210120FDF75A
:1044400057FA0028F9D11FBD01B581B000200090B6
:10445000054901984843009002E00098401E0090F2
:1044600000980028F9D10CBDA086010008B50120F4
:1044700000909DF8000008BD70B504460025204856
:104480000068032802D12725284670BD1C48006813
:1044900038B11B480068012803D019480068022879
:1044A0002CD1B4F5805F02D127252846EDE7B4F57D
:1044B000006F13D10120FFF711FC0546F5B900206C
:1044C000104908750860486088604FF40060C86053
:1044D000002008610846FFF713FD0FE00020FFF7FA
:1044E000FDFB054655B9002006490875086048607F
:1044F0008860C86008610846FFF702FD2846C4E7E7
:104500002006002010270020F0B5014600200022E0
:10451000C04B1B7881F85630BF4B1B88A1F8543034
:10452000BE4B1B681A0E93090B70C2F383034B70CA
:1045300002F003038B70B94B1B68C3F30742CA70C8
:10454000B64B1B88C3F307220A71B44B1A784A7121
:104550005B681A0E1301CB80B04B5B68C3F3074254
:10456000CB8843EA1213CB8002F00F030B72AB4BE4
:104570009B88C3F30722D3094B72C2F380138B725B
:10458000C2F34013CB72C2F300130B7300234B73BF
:10459000A04B1B681BB19F4B1B68012B4FD193078E
:1045A0001B0D0B619D4B1A790B6943EA82030B616A
:1045B0009A4B9B681A0E0B6943EA92130B61C2F384
:1045C000C2030B7502F007034B75944B9B68C3F352
:1045D000074253098B75C2F38203CB7593075B0FB8
:1045E0000B768E4B1B89C3F307220B7E43EAD21353
:1045F0000B760B695B1C0024C1E912340B7ED1E9F8
:1046000012469B1C012505FA03F3DF17A4FB035C8C
:1046100006FB03C304FB0733C1E912530C7A0123E1
:10462000A3400B650027D1E912560B6DA5FB034C87
:1046300006FB03C305FB0733C1E9124336E0754BA4
:104640001B68022B32D1754B1A7993069B0A0B61BA
:10465000724B9B681A0E0B6943EA02230B616F4B86
:104660009B68C3F307420B6913430B616B4B1B89B8
:10467000C3F307220B6900245B1C44EB04074FF4CF
:1046800000760025A3FB064C07FB06C603FB056668
:104690004FF480650027A4FB053C06FB05C504FB21
:1046A0000754C1E912344FF400730B65C2F3801351
:1046B00001F8193F93065B0E4B70584B1A7A4B78F2
:1046C00043EAD2134B7002F07F038B70534BDB68CD
:1046D0001A0ED309CB70C2F341130B71C2F38203DC
:1046E0004B7193071B0F8B714C4BDB68C3F3074275
:1046F0008B7943EA92138B71C2F34013CB71002381
:104700000B7202F001034B72444B9B89C3F30722E7
:10471000D3098B72C2F38013CB72C2F340130B73B5
:10472000C2F300134B73C2F381038B7302F00303D4
:10473000CB733A4B1A7B53080B7401234B74384BE1
:104740001B681A0ECA741939354B1B68C3F307422C
:104750001402CC85324B1B88C3F30722CB8D134345
:10476000CB852F4B1A7814060C635B681A0E0B6B03
:1047700043EA02440C632A4B5B68C3F307420B6BAA
:1047800043EA02240C63264B9B88C3F307220B6B7E
:1047900013430B63224B1A7934235A54204B9B68E2
:1047A0001A0E35235A541E4B9B68C3F30742140656
:1047B0008C631B4B1B89C3F307228B6B43EA0244B8
:1047C0008C63174B1A7A8B6B43EA02248C63144B6D
:1047D000DB681A0E8B6B13438B63114BDB68C3F3DF
:1047E00007423C235B5C43EA12143C235C541307EE
:1047F0001C0DCC870A4B9B89C3F30722CB8F134335
:10480000CB87074B1A7B540840235C540124412377
:104810005C54F0BD200600202406002088260020DD
:104820009826002008B500200090FFF71FFE012801
:1048300009D1684600F0CAFB08B1FF2008BD009806
:10484000C0F34320FAE7FF20F8E710B50424FFF790
:10485000E9FF0446042C01D1002010BDFF2C01D13A
:104860000220FAE70120F8E71CB5002001904FF480
:10487000C060FEF733FC31208DF8000001208DF878
:10488000010000208DF8020001208DF80300684629
:10489000FEF7E8FB3B208DF8000001208DF80100B9
:1048A0006846FEF7DFFB00F06DF9FFF7D7FA00F07E
:1048B000BBF901909DF8040010B19DF804001CBDE7
:1048C00000F032F801909DF8040010B19DF804004A
:1048D000F5E7002012490875086048608860C860E4
:1048E00008610846FFF70CFB0E48FFF70DFE01902C
:1048F0009DF8040040B90B48B0F85400020410467B
:10490000002100F047FB01909DF8040020B94FF40E
:104910000060FFF7B1FD01909DF80400CFE70000B3
:1049200010270020B826002038B500240120009070
:10493000FFF7BEFA10B92524204638BD4448006868
:10494000042828D000204349086002204860C02085
:1049500088600020C8604FF4806008610846FFF757
:10496000EDFAFCF795F804460CB12046E5E7002087
:10497000FFF7A6FA384908600420FFF7A1FA364984
:1049800048600820FFF79CFA334988600C20FFF745
:1049900097FA3149C8602E48006858B12C48006821
:1049A000012807D02A480068062803D02848006854
:1049B000022816D1002027490860032048604020C3
:1049C00088600020C8604FF4806008610846FFF7E7
:1049D000B5FA69460320FCF79DF804460CB1204661
:1049E000ABE71B48006804282ED0BDF800001B4927
:1049F0000860BDF8000000041649086009204860FE
:104A0000C02088600020C8604FF4806008610846BC
:104A1000FFF794FAFCF73CF804460CB120468CE70B
:104A20000020FFF74DFA0E4908600420FFF748FA0E
:104A30000B4948600820FFF743FA094988600C20B9
:104A4000FFF73EFA0649C8600024204675E70000DB
:104A50002006002028270020982600202406002079
:104A60008826002030B58FB004460D464FF0FA512D
:104A70001E48FCF725FB00211C48FCF755FB1B4892
:104A8000FCF75EFB4FF00060009019480190029423
:104A90000020039001200490002005904FF48060D6
:104AA00006908000079080000890002009904FF445
:104AB00040300A9004200B9003200C904FF400002B
:104AC0000D9080100E9069460848FCF74BFC0122BF
:104AD00010210648FCF728FC20210448FCF7DCFBE9
:104AE00001210248FCF720FB0FB030BD58640240A2
:104AF000802C014030B58FB004460D464FF0FA517E
:104B00001E48FCF7DDFA00211C48FCF70DFB1B4892
:104B1000FCF716FB4FF000600090194801900294DA
:104B20004020039001200490002005904FF4806005
:104B300006908000079080000890002009904FF4B4
:104B400040300A9004200B9003200C904FF400009A
:104B50000D9080100E9069460848FCF703FC012276
:104B600010210648FCF7E0FB20210448FCF794FBE9
:104B700001210248FCF7D8FA0FB030BD586402405A
:104B8000802C01401CB501210C20FEF7A3FE0C2255
:104B900008212348FDF7A0F80C2209212048FDF741
:104BA0009BF80C220A211E48FDF796F80C220B21D7
:104BB0001B48FDF791F80C2211461948FDF78CF8B7
:104BC0000C2202211748FDF787F84FF4706000901F
:104BD00002208DF805008DF8040000208DF80600F5
:104BE00001208DF8070069460D48FDF72DF80420D7
:104BF000009069460B48FDF727F84FF4805000906D
:104C000000208DF8070069460548FDF71DF80121D1
:104C1000C802FEF7BFFE01218805FEF75BFE1CBD42
:104C200000080240000C0240F8B50020009000256A
:104C300000240026002776205F49087500200860C0
:104C400048608860C86008610846FFF759F903208A
:104C5000FFF78AF90120FFF7DBF8002057490860C9
:104C600048608860C8604FF4806008610846FFF7BC
:104C700065F9FBF75DFE00909DF8000010B19DF80E
:104C80000000F8BD4FF4D5704C490860082048601A
:104C9000402088600020C8604FF4806008610846AA
:104CA000FFF74CF9FBF784FF00909DF8000020B956
:104CB000012043490860870712E000203F4908604F
:104CC00037204860402088600020C8604FF4806032
:104CD00008610846FFF732F93720FBF73FFE0090E6
:104CE0000020364908603720486040208860002056
:104CF000C8604FF4806008610846FFF71FF937204D
:104D0000FBF72CFE00909DF80000002851D13BE0FD
:104D100000202A4908603720486040208860002031
:104D2000C8604FF4806008610846FFF707F9372034
:104D3000FBF714FE00909DF8000010B19DF80000F4
:104D40009FE7204838431D490860292048604020DB
:104D500088600020C8604FF4806008610846FFF753
:104D6000EDF8FBF7BBFE00909DF8000010B19DF838
:104D7000000086E70020FFF7A3F80546012080EA3F
:104D8000D57080F00106641C1EB94FF6FF70844296
:104D9000BED34FF6FF70844204D31B2000909DF8D1
:104DA00000006EE705F08040051E02D00220044995
:104DB00008609DF8000064E71027002028270020E5
:104DC000200600200000108010B50748006800F0A1
:104DD000C05040B10120054908604FF0C25102485F
:104DE0005830FCF76DF910BD006402403406002015
:104DF00010B54FF48070FFF74FF850B100202549EF
:104E000008704FF48070FEF7FDFF01202249086012
:104E100037E00220FFF740F830B10220FEF7F2FF42
:104E200002201C4908702CE00820FFF735F830B14B
:104E30000820FEF7E7FF04201649087021E0202033
:104E4000FFF72AF830B12020FEF7DCFF06201149D9
:104E5000087016E01020FFF71FF830B11020FEF7A1
:104E6000D1FF05200B4908700BE04FF40070FFF7ED
:104E700013F830B14FF40070FEF7C4FF0720054966
:104E8000087000214CF23A30FFF72AF80148007808
:104E900010BD00002C060020300600202DE9F04750
:104EA000814614461D46DDE9086800270020324986
:104EB00008703249086001203149086000203149FA
:104EC0000860012140F22A30FFF70AF808FB06F1DA
:104ED0004846FFF7C7FD0120FEF7A0FF2A480068FB
:104EE000022808D106020202002320462946FBF7C9
:104EF0007DF904460D462548066010202349486088
:104F0000402088600020C8604FF480600861084637
:104F1000FFF714F81020FBF721FD074617B13846BC
:104F2000BDE8F0874FF0FF301949086008FB06F034
:104F30004860902088600220C8600020086101203D
:104F400048610846FEF770FF1048046012200F49C0
:104F50004860402088600020C8604FF4806008618D
:104F60000846FEF7EBFF1220FBF7F8FC07460FB1EF
:104F70003846D5E73846D3E72C0600203006002017
:104F8000280600202C2C0140200600202827002085
:104F90003C27002070B504460D4600260A480460F0
:104FA000072009494860402088600020C8604FF40D
:104FB000806008610846FEF7C1FF0720FBF7CEFCC2
:104FC0000646304670BD00002827002070B5044614
:104FD000002514B92625284670BD0F480088000416
:104FE0000E4908600D204860402088600020C8609D
:104FF0004FF4806008610846FEF7A0FF0D20FBF724
:10500000ADFC05460DB12846E6E70020FEF758FF47
:1050100020602846E0E70000240600202827002022
:1050200010B5002400200A4908600C204860402088
:1050300088600020C8604FF4806008610846FEF771
:105040007DFF0C20FBF78AFC0446204610BD0000C3
:105050002827002070B500256C1E00E0641E18484B
:10506000006838B91748006820B91748007808B9AF
:10507000002CF3D1002012490860441E00E0641E99
:105080001248006800F4005008B1002CF7D1104815
:105090000068012805D1FFF7C3FF054600200C4931
:1050A00008600CB905B9042540F2FF50FEF7A4FED4
:1050B0000548007810B10448007870BD2846FCE728
:1050C00034060020300600202C060020342C01403D
:1050D0002806002070B500256C1E00E0641E1848EC
:1050E000006838B91748006820B91748007808B92F
:1050F000002CF3D1002012490860441E00E0641E19
:105100001248006800F4805008B1002CF7D1104814
:105110000068012805D1FFF783FF054600200C49F0
:1051200008600CB905B9042540F2FF50FEF764FE93
:105130000548007810B10448007870BD2846FCE7A7
:1051400034060020300600202C060020342C0140BC
:10515000280600202DE9F047814615461E46DDE968
:105160000878002400204949087049490860012056
:1051700048490860002048490860012140F21A307F
:10518000FEF7AEFE08FB07F14846FFF7B3FC01202F
:10519000FEF744FE41480068022808D107020202D7
:1051A000002328463146FBF721F805460E463C48C9
:1051B000076010203A494860402088600020C8609D
:1051C0004FF4806008610846FEF7B8FE1020FBF738
:1051D000C5FB044614B12046BDE8F087314800887D
:1051E00000042F4908603720486040208860002074
:1051F000C8604FF4806008610846FEF79FFE3720C4
:10520000FBF7ACFB04460CB12046E5E72448C0F8A8
:105210000080172022494860402088600020C86034
:105220004FF4806008610846FEF788FE1720FBF700
:1052300095FB04460CB12046CEE7194805601920BD
:1052400017494860402088600020C8604FF48060A3
:1052500008610846FEF772FE1920FBF77FFB044643
:105260000CB12046B8E74FF0FF300F49086008FB4B
:1052700007F04860902088600020C8600861012025
:1052800048610846FEF7D0FD2046A5E72C06002021
:1052900030060020280600202C2C0140200600208B
:1052A00028270020240600203C27002021B1028866
:1052B00042F04002028004E002884FF6BF731A40B9
:1052C0000280704770B505460C4616464FF4807054
:1052D0000F494883032000F091F8C4F3074000F021
:1052E0008DF8C4F3072000F089F8E0B200F086F8EA
:1052F00004E0FF2000F082F828706D1C301EA6F13B
:1053000001018EB2F5D14FF480700149088370BD60
:105310000020024000B587B001214FF48170FEF7F4
:10532000D9FA0121C803FEF715FB062203213048F4
:10533000FCF7D2FC062204212D48FCF7CDFC062206
:1053400005212B48FCF7C8FC0820009002208DF8AE
:1053500005008DF8040000208DF8060003208DF86C
:10536000050000208DF8070069462148FCF76CFC19
:105370001020009069461E48FCF766FC2020009033
:1053800069461B48FCF760FC4FF4807000900120D8
:105390008DF8040069461748FCF756FC4FF48070FE
:1053A000144908830020ADF808004FF48270ADF86E
:1053B0000A000020ADF80C000220ADF80E0001201C
:1053C000ADF810004002ADF812000820ADF814004E
:1053D0000020ADF816000720ADF8180002A9064815
:1053E00000F056F801210448FFF760FF07B000BD48
:1053F0000004024000200240003C004010B504467A
:105400004FF48050194908600AE018490868411EA5
:10541000164A116020B9002000F058F8C0B210BD43
:105420000221134800F026F80028EED0214610484B
:1054300000F02CF84FF480500C4908600AE00B494A
:105440000868411E094A116020B9012000F03EF8A9
:10545000C0B2E4E70121064800F00CF80028EED0C5
:10546000034800F010F8C0B2D9E700001806002089
:10547000003C00400246002013890B400BB1012084
:1054800000E000207047014688897047818170479D
:1054900010B50022028802F441520B884C88234345
:1054A0008C882343CC8823430C8923434C89234392
:1054B0008C892343CC8923431A430280838B4FF288
:1054C000FF74234083830B8A038210BD10B504460A
:1054D000214602A000F0CCFA002010BD3C3C2D4635
:1054E0004C4153482D4552524F522D3E3E20535071
:1054F0004920B5C8B4FDB3ACCAB1216572726F72F0
:10550000436F6465203D2025640A00007047000059
:1055100030B500228B071C0F0F2303FA04F20B4B4C
:105520008C1053F824309343084C8D1044F82530E8
:1055300023468C1053F824308C07240F00FA04F40F
:105540002343024C8D1044F8253030BD083801400B
:105550000CB50020019000904148006840F4803074
:105560003F49086000BF3E48006800F400300090EA
:105570000198401C0190009818B90198B0F5A04F0F
:10558000F1D13748006800F4003010B101200090DC
:1055900001E0002000900098012860D130484030A0
:1055A000006840F080502E49403108602D48006866
:1055B00040F440402B4908602948083000682849D9
:1055C000083108600846006840F40040086008465A
:1055D000006840F4A05008602348091F0860081FB5
:1055E000006840F08070091F086000BF1C48006818
:1055F00000F000700028F9D01A48006840F48030AC
:105600001849086000BF1748406800F4803000283F
:10561000F9D01448006840F400301249086000BF17
:105620001048406800F400300028F9D040F20570BE
:105630000E4908600A480830006820F00300084955
:10564000083108600846006840F00200086000BFAA
:1056500003480830006800F00C000828F8D10CBDA1
:105660000038024000700040195A4007003C0240D8
:1056700010B500F0FDF800240CE0084850F82400B4
:1056800030B1064850F82400401E044941F8240077
:10569000601CC4B20A2CF0DB10BD000058060020CC
:1056A00030B5164800684FF47A72B0FBF2F1481E2C
:1056B000B0F1807F01D301201BE0481E4FF0E022B3
:1056C000506150170F22002807DA13071D0E0C4BEC
:1056D00000F00F04241F1D5503E013071C0E094B97
:1056E0001C5400BF00204FF0E022906107201061A1
:1056F000002008B100BFFEE730BD00000000002020
:1057000018ED00E000E400E010B51548006840F432
:105710007000134908601348006840F00100114907
:10572000086000200F49083108600E4800680E49E3
:1057300008400C4908600D48091D0860081F0068F2
:1057400020F48020091F0860002006490C31086001
:10575000FFF7FEFE4FF0006001498039086010BD80
:1057600088ED00E000380240FFFFF6FE1030002414
:105770002DE9F04701240125002633480068401C2C
:10578000314908603148FEF7D7F930243DE0002563
:1057900038E0601E00EB800005EB4010401C2C49F7
:1057A000085CC010C700601E00EB800005EB4010D5
:1057B000401C085CC100601E00EB800005EB40103F
:1057C000234A105C01EB601080064FEA1069601EEE
:1057D00000EB800005EB40101146085CC0064FEA64
:1057E000106806EB4600383018490F5406EB4600A7
:1057F000373001F8009006EB4600363001F80080A3
:10580000761CAD1CA02DC4DB641E002CBFDC002662
:105810000D4810A10268124800F03AF90A22104916
:10582000104802F0CFFB10490870104B42F6365278
:1058300006490C4802F0DDFC0B490870094802F0EB
:1058400040F8BDE8F08700004C06002000AC17D0FF
:10585000000000D070696325642E626D7000000046
:1058600078370020542700204406002048060020F6
:105870000448006820B103480068401E01490860E0
:10588000704700001C06002030B5441E04EB840461
:1058900065014C1E05EB4403024C04EB53042270DB
:1058A00030BD0000E406002030B5441E04EB840443
:1058B00065014C1E05EB4403024C04EB53042270BB
:1058C00030BD0000E415002021B1828942F400526D
:1058D000828104E082894DF6FF731A40828170470D
:1058E00002460020B1F5007F00D100BF13880B40B5
:1058F0000BB1012000E00020704700002DE9FF47B8
:1059000005460E460024A14600BFA046B08900B15E
:1059100000BF2C8A24F44054F08804432C82AC89C4
:1059200041F20C608443B08831890843718908438F
:105930000443AC81AC8A24F44074B0890443AC8243
:105940006846FEF747F82048854202D01F48854246
:1059500002D1DDF80C9001E0DDF80890A88900F490
:10596000004040B109EBC90000EB09103168490063
:10597000B0FBF1F707E009EBC90000EB0910316853
:105980008900B0FBF1F76420B7FBF0F004012009B7
:10599000642101FB1078A88900F4004040B1322056
:1059A00000EBC800B0FBF1F000F00700044308E092
:1059B000322000EB08106421B0FBF1F000F00F0082
:1059C00004432C81BDE8FF87001001400014014012
:1059D000C1F308028280704700BFFEE770B5012561
:1059E00029462148FFF7F4FF00BF80211E48FFF73A
:1059F00077FF0028F9D0FE2529461B48FFF7E8FF6E
:105A000000BF80211848FFF76BFF0028F9D0002461
:105A10000DE01648055D29461348FFF7D9FF00BF82
:105A200080211148FFF75CFF0028F9D0641CB4F511
:105A3000706FEED3FE2529460B48FFF7C9FF00BF64
:105A400080210948FFF74CFF0028F9D0012529469D
:105A50000548FFF7BDFF00BF80210348FFF740FF67
:105A60000028F9D070BD000000100140E4060020BD
:105A70000FB4054B10B503A9044A029800F0E8FDE5
:105A800010BC5DF814FB0000D98900085006002006
:105A90000FB4084B10B504A902AA039800F0D8FD72
:105AA000044602A9002001F06AF9204610BC5DF806
:105AB00014FB00007F6D000803B4019841000098BA
:105AC00050EAC12018BF04204A0D18BF40F0010061
:105AD00040F2FF72B2EB515F08BF40F002000128B4
