:020000040800F2
:10000000503B0020C1010008951B00088117000823
:10001000F51A0008A108000841420008000000008D
:10002000000000000000000000000000753D000816
:10003000BD1000080000000035240008D93E00086B
:10004000DF010008DF010008DF010008DF01000810
:10005000DF010008DF01000871110008DF0100085E
:10006000DF010008DF010008DF010008DF010008F0
:10007000DF010008DF010008DF010008DF010008E0
:10008000DF010008DF010008DF010008DF010008D0
:10009000DF010008DF010008DF010008DF010008C0
:1000A000DF010008DF010008DF010008DF010008B0
:1000B000DF010008DF010008DF010008DF010008A0
:1000C000DF010008DF010008DF010008DF01000890
:1000D000DF010008DF010008DF010008DF01000880
:1000E00091110008DF010008DF010008DF010008AE
:1000F000DF010008DF010008DF010008DF01000860
:10010000DF010008A1290008DF010008DF01000865
:10011000DF010008DF010008DF010008DF0100083F
:10012000DF010008390D0008DF010008B90D0008E3
:10013000DF010008DF010008DF010008DF0100081F
:10014000DF010008DF010008DF010008DF0100080F
:10015000DF010008DF010008DF010008DF010008FF
:10016000DF010008DF010008DF010008DF010008EF
:10017000DF010008DF010008A10C0008DF01000812
:10018000DF010008DF010008DF010008DF010008CF
:10019000DF010008DF010008DF010008DF010008BF
:1001A000DF010008DF010008DF010008DFF80CD0E4
:1001B00000F0ECFA0048004795700008503B002022
:1001C000074880470748804707480047FEE7FEE7A3
:1001D000FEE7FEE7FEE7FEE7FEE7FEE7FEE7FEE7F7
:1001E000713F0008E12D0008AD0100082DE9F05F26
:1001F0000546002092469B46884606468146402496
:100200001BE0284641464746224600F09AF95346ED
:100210005A46C01A914110D311461846224600F0A2
:1002200081F92D1A67EB01084F4622460120002173
:1002300000F078F917EB00094E41201EA4F10104EB
:10024000DFDC484631462A464346BDE8F09F40EA97
:1002500001039B0703D009E008C9121F08C0042A44
:10026000FAD203E011F8013B00F8013B521EF9D22B
:1002700070472DE9FE4F804681EA0300C00F0C460F
:10028000009021F0004123F00045B8EB0200A941A5
:1002900005D24046214690461C460B46024623F0B6
:1002A0000040104347D0270DC7F30A00C3F30A519B
:1002B0000290401A019040286BDAC3F3130040F417
:1002C000801B0098924620B10023D2EB030A63EB17
:1002D0000B0B01985946C0F14002504600F022F93C
:1002E00006460D4650465946019A00F03AF910EB81
:1002F00008006141002487EA115284EAE7731A4337
:1003000040D0009A62B3019A012A4FEA075215DCE5
:10031000001B61EB02014FF0004202EA0752CDE9F7
:100320000042001C41F5801132462B4600F071F965
:1003300003B0BDE8F08F40462146F9E7001B61EBB2
:100340000201001C41F5801300185B412018A2F542
:10035000001747EB030140EAD570B6196D4111E073
:100360006D084FEA360645EAC0754FEA0752001B92
:1003700061EB0201001C41F5801149084FEA300091
:100380000019514132462B4603B0BDE8F04F00F052
:1003900031B90098012240000023D0EB020263EB48
:1003A000E073009821464FEAE074B8EB000061EB7F
:1003B0000401E9E783F000435BE781F0004158E77F
:1003C0002DE9FE4F81EA030404F0004421F00041CE
:1003D00000944FF0000B23F0004350EA01045ED07C
:1003E00052EA03045BD0C3F30A54C1F30A552C4408
:1003F000A4F2F3340194A0FB0254C1F3130141F4BD
:100400008011C3F3130343F4801301FB024400FB88
:10041000034E840A970A44EA815447EA8357A4FBAF
:10042000076802958D0A05FB07854FEA932C04FBAC
:100430000C542705029D4FEA065847EA1637B5EBDC
:1004400008056EEB070C870E920E47EA811742EA09
:100450008312A7FB0201B6EB0B0164EB00042B0D2A
:1004600043EA0C335E1844EB1C50DA465146E7FB76
:100470000201C5F313044FEA0B3343EA14534FEA66
:100480000432019C43EA0603A4F10C040294009C8C
:10049000CDE900B400F0BDF803B0BDE8F08F002056
:1004A0000146F9E70EB5C10F80EAE0700844CA07BB
:1004B000002140F233438DE80E000A460B4600F05F
:1004C000A8F803B000BD00F0004230F000400AD0B0
:1004D000C10D01F56071C0F3160042EA0151C20876
:1004E00040071143704700200146704701F0004368
:1004F00030B421F0004150EA010206D00A0DA2F505
:100500006072C1F31301002A02DC30BC0020704786
:10051000440F44EAC104C100E01830BC00EBC250F3
:1005200000F031B8202A04DB203A00FA02F1002062
:1005300070479140C2F1200320FA03F31943904021
:100540007047202A04DB203A21FA02F0002170478C
:1005500021FA02F3D040C2F120029140084319462B
:100560007047202A06DBCB17203A41FA02F043EA13
:10057000E07306E041FA02F3D040C2F1200291405C
:100580000843194670470029A8BF7047401C49001E
:1005900008BF20F00100704710B4B0FA80FC00FAE8
:1005A0000CF050EA010404BF10BC704749B1CCF113
:1005B000200421FA04F411FA0CF118BF012121439F
:1005C0000843A3EB0C01CB1D4FEA00614FEA10205A
:1005D00042BF002010BC704700EBC35010440029FC
:1005E000A4BF10BC7047401C490008BF20F00100A8
:1005F00010BC704710B5141E73F1000408DA401CDB
:1006000041F1000192185B411A4301D120F0010031
:1006100010BD2DE9F04D92469B4611B1B1FA81F221
:1006200002E0B0FA80F220329046FFF77BFF0446EA
:100630000F4640EA0A0041EA0B0153465A46084376
:1006400013D0114653EA010019D0C8F140025046B8
:10065000FFF777FF05460E46504659464246FFF7DC
:1006600061FF084305D0012004E020463946BDE87B
:10067000F08D0020054346EAE0762C4337430A9884
:100680006305E40AA0EB08000022FD0A44EA47548F
:100690000A3002D500200146E9E701051019694139
:1006A000DDE9084500196941BDE8F04DA2E72DE9F3
:1006B000F04D81EA030404F0004B21F0004514469C
:1006C0004FF0000A23F0004150EA050220D054EA1E
:1006D00001021DD0C5F30A570246C5F31303C1F347
:1006E0001300C1F30A5640F4801543F48013A7EBBE
:1006F0000608101BD64608F2FD3873EB050002D33E
:1007000008F1010801E092185B41B8F1000F03DA2B
:1007100000200146BDE8F08D00204FF48011064610
:1007200084460EE0171B73EB050705D3121B63EB22
:10073000050306434CEA010C49084FEA30009218C1
:100740005B4150EA0107EDD152EA030012D082EA80
:10075000040083EA0501084305D0101BAB4106D213
:100760000122002306E000224FF0004302E06FF078
:10077000010253101AEB06004CEB085110EB0A0073
:1007800041EB0B01BDE8F04DFFF734BF064C074DC0
:1007900006E0E06840F0010394E807009847103451
:1007A000AC42F6D3FFF706FDD82603080827030856
:1007B0000EB540F2334102910021CDE900110A4605
:1007C0000B46FFF726FF03B000BD70B5C1F30A5218
:1007D00001F000450024C1F3130140F2FF3341F45E
:1007E00080119A4201DA002070BD40F233439A42F0
:1007F000A2F2334203DC5242FFF7A3FE00E0904036
:100800002C43F1D0404270BD70B58C1810F8015BDC
:1008100015F0070301D110F8013B2A1106D110F899
:10082000012B03E010F8016B01F8016B5B1EF9D19D
:100830002B0705D40023521E0DD401F8013BFAE723
:1008400010F8013BCB1A921C03E013F8015B01F88E
:10085000015B521EF9D5A142D8D3002070BD000023
:100860001CB50121402001F0E7FD4FF4007000901D
:1008700001208DF8040000208DF8060002208DF87C
:10088000070000208DF805006946044800F0E8FEE6
:100890004FF40071014800F04EFF1CBD00180240EB
:1008A00000BFFEE770B500254FF4803400E0641E01
:1008B00024B1802002F048F80028F8D014B90325AC
:1008C000284670BD40F2FF5001F0FAFF2846F8E7D5
:1008D0002DE9F041064600274848056801E04748F1
:1008E000056805F045000028F9D005F0040030B196
:1008F0000327042001F0E4FF3846BDE8F08105F04D
:10090000010028B10127012001F0DAFF3846F4E7A1
:1009100002F014F8B04202D010273846EDE740F25A
:10092000FF5001F0CDFF002002F02EF804463448BD
:10093000204008B93846E0E704F0004008B11C2028
:10094000DBE704F0804008B10920D6E704F000504E
:1009500008B10A20D1E704F0805008B10B20CCE7A1
:1009600004F0006008B10C20C7E704F0806008B113
:100970000D20C2E704F0807008B10E20BDE704F43A
:10098000000008B10F20B8E704F4800008B110207F
:10099000B3E704F4001008B11120AEE704F48010AE
:1009A00008B11220A9E704F4002008B11320A4E73D
:1009B00004F4802008B114209FE704F4003008B14B
:1009C00015209AE704F4803008B1162095E704F466
:1009D000004008B1172090E704F4804008B11820C7
:1009E0008BE704F4005008B1192086E704F00800F2
:1009F00008B11A2081E738467FE70000342C014017
:100A000008E0FFFD70B500251048046801E00F48BC
:100A1000046804F045000028F9D004F0040028B16F
:100A20000325042001F04CFF284670BD04F00100AE
:100A300028B10125012001F043FF2846F5E740F2E7
:100A4000FF5001F03DFF2846EFE70000342C014045
:100A500070B500250B48046801E00A48046804F0FA
:100A600045000028F9D004F0040028B10325042033
:100A700001F026FF284670BD40F2FF5001F020FF34
:100A80002846F8E7342C01402DE9F04106460F4690
:100A90004FF000082248056801E02148056805F08C
:100AA00045000028F9D005F0040038B14FF00308E4
:100AB000042001F005FF4046BDE8F08105F001008B
:100AC00030B14FF00108012001F0FAFE4046F3E793
:100AD00001F034FFB04203D04FF010084046EBE77E
:100AE00040F2FF5001F0ECFE002001F04DFF044603
:100AF00004F4604018B9200C38804046DCE704F468
:100B0000005008B11320D7E704F4804008B110204A
:100B1000D2E704F4004008B10F20CDE74046CBE710
:100B2000342C014070B500264FF480350F4804681E
:100B300002E06D1E0D48046804F0450008B9002D60
:100B4000F7D115B104F0040028B10326042001F008
:100B5000B7FE304670BD04F0400028B100264020AA
:100B600001F0AEFE3046F5E73046F3E7342C0140A5
:100B7000F0B500202CE0184D441C2C5DE410E10081
:100B8000441C2C5D6407A40E2D5C04EB6514A200CC
:100B9000114C245CE406230E40F22B1511FB05F5E5
:100BA00040F24B2612FB06F63544C3EBC306C6EBF8
:100BB000831605EB460505F5FA754FF47A76B5FB15
:100BC000F6F500EBD0767610044FBD55841CA0B22C
:100BD000B0F5F05FCFDBF0BD000000D0A80600202C
:100BE00030B500201CE0104C235CDC1703EB547480
:100BF000E1100D4C235CDC1703EB9474A210C2F3DC
:100C0000C20303EBC103DCB2012303EB4005074B36
:100C10005C5501EB4213DCB2044B03F81040401C5E
:100C2000B0F5706FDFD330BDA8060020001E00D0E5
:100C300030B10749096841F00101054A116005E03A
:100C40000349096821F00101014A11607047000061
:100C50000000055001494861704700000000055040
:100C600030B10749096841F48041054A116005E047
:100C70000349096821F48041014A1160704700006E
:100C800000000550014600200022044B1B6903EAC6
:100C900001020AB1012000E0002070470000055069
:100CA00010B50120FFF7EEFF01280CD10020064906
:100CB000088006480078401C044908700120044957
:100CC0000870FFF7C7FF10BD30000020260000208D
:100CD0003C00002029B1074AD2680243054BDA6084
:100CE00006E0044AD268C3439BB21A40014BDA6063
:100CF000704700000000055000210E4A126844F2BF
:100D000001039A430B4B1A601A46116840F6F272BF
:100D10009143028843881A4383881A43C3881A433D
:100D200003891A4343891A4383891A431143014AA9
:100D3000116070470000055070B51749174800F062
:100D400041F9012826D116480088401C1449088022
:100D50000846008813490988884202D100201049BA
:100D60000880114A12885400E21704EB9272911025
:100D70000E4A128853000E4A1288094D2D88521BC4
:100D8000521E0C4D03FB025000F064FF0249034861
:100D900000F030F870BD00000088001028640240A8
:100DA000300000204C0000204A00002046000020B7
:100DB00048000020000000D010B502F069FD10BD11
:100DC0000246094B9A4201D2084801E00648103811
:100DD00001F000531BB1064B0B40C36002E0044B13
:100DE0000B408360704700001064024000600240C6
:100DF0007D0F7D0F0246094B9A4201D2084801E05F
:100E00000648103801F000531BB1064B0B40C3607D
:100E100002E0044B0B408360704700001064024006
:100E2000006002407D0F7D0F21B1026842F0010297
:100E3000026003E0026822F00102026070470000D5
:100E4000016821F0010101600021016041608160C1
:100E5000C1600161212141614A49884204D13D219B
:100E6000484A103A91608CE046491831884205D1D1
:100E70004FF47461434A103A916082E04149303145
:100E8000884205D14FF474113E4A103A916078E0DF
:100E90003C494831884205D14FF07461394A103AD3
:100EA00091606EE037496031884204D13649354A55
:100EB000103AD16065E033497831884204D1334932
:100EC000304A103AD1605CE02E499031884204D11A
:100ED0002F492C4A103AD16053E02A49A831884260
:100EE00005D14FF03D51274A103AD16049E02949D8
:100EF000884204D13D21274A083A116041E0254942
:100F00001831884205D14FF47461224A083A1160C1
:100F100037E020493031884205D14FF474111D4A21
:100F2000083A11602DE01B494831884205D14FF045
:100F30007461184A083A116023E01649603188420A
:100F400004D11149134A121F11601AE01149783176
:100F5000884204D10D490F4A121F116011E00D495A
:100F60009031884204D10A490A4A121F116008E0F0
:100F70000849A831884204D14FF03D51054A121F5B
:100F800011607047106002403D000020400F0020BB
:100F900000003D201064024021B1026842F02002AE
:100FA000026003E0026822F02002026070470146FE
:100FB00000200A6802F001020AB1012000E00020CE
:100FC0007047000070B50246002000240025124E34
:100FD000B24201D2114B01E00F4B103B104E0E40BC
:100FE00036B11E2606EAD124166806EA040502E098
:100FF000566906F0800501F000560EB15C6800E00D
:101000001C68084E344004EA010616B10DB10120F7
:1010100000E0002070BD000010640240006002404B
:101020003C0F3C0F7D0F7D0F10B501F080034BB1DD
:1010300022B1436943F08003436103E0436923F035
:101040008003436180290BD02AB1036801F01E049C
:101050002343036004E0036801F01E04A34303601C
:1010600010BD000010B500220268134B1A40CC6876
:101070000B6823434C6923438C692343CC69234386
:101080000C6A23434C6A23438C6A23434C6B2343EF
:101090008C6B23431A430260426922F00702D1E9B4
:1010A0000B3423431A4342610B6943604B688360EE
:1010B0008B68C36010BD00003F801CF070470000CB
:1010C00000B587B00121084601F0B6F901211020D2
:1010D00001F002FA07220A211D4800F009FB07224D
:1010E00009211B4800F004FB00208DF81A000120A4
:1010F0008DF81B0002208DF81800000205900220D8
:101100008DF8190005A9124800F0AAFA02208DF8FE
:1011100018004002059005A90D4800F0A1FA4FF40F
:10112000E13001900020ADF80800ADF80A00ADF8FC
:101130000C00ADF810000C20ADF80E0001A9054818
:1011400003F010F80121034802F0F2FF07B000BDE0
:10115000000002400010014001B5044900980860F9
:1011600000BF024800680028FBD108BDE005002050
:1011700010B5012000F02AF838B10448006808B121
:1011800000F090FC012000F01BF810BD28000020AA
:1011900010B54FF4005000F019F870B1074800681E
:1011A000012803D100200549086002E0012003491D
:1011B00008604FF4005000F003F810BD2800002034
:1011C0000149086070470000143C014001460020BE
:1011D000034A12680A400AB1012000E0002070476B
:1011E000143C0140002123498279002A3AD00A4662
:1011F000126803689A430B461A600A1D1268036856
:101200009A430B1D1A60027911440A6803681A4355
:101210000A60184A0832126803689A43154B08336B
:101220001A601A1D126803689A43124B0C331A6035
:101230004279102A0ED11A1F126803681A430D4B07
:1012400008331A601A1D126803681A43094B0C33DD
:101250001A600DE00749427911440A6803681A438D
:101260000A6005E0027911440A6803689A430A603B
:1012700070470000003C01401FB50121052001F02E
:10128000DBF80121880301F027F900F084FC01203C
:10129000029000208DF80C008DF80F0002A918486C
:1012A00000F0DEF90021084602F066FD0120009002
:1012B00000208DF8040008208DF8050001208DF82D
:1012C00006006846FFF78EFF4FF40050029002A917
:1012D0000C4800F0C5F90D21022002F04DFD4FF43D
:1012E0000050009000208DF804000C208DF80500BF
:1012F00001208DF806006846FFF774FF1FBD00004F
:10130000000002400008024010B502460020002301
:10131000102A03D14FF02044636E0FE0B2F5807FB6
:1013200002D10A4C236809E0B2F5805F03D1074C73
:101330002034236802E0054CD434236803EA010416
:101340008C4201D0002000E0012010BD840000A0EC
:101350000021D0E900231A4383685B1E42EA43124E
:10136000C36842EA4321014A11607047500100A05E
:1013700070B500220021002300240568AD00A5F10E
:10138000C045D5F840216FF30E02D0E90156354330
:10139000C668354306693543466935438669354332
:1013A000C6693543066A3543466A35432A430568AC
:1013B00035B90568AD00A5F1C045C5F8402111E07B
:1013C0003B4D2B686FF30E03D0E907563543466A51
:1013D00035432B43364D2B600568AD00A5F1C04564
:1013E000C5F84021056875BB314D0835066855F8CC
:1013F000261001F07041856A2D686D1E866A766838
:10140000761E45EA0616856AAD686D1E46EA052613
:10141000856AED686D1E46EA0536856A2D8A6D1E61
:1014200046EA0546856AAD8A6D1E46EA0556856A16
:101430002D7E6D1E46EA056529431D4D083506685B
:1014400045F8261032E0FFE7194D0835066855F8D3
:10145000261001F07041856A2D686D1E866A7668D7
:10146000761E45EA0616856AAD686D1E46EA0526B3
:10147000856A2D8A6D1E46EA054529430C4D0835BF
:101480002C6804F07044856AED686D1E2E03856A31
:10149000AD8A6D1E46EA05552C434FF02045C5F830
:1014A0004841034D0835066845F8261070BD000018
:1014B000400100A00449096841EA40014FF0204280
:1014C000C2F8541170470000540100A02DE9FC41FE
:1014D00007460D46002600240020009001900820B9
:1014E0005B49086010204860402088600020C86088
:1014F0004FF480600861084601F084FA1020FFF77D
:10150000E7F9044614B12046BDE8FC815148008843
:1015100000044F4908603720486040208860002060
:10152000C8604FF480600861084601F06BFA37200C
:10153000FFF7CEF904460CB12046E5E74FF0FF3047
:101540004549086008204860302088600220C86053
:101550000020086101204861084601F0C9F9002017
:101560003B49086033204860402088600020C86004
:101570004FF480600861084601F044FA3320FFF719
:10158000A7F904460CB12046BEE709E04FF400106D
:1015900001F0DAF920B101F02FFA4DF82600761C9F
:1015A0002E48006840F22A6108400028EED008204A
:1015B00001F0CAF928B1082001F082F9042420467C
:1015C000A2E7022001F0C0F928B1022001F078F969
:1015D0000224204698E7202001F0B6F928B1202007
:1015E00001F06EF9062420468EE74FF4007001F0FA
:1015F000ABF930B14FF4007001F062F907242046D6
:1016000082E740F2FF5001F05BF900980006009974
:1016100001F47F4140EA0120009901F47F0140EA92
:101620001120009940EA1160686001980006019954
:1016300001F47F4140EA0120019901F47F0140EA71
:101640001120019940EA1160286020465CE7000003
:10165000E8260020E8050020FC260020342C01406C
:10166000F0B50A4600210023002400BF3DE001251B
:1016700005FA01F3156805EA03049C4234D10568B4
:101680004F000326BE40B543056015794E00B540B6
:101690000668354305601579012D02D01579022DB4
:1016A00016D185684F000326BE40B5438560557945
:1016B0004E00B540866835438560456801268E40FA
:1016C000B5434560456896798E40B6B2354345606E
:1016D000C5684F000326BE40B543C560D5794E00AE
:1016E000B540C6683543C560491C1029BFD3F0BD5D
:1016F000F0B5002300244D07ED0E02FA05F3CE10DD
:1017000000F1200555F826504E07F70E0F26BE4073
:10171000B543CF1000F1200646F82750CE1000F157
:10172000200555F8265045EA0304CE1000F12005A7
:1017300045F82640F0BD41837047018370470000A3
:1017400010B50246501E00EB80004401481E04EB19
:101750004003024800EB5300007810BDA8060020AB
:1017600010B50246501E00EB80004401481E04EBF9
:101770004003024800EB5300007810BDA81500207C
:1017800002E002A002F0A8FDFBE700000D0A2068BD
:101790006172646661756C742100000021B1028879
:1017A00042F48062028004E002884FF6FF331A4060
:1017B0000280704770B502460024002500230020F7
:1017C000958A138B1B0445EA030626F07F4404EA3E
:1017D00001068E4201D1012000E0002070BD21B140
:1017E000028842F00102028004E002884FF6FE7394
:1017F0001A4002807047000010B504461348844226
:1018000009D10121480500F057FE00214FF40010D6
:1018100000F052FE18E00E48844209D101218805EB
:1018200000F04AFE00214FF4800000F045FE0BE07E
:101830000848844208D10121C80500F03DFE00217E
:101840004FF4000000F038FE10BD000000540040CE
:1018500000580040005C004021B1028842F48072D0
:10186000028004E002884FF6FF631A40028070474E
:1018700021B1028842F40072028004E002884FF62F
:10188000FF531A40028070472DE9FF4704460D467A
:101890000026B1460427DFF8CC80A6884FF6C0703A
:1018A0000640684600F038FEDDF808802E48B8FB98
:1018B000F0F01FFA80F946EA0906A68020884FF664
:1018C000FE710840208000262849286888420CD8EC
:1018D00028684000B8FBF0F087B2042F00DA042734
:1018E0003E4309F10100208427E0E8884BF6FF71B0
:1018F000884206D1286800EB4000B8FBF0F087B2C0
:1019000009E0286800EBC00101EB0010B8FBF0F023
:1019100087B247F48047C7F30B0008B947F00107C7
:1019200047F4004006434FF4967009FB00F04FF473
:101930007A7190FBF1F0401C2084A683208840F04F
:101940000100208026884FF6F5300640A888698976
:10195000084306432680A889298908432081BDE8D9
:10196000FF87000000127A0040420F00A0860100AD
:101970000146088AC0B2704712B141F0010101E08E
:1019800001F0FE01018270470182704770B52DEDB4
:10199000048B01240FE001250AE0A9B2A0B2FFF7F1
:1019A000CFFE0646A9B2A0B2324602F0B1FB6D1CD2
:1019B000502DF2D9641C302CEDD901240FE0012503
:1019C0000AE0A9B2A0B2FFF7CBFE0646A9B2A0B2C8
:1019D000324602F08DFB6D1C502DF2D9641C302C68
:1019E000EDD9294890ED000ADFED280A30EE200AF3
:1019F00080ED000A90ED000ADFED250AB4EEE00A62
:101A0000F1EE10FA03DB9FED230A80ED000A1E4879
:101A10000068FEF758FD41EC190BB0EE490AF0EEF4
:101A2000690A02F0F9FCB0EE408AF0EE608A51ECEF
:101A3000180BFEF75BFD00EE100ADFED170A20EE33
:101A4000200A164880ED000A0F480068FEF73BFDAB
:101A500041EC190BB0EE490AF0EE690A02F078FC8D
:101A6000B0EE408AF0EE608A51EC180BFEF73EFDB6
:101A700000EE100ADFED080A20EE200A084880ED8B
:101A8000000ABDEC048B70BD40000020CDCCCC3DE5
:101A900000009D4300000000000048423400002088
:101AA0003800002010B50120FFF7C2F800200E49D1
:101AB00008704FF47A700D49486200BF0B48406AC5
:101AC00018B1094800780028F8D0FFF751F8FFF75F
:101AD0005DFFFFF785F802F0B5FB0548006808B127
:101AE00002F07AFA10BD00003C0000201C06002025
:101AF0002C00002000BFFEE710B500F0F1F81148FF
:101B000000F054FB0F480078562808D100BF0D485C
:101B1000437802783D210CA002F0DEFB07E000BF15
:101B20004B2111A002F0D8FB00BF00BFFEE700F080
:101B300005FA00F067FA0120FFF792F80120FFF79D
:101B400077F810BD240000203C3C2D43414D455208
:101B5000412D44454255472D3E3E205B25645D2581
:101B6000782025780D0A0A003C3C2D43414D455212
:101B7000412D44454255472D3E3E205B25645DCEB8
:101B8000B4BCECB2E2B5BDC9E3CFF1CDB70D0A0AE2
:101B900000000000704708B54FF4C06000F050F836
:101BA00006208DF8000001208DF801008DF802005C
:101BB0008DF80300684600F007F828208DF8000033
:101BC000684600F001F808BD70B5002100230F221F
:101BD000C4781CB3174C246804F4E064C4F5E064D2
:101BE000C4F30721C1F10404E3B20A4144789C40E4
:101BF000E1B28478144021430C07210E0E4C057885
:101C00006155047804F01F050124AC4005786D117E
:101C1000AD0005F1E025C5F8004109E0047804F0C5
:101C20001F050124AC40054D0678761145F8264085
:101C300070BD00000CED00E000E400E080E100E099
:101C400002490143024A1160704700000000FA0592
:101C50000CED00E030B58FB004460D46012188053B
:101C600000F0EAFB00211C48FFF7DEF800BF1A482D
:101C7000FFF79DF90028FAD14FF000700090174847
:101C80000190029400200390049505904FF4806029
:101C900006908000079040000890401109904FF492
:101CA00040300A9004200B9003200C904FF080707D
:101CB0000D9000200E9069460748FFF7D3F90121E7
:101CC0000548FFF7B1F800BF0348FFF770F9012896
:101CD000FAD10FB030BD0000286402402800055042
:101CE00000B587B088A002F0F7FA012140F2C910D0
:101CF00000F0A2FB2020059002208DF818000320A0
:101D00008DF8190000208DF81A0001208DF81B00B5
:101D100005A98248FFF7A4FC0D2205217F48FFF7A3
:101D2000E7FC1020059005A97D48FFF799FC0D22DE
:101D300004217B48FFF7DCFC4020059005A978488A
:101D4000FFF78EFC0D2206217548FFF7D1FC4FF4FA
:101D50000070059005A97348FFF782FC0D22092148
:101D60007048FFF7C5FC4FF48060059005A96D48E9
:101D7000FFF776FC0D220A216A48FFF7B9FC4FF401
:101D80000060059005A96748FFF76AFC0D220B214A
:101D90006448FFF7ADFC4FF48050059005A96148F9
:101DA000FFF75EFC0D220C215E48FFF7A1FC4FF40B
:101DB0008040059005A95B48FFF752FC0D220E21DB
:101DC0005848FFF795FC0820059005A95648FFF7ED
:101DD00047FC0D2203215448FFF78AFC4020059060
:101DE00005A94E48FFF73CFC0D2206214B48FFF7A2
:101DF0007FFC8020059005A94848FFF731FC0D22A3
:101E000007214648FFF774FC01208DF818000020D8
:101E10008DF819008DF81A0001208DF81B0008209C
:101E2000059005A94148FFF71BFC0420059005A972
:101E30003E48FFF715FC04213C48FFF77CFC0821D5
:101E40003A48FFF77AFC0A20FFF786F9082137485D
:101E5000FFF771FC0A20FFF77FF904213348FFF7F1
:101E60006CFC0121480500F017FB0121022000F065
:101E7000E3FA042206212E48FFF73AFC0422072148
:101E80002B48FFF735FC4020059002208DF8180004
:101E900000208DF8190001208DF81A0000208DF81F
:101EA0001B0005A92248FFF7DBFB0422062120487E
:101EB000FFF71EFC8020059005A91D48FFF7D0FB09
:101EC0001C48FFF799FC0020ADF808004BF6FF70A6
:101ED000ADF80A00FE20ADF80C004FF48060ADF8BC
:101EE0000E000001ADF810001348019001A911483F
:101EF000FFF7CAFC01210F48FFF771FC3220FFF702
:101F00002BF907B000BD00000D0AB3F5CABCBBAF8A
:101F10004750494FBACD4949430D0A0000200240BD
:101F200000000240001C0240000C02400018024069
:101F30000004024000540040801A060010B586B02C
:101F40000121084600F088FA0220ADF808000020C0
:101F5000ADF80A002020ADF80C008020ADF80E008E
:101F60000020ADF81000ADF81200ADF8140002A882
:101F7000FEF7C2FE1E4A12885400E21704EB92726A
:101F800091101C4A1288521E1B4B1B885A431B4B34
:101F900003EB4200FFF75EFE4FF4C060FFF750FE18
:101FA00039208DF8040000208DF8050001208DF8FF
:101FB00006008DF8070001A8FFF706FE0122102198
:101FC0000F48FFF731F84E208DF8040000208DF8FF
:101FD000050001208DF806008DF8070001A8FFF725
:101FE000F3FD01210846FEF775FE06B010BD0000A6
:101FF0004A0000204800002046000020000000D0D9
:102000002864024038B504215248FFF794FB0220AF
:10201000FFF7A2F804214F48FFF78FFB1E20FFF7C0
:102020009BF800F08BF91E20FFF796F8002423E0C0
:10203000494A02EB84029178474A32F8240000F0C2
:1020400085F9454931F8240000F0C8F8434921F8E2
:10205000140000BF084630F8140000903E4800EB22
:10206000840043883C4830F8242040F2B3313CA03F
:1020700002F032F900BF641CD02CD9D34FF4FA70AF
:10208000FFF76AF8052043490870084600780628DB
:102090004FD2DFE800F0034E1221303F002409E068
:1020A0003D4A02EB840291783B4A32F8240000F06A
:1020B0004DF9641C0B2CF3D34AE0002409E0374AA5
:1020C00002EB84029178354A32F8240000F03EF9A0
:1020D000641C0B2CF3D33BE0002409E0304A02EBF4
:1020E000840291782E4A32F8240000F02FF9641C03
:1020F0002A2CF3D32CE0002409E02A4A02EB8402C4
:102100009178284A32F8240000F020F9641C2A2C27
:10211000F3D31DE0002409E0234A02EB8402917806
:10212000214A32F8240000F011F9641C2A2CF3D360
:102130000EE0002409E01A4A02EB84029178184A62
:1021400032F8240000F002F9641C2A2CF3D300BFFB
:1021500000BF38BD001802404E000020A824002017
:102160003C3C2D43414D4552412D44454255472D60
:102170003E3E205B25645D73656E736F725F7265B2
:10218000675B307825785D3A25782D25780D0A0A29
:1021900000000000440000208E030020BA0300204D
:1021A000E60300208E0400203605002010B504460A
:1021B00006A002F091F843F20A0000F00FF8207038
:1021C00043F20B0000F00AF8607010BD0D0AB6C1B2
:1021D000C9E3CFF1CDB749440D0A000070B50546FB
:1021E00042F21074002601215148FFF735FB00BF71
:1021F00005E0201EA4F1010401D1FF2070BD4D496E
:102200004B48FFF7D7FA0028F3D00022782148483E
:10221000FFF7B2FB42F2107405E0201EA4F10104A6
:1022200001D1FF20EAE744494148FFF7C3FA0028FB
:10223000F3D0290A3E48FFF7A7FB42F2107405E0ED
:10224000201EA4F1010401D1FF20D7E73A49891CDF
:102250003748FFF7AFFA0028F2D03548143000882D
:1022600040F48060324914310880E9B23048FFF709
:102270008BFB42F2107405E0201EA4F1010401D191
:10228000FF20BBE72C49891C2948FFF793FA002857
:10229000F2D027481430008840F48060244914317B
:1022A000088001212248FFF7D7FA42F2107405E0B6
:1022B000201EA4F1010401D1FF209FE71D491C4805
:1022C000FFF778FA0028F3D0012278211848FFF7A9
:1022D00053FB42F2107405E0201EA4F1010401D169
:1022E000FF208BE71349491C1148FFF763FA0028C8
:1022F000F2D000210E48FFF751FA42F2107405E0C7
:10230000201EA4F1010401D1FF2077E709493F31E4
:102310000748FFF74FFA0028F2D001210448FFF7E1
:10232000A7FA0348FFF724FB0646304666E700009D
:1023300000540040010003008200070010B5802116
:1023400043F2080000F002F810BD000070B5054629
:102350000E4642F2107401213348FFF77DFA00BFA8
:1023600005E0201EA4F1010401D1FF2070BD2F491A
:102370002D48FFF71FFA0028F3D0002278212A48C1
:10238000FFF7FAFA42F2107405E0201EA4F10104EE
:1023900001D1FF20EAE726492348FFF70BFA00287E
:1023A000F3D0290A2048FFF7EFFA42F2107405E053
:1023B000201EA4F1010401D1FF20D7E71C49891C8C
:1023C0001948FFF7F7F90028F2D0E9B21648FFF7ED
:1023D000DBFA42F2107405E0201EA4F1010401D1E1
:1023E000FF20C3E71249891C0F48FFF7E3F90028D3
:1023F000F2D031460C48FFF7C7FA42F2107405E0FC
:10240000201EA4F1010401D1FF20AFE70849891C77
:102410000548FFF7CFF90028F2D001210248FFF765
:1024200027FA0020A2E7000000540040010003004A
:10243000820007007047000029B1064A1268024373
:10244000044B1A6004E0034A12688243014B1A608D
:10245000704700003038024029B1064A1268024332
:10246000044B1A6004E0034A12688243014B1A606D
:10247000704700003438024029B1064A126802430E
:10248000044B1A6004E0034A12688243014B1A604D
:10249000704700003838024029B1064A12680243EA
:1024A000044B1A6004E0034A12688243014B1A602D
:1024B000704700004038024029B1064A12680243C2
:1024C000044B1A6004E0034A12688243014B1A600D
:1024D000704700002038024029B1064A12680243C2
:1024E000044B1A6004E0034A12688243014B1A60ED
:1024F000704700004438024029B1064A126802437E
:10250000044B1A6004E0034A12688243014B1A60CC
:102510007047000024380240F0B50021002200245A
:10252000022500260223324F3F6807F00C0121B13B
:10253000042905D0082937D105E02E4F076036E081
:102540002D4F076033E02A4F3F1F3F68C7F3805687
:10255000274F3F1F3F6807F03F036EB1264FB7FB81
:10256000F3F7DFF88CC0ACF1040CDCF800C0CCF35E
:10257000881C07FB0CF40CE01E4FB7FBF3F7DFF8E9
:1025800070C0ACF1040CDCF800C0CCF3881C07FB75
:102590000CF4174F3F1F3F68C7F301477F1C7D00B6
:1025A000B4FBF5F7076002E0124F076000BF00BF01
:1025B0000F4F3F6807F0F0010909104F7A5C076878
:1025C000D74047600A4F3F6807F4E051890A0B4F34
:1025D0007A5C4768D7408760054F3F6807F46041E1
:1025E000490B064F7A5C4768D740C760F0BD0000D2
:1025F000083802400024F40040787D0114000020D7
:10260000422101704D214170362181702D21C17010
:102610000021017141718171C171017241723621D4
:1026200081720021C17201734173282181730021DD
:10263000C17301744174502181740021C17401750A
:102640004175302181750021C17501764176817611
:102650000121C17618210177002141778177C17767
:1026600080F8201080F8211080F822102D2180F8A9
:102670002310002180F8241080F8251080F82610FF
:1026800080F8271080F8281080F8291080F82A1088
:1026900080F82B1080F82C1080F82D1080F82E1068
:1026A00080F82F1080F8301080F8311080F8321048
:1026B00080F8331080F8341080F83510704700002F
:1026C00010B5ADF5825DFEF7CBF8012216A104A886
:1026D00003F056FE04460D2C20D114A001F0FCFDA1
:1026E0000022114610A003F009FB04467CB91AA091
:1026F00001F0F2FD01220CA1002003F041FE04468E
:10270000012209A104A803F03BFE044609E01AA037
:1027100001F0E2FD00200DF5825D10BD1CA001F06E
:10272000DBFD0120F7E70000303A0000A1B7534479
:10273000BFA8BBB9C3BBD3D0CEC4BCFECFB5CDB34D
:10274000A3ACBCB4BDABBDF8D0D0B8F1CABDBBAF73
:102750002E2E2E0D0A000000A1B75344BFA8D2D1DF
:10276000B3C9B9A6B8F1CABDBBAFCEC4BCFECFB524
:10277000CDB3A1A30D0A0000A1B6A1B6B8F1CABDA0
:10278000BBAFCAA7B0DCA1A3A1B7A1B70D0A0000D7
:10279000A1B75344BFA8B9D2D4D8B3C9B9A60D0ABA
:1027A000000000007CB50546002400200090019048
:1027B00000F0EAF800F0007010B10E2420467CBD55
:1027C0003D49098888B26946FEF780FE04460CB18F
:1027D0002046F4E7012D36D1019800F4802000282E
:1027E0002ED03548008800043449086037204860FE
:1027F000402088600020C860A8020861084600F0F8
:1028000001F93720FEF764F804460CB12046D6E7FC
:1028100002202A4908600620486040208860002085
:10282000C8604FF480600861084600F0EBF80620AD
:10283000FEF74EF804460CB12046C0E72046BEE73E
:1028400025242046BBE7019800F4803078B31A486D
:1028500000880004194908603720486040208860DB
:102860000020C8604FF480600861084600F0CAF894
:102870003720FEF72DF804460CB120469FE70020D4
:102880000E49086006204860402088600020C8602B
:102890004FF480600861084600F0B4F80620FEF7A7
:1028A00017F804460CB1204689E7204687E7FFE782
:1028B0002524204683E70000E8050020E8260020C4
:1028C0000149086070470000382C01400149086048
:1028D00070470000382C0140014908607047000033
:1028E000A080254201490860704700008C85254280
:1028F00000210B4B02681A601B1D42681A601A1DEA
:10290000116821F0F701D0E902231A4303691A4341
:1029100043691A431143024A0832116070470000AC
:10292000242C014010B50121C802FFF7E5FD00216C
:102930004FF40060FFF7E0FD10BD000001480068A3
:10294000C0B27047102C014001460020034A1268B3
:102950000A400AB1012000E000207047342C0140F9
:1029600001460020034A12680A400AB1012000E033
:1029700000207047342C01400248006800F003003A
:1029800070470000002C014008B50146002000906F
:102990000248084400900098006808BD142C0140CB
:1029A00010B500F089FF10BD29B1064A1268024334
:1029B000044B1A6004E0034A12688243014B1A6018
:1029C000704700003C2C014000210A4A116847F67C
:1029D000FF629143027D83681A4343681A43C368C8
:1029E0001A4303681A4303691A431143014A1160E9
:1029F00070470000042C0140014800687047000047
:102A0000802C01400021094B02681A601A1D1168D0
:102A10006FF30A01D0E901231A43C3681A4303691B
:102A20001A431143014A121D11607047082C0140DE
:102A30000149086070470000002C01401CB50121CD
:102A4000FC20FFF7F9FC02208DF804008DF805004A
:102A500000208DF806008DF80700012000906946DF
:102A6000D948FEF7FDFD0C220021D748FEF740FEB5
:102A7000022000906946D448FEF7F2FD0C220121A5
:102A8000D148FEF735FE042000906946CE48FEF797
:102A9000E7FD0C220221CC48FEF72AFE0820009018
:102AA0006946C948FEF7DCFD0C220321C648FEF743
:102AB0001FFE102000906946C348FEF7D1FD0C228E
:102AC0000421C148FEF714FE202000906946BE484C
:102AD000FEF7C6FD0C220521BB48FEF709FE4FF4A8
:102AE000805000906946B848FEF7BAFD0C221146A6
:102AF000B548FEF7FDFD4FF4005000906946B2481E
:102B0000FEF7AEFD0C220D21AF48FEF7F1FD4FF4AC
:102B1000804000906946AC48FEF7A2FD0C220E21D1
:102B2000A948FEF7E5FD4FF4004000906946A6482D
:102B3000FEF796FD0C220F21A348FEF7D9FD0120D8
:102B400000906946A148FEF78BFD0C2200219F48AA
:102B5000FEF7CEFD0220009069469C48FEF780FDFE
:102B60000C2201219948FEF7C3FD4FF480400090EC
:102B700069469748FEF774FD0C220E219448FEF733
:102B8000B7FD4FF40040009069469148FEF768FD9C
:102B90000C220F218E48FEF7ABFD01200090694604
:102BA0008B48FEF75DFD0C2200218948FEF7A0FD51
:102BB0000220009069468648FEF752FD0C22012152
:102BC0008348FEF795FD8020009069468148FEF716
:102BD00047FD0C2207217F48FEF78AFD4FF48070E5
:102BE000009069467B48FEF73BFD0C22082179489E
:102BF000FEF77EFD4FF40070009069467548FEF7C1
:102C00002FFD0C2209217348FEF772FD4FF48060FE
:102C1000009069466F48FEF723FD0C220A216D489B
:102C2000FEF766FD4FF40060009069466948FEF7C4
:102C300017FD0C220B216748FEF75AFD4FF4805018
:102C4000009069466348FEF70BFD0C22114661486F
:102C5000FEF74EFD4FF40050009069465D48FEF7C8
:102C6000FFFC0C220D215B48FEF742FD4FF4804033
:102C7000009069465748FEF7F3FC0C220E21554898
:102C8000FEF736FD4FF40040009069465148FEF7CC
:102C9000E7FC0C220F214F48FEF72AFD4FF480700D
:102CA000009069464A48FEF7DBFC0C2208214848A0
:102CB000FEF71EFD4FF40070009069464448FEF791
:102CC000CFFC0C2209214248FEF712FD4FF4806030
:102CD000009069463E48FEF7C3FC0C220A213C489E
:102CE000FEF706FD4020009069463B48FEF7B8FC21
:102CF0000C2206213848FEF7FBFC102000906946A4
:102D00003248FEF7ADFC0C2204213048FEF7F0FCFF
:102D10002020009069462D48FEF7A2FC0C220521D8
:102D20002A48FEF7E5FC0120009069462B48FEF793
:102D300097FC0C2200212948FEF7DAFC4FF40060D2
:102D4000009069462048FEF78BFC0C220B211E48A0
:102D5000FEF7CEFC4FF40040009069461B48FEF79A
:102D60007FFC0C220F211948FEF7C2FC4FF4807043
:102D7000009069461548FEF773FC0C2208211348A1
:102D8000FEF7B6FC8020009069461348FEF768FC09
:102D90000C2207211048FEF7ABFC02200090694688
:102DA0000C48FEF75DFC0C2201210A48FEF7A0FC4E
:102DB0000120009069460748FEF752FC0C220021D2
:102DC0000448FEF795FC1CBD0014024000180240A8
:102DD000000C024000100240001C024000080240AB
:102DE00000B593B0FFF72AFE01210846FFF744FB28
:102DF00002200190072002900420039007200490F5
:102E0000022005900690079001200890002009906C
:102E100004200A9010200B9040200C904FF4C070BA
:102E20000D9000200E904FF400600F900020109045
:102E30004FF40050119001A8129008A8FEF798FADC
:102E400000F002F813B000BD1FB50024012000906F
:102E500008200190012002900020039000BF202153
:102E60000120FEF751FA0028F9D16846FEF770FA02
:102E70000A2000F04DF80220009008200190012067
:102E800002900020039000BF20210120FEF73CFAB1
:102E90000028F9D16846FEF75BFA0320009008206D
:102EA0000190042002900020039000BF2021012007
:102EB000FEF72AFA0028F9D16846FEF749FA00BF62
:102EC00020210120FEF720FA0028F9D16846FEF7FC
:102ED0003FFA40F2312404200090082001900120A4
:102EE0000290039400BF20210120FEF70DFA002874
:102EF000F9D16846FEF72CFA40F26A50FEF7DAFA8A
:102F000000BF20210120FEF7FFF90028F9D11FBDE5
:102F100001B581B000200090054901984843009018
:102F200002E00098401E009000980028F9D10CBDE6
:102F3000A086010008B5012000909DF8000008BDA2
:102F400070B50446002520480068032802D12725D3
:102F5000284670BD1C48006838B11B48006801282D
:102F600003D01948006802282CD1B4F5805F02D143
:102F700027252846EDE7B4F5006F13D10120FFF7B0
:102F800011FC0546F5B90020104908750860486035
:102F900088604FF40060C860002008610846FFF7B1
:102FA00013FD0FE00020FFF7FDFB054655B900209B
:102FB00006490875086048608860C860086108466E
:102FC000FFF702FD2846C4E7E4050020D0260020D4
:102FD000F0B5014600200022C04B1B7881F8563026
:102FE000BF4B1B88A1F85430BE4B1B681A0E9309C7
:102FF0000B70C2F383034B7002F003038B70B94B69
:103000001B68C3F30742CA70B64B1B88C3F3072281
:103010000A71B44B1A784A715B681A0E1301CB809F
:10302000B04B5B68C3F30742CB8843EA1213CB80F3
:1030300002F00F030B72AB4B9B88C3F30722D3093B
:103040004B72C2F380138B72C2F34013CB72C2F384
:1030500000130B7300234B73A04B1B681BB19F4BDA
:103060001B68012B4FD193071B0D0B619D4B1A79E8
:103070000B6943EA82030B619A4B9B681A0E0B693A
:1030800043EA92130B61C2F3C2030B7502F007030C
:103090004B75944B9B68C3F3074253098B75C2F37E
:1030A0008203CB7593075B0F0B768E4B1B89C3F3A3
:1030B00007220B7E43EAD2130B760B695B1C0024BC
:1030C000C1E912340B7ED1E912469B1C012505FA99
:1030D00003F3DF17A4FB035C06FB03C304FB073306
:1030E000C1E912530C7A0123A3400B650027D1E9F3
:1030F00012560B6DA5FB034C06FB03C305FB073300
:10310000C1E9124336E0754B1B68022B32D1754B77
:103110001A7993069B0A0B61724B9B681A0E0B6916
:1031200043EA02230B616F4B9B68C3F307420B69B1
:1031300013430B616B4B1B89C3F307220B690024FC
:103140005B1C44EB04074FF400760025A3FB064C00
:1031500007FB06C603FB05664FF480650027A4FB4A
:10316000053C06FB05C504FB0754C1E912344FF4C6
:1031700000730B65C2F3801301F8193F93065B0ED1
:103180004B70584B1A7A4B7843EAD2134B7002F0CB
:103190007F038B70534BDB681A0ED309CB70C2F3DD
:1031A00041130B71C2F382034B7193071B0F8B7199
:1031B0004C4BDB68C3F307428B7943EA92138B7164
:1031C000C2F34013CB7100230B7202F001034B7268
:1031D000444B9B89C3F30722D3098B72C2F380133C
:1031E000CB72C2F340130B73C2F300134B73C2F3E1
:1031F00081038B7302F00303CB733A4B1A7B5308A2
:103200000B7401234B74384B1B681A0ECA7419399E
:10321000354B1B68C3F307421402CC85324B1B8825
:10322000C3F30722CB8D1343CB852F4B1A7814069B
:103230000C635B681A0E0B6B43EA02440C632A4B67
:103240005B68C3F307420B6B43EA02240C63264B13
:103250009B88C3F307220B6B13430B63224B1A7932
:1032600034235A54204B9B681A0E35235A541E4B54
:103270009B68C3F3074214068C631B4B1B89C3F383
:1032800007228B6B43EA02448C63174B1A7A8B6BD1
:1032900043EA02248C63144BDB681A0E8B6B1343D6
:1032A0008B63114BDB68C3F307423C235B5C43EA4F
:1032B00012143C235C5413071C0DCC870A4B9B89CA
:1032C000C3F30722CB8F1343CB87074B1A7B5408DA
:1032D00040235C54012441235C54F0BDE4050020EC
:1032E000E8050020482600205826002008B50020C8
:1032F0000090FFF71FFE012809D1684600F0CAFBC5
:1033000008B1FF2008BD0098C0F34320FAE7FF2072
:10331000F8E710B50424FFF7E9FF0446042C01D1B7
:10332000002010BDFF2C01D10220FAE70120F8E7B0
:103330001CB5002001904FF4C060FEF781FC3120E5
:103340008DF8000001208DF8010000208DF80200AA
:1033500001208DF803006846FEF736FC3B208DF80F
:10336000000001208DF801006846FEF72DFC00F0FA
:103370006DF9FFF7D7FA00F0BBF901909DF8040052
:1033800010B19DF804001CBD00F032F801909DF8CA
:10339000040010B19DF80400F5E7002012490875FB
:1033A000086048608860C86008610846FFF70CFB49
:1033B0000E48FFF70DFE01909DF8040040B90B4840
:1033C000B0F8540002041046002100F047FB0190C1
:1033D0009DF8040020B94FF40060FFF7B1FD0190A3
:1033E0009DF80400CFE70000D026002078260020BA
:1033F00038B5002401200090FFF7BEFA10B925244B
:10340000204638BD44480068042828D0002043499D
:10341000086002204860C02088600020C8604FF427
:10342000806008610846FFF7EDFAFDF7EBFA044605
:103430000CB12046E5E70020FFF7A6FA38490860FE
:103440000420FFF7A1FA364948600820FFF79CFAEC
:10345000334988600C20FFF797FA3149C8602E483D
:10346000006858B12C480068012807D02A48006835
:10347000062803D028480068022816D100202749D2
:10348000086003204860402088600020C8604FF436
:10349000806008610846FFF7B5FA69460320FDF72A
:1034A000F3FA04460CB12046ABE71B480068042839
:1034B0002ED0BDF800001B490860BDF800000004D4
:1034C0001649086009204860C02088600020C86054
:1034D0004FF4806008610846FFF794FAFDF792FA0E
:1034E00004460CB120468CE70020FFF74DFA0E4948
:1034F00008600420FFF748FA0B4948600820FFF7EE
:1035000043FA094988600C20FFF73EFA0649C86073
:103510000024204675E70000E4050020E82600208E
:1035200058260020E80500204826002030B58FB03E
:1035300004460D464FF0FA511E48FDF741FC0021AC
:103540001C48FDF771FC1B48FDF77AFC4FF000604A
:1035500000901948019002940020039001200490EB
:10356000002005904FF48060069080000790800056
:103570000890002009904FF440300A9004200B90EE
:1035800003200C904FF400000D9080100E906946BF
:103590000848FDF767FD012210210648FDF744FDAC
:1035A00020210448FDF7F8FC01210248FDF73CFC0E
:1035B0000FB030BD58640240802C014030B58FB050
:1035C00004460D464FF0FA511E48FDF7F9FB002165
:1035D0001C48FDF729FC1B48FDF732FC4FF000604A
:1035E000009019480190029440200390012004901B
:1035F000002005904FF480600690800007908000C6
:103600000890002009904FF440300A9004200B905D
:1036100003200C904FF400000D9080100E9069462E
:103620000848FDF71FFD012210210648FDF7FCFCAC
:1036300020210448FDF7B0FC01210248FDF7F4FB0E
:103640000FB030BD58640240802C01401CB50121F0
:103650000C20FEF7F1FE0C2208212348FEF748F863
:103660000C2209212048FEF743F80C220A211E48AB
:10367000FEF73EF80C220B211B48FEF739F80C220E
:1036800011461948FEF734F80C2202211748FEF7BC
:103690002FF84FF47060009002208DF805008DF82F
:1036A000040000208DF8060001208DF8070069460F
:1036B0000D48FDF7D5FF0420009069460B48FDF743
:1036C000CFFF4FF48050009000208DF8070069462E
:1036D0000548FDF7C5FF0121C802FEF7FDFE0121E7
:1036E0008805FEF7A9FE1CBD00080240000C024040
:1036F000F8B5002000900025002400260027762041
:103700005F4908750020086048608860C8600861EB
:103710000846FFF759F90320FFF78AF90120FFF760
:10372000DBF800205749086048608860C8604FF4A3
:10373000806008610846FFF765F9FDF7B3F800906F
:103740009DF8000010B19DF80000F8BD4FF4D57051
:103750004C49086008204860402088600020C8600C
:103760004FF4806008610846FFF74CF9FDF7DAF97D
:1037700000909DF8000020B90120434908608707A8
:1037800012E000203F4908603720486040208860F0
:103790000020C8604FF4806008610846FFF732F9E6
:1037A0003720FDF795F80090002036490860372053
:1037B0004860402088600020C8604FF48060086145
:1037C0000846FFF71FF93720FDF782F800909DF8B3
:1037D0000000002851D13BE000202A490860372032
:1037E0004860402088600020C8604FF48060086115
:1037F0000846FFF707F93720FDF76AF800909DF8B3
:10380000000010B19DF800009FE7204838431D4993
:10381000086029204860402088600020C8604FF47C
:10382000806008610846FFF7EDF8FDF711F9009098
:103830009DF8000010B19DF8000086E70020FFF71A
:10384000A3F80546012080EAD57080F00106641CCB
:103850001EB94FF6FF708442BED34FF6FF7084420C
:1038600004D31B2000909DF800006EE705F0804017
:10387000051E02D00220044908609DF8000064E79C
:10388000D0260020E8260020E4050020000010805B
:1038900010B50748006800F0C05040B1012005494C
:1038A00008604FF0C25102485830FDF789FA10BD48
:1038B00000640240F805002010B54FF48070FFF757
:1038C0004FF850B10020254908704FF48070FEF782
:1038D000FDFF01202249086037E00220FFF740F891
:1038E00030B10220FEF7F2FF02201C4908702CE0E4
:1038F0000820FFF735F830B10820FEF7E7FF042075
:103900001649087021E02020FFF72AF830B1202066
:10391000FEF7DCFF06201149087016E01020FFF7C3
:103920001FF830B11020FEF7D1FF05200B490870B9
:103930000BE04FF40070FFF713F830B14FF4007054
:10394000FEF7C4FF07200549087000214CF23A3009
:10395000FFF72AF80148007810BD0000F0050020AC
:10396000F40500202DE9F047814614461D46DDE9A7
:103970000868002700203249087032490860012099
:1039800031490860002031490860012140F22A30A5
:10399000FFF70AF808FB06F14846FFF7C7FD0120CC
:1039A000FEF7A0FF2A480068022808D1060202029A
:1039B000002320462946FCF719FC04460D462548FD
:1039C0000660102023494860402088600020C860BD
:1039D0004FF4806008610846FFF714F81020FCF7E8
:1039E00077FF074617B13846BDE8F0874FF0FF3044
:1039F0001949086008FB06F04860902088600220A2
:103A0000C86000200861012048610846FEF770FF89
:103A10001048046012200F49486040208860002050
:103A2000C8604FF4806008610846FEF7EBFF122083
:103A3000FCF74EFF07460FB13846D5E73846D3E7C7
:103A4000F0050020F4050020EC0500202C2C01409E
:103A5000E4050020E8260020FC26002070B504467E
:103A60000D4600260A4804600720094948604020A6
:103A700088600020C8604FF4806008610846FEF747
:103A8000C1FF0720FCF724FF0646304670BD00004A
:103A9000E826002070B50446002514B926252846DE
:103AA00070BD0F48008800040E4908600D20486072
:103AB000402088600020C8604FF48060086108469C
:103AC000FEF7A0FF0D20FCF703FF05460DB12846C9
:103AD000E6E70020FEF758FF20602846E0E70000F8
:103AE000E8050020E826002010B5002400200A493F
:103AF00008600C204860402088600020C8604FF4B7
:103B0000806008610846FEF77DFF0C20FCF7E0FEB0
:103B10000446204610BD0000E826002070B50025B0
:103B20006C1E00E0641E1848006838B91748006829
:103B300020B91748007808B9002CF3D100201249A9
:103B40000860441E00E0641E1248006800F4005043
:103B500008B1002CF7D110480068012805D1FFF703
:103B6000C3FF054600200C4908600CB905B90425BF
:103B700040F2FF50FEF7A4FE0548007810B104485B
:103B8000007870BD2846FCE7F8050020F405002009
:103B9000F0050020342C0140EC05002070B5002514
:103BA0006C1E00E0641E1848006838B917480068A9
:103BB00020B91748007808B9002CF3D10020124929
:103BC0000860441E00E0641E1248006800F4805043
:103BD00008B1002CF7D110480068012805D1FFF783
:103BE00083FF054600200C4908600CB905B904257F
:103BF00040F2FF50FEF764FE0548007810B104481B
:103C0000007870BD2846FCE7F8050020F405002088
:103C1000F0050020342C0140EC0500202DE9F04790
:103C2000814615461E46DDE90878002400204949F2
:103C30000870494908600120484908600020484947
:103C40000860012140F21A30FEF7AEFE08FB07F1D2
:103C50004846FFF7B3FC0120FEF744FE41480068E8
:103C6000022808D107020202002328463146FCF749
:103C7000BDFA05460E463C48076010203A494860A8
:103C8000402088600020C8604FF4806008610846CA
:103C9000FEF7B8FE1020FCF71BFE044614B12046C8
:103CA000BDE8F0873148008800042F4908603720BC
:103CB0004860402088600020C8604FF48060086140
:103CC0000846FEF79FFE3720FCF702FE04460CB1C3
:103CD0002046E5E72448C0F80080172022494860C4
:103CE000402088600020C8604FF48060086108466A
:103CF000FEF788FE1720FCF7EBFD04460CB12046CA
:103D0000CEE71948056019201749486040208860AF
:103D10000020C8604FF4806008610846FEF772FE1C
:103D20001920FCF7D5FD04460CB12046B8E74FF04A
:103D3000FF300F49086008FB07F04860902088605A
:103D40000020C8600861012048610846FEF7D0FDE8
:103D50002046A5E7F0050020F4050020EC05002032
:103D60002C2C0140E4050020E8260020E805002076
:103D7000FC2600207047000030B500228B071C0F86
:103D80000F2303FA04F20B4B8C1053F824309343A7
:103D9000084C8D1044F8253023468C1053F82430FD
:103DA0008C07240F00FA04F42343024C8D1044F8CE
:103DB000253030BD083801400CB50020019000903E
:103DC0004148006840F480303F49086000BF3E48E9
:103DD000006800F4003000900198401C01900098A9
:103DE00018B90198B0F5A04FF1D13748006800F438
:103DF000003010B10120009001E0002000900098F8
:103E0000012860D130484030006840F080502E4991
:103E1000403108602D48006840F440402B4908605C
:103E200029480830006828490831086008460068B9
:103E300040F4004008600846006840F4A050086064
:103E40002348091F0860081F006840F08070091FA0
:103E5000086000BF1C48006800F000700028F9D01E
:103E60001A48006840F480301849086000BF1748BD
:103E7000406800F480300028F9D01448006840F40D
:103E800000301249086000BF1048406800F400305C
:103E90000028F9D040F205700E4908600A48083041
:103EA000006820F0030008490831086008460068EF
:103EB00040F00200086000BF03480830006800F0CE
:103EC0000C000828F8D10CBD0038024000700040FA
:103ED000195A4007003C024010B500F0FDF80024DC
:103EE0000CE0084850F8240030B1064850F824008F
:103EF000401E044941F82400601CC4B20A2CF0DBC7
:103F000010BD00001C06002030B5164800684FF4B4
:103F10007A72B0FBF2F1481EB0F1807F01D301202C
:103F20001BE0481E4FF0E022506150170F2200287E
:103F300007DA13071D0E0C4B00F00F04241F1D554C
:103F400003E013071C0E094B1C5400BF00204FF068
:103F5000E022906107201061002008B100BFFEE759
:103F600030BD00000000002018ED00E000E400E09B
:103F700010B51548006840F47000134908601348F4
:103F8000006840F001001149086000200F49083125
:103F900008600E4800680E4908400C4908600D484A
:103FA000091D0860081F006820F48020091F0860B0
:103FB000002006490C310860FFF7FEFE4FF000605C
:103FC00001498039086010BD88ED00E000380240EA
:103FD000FFFFF6FE103000242DE9F04701240125F3
:103FE000002633480068401C314908603148FEF71C
:103FF00007FB30243DE0002538E0601E00EB800028
:1040000005EB4010401C2C49085CC010C700601E26
:1040100000EB800005EB4010401C085CC100601EF6
:1040200000EB800005EB4010234A105C01EB6010B0
:1040300080064FEA1069601E00EB800005EB40101F
:104040001146085CC0064FEA106806EB460038309F
:1040500018490F5406EB4600373001F8009006EB84
:104060004600363001F80080761CAD1CA02DC4DB64
:10407000641E002CBFDC00260D4810A10268124807
:1040800000F03AF90A221049104802F0A7F9104945
:104090000870104B42F6365206490C4802F0B5FA49
:1040A0000B490870094801F018FEBDE8F0870000D0
:1040B00010060020003C00D0000000D0706963258D
:1040C000642E626D70000000383700201427002035
:1040D000080600200C0600200448006820B10348B0
:1040E0000068401E0149086070470000E00500209C
:1040F00030B5441E04EB840465014C1E05EB4403FB
:10410000024C04EB5304227030BD0000A8060020CE
:1041100030B5441E04EB840465014C1E05EB4403DA
:10412000024C04EB5304227030BD0000A81500209F
:1041300021B1828942F40052828104E082894DF6E5
:10414000FF731A408281704702460020B1F5007F5C
:1041500000D100BF13880B400BB1012000E000200C
:10416000704700002DE9FF4705460E460024A14692
:1041700000BFA046B08900B100BF2C8A24F440548F
:10418000F08804432C82AC8941F20C608443B088EF
:1041900031890843718908430443AC81AC8A24F413
:1041A0004074B0890443AC826846FEF7B5F92048F4
:1041B000854202D01F48854202D1DDF80C9001E013
:1041C000DDF80890A88900F4004040B109EBC9006F
:1041D00000EB091031684900B0FBF1F707E009EB8B
:1041E000C90000EB091031688900B0FBF1F76420C9
:1041F000B7FBF0F004012009642101FB1078A889C5
:1042000000F4004040B1322000EBC800B0FBF1F0F8
:1042100000F00700044308E0322000EB081064219E
:10422000B0FBF1F000F00F0004432C81BDE8FF87E4
:104230000010014000140140C1F308028280704761
:1042400000BFFEE770B5012529462148FFF7F4FFBE
:1042500000BF80211E48FFF777FF0028F9D0FE2518
:1042600029461B48FFF7E8FF00BF80211848FFF7E9
:104270006BFF0028F9D000240DE01648055D2946A3
:104280001348FFF7D9FF00BF80211148FFF75CFFFB
:104290000028F9D0641CB4F5706FEED3FE252946D2
:1042A0000B48FFF7C9FF00BF80210948FFF74CFF0B
:1042B0000028F9D0012529460548FFF7BDFF00BFBA
:1042C00080210348FFF740FF0028F9D070BD0000AF
:1042D00000100140A80600200FB4054B10B503A93B
:1042E000044A029800F026FD10BC5DF814FB0000A3
:1042F000F16D0008140600200FB4084B10B504A996
:1043000002AA039800F016FD044602A9002000F05E
:1043100042FF204610BC5DF814FB000097510008D6
:1043200003B401984100009850EAC12018BF04204E
:104330004A0D18BF40F0010040F2FF72B2EB515F2E
:1043400008BF40F00200012808BF052002B07047F6
:1043500010B52F499FED2C1B2DED020B84B0059855
:1043600020F000408842D8BF9DED040B2DDD294987
:10437000884209D1049840B94FF0010000F0D4FC04
:1043800000F0A2FC06B010BD05DB9DED040B00F0B3
:104390008FFC06B010BD68469DED040B00F0A0F840
:1043A00010F0030004BF9DED021B9DED000B0CD02F
:1043B00001280ED09DED021B9DED000B022817D0A9
:1043C000012000F0DDFB06B010BD00F0A5FA06B03C
:1043D00010BD9DED021B9DED000B012000F0D0FBF8
:1043E00051EC100B81F0004106B041EC100B10BDF8
:1043F00000F092FA51EC100B81F0004106B041EC54
:10440000100B10BD000000000000000000000000C4
:10441000FB21E93F0000F07F10B52F499FED2C1BD9
:104420002DED020B84B0059820F000408842DCBFDF
:1044300000209DED040B32DD2849884209D1049803
:1044400040B94FF0010000F06FFC00F03DFC06B0F9
:1044500010BD05DB9DED040B00F02AFC06B010BD7D
:1044600068469DED040B00F03BF810F0030011D0FE
:10447000012818D09DED021B9DED000B02281AD0DB
:1044800000F04AFA51EC100B81F0004106B041EC0B
:10449000100B10BD9DED021B9DED000B012000F0E7
:1044A0006FFB06B010BD9DED021B9DED000B00F0F3
:1044B00033FA06B010BD012000F062FB51EC100B86
:1044C00081F0004106B041EC100B10BD000000006F
:1044D0000000000000000000FB21E93F0000F07F29
:1044E0002DE9F14F04462DED020B2DED088B8AB01E
:1044F0009FEDE70B80ED020B139EE74826F0004589
:1045000085420ADC9DED120B002084ED000B0AB001
:10451000BDEC088B03B0BDE8F08FE0489FEDE0AB49
:104520009FEDE1BBA84247DDE14F9FEDE39B9FED8F
:10453000E48B9DED120B53EC1A2B51EC100B002E5B
:104540001CDDFBF737FF41EC100BBD4208D053ECEC
:104550001B2B51EC100BFBF72DFFC4E900010BE006
:1045600053EC192B51EC100BFBF724FF53EC182BD9
:10457000FBF720FFC4E900010120C8E7FBF779FE43
:1045800041EC100BBD4208D053EC1B2B51EC100B2F
:10459000FBF76FFEC4E900010BE053EC192B51EC63
:1045A000100BFBF766FE53EC182BFBF762FEC4E919
:1045B00000014FF0FF30AAE7C348A84279DB9DED28
:1045C000120B51EC100B02F026F941EC180B9FED89
:1045D000C00B53EC102BFBF7F3FE9FEDBF1B53EC0E
:1045E000112BFBF746FEFCF7F0F80746FBF75AFFE6
:1045F00041EC190B53EC1A2BFBF7E2FE53EC182B92
:10460000FBF7DBFE41EC180B53EC1B2B51EC190BA9
:10461000FBF7D6FEDFF8C8A241EC100B4FEA1558A5
:104620000125FA4453EC102B51EC180BFBF7C2FE9A
:10463000032DC4E900013DD0C1F30A5005EB45113B
:10464000A8EB00001139814234DA0AEB051BB0EE09
:1046500048AA9BED000BF0EE68AA53EC102B51EC2E
:10466000190BFBF7ADFE41EC1B0B51EC1A0B53EC95
:104670001B2BFBF79FFE41EC180B51EC1A0B53EC74
:10468000182BFBF797FE53EC1B2BFBF793FE9BEDD0
:10469000020B41EC1A0B53EC102B51EC190BFBF7EE
:1046A0008FFE53EC1A2BFBF785FE41EC100B6D1CB3
:1046B000B8E70EE0002EA8BF3846BFF628AF94ED4D
:1046C000000B51EC100B81F00041C4E9000178426D
:1046D0001DE7C6F3130040F4801EC6F30A50A0F293
:1046E000F530471100F01F05C5F12000DDF848B096
:1046F00008900020069007900520EC467949002D8F
:1047000007EB0002794408BF51F8221009D051F894
:10471000223001EB8201AB404A68089922FA01F18C
:104720001943A1FB0E26A1FB0B131A449A4234BF76
:104730000123002303EB06080CEB8003D3E901A659
:104740000E448E4234BF0121002192448A4411B1AB
:10475000924502D903E0924501D2012100E00021F7
:10476000C3E901A641444CF82010011EA0F101004C
:10477000C4DC029800F10050850F0298DDE9036760
:104780008000DDF81480FBF78DFE41EC1A0B3046FB
:10479000FCF70EF89FED541B53EC112BFBF710FEAA
:1047A00041EC1B0B3846FCF703F89FED511B53EC13
:1047B000112BFBF705FE41EC180B4046FBF7F8FF09
:1047C0009FED4D1B53EC112BFBF7FAFD41EC190B40
:1047D00051EC180B53EC192BFBF74BFD53EC1B2B37
:1047E000FBF747FD53EC1A2BFBF743FDCDE908011E
:1047F000002008909DED080B53EC1A2B51EC100B88
:10480000FBF7D8FD53EC1B2BFBF7D4FD53EC182B17
:10481000FBF7D0FD53EC192BFBF7CFFD9FED381BB9
:1048200053EC112BFBF7CCFD9FED370B41EC180B34
:1048300053EC102B9DED080B51EC100BFBF7C0FD5A
:1048400053EC182BFBF715FD9FED310B41EC180BCA
:1048500053EC102B9DED080B51EC100BFBF7B0FD4A
:1048600053EC182BFBF705FD41EC100B139810F0DF
:10487000004F06D06D4251EC100B81F0004141EC2D
:10488000100B284684ED000B41E6000000000000FC
:104890000000000000000000FB21E93F7CD902403D
:1048A00000004054FB21F93F3163621A61B4D03DEE
:1048B000FB21F93F000000000000601A61B4D03D08
:1048C0007370032E8A19A33BFB21394100000000BD
:1048D00083C8C96D305FE43F000000000000E03F86
:1048E000C2DF020010DF0200000000000000103EE6
:1048F000000000000000103C000000000000103A22
:10490000182D4454FB21F93D3326A611460B113CCA
:1049100000000054FB21F93D10B52DED040B2DEDE9
:10492000088B82B0B0EE419AF0EE619A0B9820F0BD
:1049300000449FED4BABB4F1795F11DA9DED0A0BAA
:1049400051EC100BFBF741FF002801BFB0EE4A0A03
:10495000F0EE6A0A02B0BDEC088B04BF04B010BDD3
:104960009DED0A0B53EC102B51EC100BFBF728FDBF
:1049700041EC180B3C480621B0EE480AF0EE680AFC
:10498000784400F081F853EC182B51EC100BFBF736
:1049900017FD9DED0A0B41EC1B0B53EC192B51EC51
:1049A000100BFBF70DFD41EC190B53EC1B2B51ECDD
:1049B000180BFBF705FD53EC192BFBF7FBFC9FEDE8
:1049C0002C0B41EC190B53EC102B51EC180BFBF793
:1049D000F7FC41EC100B2848844210DA53EC192BF9
:1049E00051EC100BFBF7E6FC53EC1A2BFBF7E5FC44
:1049F00041EC100B02B0BDEC088B04B010BD1F4899
:104A0000A042BCBF9FED1E1B8DED001B06DBA4F575
:104A100000100190002000909DED001B51EC100B48
:104A200053EC112BFBF7C6FC9DED000B41EC180B72
:104A300053EC102B51EC1A0BFBF7BCFC41EC1A0B9E
:104A400053EC192B51EC180BFBF7B4FC53EC1A2B5D
:104A5000FBF7B3FC41EC100BCCE7000000000000BA
:104A6000000000000000F03F34DC02000000000005
:104A7000000000000000E03F3333D33F0000E93F77
:104A8000000000000000D23F70B504462DED028BFF
:104A90004D1E00EBC500B0EE408AF0EE608A90ED4E
:104AA000000B35F0060017D053EC182B51EC100B0F
:104AB000FBF786FC41EC100B6D1E04EBC50090ED7E
:104AC000001B51EC100B53EC112BFBF7D2FB41EC0C
:104AD000100B35F00600E7D1022D36D0042D1CD086
:104AE000062D1CBFBDEC028B70BD53EC182B51EC96
:104AF000100BFBF765FC94ED0A1B53EC112BFBF735
:104B0000B8FB53EC182BFBF75BFC94ED081B53EC44
:104B1000112BFBF7AEFB41EC100B53EC182B51ECB7
:104B2000100BFBF74DFC94ED061B53EC112BFBF720
:104B3000A0FB53EC182BFBF743FC94ED040B53EC58
:104B4000102BFBF796FB41EC100B53EC182B51ECA0
:104B5000100BFBF735FC94ED021B53EC112BFBF70C
:104B600088FB53EC182BFBF72BFC94ED001B53EC4C
:104B7000112BFBF77EFBBDEC028B41EC100B70BDE3
:104B800031B504462DED040B2DED0A8BB0EE41BA84
:104B9000F0EE61BA0B989DED0A0B20F00040B0F1E9
:104BA000795F0DDA51EC100BFFF7BAFB042808BF50
:104BB00000F09AF89DED0A0BBDEC0A8B05B030BDF4
:104BC00053EC102B51EC100BFBF7FAFB41EC180BDC
:104BD0009DED0A0B53EC182B51EC100BFBF7F0FB7F
:104BE00041EC190B2C48B0EE480AF0EE680A05219A
:104BF0007844FFF749FF9FED2ACBB0EE40AAF0EED4
:104C000060AA9CB353EC1C2B51EC190BFBF7D8FB9F
:104C100041EC1C0B53EC1A2B51EC190BFBF7D0FB9E
:104C20009FED210B41EC190B53EC102B51EC1B0B9E
:104C3000FBF7C6FB53EC192BFBF7BCFB53EC182B13
:104C4000FBF7BEFB53EC1B2BFBF7B4FB53EC1C2B0D
:104C5000FBF7B0FB9DED0A1B53EC112BFBF7ADFBF3
:104C6000BDEC0A8B05B041EC100B30BDFFE753ECF7
:104C70001A2B51EC180BFBF7A3FB53EC1C2BFBF787
:104C8000F8FA53EC192BFBF79BFB9DED0A1B53EC39
:104C9000112BFBF7EEFAE3E7BCDA0200000000009C
:104CA000495555555555C5BF000000000000E03F6F
:104CB00010B553EC102B51EC100BFBF7DAFA41EC6A
:104CC000100B10BD000000009FED050B10B553EC5C
:104CD000102B51EC100BFBF7EAFC41EC100B10BD54
:104CE00000000000000000009FED050B10B553EC24
:104CF000102B51EC100BFBF763FB41EC100B10BDBC
:104D0000000000000000001002E008C8121F08C1E7
:104D1000002AFAD170477047002001E001C1121F3C
:104D2000002AFBD17047000001490860704700006D
:104D3000180600202DE9FF4F8DB00F4605460026CE
:104D400006E025280BD0DDE90F1290476D1C761C7C
:104D500028780028F5D111B03046BDE8F08F002446
:104D6000A246A1460122EC4900E0044315F8013FA8
:104D7000203B02FA03F00842F7D128782A2810D005
:104D80006FF02F022878A0F13001092914D80AEB1E
:104D90008A0102EB410144F0020400EB010A6D1CA0
:104DA000F0E701CF5FEA000A03D544F40054CAF1EA
:104DB000000A44F002046D1C28782E2817D115F83B
:104DC000010F44F004042A280ED06FF02F02287837
:104DD000A0F1300109290AD809EB890102EB410150
:104DE00000EB01096D1CF2E757F8049B6D1C287855
:104DF0006C280FD006DC4C2817D068280DD06A2804
:104E000014D104E0742810D07A280FD10DE044F4B6
:104E100000140AE044F4801401E044F4401469787A
:104E2000814202D104F580146D1C6D1C2A786E2A13
:104E30001FD00CDC632A31D004DC002A8BD0582A26
:104E400011D1A3E0642A68D0692A0CD165E0732AE5
:104E50002ED004DC6F2A73D0702A04D19BE0752A0F
:104E60006FD0782A6ED01046DDE90F129047761C7D
:104E700050E1C4F30250022806D0032809D00428C8
:104E800001CF09D0066045E101CFF117C0E900610B
:104E900040E101CF06803DE106703BE117F8040BCD
:104EA0008DF8000000208DF80100EB46012003E0A2
:104EB00057F804BB4FF0FF3061074FF0000102D4F8
:104EC0000DE008F10101884649450FDA8045F8DB1D
:104ED0001BF808100029F4D108E008F10101884608
:104EE0008142FADB1BF808100029F6D1DDE90F2317
:104EF000AAEB08008146214600F036F9304400EB69
:104F0000080604E0DDE90F121BF8010B9047B8F129
:104F10000108F7D221464846F7E00A21C4F30253BC
:104F20004FF0000B0891022B04D001CFC117032BC7
:104F300009D00AE0FF1D27F00707F7E8020108E0A3
:104F400032E01FE020E000B2C117042B01D140B2D3
:104F5000C117031E71F1000307DA4FF0000CD0EB0C
:104F60000C006CEB01012D2302E0230504D52B235B
:104F70008DF82430012303E0E30701D02023F7E775
:104F8000984658E00A2110E010210EE010204FF062
:104F9000000B08900CE010214FF0000B44F00404CB
:104FA0004FF00809089103E008214FF0000B089129
:104FB000C4F30253022B04D001CF0021032B06D0EF
:104FC00006E0FF1D27F00707F7E8020103E080B2C3
:104FD000042B00D1C0B24FF0000823072BD5702A54
:104FE00007D0DDF820C08CF0100C5CEA0B0C05D06B
:104FF0000EE040238DF82430012308E050EA01033D
:1050000006D030238DF824308DF8252002239846D1
:10501000DDF820C08CF0080C5CEA0B0C0BD150EAD8
:10502000010301D1630706D530238DF824304FF0FA
:105030000108A9F10109582A04D038A20B9208AA44
:105040000A920BE03AA2F9E75B46089AFBF7CEF822
:105050000B9B9B5C0A9A521E0A92137050EA010243
:10506000F2D10A98ADEB000000F1200B600702D5E9
:1050700024F4803401E04FF00109D94502DDA9EBA9
:105080000B0000E0002000EB0B0141440890AAEB6C
:10509000010AE00306D4DDE90F232146504600F063
:1050A00063F806444FF0000908E009A911F8090067
:1050B000DDE90F12904709F10109761CC145F4DBC7
:1050C000E0030CD5DDE90F232146504600F04CF8F3
:1050D000064404E0DDE90F1230209047761C089961
:1050E000481E08900029F5DC08E00A980A99007823
:1050F000491C0A91DDE90F129047761CBBF10001B3
:10510000ABF1010BF1DC21465046DDE90F2300F045
:1051100019F806446D1C1BE60928010030313233B2
:1051200034353637383961626364656600000000E3
:1051300030313233343536373839414243444546CD
:10514000000000002DE9F041044600251E461746E8
:10515000880404D405E039462020B0476D1C641E45
:10516000F9D52846BDE8F0812DE9F0410446002537
:105170001E469046C80301D5302700E0202788044A
:1051800004D505E041463846B0476D1C641EF9D58C
:105190002846BDE8F0810A68531C0B601070704708
:1051A00070B504460D4600202071401EE06229467D
:1051B000204601F0B1FF08B1032070BD94F82E1213
:1051C00094F82F0241EA00204AF65521884201D086
:1051D0000220F2E794F86900010694F8680041EAB9
:1051E000004194F8670041EA002094F866100843F3
:1051F00020F07F400D49884201D10020DDE794F87E
:105200008500010694F8840041EA004194F8830087
:1052100041EA002094F88210084320F07F400349BF
:10522000884201D10020C8E70120C6E7464154006A
:10523000024600E0521C107810B110788842F9D173
:10524000107870470246891E5069801E884201D836
:10525000002070479378906A01FB0300F9E7000093
:105260002DE9F04780460C46A17EE07E41EA002011
:1052700010B10020BDE8F087207800F03F00401E0C
:1052800000EB800101EBC0064FF00109002524E08E
:105290001A48405D205C1949495D2144497840EA3B
:1052A0000127B9F1000F11D0FF2E0BD2384601F0C3
:1052B000FDFA82463146761C38F8110001F0F6FA04
:1052C000824501D00020D5E7B94605E04FF6FF70D2
:1052D000874201D00020CDE76D1C0D2DD8D320785A
:1052E00000F0400038B1B9F1000F04D038F81600D2
:1052F00008B10020BEE70120BCE70000BC74000834
:105300002DE9F04704468946B9F1000F06D1E76858
:1053100017B16069B84215D8012713E04946204605
:1053200001F0DEFD0646022E02D20120BDE8F08724
:10533000701C08B93046F9E76069B04201D93046BF
:10534000F4E74F463D4600BF6D1C6069A84204D893
:105350000225BD4201D90020E8E72946204601F098
:10536000BFFD064606B909E0701C08B1012E01D147
:105370003046DBE7BD42E7D10020D7E700BF6FF042
:1053800070422946204601F0E1FE8046B8F1000F48
:1053900008D1B9F1000F05D02A464946204601F050
:1053A000D5FE8046B8F1000F0BD1E5602069401CA6
:1053B00078B12069401E2061607940F00100607181
:1053C00007E0B8F1010F02D14FF0FF3000E00120FB
:1053D00005462846AAE700002DE9F34F83B0814631
:1053E00004980068019002E00198401C0190019827
:1053F00000782F28F8D0019800785C28F4D0D9F8EC
:105400001CA000252F4600BF38467F1C01990C5C6C
:10541000202C03DB2F2C01D05C2C00D132E0FF2D9F
:1054200003D3062005B0BDE8F08FE4B2812C13DB76
:10543000E0B2FE2810DC38467F1C01990E5C06EBBA
:10544000042084B2402E01DB7E2E05DD802E01DBA0
:10545000FE2E01DD0620E5E70121204601F0E8F9F6
:1054600004460CB90620DDE7802C06DA214671A03F
:10547000FFF7DEFE08B10620D4E728466D1C2AF8A7
:105480001040C1E700BF0198C11904980160202CA9
:1054900001DA042000E00020804608E0681E3AF8A7
:1054A0001040202C02D02E2C00D002E06D1E002DCA
:1054B000F4D100BF0DB90620B4E700202AF815008A
:1054C0000B222021D9F8180001F01CFE002700E073
:1054D0007F1C3AF817002028FAD03AF817002E2837
:1054E000F6D00FB148F0030800E06D1E25B1681E2C
:1054F0003AF810002E28F8D10020064602904FF00E
:10550000080B00BF38467F1C3AF8104004B963E02E
:10551000202C03D02E2C04D1AF4202D048F0030837
:10552000F0E70298584501D2AF4214D1BBF10B0FFE
:1055300002D148F003084FE0AF4201D048F0030821
:10554000AF4200D948E02F46082002904FF00B0BE5
:10555000B006060ED6E7802C09DB204601F0A6F93E
:105560000021009001F064F9044648F00208FF2C85
:1055700011DDABF101000299884204D848F003081C
:10558000CDF808B0BEE72212D9F818300298411CB5
:1055900002911A5419E024B1214629A0FFF748FED0
:1055A00018B15F2448F003080FE0412C04DB5A2CAB
:1055B00002DC46F0020608E0612C06DB7A2C04DCF3
:1055C00046F00106A4F1200084B2D9F81830029800
:1055D000411C02911C5495E700BFD9F818000078CF
:1055E000E52803D10520D9F818100870BBF1080F81
:1055F00001D1B006060E06F00C000C2803D006F010
:105600000300032801D148F0020808F0020058B94D
:1056100006F00300012801D148F0100806F00C0044
:10562000042801D148F00808D9F8180080F80B8048
:105630000020F7E6222A3A3C3E3F7C7F0000000033
:105640002B2C3B3D5B5D00002DE9F04104460E46EE
:105650000021204600F0CDF90546EDB9002700BF36
:105660002169206801F058FD054605B113E0606925
:105670000078E52802D06069007820B9781C0746D8
:10568000B04201D107E000270121204600F07FF859
:105690000546002DE4D000BF042D00D10725284683
:1056A000BDE8F0812DE9F04704460021204600F0D6
:1056B000A0F9074617B13846BDE8F0874FF0FF095B
:1056C000CA464FF6FF70208400BF2169206801F0B0
:1056D00023FD074607B157E065692E780EB9042708
:1056E00052E0E87A00F03F08E52E05D008F0080007
:1056F00040B1B8F10F0F05D04FF0FF094FF6FF7022
:1057000020843AE0B8F10F0F1CD1E06978B306F0BD
:10571000400030B195F80DA026F04006B146E08873
:1057200020844E450AD1687B504507D12946E0695F
:10573000FFF796FD10B1A9F1010000E0FF2000F095
:10574000FF091AE0B9F1000F05D1284601F000FE6B
:10575000504500D118E0A069C07A00F0010038B9C6
:105760000B222846A16901F0ADFC08B90CE004E069
:105770004FF0FF094FF6FF7020840021204600F013
:1057800006F80746002FA0D000BF384694E72DE961
:10579000F04104468846E088461CB0B208B1206952
:1057A00010B90420BDE8F08121684889C11700EBD9
:1057B000D1614911B6FBF1F201FB1261002971D1EF
:1057C0002069401C2061E06828B920680089B04247
:1057D00068D80420E6E721684889C11700EBD16149
:1057E0004911B6FBF1F122689278521E114000294E
:1057F00058D1E168206801F073FB0546012D01D8FE
:105800000220CFE7681C08B90120CBE72068406977
:10581000A84241D8B8F1000F01D10420C2E7E168E5
:105820002068FFF76DFD05460DB90720BAE7012D89
:1058300001D10220B6E7681C08B90120B2E7206850
:1058400001F0FAFD08B10120ACE721684A8901F1B5
:105850003000002101F056FC29462068FFF7F2FCD9
:105860002168C86200270EE00120216808712068C5
:1058700001F0E2FD08B1012094E72068C06A401CF5
:105880002168C8627F1C20688078B842ECD8206804
:10589000C06AC01B2168C862E56029462068FFF71E
:1058A000D1FC2061E68021684889C11700EBD161F5
:1058B0004911B6FBF1F201FB12612268303202EBB2
:1058C0004111616100206DE72DE9FE4F0446D4F8D7
:1058D0001880D4F81C900C224146684601F005FC63
:1058E00000BF9DF80B0000F0010020B3002088F8F5
:1058F0000B00E06101260CE033464A46694640460B
:1059000001F088FA2046FFF7CDFE054605B102E01A
:10591000761C642EF0D300BF642E02D10720BDE8B0
:10592000FE8F042D01D02846F9E79DF80B0088F87A
:105930000B00C4F81C909DF80B0000F0020060B151
:10594000002600E0761C39F816000028FAD106F18E
:1059500019000D21B0FBF1F700E001273946204680
:10596000FFF772FE054645BB781E071E25D0E0886E
:10597000C11B204600F03DF80546F5B9A06901F0CD
:10598000E7FC824600BF2169206801F0C5FB05469F
:1059900005B111E0FAB253466169E06901F0A0F97E
:1059A00001202168087100212046FFF7F0FE05461E
:1059B00015B9781E071EE6D100BFC5B92169206858
:1059C00001F0AAFB054695B920220021606901F08B
:1059D00099FB0B22D4E9050101F087FBA069C07A8D
:1059E00000F01800616908730120216808712846D9
:1059F00095E72DE9F04104460E46E680A568012DA5
:105A000003D020684069A84202D80220BDE8F08196
:105A10002DB920680078032801D12068456A45B96E
:105A200020680089B04201D80220EFE72068476A69
:105A300024E021684889C11700EBD161491122682F
:105A4000927811FB02F812E02946206801F048FA2A
:105A50000546681C08B90120D8E7022D03D3206849
:105A60004069A84201D80220D0E7A6EB08064645C7
:105A7000EAD229462068FFF7E5FB0746E5600FB943
:105A80000220C3E721684889C11700EBD1614911A1
:105A9000B6FBF1F13944216121684889C11700EB57
:105AA000D1614911B6FBF1F201FB1261226830327B
:105AB00002EB411161610020A8E770B504460125A1
:105AC00014B1012C09D107E0FDF732FC10B925F023
:105AD000010500E0012502E001E0012500BF00BF53
