:020000040800F2
:10000000502A0020C1010008212B0008E118000837
:10001000C1290008C90800082D410008000000009F
:10002000000000000000000000000000613D00082A
:100030006910000800000000C1330008C53E000838
:10004000DF010008DF010008DF010008DF01000810
:10005000DF010008DF010008ED130008DF010008E0
:10006000DF010008DF010008DF010008DF010008F0
:10007000DF010008DF010008DF010008DF010008E0
:10008000DF010008DF010008DF010008DF010008D0
:10009000DF010008DF010008DF010008DF010008C0
:1000A000DF010008DF010008DF010008DF010008B0
:1000B000DF010008DF010008DF010008DF010008A0
:1000C000DF010008DF010008DF010008DF01000890
:1000D000DF010008DF010008DF010008DF01000880
:1000E0001D140008DF010008DF010008DF0100081F
:1000F000DF010008DF010008DF010008DF01000860
:10010000DF010008DF010008DF010008DF0100084F
:10011000DF010008DF010008DF010008DF0100083F
:10012000C10B0008690C0008DF010008DF010008AE
:10013000DF010008DF010008DF010008DF0100081F
:10014000DF010008DF010008DF010008DF0100080F
:10015000DF010008DF010008DF010008DF010008FF
:10016000DF010008DF010008DF010008DF010008EF
:10017000DF010008DF010008010A0008DF010008B4
:10018000DF010008DF010008DF010008DF010008CF
:10019000DF010008DF010008DF010008DF010008BF
:1001A000DF010008DF010008DF010008DFF80CD0E4
:1001B00000F01EFB00480047F9550008502A0020B7
:1001C000074880470748804707480047FEE7FEE7A3
:1001D000FEE7FEE7FEE7FEE7FEE7FEE7FEE7FEE7F7
:1001E0005D3F0008AD390008AD0100082DE9FE4F64
:1001F000804681EA0300C00F0C46009021F00041C8
:1002000023F00045B8EB0200A94105D24046214643
:1002100090461C460B46024623F00040104347D050
:10022000270DC7F30A00C3F30A510290401A019048
:1002300040286BDAC3F3130040F4801B0098924609
:1002400020B10023D2EB030A63EB0B0B0198594654
:10025000C0F14002504600F0FEF906460D465046F9
:100260005946019A00F006FA10EB0800614100249B
:1002700087EA115284EAE7731A4340D0009A62B3C6
:10028000019A012A4FEA075215DC001B61EB0201BB
:100290004FF0004202EA0752CDE90042001C41F54E
:1002A000801132462B4600F03DFA03B0BDE8F08FD6
:1002B00040462146F9E7001B61EB0201001C41F5B5
:1002C000801300185B412018A2F5001747EB0301CB
:1002D00040EAD570B6196D4111E06D084FEA360657
:1002E00045EAC0754FEA0752001B61EB0201001C92
:1002F00041F5801149084FEA30000019514132465A
:100300002B4603B0BDE8F04F00F0FDB90098012284
:1003100040000023D0EB020263EBE073009821461B
:100320004FEAE074B8EB000061EB0401E9E783F009
:1003300000435BE781F0004158E72DE9FE4F81EA79
:10034000030404F0004421F0004100944FF0000B3E
:1003500023F0004350EA01045ED052EA03045BD06C
:10036000C3F30A54C1F30A552C44A4F2F3340194A4
:10037000A0FB0254C1F3130141F48011C3F3130332
:1003800043F4801301FB024400FB034E840A970AE6
:1003900044EA815447EA8357A4FB076802958D0A13
:1003A00005FB07854FEA932C04FB0C542705029D9F
:1003B0004FEA065847EA1637B5EB08056EEB070C0F
:1003C000870E920E47EA811742EA8312A7FB0201C9
:1003D000B6EB0B0164EB00042B0D43EA0C335E1803
:1003E00044EB1C50DA465146E7FB0201C5F3130407
:1003F0004FEA0B3343EA14534FEA0432019C43EAB9
:100400000603A4F10C040294009CCDE900B400F0B2
:1004100089F903B0BDE8F08F00200146F9E72DE926
:10042000F04D81EA030404F0004B21F0004514462E
:100430004FF0000A23F0004150EA050220D054EAB0
:1004400001021DD0C5F30A570246C5F31303C1F3D9
:100450001300C1F30A5640F4801543F48013A7EB50
:100460000608101BD64608F2FD3873EB050002D3D0
:1004700008F1010801E092185B41B8F1000F03DABE
:1004800000200146BDE8F08D00204FF480110646A3
:1004900084460EE0171B73EB050705D3121B63EBB5
:1004A000050306434CEA010C49084FEA3000921854
:1004B0005B4150EA0107EDD152EA030012D082EA13
:1004C000040083EA0501084305D0101BAB4106D2A6
:1004D0000122002306E000224FF0004302E06FF00B
:1004E000010253101AEB06004CEB085110EB0A0006
:1004F00041EB0B01BDE8F04D00F005B90EB5C10FA1
:1005000080EAE0700844CA07002140F233438DE8D6
:100510000E000A460B4600F005F903B000BD0EB50B
:1005200040F2334102910021CDE900110A460B4609
:1005300000F0F8F803B000BD00F0004230F00040D9
:100540000AD0C10D01F56071C0F3160042EA0151F5
:10055000C208400711437047002001467047000061
:1005600030B5041E71F1000404DB4FF0004440423A
:1005700064EB0101141E73F1000405DB1C464FF00F
:100580000043524263EB0403994208BF904230BDDE
:1005900001F0004330B421F0004150EA010206D0DE
:1005A0000A0DA2F56072C1F31301002A02DC30BC0F
:1005B00000207047440F44EAC104C100E01830BC79
:1005C00000EBC25000F068B830B50B460146002081
:1005D0002022012409E021FA02F59D4205D303FA05
:1005E00002F5491B04FA02F52844151EA2F1010286
:1005F000F1DC30BD2DE9F05F0546002092469B46B8
:1006000088460646814640241BE028464146474628
:10061000224600F0FFF853465A46C01A914110D3C3
:1006200011461846224600F016F82D1A67EB01080D
:100630004F4622460120002100F00DF817EB00097B
:100640004E41201EA4F10104DFDC484631462A4613
:100650004346BDE8F09F202A04DB203A00FA02F16D
:10066000002070479140C2F1200320FA03F31943A0
:1006700090407047202A06DBCB17203A41FA02F05F
:1006800043EAE07306E041FA02F3D040C2F12002EF
:1006900091400843194670470029A8BF7047401C85
:1006A000490008BF20F00100704710B4B0FA80FC88
:1006B00000FA0CF050EA010404BF10BC704749B1C5
:1006C000CCF1200421FA04F411FA0CF118BF012135
:1006D00021430843A3EB0C01CB1D4FEA00614FEA15
:1006E000102042BF002010BC704700EBC3501044E4
:1006F0000029A4BF10BC7047401C490008BF20F06F
:10070000010010BC704710B5141E73F1000408DA24
:10071000401C41F1000192185B411A4301D120F0C5
:10072000010010BD2DE9F04D92469B4611B1B1FA82
:1007300081F202E0B0FA80F220329046FFF78BFFA0
:1007400004460F4640EA0A0041EA0B0153465A4666
:10075000084313D0114653EA010019D0C8F14002F2
:10076000504600F057F805460E4650465946424658
:10077000FFF771FF084305D0012004E02046394609
:10078000BDE8F08D0020054346EAE0762C43374370
:100790000A986305E40AA0EB08000022FD0A44EA77
:1007A00047540A3002D500200146E9E70105101937
:1007B0006941DDE9084500196941BDE8F04DA2E74E
:1007C000C1F30A52C1F3130140F2FF3341F4801127
:1007D0009A4202DA00200146704740F233439A42BF
:1007E000A2F2334202DC524200F014B8FFF733BFEA
:1007F000064C074D06E0E06840F0010394E807006E
:1008000098471034AC42F6D3FFF7D4FC0C820008B2
:100810003C820008202A04DB203A21FA02F0002161
:10082000704721FA02F3D040C2F120029140084300
:100830001946704770B5C1F30A5201F00045002413
:10084000C1F3130140F2FF3341F480119A4201DAFF
:10085000002070BD40F233439A42A2F2334203DCDF
:100860005242FFF7D7FF00E090402C43F1D04042C6
:1008700070BD70B58C1810F8015B15F0070301D13D
:1008800010F8013B2A1106D110F8012B03E010F8F3
:10089000016B01F8016B5B1EF9D12B0705D4002316
:1008A000521E0DD401F8013BFAE710F8013BCB1AB8
:1008B000921C03E013F8015B01F8015B521EF9D5AD
:1008C000A142D8D3002070BD00BFFEE7F0B50020E4
:1008D0002DE0194D441C2C5DE410E100441C2C5DFE
:1008E0006407A50E144C245C641105EB8402124CC1
:1008F000245CE406230E40F22B1511FB05F540F2B3
:100900004B2612FB06F63544C3EBC306C6EB831633
:1009100005EB460505F5FA754FF47A76B5FBF6F565
:1009200000EBD0767610054FBD55841CA0B2B0F513
:10093000F05FCEDBF0BD0000000000D0B00600206C
:1009400030B500201CE0104C235CDC1703EB547422
:10095000E1100D4C235CDC1703EB9474A210C2F37E
:10096000C20303EBC103DCB2012303EB4005074BD9
:100970005C5501EB4213DCB2044B03F81040401C01
:10098000B0F5706FDFD330BDB0060020001E00D080
:1009900030B10749096841F00101054A116005E0DD
:1009A0000349096821F00101014A11607047000004
:1009B00000000550014948617047000000000550E3
:1009C00030B10749096841F48041054A116005E0EA
:1009D0000349096821F48041014A11607047000011
:1009E00000000550014600200022044B1B6903EA69
:1009F00001020AB1012000E000207047000005500C
:100A000010B50120FFF7EEFF01280CD100200649A8
:100A1000088006480078401C0449087001200449F9
:100A20000870FFF7C7FF10BD2E0000202600002031
:100A30003800002029B1074AD2680243054BDA602A
:100A400006E0044AD268C3439BB21A40014BDA6005
:100A5000704700000000055000210E4A126844F261
:100A600001039A430B4B1A601A46116840F6F27262
:100A70009143028843881A4383881A43C3881A43E0
:100A800003891A4343891A4383891A431143014A4C
:100A9000116070470000055010B50121C80502F033
:100AA000A1FC00214FF4000002F09CFC10BD0000EE
:100AB00001460020034A52680A400AB1012000E0C2
:100AC0000020704700B0024070B5002100220023D2
:100AD0000024344D2D68344E3540324E3560354655
:100AE0002D68066835432F4E356035466D6B25F011
:100AF0000705756335466D6B46683543294E75634A
:100B0000456835B9C5682902058A2A04057D2B0682
:100B100021E04568012D05D1C5682902058A2A040E
:100B2000002318E04568022D05D1C56869010569F3
:100B3000EA0200230FE04568032D06D1C56869016C
:100B40000569AA024569EB0305E0C5682901056945
:100B50002A0245692B0341EA0205866835431D4395
:100B6000104EB66B35430F4EB5638569F563354658
:100B70002D6C6FF30D05356435462D6CC669354314
:100B8000084E3564858C2C0435466D6C05F0404567
:100B9000756435466D6C066A26433543014E7564AF
:100BA00070BD000000B00240FCE0FCFF034800689C
:100BB00040F00100014908607047000000B00240A9
:100BC00010B51549154800F0D3F901281ED1144875
:100BD0000088401C1249088008460088612802DB12
:100BE0000120088012E00F4A128853000C4A128834
:100BF000521E0D4C03FB0240094A1288521E0B4B39
:100C00004FF4C86404FB023100F06EF80249034857
:100C100000F0D2F810BD00002080001010640240E7
:100C20002C00002056000020000000D0003C00D026
:100C300008B50121880502F0C5FB38208DF80000B9
:100C400000208DF8010001208DF802008DF80300CE
:100C5000684601F07FFF01221021024800F0BAF936
:100C600008BD00001064024070B51749174800F035
:100C70007FF9012826D116480088401C14490880B5
:100C80000846008813490988884202D1002010498B
:100C90000880114A12885400E21704EB92729110F6
:100CA0000E4A128853000E4A1288094D2D88521B95
:100CB000521E0C4D03FB025001F092FF0249034803
:100CC00000F07AF870BD000000880010286402402F
:100CD0002E0000205C0000205A000020560000205A
:100CE00058000020000000D030B58FB004460D46FB
:100CF0000121880502F066FB204800F083F800BF60
:100D00001E4800F02BF90028FAD1009001940295BA
:100D100080200390502004904FF400700590400014
:100D200006904000079080000890002009904FF442
:100D300040300A9004200B9003200C904FF08070FC
:100D40000D9000200E9069460C4800F061F90C49A6
:100D50000A4800F017F801221021084800F03AF97B
:100D60000121064800F042F800BF0448183000F0A6
:100D7000F5F80128F9D10FB030BD00001064024031
:100D8000200000100246094B9A4201D2084801E0B7
:100D90000648103801F000531BB1064B0B40C360EE
:100DA00002E0044B0B408360704700001064024077
:100DB000006002407D0F7D0F0246094B9A4201D22E
:100DC000084801E00648103801F000531BB1064BFB
:100DD0000B40C36002E0044B0B408360704700008F
:100DE00010640240006002407D0F7D0F21B1026857
:100DF00042F00102026003E0026822F00102026098
:100E000070470000016821F00101016000210160CC
:100E100041608160C1600161212141614A4988428C
:100E200004D13D21484A103A91608CE0464918317E
:100E3000884205D14FF47461434A103A916082E0D0
:100E400041493031884205D14FF474113E4A103A7D
:100E5000916078E03C494831884205D14FF0746197
:100E6000394A103A91606EE037496031884204D1C6
:100E70003649354A103AD16065E0334978318842C5
:100E800004D13349304A103AD1605CE02E499031A8
:100E9000884204D12F492C4A103AD16053E02A49A4
:100EA000A831884205D14FF03D51274A103AD16010
:100EB00049E02949884204D13D21274A083A116076
:100EC00041E025491831884205D14FF47461224A26
:100ED000083A116037E020493031884205D14FF49B
:100EE00074111D4A083A11602DE01B4948318842AF
:100EF00005D14FF07461184A083A116023E0164991
:100F00006031884204D11149134A121F11601AE05E
:100F100011497831884204D10D490F4A121F1160DE
:100F200011E00D499031884204D10A490A4A121F42
:100F3000116008E00849A831884204D14FF03D51C2
:100F4000054A121F11607047106002403D000020EA
:100F5000400F002000003D201064024001460020A8
:100F60000A6802F001020AB1012000E00020704787
:100F700070B50246002000240025124EB24201D274
:100F8000114B01E00F4B103B104E0E4036B11E26A8
:100F900006EAD124166806EA040502E0566906F05E
:100FA000800501F000560EB15C6800E01C68084E38
:100FB000344004EA010616B10DB1012000E0002022
:100FC00070BD000010640240006002403C0F3C0F06
:100FD0007D0F7D0F10B501F080034BB122B1436945
:100FE00043F08003436103E0436923F080034361DE
:100FF00080290BD02AB1036801F01E04234303604B
:1010000004E0036801F01E04A343036010BD000068
:1010100010B500220268134B1A40CC680B682343BA
:101020004C6923438C692343CC6923430C6A2343D3
:101030004C6A23438C6A23434C6B23438C6B2343BE
:101040001A430260426922F00702D1E90B342343BC
:101050001A4342610B6943604B6883608B68C360CD
:1010600010BD00003F801CF07047000000B587B045
:101070000121084602F0A6F90121102002F002FA2F
:1010800007220A211D4800F0B7FB072209211B484F
:1010900000F0B2FB00208DF81A0001208DF81B0033
:1010A00002208DF818000002059002208DF819002A
:1010B00005A9124800F058FB02208DF818004002E4
:1010C000059005A90D4800F04FFB4FF4E130019069
:1010D0000020ADF80800ADF80A00ADF80C00ADF83E
:1010E00010000C20ADF80E0001A9054802F0B0FF79
:1010F0000121034802F092FF07B000BD000002404A
:101100000010014001B504490098086000BF024882
:1011100000680028FBD108BD1806002010B52DED91
:10112000028B47F6FF714FF6FF7001F07DFA32A196
:10113000354803F0B9F801F0DBF9C08800EB400155
:1011400001EBC00084B23049204600F047FE01F0B8
:10115000CFF9C088C0EBC0004004040C2A492046E7
:1011600000F03CFE29480068FFF7E6F941EC180B57
:1011700053EC182B26A1244803F096F801F0B8F997
:10118000C08800EB80004004040C23A1204600F03E
:1011900025FE01F0ADF9C08800EB400101EBC00075
:1011A00084B21949204600F019FE1E480068FFF776
:1011B000C3F941EC180B53EC182B15A1124803F09E
:1011C00073F801F095F9C08800EB800101EBC000D5
:1011D00084B215A1204600F001FE01F089F9C08813
:1011E000C0EBC0004004040C0749204600F0F6FDA7
:1011F000BDEC028B10BD00002020202020202020EC
:1012000020202020000000004C060020300000209C
:10121000252E326600000000C6ABD2C6BEE0C0EB91
:10122000A3BA000034000020CBAEC6BDCBD9B6C8EF
:10123000A3BA000070B500255B480068002877D18C
:101240005949086047F6FF71481C01F0EDF940F27A
:10125000BD1340F221220021EB2000F01DFF47F6D4
:10126000FF714FF6FF7001F0DFF901F041F9C68818
:101270004EA1304600F0B2FD01F03AF9C08800EB13
:1012800080004004060C4FA1304600F0A7FD00236B
:101290004FF407726D21F02000F050FF00234FF44F
:1012A00007726E21F02000F049FF00234FF407720F
:1012B0006F21F02000F042FF00234FF4077240F24C
:1012C0004911F02000F03AFF00234FF407724FF469
:1012D000A571F02000F032FF00234FF4077240F2B6
:1012E0004B11F02000F02AFF0123C8220A21EF2031
:1012F00000F024FF0123C8220A21F02000F01EFF85
:101300000123C8220A21F12000F018FF0123C8227E
:10131000E621EF2000F012FF0123C822E621F02091
:1013200000F00CFF0123C822E621F12000F006FFA7
:101330001D480068401C1C490860284890ED000AC0
:10134000DFED270A30EE200ABDEEC00A10EE104A8B
:10135000A1B2154A128802EB4202F02303EB4202CB
:1013600090B2022200F04EFE1E4890ED000ADFED22
:101370001E0A30EE200ABDEEC00A10EE105AA9B2C5
:10138000094A128802EB4202F02303EB420290B2B8
:10139000022200F037FE04480068592802DB0020D2
:1013A0000149086070BD000040000020202020207E
:1013B0002020202020202020202020206C656E6707
:1013C00074680000202020202020202020202020C1
:1013D000202020207370656564000000300000202C
:1013E0000000DC42340000200000A54310B50120BD
:1013F00000F03AF850B106A002F046FF0648006837
:1014000008B100F00BFC012000F028F810BD00002E
:101410004B6579310A0000002800002010B54FF418
:10142000005000F021F888B109480068012803D174
:1014300000200749086002E001200549086005A076
:1014400002F022FF4FF4005000F008F810BD000039
:10145000280000204B6579320A000000014908602D
:1014600070470000143C014001460020034A126806
:101470000A400AB1012000E000207047143C0140FE
:10148000002123498279002A3AD00A46126803686B
:101490009A430B461A600A1D126803689A430B1D93
:1014A0001A60027911440A6803681A430A60184AEC
:1014B0000832126803689A43154B08331A601A1DE4
:1014C000126803689A43124B0C331A604279102A4F
:1014D0000ED11A1F126803681A430D4B08331A60A5
:1014E0001A1D126803681A43094B0C331A600DE089
:1014F0000749427911440A6803681A430A6005E003
:10150000027911440A6803689A430A607047000030
:10151000003C01401FB50121052001F053FF0121CE
:10152000880301F0AFFF01F0FCFA012002900020D7
:101530008DF80C008DF80F0002A9184800F014F97E
:101540000021084602F00EFC0120009000208DF8DA
:10155000040008208DF8050001208DF8060068467B
:10156000FFF78EFF4FF40050029002A90C4800F0E4
:10157000FBF80D21022002F0F5FB4FF40050009023
:1015800000208DF804000C208DF8050001208DF856
:1015900006006846FFF774FF1FBD00000000024010
:1015A0000008024010B5024600200023102A03D193
:1015B0004FF02044636E0FE0B2F5807F02D10A4CF9
:1015C000236809E0B2F5805F03D1074C203423681B
:1015D00002E0054CD434236803EA01048C4201D0B4
:1015E000002000E0012010BD840000A00021D0E90F
:1015F00000231A4383685B1E42EA4312C36842EA2F
:101600004321014A11607047500100A070B50022CB
:101610000021002300240568AD00A5F1C045D5F8E0
:1016200040216FF30E02D0E901563543C6683543B9
:10163000066935434669354386693543C66935438E
:10164000066A3543466A35432A43056835B9056855
:10165000AD00A5F1C045C5F8402111E03B4D2B6818
:101660006FF30E03D0E907563543466A35432B43E3
:10167000364D2B600568AD00A5F1C045C5F8402189
:10168000056875BB314D0835066855F8261001F020
:101690007041856A2D686D1E866A7668761E45EAF9
:1016A0000616856AAD686D1E46EA0526856AED68F0
:1016B0006D1E46EA0536856A2D8A6D1E46EA054688
:1016C000856AAD8A6D1E46EA0556856A2D7E6D1EB9
:1016D00046EA056529431D4D0835066845F826107C
:1016E00032E0FFE7194D0835066855F8261001F07D
:1016F0007041856A2D686D1E866A7668761E45EA99
:101700000616856AAD686D1E46EA0526856A2D8A2D
:101710006D1E46EA054529430C4D08352C6804F03A
:101720007044856AED686D1E2E03856AAD8A6D1E54
:1017300046EA05552C434FF02045C5F84841034D76
:101740000835066845F8261070BD0000400100A06D
:101750000449096841EA40014FF02042C2F854119F
:1017600070470000540100A0F0B50A460021002394
:10177000002400BF3DE0012505FA01F3156805EAE4
:1017800003049C4234D105684F000326BE40B54394
:10179000056015794E00B54006683543056015793A
:1017A000012D02D01579022D16D185684F00032630
:1017B000BE40B543856055794E00B54086683543D7
:1017C0008560456801268E40B54345604568967939
:1017D0008E40B6B235434560C5684F000326BE4013
:1017E000B543C560D5794E00B540C6683543C56080
:1017F000491C1029BFD3F0BDF0B5002300244D07CC
:10180000ED0E02FA05F3CE1000F1200555F8265032
:101810004E07F70E0F26BE40B543CF1000F120064D
:1018200046F82750CE1000F1200555F8265045EA1D
:101830000304CE1000F1200545F82640F0BD418399
:1018400070470183704700002DE9F04180460C4647
:101850001248007820B902F087F901200F4908707A
:101860002512E6B2A5F1A101C1EB011202EB411173
:1018700006EB4101A13901EB4101C90001EB410136
:10188000C800C11700EB5171CF1007F5AA0148221B
:10189000404602F041F90020BDE8F081100600202A
:1018A00010B50246501E00EB80004401481E04EBB8
:1018B0004003024800EB5300007810BDB006002042
:1018C00010B50246501E00EB80004401481E04EB98
:1018D0004003024800EB5300007810BDB015002013
:1018E00002E002A002F0D0FCFBE700000D0A206835
:1018F0006172646661756C742100000021B1028818
:1019000042F48062028004E002884FF6FF331A40FE
:101910000280704770B50246002400250023002095
:10192000958A138B1B0445EA030626F07F4404EADC
:1019300001068E4201D1012000E0002070BD21B1DE
:10194000028842F00102028004E002884FF6FE7332
:101950001A4002807047000010B5044613488442C4
:1019600009D10121480501F07DFD00214FF400104F
:1019700001F078FD18E00E48844209D10121880564
:1019800001F070FD00214FF4800001F06BFD0BE0D1
:101990000848844208D10121C80501F063FD0021F7
:1019A0004FF4000001F05EFD10BD00000054004047
:1019B00000580040005C004021B1028842F480726F
:1019C000028004E002884FF6FF631A4002807047ED
:1019D00021B1028842F40072028004E002884FF6CE
:1019E000FF531A40028070472DE9FF4704460D4619
:1019F0000026B1460427DFF8CC80A6884FF6C070D9
:101A00000640684601F04EFDDDF808802E48B8FB20
:101A1000F0F01FFA80F946EA0906A68020884FF602
:101A2000FE710840208000262849286888420CD88A
:101A300028684000B8FBF0F087B2042F00DA0427D2
:101A40003E4309F10100208427E0E8884BF6FF714E
:101A5000884206D1286800EB4000B8FBF0F087B25E
:101A600009E0286800EBC00101EB0010B8FBF0F0C2
:101A700087B247F48047C7F30B0008B947F0010766
:101A800047F4004006434FF4967009FB00F04FF412
:101A90007A7190FBF1F0401C2084A683208840F0EE
:101AA0000100208026884FF6F5300640A888698915
:101AB000084306432680A889298908432081BDE878
:101AC000FF87000000127A0040420F00A08601004C
:101AD0000146088AC0B2704712B141F0010101E02D
:101AE00001F0FE01018270470182704770B52DED53
:101AF000048B01240FE001250AE0A9B2A0B2FFF790
:101B0000CFFE0646A9B2A0B2324602F077FA6D1CAB
:101B1000502DF2D9641C302CEDD901240FE00125A1
:101B20000AE0A9B2A0B2FFF7CBFE0646A9B2A0B266
:101B3000324602F053FA6D1C502DF2D9641C302C41
:101B4000EDD92E480068FEF7F7FC41EC190B9FED2C
:101B50002C0B53EC102BFEF749FB41EC180BFEF756
:101B600017FD26490860084690ED000ADFED260AB9
:101B7000B4EEE00AF1EE10FA03DB9FED240A80EDEB
:101B8000000A1E480068FEF7D7FC41EC190BB0EEC6
:101B9000490AF0EE690A02F017FCB0EE408AF0EE56
:101BA000608A51EC180BFEF7F3FC00EE100ADFED33
:101BB000180A20EE200A174880ED000A0F48006836
:101BC000FEF7BAFC41EC190BB0EE490AF0EE690AD7
:101BD00002F096FBB0EE408AF0EE608A51EC180BF2
:101BE000FEF7D6FC00EE100ADFED090A20EE200A0F
:101BF000094880ED000ABDEC048B70BD3C0000205C
:101C00009A9999999999B93F00009D430000000065
:101C100000004842300000203400002010B50120B0
:101C2000FEF7B6FE00200F4908704FF47A700E4997
:101C3000486200BF0C48406A18B10A480078002882
:101C4000F8D0FEF743FEFFF751FFFEF779FE02F0F2
:101C50006FFAFFF763FAFFF7EDFA04490448FFF75C
:101C600043F810BD3800002024060020003C00D0BE
:101C7000000000D0F0B58BB00446002500260027F8
:101C80001D48008800F47840C5121B48007800F019
:101C90001F071948008800F4FC604611FEF7FCFE9F
:101CA0004FF440300190022002900496039705956E
:101CB00004F4004008B1FF2000E0002006900F4827
:101CC00000680790002008904FF4F07009904FF4DE
:101CD00048700A9001A8FEF7F7FEFEF767FF00BF05
:101CE0000220FEF7E5FE0028FAD00348008800F045
:101CF000C3FC0BB0F0BD0000480000204C000020E9
:101D00002DE9F04F93B007468846914600BF002664
:101D10004FF4487078434FEA400B4644494601A8C7
:101D2000FFF792FD002535E005EB450001A90C5CAD
:101D3000240205EB4500401C085C0443240205EB2B
:101D40004500801C085C04434FF0000A1BE004F4CB
:101D5000000048B11248008812490968022202FBBB
:101D6000061121F80B0008E00F4800880D490968AA
:101D7000022202FB061121F80B00761C64000AF116
:101D8000010000F0FF0ABAF1180FE0DB06F5427619
:101D9000681CC5B2182DC7DB13B0BDE8F08F00007A
:101DA000480000204C0000204A00002070B5054685
:101DB0000E461446A4F12000C4B20748006801682A
:101DC00005480068C088604301EB40023146284660
:101DD00000F044F870BD0000440000202DE9F041FF
:101DE00007460C4600251DE020787E280BDC227873
:101DF00029463846FFF7DAFF1748006880882844EC
:101E000085B2641C0EE02688300200EB262086B2E4
:101E1000324629463846FFF773FF05F1180085B2B0
:101E2000A41C00BFB5F5487F14DA0B480068808811
:101E3000284480B2084909688988884201DB01206A
:101E400000E00020217809B1012100E000210840D4
:101E50000028C9D1BDE8F081440000202DE9F041FF
:101E600004460D46134600BF002200BF00204FF479
:101E7000487767437E00284400214DE000223FE080
:101E8000294F3F68BF884FF00C0C97FBFCF74FEAD7
:101E9000C70C802707FA0CF7174133F811C007EA7F
:101EA0000C0727B9204F3F68BF880C2F0DDD33F892
:101EB00011704FF0010C0CFA02FC07EA0C078FB905
:101EC000194F3F68BF880C2F0CDD184F3F88DFF893
:101ED00060C0DCF800C04FF0020808FB00CC2CF812
:101EE00006700BE0134F3F88DFF844C0DCF800C0F9
:101EF0004FF0020808FB00CC2CF80670401C521C66
:101F0000094F3F68BF889742BAD8074F3F68BF88DC
:101F1000C7F548773844491C034F3F68FF888F4214
:101F2000ACD8BDE8F0810000440000204A00002049
:101F30004C000020480000202DE9F04303460C46E9
:101F40001546684200216F00C7F1020200BF2B4F07
:101F50003F88A3EB000C04EB01084FF4487909FB20
:101F600008CCDFF89C80D8F8008028F81C70234F3C
:101F70003F8803EB000C04EB010809FB08CCDFF8F9
:101F80008080D8F8008028F81C701C4F3F8803EB35
:101F9000000CA4EB010809FB08CCDFF86480D8F83A
:101FA000008028F81C70154F3F88A3EB000CA4EBB1
:101FB000010809FB08CCDFF84880D8F8008028F831
:101FC0001C7016468E420BDC4F1C39464FF0010C3C
:101FD0000CEB47073A44C84202D1864200DC002697
:101FE000864206DD471C38464FF0010C0CEB4707D4
:101FF0003A440028ABDDBDE8F08300004800002033
:102000004C0000202DE9F04706460F46904603207D
:10201000A0EB48090024454634E08DB16B041A0C4E
:102020007B1B99B2331B98B2012300F087F86B0435
:102030001A0C7B1B99B2331998B2012300F07EF879
:102040008CB163041A0C3B1B99B2731B98B2012329
:1020500000F074F863041A0C3B1B99B2731998B220
:10206000012300F06BF8B9F1000F04DA062000EB51
:102070008400814405E0601B0A2101EB800081445B
:102080006D1E641CAC42C8D9424639463046FFF743
:1020900053FFBDE8F08700002DE9F04F8BB00546F7
:1020A0000E4614461F464FF00008C146C246C346BE
:1020B0002048008800F478404FEAE0291D48007865
:1020C00000F01F0B1B48008800F4FC604FEA601A08
:1020D0004FF4487000FB065017490968022202FBC2
:1020E0000018FEF7D9FC4FF4403001900220029016
:1020F000CDF810A0CDF80CB0CDF814900F200690BC
:10210000CDF81C80C4F54870089009970A9401A87E
:10211000FEF7DAFCFEF74AFD00BF0220FEF7C8FC1E
:102120000028FAD00348008800F0A6FA0BB0BDE8FA
:10213000F08F0000480000204C0000202DE9F04FF7
:102140008BB005460E4614461F464FF00008C146A8
:10215000C246C3464FF4487000FB06502049096848
:10216000022202FB00181F48008800F478404FEA62
:10217000E0291C48007800F01F0B1A48008800F482
:10218000FC604FEA601AFEF787FC4FF44030019084
:1021900002200290CDF810A0CDF80CB0CDF814902C
:1021A0000F200690CDF81C802FB900200890012048
:1021B00009900A9405E040F21F300890099401202C
:1021C0000A9001A8FEF780FCFEF7F0FC00BF022099
:1021D000FEF76EFC0028FAD00BB0BDE8F08F0000CF
:1021E0004C000020480000201CB5012140F2FF10E7
:1021F00001F0E8F80420009002208DF805008DF829
:10220000040000208DF806008DF807006946AF48ED
:10221000FFF7AAFA0E220221AC48FFF7EDFA0820D8
:1022200000906946A948FFF79FFA0E220321A748AC
:10223000FFF7E2FA4FF4807000906946A348FFF779
:1022400093FA0E220821A148FFF7D6FA0120009048
:1022500069469F48FFF788FA092200219C48FFF74A
:10226000CBFA4FF40060009069469A48FFF77CFA79
:102270000E220B219748FFF7BFFA4FF480500090D1
:1022800069469448FFF770FA0E220C219148FFF737
:10229000B3FA0220009069468D48FFF765FA0922DB
:1022A00001218B48FFF7A8FA4020009069468A4830
:1022B000FFF75AFA0E2206218748FFF79DFA2020E1
:1022C000009069468548FFF74FFA0E2205218348A2
:1022D000FFF792FA4020009069468048FFF744FAE1
:1022E0000E2206217D48FFF787FA4FF40050009038
:1022F00069467648FFF738FA0E220D217348FFF73A
:102300007BFA4FF48060009069467348FFF72CFA1F
:1023100009220A217048FFF76FFA4FF4004000903D
:1023200069466A48FFF720FA0E220F216748FFF737
:1023300063FA0120009069466948FFF715FA0E22FA
:1023400000216748FFF758FA8020009069466548E9
:10235000FFF70AFA0E2207216248FFF74DFA042020
:10236000009069465E48FFF7FFF90E2202215C48A3
:10237000FFF742FA1020009069465848FFF7F4F939
:102380000E2204215548FFF737FA4FF48050009091
:1023900069465148FFF7E8F90E220C214E48FFF735
:1023A0002BFA4020009069464F48FFF7DDF90E22D6
:1023B00006214D48FFF720FA4FF40060009069466F
:1023C0004548FFF7D1F90E220B214348FFF714FAD5
:1023D0001020009069464248FFF7C6F90E220421FA
:1023E0003F48FFF709FA0820009069463948FFF78F
:1023F000BBF90E2203213748FFF7FEF94FF4807036
:10240000009069463248FFF7AFF90E2208213048A4
:10241000FFF7F2F94FF40070009069462C48FFF77F
:10242000A3F90E2209212A48FFF7E6F9802000903F
:1024300069462948FFF798F90E2207212648FFF739
:10244000DBF94FF48060009069462548FFF78CF96E
:102450000E220A212248FFF7CFF94FF400700090B6
:1024600069461F48FFF780F90E2209211C48FFF733
:10247000C3F94FF48060009069461C48FFF774F977
:102480000E220A211948FFF7B7F910200090022008
:102490008DF8050001208DF8040000208DF806005D
:1024A00001208DF8070069460F48FFF75DF980208D
:1024B000009069460C48FFF757F910210A48FFF7CA
:1024C000C0F980210848FFF7BCF91CBD001C024080
:1024D00000040240000002400018024000100240C8
:1024E0000020024000080240000C0240001402409C
:1024F00001480068704700004400002000B58FB01C
:102500000121880600F0BEFF0121C80500F05AFF36
:10251000FFF76AFE002000900190029003900C905B
:102520000D900E90042207214FF4C07001F060F866
:102530004FF4803001F04AF8012001F053F800BF59
:102540003D2001F023F80028FAD0002004900590E7
:102550002E2006901720079040F24E30089040F24F
:10256000F710099040F262300A9040F20D200B9073
:10257000684600F0C3F80FB000BD000000B591B090
:102580002F20019040F24E3002901820039040F22C
:10259000F710049002200590FF200690002007907D
:1025A000089009900A904FF480600B9005200C90E1
:1025B00040F243600E90C01E0F904FF4F0701090E8
:1025C00015480D9001A9154800F069F90320059000
:1025D00013480D904FF4C0600B9007200C9001A998
:1025E0000E48803000F05BF9012000F0E3F9012192
:1025F0000A4800F049F901210848803000F044F908
:10260000012000F0D7F9074800F018F8012000F089
:1026100063F811B000BD0000003C00D084680140A8
:1026200000F40BD0F0050020024A1080024A11800D
:1026300070470000480000204A000020014908605F
:10264000704700004400002030B90749074A116074
:102650000021074A116005E00649044A1160012182
:10266000034A116070470000003C00D04C0000207D
:102670005000002000F40BD0014908807047000092
:102680004800002010B504460848006820B92146DB
:10269000074800F0F7F804E021460548803000F0D4
:1026A000F1F8012000F086F910BD00005000002074
:1026B0008468014030B10749096841F00101054AC9
:1026C000116005E00349096821F00101014A116028
:1026D000704700001868014030B10749096841F4AB
:1026E0008031054A116005E00349096821F4803111
:1026F000014A11607047000018680140F0B50021E0
:10270000002200230024002500265B4F3F68DFF8ED
:102710006CC107EA0C07DFF860C1CCF80070078ACB
:10272000390467463F68D0F814C04CEA010C47EA08
:102730000C07DFF844C1CCF800700CF104073F68C7
:10274000DFF838C107EA0C07DFF82CC10CF1040CE4
:10275000CCF80070078B3A0467463F68D0F81CC07D
:102760004CEA020C47EA0C07DFF80CC10CF1040C30
:10277000CCF800700CF104073F68DFF800C107EAED
:102780000C07DFF8F4C00CF1080CCCF80070078CD3
:102790003B0467463F68D0F824C04CEA030C47EA84
:1027A0000C07DFF8D4C00CF1080CCCF800700CF169
:1027B00004073F68DFF8C4C007EA0C07DFF8B8C0B9
:1027C0000CF10C0CCCF80070078D3C046746D7F870
:1027D00000C0C76A27434CEA070C274F0C37C7F8DD
:1027E00000C03F1D3F68DFF898C007EA0C07DFF81C
:1027F00088C00CF1100CCCF80070D0E9007C47EADE
:102800000C07D0F808C047EA0C07D0F80CC047EA1C
:102810000C07DFF864C00CF1100CDCF800C047EACC
:102820000C07DFF854C00CF1100CCCF80070476BAB
:102830003D02078E3E04104F24373F6807F07F4764
:10284000DFF834C00CF1240CCCF8007046EA050720
:10285000D0F838C047EA0C07DFF81CC00CF1240C94
:10286000DCF800C047EA0C07DFF80CC00CF1240CC0
:10287000CCF80070F0BD00000868014000F800F0DE
:102880008F88FE0F4161704721B1026842F001025A
:10289000026003E0026822F00102026070472DE945
:1028A000F041002400250026002200270023B1F873
:1028B00004C04FEA0C44D0F804C00CF4704CC0F8CB
:1028C00004C0D1F800C04CEA040CC0F804C0B1F850
:1028D0000CC04FEA0C45D0F808C00CF4704CC0F89E
:1028E00008C0D1F808C04CEA050CC0F808C0D0F800
:1028F00010C02CF0070CC0F810C0D1F810C0C0F800
:1029000010C0D1F81CC04FEA0C26B1F820C04FEA25
:102910000C4291F824C04FEA0C67D0F818C09C46CE
:10292000C0F818C0D1F818C04CEA060C4CEA020CEA
:102930004CEA070CC0F818C0D0F814C02CF0FF0CFB
:10294000C0F814C0D1F814C0C0F814C0D0F81CC02E
:1029500040F207782CEA080CC0F81CC0D1E90AC87C
:102960004CEA080CC0F81CC0D0F828C09C46C0F83F
:1029700028C0D1F830C0C0F828C0B1F838C04FEA3C
:102980000C43D0F82CC00CF0E02CC0F82CC0D1F8CF
:1029900034C04CEA030CC0F82CC0D0F830C06FF340
:1029A0000A0CC0F830C0D1F83CC0C0F830C0BDE857
:1029B000F081000001490860704700002468014070
:1029C00000BFFEE710B51FA001F05EFCFFF790FD11
:1029D000C08800EB400101EB001084B222A1204628
:1029E000FFF7FCF900F042F9294800F0A5FB284860
:1029F0000078562808D100BF25484378027838214E
:102A000024A001F041FC12E04FF47C40FFF734FEBB
:102A1000FFF76EFD002427A12046FFF7DFF900BF76
:102A20003F212F4801F030FC00BF00BFFEE700F05F
:102A30004BFA00F0ADFA0120FDF7C2FF0120FDF7CF
:102A4000A7FF10BD0D0A53544D333246343239209E
:102A500044434D4920C7FDB6AF4F5635363430C0DC
:102A6000FDB3CC0D0A0000004F5635363430CDBCD6
:102A7000CFF1B4A6C0EDB2E2CAD4A3ACD3B2BCFECF
:102A8000B0E6B1BEA3BABEC9B0E6463432390000E2
:102A9000240000203C3C2D43414D4552412D4445EE
:102AA0004255472D3E3E205B25645D2578202578E4
:102AB0000D0A0A00202020202020202020C3BBD384
:102AC000D0BCECB2E2B5BD4F5635363430A3ACC7FE
:102AD000EBD6D8D0C2BCECB2E9C1ACBDD3A1A30047
:102AE000C881000810B5FFF709FDFFF747FD012079
:102AF000FFF7E0FD0020FFF7A7FDFF20FFF7C2FD75
:102B00004FF40040FFF7B6F80120FFF79DFDFF20CE
:102B1000FFF7B8FD47F6FF70FFF7ACF810BD704740
:102B2000704708B54FF4C06000F050F806208DF8EB
:102B3000000001208DF801008DF802008DF80300DF
:102B4000684600F007F828208DF80000684600F07D
:102B500001F808BD70B5002100230F22C4781CB312
:102B6000174C246804F4E064C4F5E064C4F307215E
:102B7000C1F10404E3B20A4144789C40E1B2847894
:102B8000144021430C07210E0E4C05786155047842
:102B900004F01F050124AC4005786D11AD0005F16E
:102BA000E025C5F8004109E0047804F01F05012480
:102BB000AC40054D0678761145F8264070BD000002
:102BC0000CED00E000E400E080E100E00249014398
:102BD000024A1160704700000000FA050CED00E0A9
:102BE00030B58FB004460D460121880500F0EAFBA0
:102BF00000211C48FEF7FAF800BF1A48FEF7AEF9AC
:102C00000028FAD14FF0007000901748019002940C
:102C100000200390049505904FF48060069080009A
:102C2000079040000890401109904FF440300A90FE
:102C300004200B9003200C904FF080700D9000202A
:102C40000E9069460748FEF7E3F901210548FEF7B3
:102C5000CDF800BF0348FEF781F90128FAD10FB083
:102C600030BD0000286402402800055000B587B040
:102C700088A001F009FB012140F2C91000F0A2FB7D
:102C80002020059002208DF8180003208DF81900EF
:102C900000208DF81A0001208DF81B0005A982483C
:102CA000FEF762FD0D2205217F48FEF7A5FD1020ED
:102CB000059005A97D48FEF757FD0D2204217B48AC
:102CC000FEF79AFD4020059005A97848FEF74CFDD7
:102CD0000D2206217548FEF78FFD4FF40070059018
:102CE00005A97348FEF740FD0D2209217048FEF743
:102CF00083FD4FF48060059005A96D48FEF734FD13
:102D00000D220A216A48FEF777FD4FF40060059016
:102D100005A96748FEF728FD0D220B216448FEF740
:102D20006BFD4FF48050059005A96148FEF71CFD2E
:102D30000D220C215E48FEF75FFD4FF480400590A8
:102D400005A95B48FEF710FD0D220E215848FEF73D
:102D500053FD0820059005A95648FEF705FD0D22F4
:102D600003215448FEF748FD4020059005A94E4830
:102D7000FEF7FAFC0D2206214B48FEF73DFD8020B0
:102D8000059005A94848FEF7EFFC0D2207214648AB
:102D9000FEF732FD01208DF8180000208DF8190093
:102DA0008DF81A0001208DF81B000820059005A958
:102DB0004148FEF7D9FC0420059005A93E48FEF7DE
:102DC000D3FC04213C48FEF73AFD08213A48FEF7BF
:102DD00038FD0A20FEF796F908213748FEF72FFD47
:102DE0000A20FEF78FF904213348FEF72AFD01215E
:102DF000480500F027FB0121022000F0E3FA04223D
:102E000006212E48FEF7F8FC042207212B48FEF786
:102E1000F3FC4020059002208DF8180000208DF86A
:102E2000190001208DF81A0000208DF81B0005A95B
:102E30002248FEF799FC042206212048FEF7DCFC1C
:102E40008020059005A91D48FEF78EFC1C48FEF762
:102E500083FD0020ADF808004BF6FF70ADF80A00C6
:102E6000FE20ADF80C004FF48060ADF80E000001BC
:102E7000ADF810001348019001A91148FEF7B4FD08
:102E800001210F48FEF75BFD3220FEF73BF907B04A
:102E900000BD00000D0AB3F5CABCBBAF4750494F97
:102EA000BACD4949430D0A0000200240000002400B
:102EB000001C0240000C02400018024000040240C6
:102EC00000540040801A060010B586B00121084663
:102ED00000F098FA0220ADF808000020ADF80A00D2
:102EE0002020ADF80C008020ADF80E000020ADF8D9
:102EF0001000ADF81200ADF8140002A8FDF7ACFD0B
:102F00001E4A12885400E21704EB927291101C4A78
:102F10001288521E1B4B1B885A431B4B03EB42006B
:102F2000FFF75EFE4FF4C060FFF750FE39208DF8CA
:102F3000040000208DF8050001208DF806008DF8B2
:102F4000070001A8FFF706FE012210210F48FEF737
:102F500041F84E208DF8040000208DF80500012076
:102F60008DF806008DF8070001A8FFF7F3FD012199
:102F70000846FDF75FFD06B010BD00005A000020B6
:102F80005800002056000020000000D028640240B5
:102F900038B504215248FEF752FC0220FEF7B2F881
:102FA00004214F48FEF74DFC1E20FEF7ABF800F061
:102FB0008BF91E20FEF7A6F8002423E0494A02EB15
:102FC00084029178474A32F8240000F085F9454997
:102FD00031F8240000F0C8F8434921F8140000BF7C
:102FE000084630F8140000903E4800EB8400438807
:102FF0003C4830F8242040F2B3313CA001F044F9C1
:1030000000BF641CD02CD9D34FF4FA70FEF77AF8C5
:103010000520434908700846007806284FD2DFE8AB
:1030200000F0034E1221303F002409E03D4A02EB3C
:10303000840291783B4A32F8240000F04DF9641C78
:103040000B2CF3D34AE0002409E0374A02EB840258
:103050009178354A32F8240000F03EF9641C0B2CBC
:10306000F3D33BE0002409E0304A02EB840291787C
:103070002E4A32F8240000F02FF9641C2A2CF3D3D6
:103080002CE0002409E02A4A02EB84029178284AC5
:1030900032F8240000F020F9641C2A2CF3D31DE040
:1030A000002409E0234A02EB84029178214A32F895
:1030B000240000F011F9641C2A2CF3D30EE0002444
:1030C00009E01A4A02EB84029178184A32F8240087
:1030D00000F002F9641C2A2CF3D300BF00BF38BDF6
:1030E000001802405E000020B02400203C3C2D432C
:1030F000414D4552412D44454255472D3E3E205BB2
:1031000025645D73656E736F725F7265675B30789F
:1031100025785D3A25782D25780D0A0A00000000F3
:10312000540000209E030020CA030020F603002064
:103130009E0400204605002010B5044606A001F0BC
:10314000A3F843F20A0000F00FF8207043F20B00DE
:1031500000F00AF8607010BD0D0AB6C1C9E3CFF1E6
:10316000CDB749440D0A000070B5054642F210740F
:10317000002601215148FEF71FFC00BF05E0201E7C
:10318000A4F1010401D1FF2070BD4D494B48FEF769
:10319000C1FB0028F3D0002278214848FEF79CFCB0
:1031A00042F2107405E0201EA4F1010401D1FF20B9
:1031B000EAE744494148FEF7ADFB0028F3D0290A6D
:1031C0003E48FEF791FC42F2107405E0201EA4F187
:1031D000010401D1FF20D7E73A49891C3748FEF79F
:1031E00099FB0028F2D035481430008840F4806004
:1031F000324914310880E9B23048FEF775FC42F2DA
:10320000107405E0201EA4F1010401D1FF20BBE7EA
:103210002C49891C2948FEF77DFB0028F2D027485D
:103220001430008840F48060244914310880012162
:103230002248FEF7C1FB42F2107405E0201EA4F103
:10324000010401D1FF209FE71D491C48FEF762FBE6
:103250000028F3D0012278211848FEF73DFC42F205
:10326000107405E0201EA4F1010401D1FF208BE7BA
:103270001349491C1148FEF74DFB0028F2D00021EC
:103280000E48FEF73BFB42F2107405E0201EA4F14D
:10329000010401D1FF2077E709493F310748FEF7D4
:1032A00039FB0028F2D001210448FEF791FB0348C6
:1032B000FEF70EFC0646304666E70000005400406C
:1032C000010003008200070010B5802143F20800CE
:1032D00000F002F810BD000070B505460E4642F23F
:1032E000107401213348FEF767FB00BF05E0201E84
:1032F000A4F1010401D1FF2070BD2F492D48FEF734
:1033000009FB0028F3D0002278212A48FEF7E4FBCD
:1033100042F2107405E0201EA4F1010401D1FF2047
:10332000EAE726492348FEF7F5FA0028F3D0290AF0
:103330002048FEF7D9FB42F2107405E0201EA4F1EC
:10334000010401D1FF20D7E71C49891C1948FEF769
:10335000E1FA0028F2D0E9B21648FEF7C5FB42F2C6
:10336000107405E0201EA4F1010401D1FF20C3E781
:103370001249891C0F48FEF7CDFA0028F2D03146D9
:103380000C48FEF7B1FB42F2107405E0201EA4F1D8
:10339000010401D1FF20AFE70849891C0548FEF769
:1033A000B9FA0028F2D001210248FEF711FB0020F3
:1033B000A2E7000000540040010003008200070063
:1033C0007047000029B1064A12680243044B1A6094
:1033D00004E0034A12688243014B1A607047000000
:1033E0003038024029B1064A12680243044B1A6081
:1033F00004E0034A12688243014B1A6070470000E0
:103400001038024029B1064A12680243044B1A6080
:1034100004E0034A12688243014B1A6070470000BF
:103420003438024029B1064A12680243044B1A603C
:1034300004E0034A12688243014B1A60704700009F
:103440003838024029B1064A12680243044B1A6018
:1034500004E0034A12688243014B1A60704700007F
:103460004038024029B1064A12680243044B1A60F0
:1034700004E0034A12688243014B1A60704700005F
:103480002038024029B1064A12680243044B1A60F0
:1034900004E0034A12688243014B1A60704700003F
:1034A00044380240F0B50021002200240225002605
:1034B0000223324F3F6807F00C0121B1042905D0E7
:1034C000082937D105E02E4F076036E02D4F076001
:1034D00033E02A4F3F1F3F68C7F38056274F3F1FF7
:1034E0003F6807F03F036EB1264FB7FBF3F7DFF8F5
:1034F0008CC0ACF1040CDCF800C0CCF3881C07FBDA
:103500000CF40CE01E4FB7FBF3F7DFF870C0ACF122
:10351000040CDCF800C0CCF3881C07FB0CF4174F3C
:103520003F1F3F68C7F301477F1C7D00B4FBF5F7E1
:10353000076002E0124F076000BF00BF0F4F3F68F7
:1035400007F0F0010909104F7A5C0768D74047601F
:103550000A4F3F6807F4E051890A0B4F7A5C4768CD
:10356000D7408760054F3F6807F46041490B064F1D
:103570007A5C4768D740C760F0BD00000838024059
:103580000024F40040787D011400002010B50146AD
:103590000022002300204A11012A02D10A4C23688C
:1035A00008E0022A03D1084C7034236802E0064C7C
:1035B0007434236801F01F02012494401C400CB1B4
:1035C000012000E0002010BD00380240014600202C
:1035D000034A106820F44030084310607047000030
:1035E0008C380240014908677047000000004742DC
:1035F00010B5830143EA016343EA0273014C23607F
:1036000010BD0000883802401CB50121FC20FFF7E6
:10361000D9FE02208DF804008DF8050000208DF8F9
:1036200006008DF80700012000906946D948FEF792
:103630009BF80C220021D748FEF7DEF8022000900C
:103640006946D448FEF790F80C220121D148FEF7D4
:10365000D3F8042000906946CE48FEF785F80C2286
:103660000221CC48FEF7C8F8082000906946C948F6
:10367000FEF77AF80C220321C648FEF7BDF81020A9
:1036800000906946C348FEF76FF80C220421C14838
:10369000FEF7B2F8202000906946BE48FEF764F8B5
:1036A0000C220521BB48FEF7A7F84FF4805000908C
:1036B0006946B848FEF758F80C221146B548FEF79F
:1036C0009BF84FF4005000906946B248FEF74CF862
:1036D0000C220D21AF48FEF78FF84FF48040009088
:1036E0006946AC48FEF740F80C220E21A948FEF7C7
:1036F00083F84FF4004000906946A648FEF734F87E
:103700000C220F21A348FEF777F8012000906946AC
:10371000A148FEF729F80C2200219F48FEF76CF81B
:103720000220009069469C48FEF71EF80C220121F9
:103730009948FEF761F84FF4804000906946974839
:10374000FEF712F80C220E219448FEF755F84FF4BC
:103750000040009069469148FEF706F80C220F21C0
:103760008E48FEF749F80120009069468B48FDF726
:10377000FBFF0C2200218948FEF73EF80220009052
:1037800069468648FDF7F0FF0C2201218348FEF7C9
:1037900033F88020009069468148FDF7E5FF0C2250
:1037A00007217F48FEF728F84FF4807000906946A3
:1037B0007B48FDF7D9FF0C2208217948FEF71CF859
:1037C0004FF40070009069467548FDF7CDFF0C225C
:1037D00009217348FEF710F84FF4806000906946A5
:1037E0006F48FDF7C1FF0C220A216D48FEF704F86F
:1037F0004FF40060009069466948FDF7B5FF0C2260
:103800000B216748FDF7F8FF4FF4805000906946A0
:103810006348FDF7A9FF0C2211466148FDF7ECFF54
:103820004FF40050009069465D48FDF79DFF0C2263
:103830000D215B48FDF7E0FF4FF4804000906946A2
:103840005748FDF791FF0C220E215548FDF7D4FF94
:103850004FF40040009069465148FDF785FF0C2267
:103860000F214F48FDF7C8FF4FF480700090694664
:103870004A48FDF779FF0C2208214848FDF7BCFFB4
:103880004FF40070009069464448FDF76DFF0C222C
:1038900009214248FDF7B0FF4FF48060009069466F
:1038A0003E48FDF761FF0C220A213C48FDF7A4FFCA
:1038B0004020009069463B48FDF756FF0C22062148
:1038C0003848FDF799FF1020009069463248FDF70F
:1038D0004BFF0C2204213048FDF78EFF2020009082
:1038E00069462D48FDF740FF0C2205212A48FDF7C7
:1038F00083FF0120009069462B48FDF735FF0C221D
:1039000000212948FDF778FF4FF4006000906946D8
:103910002048FDF729FF0C220B211E48FDF76CFF04
:103920004FF40040009069461B48FDF71DFF0C2234
:103930000F211948FDF760FF4FF480700090694631
:103940001548FDF711FF0C2208211348FDF754FF1D
:103950008020009069461348FDF706FF0C220721DE
:103960001048FDF749FF0220009069460C48FDF71A
:10397000FBFE0C2201210A48FDF73EFF01200090CA
:1039800069460748FDF7F0FE0C2200210448FDF7C8
:1039900033FF1CBD0014024000180240000C02401E
:1039A00000100240001C02400008024000B593B025
:1039B000FFF72AFE01210846FFF734FD022001909F
:1039C0000720029004200390072004900220059015
:1039D00006900790012008900020099004200A908A
:1039E00010200B9040200C904FF4C0700D900020E0
:1039F0000E904FF400600F90002010904FF4005094
:103A0000119001A8129008A8FDF700FE00F002F83E
:103A100013B000BD1FB500240120009008200190C4
:103A2000012002900020039000BF20210120FDF71B
:103A3000B9FD0028F9D16846FDF7D8FD0A2000F04D
:103A40004DF80220009008200190012002900020F3
:103A5000039000BF20210120FDF7A4FD0028F9D12B
:103A60006846FDF7C3FD0320009008200190042064
:103A700002900020039000BF20210120FDF792FD5D
:103A80000028F9D16846FDF7B1FD00BF20210120D3
:103A9000FDF788FD0028F9D16846FDF7A7FD40F243
:103AA000312404200090082001900120029003940A
:103AB00000BF20210120FDF775FD0028F9D16846DF
:103AC000FDF794FD40F26A50FDF742FE00BF202151
:103AD0000120FDF767FD0028F9D11FBD01B581B0B8
:103AE00000200090054901984843009002E00098AA
:103AF000401E009000980028F9D10CBDA08601005E
:103B000021B1028842F04002028004E002884FF6B0
:103B1000BF731A400280704770B505460C461646C2
:103B20004FF480700F494883032000F091F8C4F3EC
:103B3000074000F08DF8C4F3072000F089F8E0B2E8
:103B400000F086F804E0FF2000F082F828706D1C79
:103B5000301EA6F101018EB2F5D14FF480700149FB
:103B6000088370BD0020024000B587B001214FF4EA
:103B70008170FFF727FC0121C803FFF763FC0622D1
:103B800003213048FDF738FE062204212D48FDF7B9
:103B900033FE062205212B48FDF72EFE082000905B
:103BA00002208DF805008DF8040000208DF8060035
:103BB00003208DF8050000208DF807006946214894
:103BC000FDF7D2FD1020009069461E48FDF7CCFDA0
:103BD0002020009069461B48FDF7C6FD4FF4807019
:103BE000009001208DF8040069461748FDF7BCFDE0
:103BF0004FF48070144908830020ADF808004FF49A
:103C00008270ADF80A000020ADF80C000220ADF87B
:103C10000E000120ADF810004002ADF8120008209F
:103C2000ADF814000020ADF816000720ADF818001C
:103C300002A9064800F056F801210448FFF760FF8A
:103C400007B000BD0004024000200240003C0040DC
:103C500010B504464FF48050194908600AE018492D
:103C60000868411E164A116020B9002000F058F87B
:103C7000C0B210BD0221134800F026F80028EED093
:103C80002146104800F02CF84FF480500C49086091
:103C90000AE00B490868411E094A116020B9012059
:103CA00000F03EF8C0B2E4E70121064800F00CF84D
:103CB0000028EED0034800F010F8C0B2D9E70000A9
:103CC00014060020003C00400246002013890B40EF
:103CD0000BB1012000E00020704701468889704741
:103CE0008181704710B50022028802F441520B888E
:103CF0004C8823438C882343CC8823430C8923435B
:103D00004C8923438C892343CC8923431A43028063
:103D1000838B4FF2FF74234083830B8A038210BD91
:103D200010B50446214602A000F0AEFA002010BDF6
:103D30003C3C2D464C4153482D4552524F522D3E4E
:103D40003E2053504920B5C8B4FDB3ACCAB121657B
:103D500072726F72436F6465203D2025640A000013
:103D60007047000030B500228B071C0F0F2303FAA9
:103D700004F20B4B8C1053F824309343084C8D10F5
:103D800044F8253023468C1053F824308C07240F38
:103D900000FA04F42343024C8D1044F8253030BD62
:103DA000083801400CB5002001900090414800689F
:103DB00040F480303F49086000BF3E48006800F48E
:103DC000003000900198401C0190009818B90198AB
:103DD000B0F5A04FF1D13748006800F4003010B1C1
:103DE0000120009001E0002000900098012860D19F
:103DF00030484030006840F080502E494031086023
:103E00002D48006840F440402B490860294808309C
:103E100000682849083108600846006840F40040FE
:103E200008600846006840F4A05008602348091F55
:103E30000860081F006840F08070091F086000BF1C
:103E40001C48006800F000700028F9D01A4800688B
:103E500040F480301849086000BF1748406800F4FB
:103E600080300028F9D01448006840F4003012492E
:103E7000086000BF1048406800F400300028F9D006
:103E800040F205700E4908600A480830006820F0CA
:103E900003000849083108600846006840F0020045
:103EA000086000BF03480830006800F00C000828D4
:103EB000F8D10CBD0038024000700040195A40078C
:103EC000003C024010B500F07DF800240CE00848EA
:103ED00050F8240030B1064850F82400401E044930
:103EE00041F82400601CC4B20A2CF0DB10BD0000B5
:103EF0002406002030B5164800684FF47A72B0FBF3
:103F0000F2F1481EB0F1807F01D301201BE0481E72
:103F10004FF0E022506150170F22002807DA1307F4
:103F20001D0E0C4B00F00F04241F1D5503E013075A
:103F30001C0E094B1C5400BF00204FF0E022906182
:103F400007201061002008B100BFFEE730BD00006F
:103F50000000002018ED00E000E400E010B5154876
:103F6000006840F47000134908601348006840F08E
:103F700001001149086000200F49083108600E480F
:103F800000680E4908400C4908600D48091D08608A
:103F9000081F006820F48020091F086000200649DF
:103FA0000C310860FFF7FEFE4FF0006001498039D8
:103FB000086010BD88ED00E000380240FFFFF6FE0B
:103FC000103000240448006820B103480068401EF7
:103FD00001490860704700001806002030B5441EF3
:103FE00004EB840465014C1E05EB4403024C04EB16
:103FF0005304227030BD0000B006002030B5441ECE
:1040000004EB840465014C1E05EB4403024C04EBF5
:104010005304227030BD0000B015002021B1828908
:1040200042F40052828104E082894DF6FF731A4007
:104030008281704702460020B1F5007F00D100BFA9
:1040400013880B400BB1012000E0002070470000F6
:104050002DE9FF4705460E460024A14600BFA046B5
:10406000B08900B100BF2C8A24F44054F088044386
:104070002C82AC8941F20C608443B08831890843BA
:10408000718908430443AC81AC8A24F44074B0893C
:104090000443AC826846FFF705FA2048854202D007
:1040A0001F48854202D1DDF80C9001E0DDF8089050
:1040B000A88900F4004040B109EBC90000EB0910E9
:1040C00031684900B0FBF1F707E009EBC90000EBEC
:1040D000091031688900B0FBF1F76420B7FBF0F0FC
:1040E00004012009642101FB1078A88900F4004034
:1040F00040B1322000EBC800B0FBF1F000F0070047
:10410000044308E0322000EB08106421B0FBF1F01A
:1041100000F00F0004432C81BDE8FF870010014030
:1041200000140140C1F308028280704700BFFEE71F
:1041300038B5032421465148FFF7F4FF00BF802122
:104140004E48FFF777FF0028F9D0FC2421464B4862
:10415000FFF7E8FF00BF80214848FFF76BFF00280A
:10416000F9D06846464991ED000A01F025FA9DF81C
:10417000004021464148FFF7D5FF00BF80213F485E
:10418000FFF758FF0028F9D09DF8014021463B4831
:10419000FFF7C8FF00BF80213848FFF74BFF00281A
:1041A000F9D09DF8024021463448FFF7BBFF00BF1D
:1041B00080213248FFF73EFF0028F9D09DF80340E8
:1041C00021462E48FFF7AEFF00BF80212B48FFF7A6
:1041D00031FF0028F9D068462A4991ED000A01F024
:1041E000EBF99DF8004021462448FFF79BFF00BFF4
:1041F00080212248FFF71EFF0028F9D09DF80140DA
:1042000021461E48FFF78EFF00BF80211B48FFF7A5
:1042100011FF0028F9D09DF8024021461748FFF70A
:1042200081FF00BF80211548FFF704FF0028F9D067
:104230009DF8034021461148FFF774FF00BF80211D
:104240000E48FFF7F7FE0028F9D0FC2421460B4862
:10425000FFF768FF00BF80210848FFF7EBFE00284A
:10426000F9D0032421460548FFF75CFF00BF8021F9
:104270000248FFF7DFFE0028F9D038BD00100140EA
:1042800030000020340000200FB4054B10B503A906
:10429000044A029800F0E8FD10BC5DF814FB000031
:1042A000D55500081C0600200FB4084B10B504A912
:1042B00002AA039800F0D8FD044602A9002001F0EC
:1042C0006AF9204610BC5DF814FB00009755000801
:1042D00003B401984100009850EAC12018BF04209F
:1042E0004A0D18BF40F0010040F2FF72B2EB515F7F
:1042F00008BF40F00200012808BF052002B0704747
:1043000010B52F499FED2C1B2DED020B84B00598A5
:1043100020F000408842D8BF9DED040B2DDD2949D7
:10432000884209D1049840B94FF0010000F0D4FC54
:1043300000F0A2FC06B010BD05DB9DED040B00F003
:104340008FFC06B010BD68469DED040B00F0A0F890
:1043500010F0030004BF9DED021B9DED000B0CD07F
:1043600001280ED09DED021B9DED000B022817D0F9
:10437000012000F0DDFB06B010BD00F0A5FA06B08C
:1043800010BD9DED021B9DED000B012000F0D0FB48
:1043900051EC100B81F0004106B041EC100B10BD48
:1043A00000F092FA51EC100B81F0004106B041ECA4
:1043B000100B10BD00000000000000000000000015
:1043C000FB21E93F0000F07F10B52F499FED2C1B2A
:1043D0002DED020B84B0059820F000408842DCBF30
:1043E00000209DED040B32DD2849884209D1049854
:1043F00040B94FF0010000F06FFC00F03DFC06B04A
:1044000010BD05DB9DED040B00F02AFC06B010BDCD
:1044100068469DED040B00F03BF810F0030011D04E
:10442000012818D09DED021B9DED000B02281AD02B
:1044300000F04AFA51EC100B81F0004106B041EC5B
:10444000100B10BD9DED021B9DED000B012000F037
:104450006FFB06B010BD9DED021B9DED000B00F043
:1044600033FA06B010BD012000F062FB51EC100BD6
:1044700081F0004106B041EC100B10BD00000000BF
:104480000000000000000000FB21E93F0000F07F79
:104490002DE9F14F04462DED020B2DED088B8AB06E
:1044A0009FEDE70B80ED020B139EE74826F00045D9
:1044B00085420ADC9DED120B002084ED000B0AB052
:1044C000BDEC088B03B0BDE8F08FE0489FEDE0AB9A
:1044D0009FEDE1BBA84247DDE14F9FEDE39B9FEDE0
:1044E000E48B9DED120B53EC1A2B51EC100B002EAC
:1044F0001CDDFBF71CFF41EC100BBD4208D053EC58
:104500001B2B51EC100BFBF712FFC4E900010BE071
:1045100053EC192B51EC100BFBF709FF53EC182B44
:10452000FBF705FFC4E900010120C8E7FBF75EFEC9
:1045300041EC100BBD4208D053EC1B2B51EC100B7F
:10454000FBF754FEC4E900010BE053EC192B51ECCE
:10455000100BFBF74BFE53EC182BFBF747FEC4E99F
:1045600000014FF0FF30AAE7C348A84279DB9DED78
:10457000120B51EC100B01F013F841EC180B9FEDEE
:10458000C00B53EC102BFBF7D8FE9FEDBF1B53EC79
:10459000112BFBF72BFEFCF74DF90746FBF7AEFF9F
:1045A00041EC190B53EC1A2BFBF7C7FE53EC182BFD
:1045B000FBF7C0FE41EC180B53EC1B2B51EC190B15
:1045C000FBF7BBFEDFF8C8A241EC100B4FEA155811
:1045D0000125FA4453EC102B51EC180BFBF7A7FE06
:1045E000032DC4E900013DD0C1F30A5005EB45118C
:1045F000A8EB00001139814234DA0AEB051BB0EE5A
:1046000048AA9BED000BF0EE68AA53EC102B51EC7E
:10461000190BFBF792FE41EC1B0B51EC1A0B53EC00
:104620001B2BFBF784FE41EC180B51EC1A0B53ECDF
:10463000182BFBF77CFE53EC1B2BFBF778FE9BED56
:10464000020B41EC1A0B53EC102B51EC190BFBF73E
:1046500074FE53EC1A2BFBF76AFE41EC100B6D1C39
:10466000B8E70EE0002EA8BF3846BFF628AF94ED9D
:10467000000B51EC100B81F00041C4E900017842BD
:104680001DE7C6F3130040F4801EC6F30A50A0F2E3
:10469000F530471100F01F05C5F12000DDF848B0E6
:1046A00008900020069007900520EC467949002DDF
:1046B00007EB0002794408BF51F8221009D051F8E5
:1046C000223001EB8201AB404A68089922FA01F1DD
:1046D0001943A1FB0E26A1FB0B131A449A4234BFC7
:1046E0000123002303EB06080CEB8003D3E901A6AA
:1046F0000E448E4234BF0121002192448A4411B1FC
:10470000924502D903E0924501D2012100E0002147
:10471000C3E901A641444CF82010011EA0F101009C
:10472000C4DC029800F10050850F0298DDE90367B0
:104730008000DDF81480FBF7E1FE41EC1A0B3046F7
:10474000FBF7EDFE9FED541B53EC112BFBF7F5FD32
:1047500041EC1B0B3846FBF7E2FE9FED511B53EC7F
:10476000112BFBF7EAFD41EC180B4046FBF7D7FE97
:104770009FED4D1B53EC112BFBF7DFFD41EC190BAB
:1047800051EC180B53EC192BFBF730FD53EC1B2BA2
:10479000FBF72CFD53EC1A2BFBF728FDCDE90801A4
:1047A000002008909DED080B53EC1A2B51EC100BD8
:1047B000FBF7BDFD53EC1B2BFBF7B9FD53EC182B9E
:1047C000FBF7B5FD53EC192BFBF7B4FD9FED381B40
:1047D00053EC112BFBF7B1FD9FED370B41EC180BA0
:1047E00053EC102B9DED080B51EC100BFBF7A5FDC6
:1047F00053EC182BFBF7FAFC9FED310B41EC180B37
:1048000053EC102B9DED080B51EC100BFBF795FDB5
:1048100053EC182BFBF7EAFC41EC100B139810F04B
:10482000004F06D06D4251EC100B81F0004141EC7D
:10483000100B284684ED000B41E60000000000004C
:104840000000000000000000FB21E93F7CD902408D
:1048500000004054FB21F93F3163621A61B4D03D3E
:10486000FB21F93F000000000000601A61B4D03D58
:104870007370032E8A19A33BFB213941000000000D
:1048800083C8C96D305FE43F000000000000E03FD6
:10489000023B0000503A0000000000000000103E03
:1048A000000000000000103C000000000000103A72
:1048B000182D4454FB21F93D3326A611460B113C1B
:1048C00000000054FB21F93D10B52DED040B2DED3A
:1048D000088B82B0B0EE419AF0EE619A0B9820F00E
:1048E00000449FED4BABB4F1795F11DA9DED0A0BFB
:1048F00051EC100BFBF79EFF002801BFB0EE4A0AF7
:10490000F0EE6A0A02B0BDEC088B04BF04B010BD23
:104910009DED0A0B53EC102B51EC100BFBF70DFD2A
:1049200041EC180B3C480621B0EE480AF0EE680A4C
:10493000784400F081F853EC182B51EC100BFBF786
:10494000FCFC9DED0A0B41EC1B0B53EC192B51ECBD
:10495000100BFBF7F2FC41EC190B53EC1B2B51EC49
:10496000180BFBF7EAFC53EC192BFBF7E0FC9FED6F
:104970002C0B41EC190B53EC102B51EC180BFBF7E3
:10498000DCFC41EC100B2848844210DA53EC192B64
:1049900051EC100BFBF7CBFC53EC1A2BFBF7CAFCCA
:1049A00041EC100B02B0BDEC088B04B010BD1F48E9
:1049B000A042BCBF9FED1E1B8DED001B06DBA4F5C6
:1049C00000100190002000909DED001B51EC100B99
:1049D00053EC112BFBF7ABFC9DED000B41EC180BDE
:1049E00053EC102B51EC1A0BFBF7A1FC41EC1A0B0A
:1049F00053EC192B51EC180BFBF799FC53EC1A2BC9
:104A0000FBF798FC41EC100BCCE700000000000025
:104A1000000000000000F03F7437000000000000BC
:104A2000000000000000E03F3333D33F0000E93FC7
:104A3000000000000000D23F70B504462DED028B4F
:104A40004D1E00EBC500B0EE408AF0EE608A90ED9E
:104A5000000B35F0060017D053EC182B51EC100B5F
:104A6000FBF76BFC41EC100B6D1E04EBC50090EDE9
:104A7000001B51EC100B53EC112BFBF7B7FB41EC77
:104A8000100B35F00600E7D1022D36D0042D1CD0D6
:104A9000062D1CBFBDEC028B70BD53EC182B51ECE6
:104AA000100BFBF74AFC94ED0A1B53EC112BFBF7A0
:104AB0009DFB53EC182BFBF740FC94ED081B53ECCB
:104AC000112BFBF793FB41EC100B53EC182B51EC23
:104AD000100BFBF732FC94ED061B53EC112BFBF78C
:104AE00085FB53EC182BFBF728FC94ED040B53ECDF
:104AF000102BFBF77BFB41EC100B53EC182B51EC0C
:104B0000100BFBF71AFC94ED021B53EC112BFBF777
:104B10006DFB53EC182BFBF710FC94ED001B53ECD2
:104B2000112BFBF763FBBDEC028B41EC100B70BD4E
:104B300031B504462DED040B2DED0A8BB0EE41BAD4
:104B4000F0EE61BA0B989DED0A0B20F00040B0F139
:104B5000795F0DDA51EC100BFFF7BAFB042808BFA0
:104B600000F09AF89DED0A0BBDEC0A8B05B030BD44
:104B700053EC102B51EC100BFBF7DFFB41EC180B47
:104B80009DED0A0B53EC182B51EC100BFBF7D5FBEA
:104B900041EC190B2C48B0EE480AF0EE680A0521EA
:104BA0007844FFF749FF9FED2ACBB0EE40AAF0EE24
:104BB00060AA9CB353EC1C2B51EC190BFBF7BDFB0B
:104BC00041EC1C0B53EC1A2B51EC190BFBF7B5FB0A
:104BD0009FED210B41EC190B53EC102B51EC1B0BEF
:104BE000FBF7ABFB53EC192BFBF7A1FB53EC182B9A
:104BF000FBF7A3FB53EC1B2BFBF799FB53EC1C2B94
:104C0000FBF795FB9DED0A1B53EC112BFBF792FB79
:104C1000BDEC0A8B05B041EC100B30BDFFE753EC47
:104C20001A2B51EC180BFBF788FB53EC1C2BFBF7F2
:104C3000DDFA53EC192BFBF780FB9DED0A1B53ECBF
:104C4000112BFBF7D3FAE3E7FC350000000000006E
:104C5000495555555555C5BF000000000000E03FBF
:104C600010B553EC102B51EC100BFBF7BFFA41ECD5
:104C7000100B10BD000000009FED050B10B553ECAC
:104C8000102B51EC100BFBF7CAFB41EC100B10BDC5
:104C900000000000000000009FED050B10B553EC74
:104CA000102B51EC100BFBF748FB41EC100B10BD27
:104CB000000000000000001002E008C8121F08C138
:104CC000002AFAD170477047002001E001C1121F8D
:104CD000002AFBD1704700000149086070470000BE
:104CE000200600202DE9FF5F82B00021DDE90430BD
:104CF000020DDDF840B0034318D044F61050A2F284
:104D0000FF3242431514119801281FD0A5EB0B0068
:104D1000401C5FEA000A4FF000064E4FDFF8389162
:104D2000B046504615D5CAF1000413E0119801248D
:104D30004AA3012801D16FEA0B010298119AC0E938
:104D40000031C0E9024206B0BDE8F09FCBF100009F
:104D5000DFE704460021404A491842EB0450CDE900
:104D6000001012E0E00707D032463B464046494675
:104D7000FBF7E3FA8046894632463B461046194621
:104D8000FBF7DBFA06460F466410002CEAD1DDE99A
:104D90000401DDE90023BAF1000F06DAFBF7CDFAD2
:104DA00042464B46FBF7C9FA05E0FBF738FB4246A3
:104DB0004B46FBF734FB04460E460022284BFBF71C
:104DC000CFFB03D84FF0FF30014607E00022254B10
:104DD00020463146FBF70AFAFBF7F2FC102409E003
:104DE000002C0ADB0A220023FBF704FC039B303271
:104DF0001A55641E50EA0102F2D1641C039AC4F1F0
:104E000011031444119A012A03D0012208430DD141
:104E10000AE0084304D000204FF0110B119072E714
:104E2000A3EB0B056D1E0DE05B4504DD4FF00002AA
:104E300005F1010504E003DA4FF00002A5F10105D8
:104E4000002AECD002981199C0E90231C0E900456E
:104E500079E70000000014400000F03F300000003F
:104E60000000F0430000E03F2DE9FF4F95B09B4666
:104E70008946064600250FE2252877D100242746DB
:104E8000F84A0121059400E0044316F8013F203B55
:104E900001FA03F01042F7D130782A2811D06FF0D0
:104EA0002F033078A0F13002092A16D8059A44F071
:104EB000020402EB820203EB42021044761C0590CE
:104EC000EFE759F8042B0592002A03DA504244F424
:104ED0000054059044F00204761C30782E2816D138
:104EE00016F8010F44F004042A280DD06FF02F02A9
:104EF0003078A0F13003092B09D807EB870302EBC8
:104F00004303C718761CF3E759F8047B761C307806
:104F10006C280FD006DC4C2817D068280DD06A28E2
:104F200014D104E0742810D07A280FD10DE044F495
:104F300000140AE044F4801401E044F44014727850
:104F4000824202D104F58014761C761C30786628E3
:104F50000BD013DC582877D009DC002875D0452801
:104F6000F6D04628F4D047281AD19DE118E06328EE
:104F700035D0642879D0652812D195E1702873D096
:104F800008DC6728F1D069286FD06E280DD06F2813
:104F900006D1B5E073282CD0752875D0782874D048
:104FA0005A46179990476D1C75E1C4F302500228C8
:104FB00009D003280DD0D9F8001004280DD00D60B9
:104FC00009F1040967E1D9F80010EA17C1E90052B4
:104FD000F6E7D9F800100D80F2E70D70F0E719F848
:104FE000041B8DF8001000208DF80100EA46012016
:104FF00003E059F804AB4FF0FF3061074FF00001B8
:1050000002D40DE008F101018846B9420FDA80456B
:10501000F8DB1AF808100029F4D108E008F10101C2
:1050200088468142FADB1AF808100029F6D1059863
:105030005B46A0EB080721463846179A00F094FA21
:10504000284400EB080507E04DE029E10DE01AF8DF
:10505000010B5A4617999047B8F10108F7D25B4601
:1050600021463846179A13E142E00A220092C4F31F
:1050700002524FF0000A022A08D059F804CB032A42
:105080004FEAEC710AD00DE029E02AE009F10701AE
:1050900021F00702F2E802C1914609E00FFA8CFC08
:1050A0004FEAEC71042A03D14FFA8CFC4FEAEC7101
:1050B000002907DA0A460021DCF1000C61EB02014D
:1050C0002D2202E0220504D52B228DF80420012296
:1050D00003E0E20701D02022F7E7904659E00A21D9
:1050E00002E010220DE010214FF0000A00910BE0C9
:1050F00010224FF0000A44F004040827009203E055
:1051000008224FF0000A0092C4F30252022A05D08E
:1051100059F804CB0021032A08D009E009F107015E
:1051200021F00702F2E802C1914605E01FFA8CFC6B
:10513000042A01D10CF0FF0C4FF00008220728D5FB
:10514000702806D0009B83F0100353EA0A0305D0B1
:105150000EE040228DF80420012208E05CEA010202
:1051600006D030228DF804208DF8050002229046EA
:10517000009B83F0080353EA0A030AD15CEA0102A8
:1051800001D1620705D530228DF804204FF00108C7
:105190007F1E582804D034A003900EA802900DE082
:1051A00036A0F9E753466046009AFBF723FA844697
:1051B0000398825C0298401E029002705CEA010033
:1051C000F0D1029806A9081A00F1200A600702D55A
:1051D00024F4803400E00127574502DDA7EB0A00E4
:1051E00000E0002000EB0A01009005984144401ABD
:1051F0000590E00306D45B462146179A059800F017
:10520000B3F90544002706E001A85A46C05D179986
:1052100090476D1C7F1C4745F6DBE0030CD55B46D1
:105220002146179A059800F09FF9054404E03020C4
:105230005A46179990476D1C0099481E0090002906
:10524000F5DC08E0029802995A460078491C029160
:10525000179990476D1CBAF10001AAF1010AF1DC1F
:1052600065E100000928010030313233343536372A
:1052700038396162636465660000000030313233A2
:105280003435363738394142434445460000000042
:1052900000F058F90544761C307800287FF4ECAD16
:1052A00019B02846BDE8F08F620700D4062709F13F
:1052B000070222F0070CFCE80223E14603F0004855
:1052C0005FEA080C02D00FF2702C0DE05FEA045C7C
:1052D00002D50FF2682C07E05FEAC47C02D00FF21F
:1052E000602C01E0AFF2700C4FF0FF3823F0004368
:1052F000CDF850C065280CD006DC452809D04628DA
:105300001DD047283DD13DE0662818D067287ED1C2
:1053100038E00021112F01DB112000E0781CCDE9DD
:10532000000106A90EA8FFF7DDFCDDE90F010E9ACA
:1053300003910021009207F1010A04914DE04FF022
:1053400000400097CDE9011006A90EA8FFF7CAFC9E
:10535000DDE90F0203920E9B11990022DDF80CA0EB
:105360000093049211B9791C00EB010AB7EB0A0013
:1053700004D4C0F1FF3007F1010A0490AAEB070042
:10538000019044E0012F00DA01270021112F01DDF7
:10539000112000E03846CDE9000106A90EA8FFF76C
:1053A000A1FCDDE90F010E9A039100210491009206
:1053B000BA4621070CD40399514500DA8A46BAF15E
:1053C000010F05DD009AAAF10101515C302908D0D6
:1053D000B84202DA10F1040F06DA0121CDE901101A
:1053E00015E0AAF10101E9E7002805DC0499014470
:1053F0000491AAEB000102E0411C514500DD8A4600
:105400000499401A401C01904FF000400290200780
:1054100004D40198504501DBCDF8048000208DF8BC
:105420004F0002980DF14F07B0F1004F25D02B200F
:105430000E9002984FF0020800280CDA40420290C9
:105440002D200E9007E00A210298FBF7BDF83031BD
:10545000029007F8011DB8F10001A8F10108F2DC83
:1054600002980028EFD1791E0E980870307800F06D
:10547000200040F0450007F8020D12A8C01B00F103
:1054800007081498007800B1012000EB0A01019888
:1054900001EBE07105984144401A401E0590E0037D
:1054A00006D45B462146179A059800F05DF805443E
:1054B0001498007818B15A46179990476D1CE0036C
:1054C00024D55B462146179A059800F04DF805440F
:1054D0001CE00498002807DBDDE90301884203DDB6
:1054E0000098405C179901E0179930205A46904780
:1054F000049805F10105401C04900198401E01909C
:1055000004D12E205A46179990476D1CBAF100011C
:10551000AAF1010ADDDC05E017F8010B5A461799DC
:1055200090476D1CB8F10001A8F10108F4DC5B465E
:105530002146179A0598ABE62D0000002B000000CD
:10554000200000002DE9F041044600251E461746C4
:10555000880404D405E039462020B0476D1C641E41
:10556000F9D52846BDE8F0812DE9F0410446002533
:105570001E469046C80301D5302700E02027880446
:1055800004D505E041463846B0476D1C641EF9D588
:105590002846BDE8F0810A68531C0B601070704704
:1055A00082B0CDE9000121F0004001909DED000B9B
:1055B00002B051EC100B704701B52DED020B69469E
:1055C0000A7802704A7842708A788270CA78C2700B
:1055D0000EBD000070B504460D46E1B20548FEF769
:1055E000A1FD00BF80210348FEF724FD0028F9D06B
:1055F000204670BD001001402DED068BFBF736FDF7
:10560000FDF78DFAFEF776FCFBF784FFFDF76AFAEB
:10561000FDF7D8F9FBF70CFB48E02548006808B90E
:10562000FCF7FCFA2348006800283FD147F6FF71D9
:105630004FF47C40FCF7F8FF1FA12148FEF734FE31
:10564000FCF756FFC08800EB001084B21C492046CE
:10565000FCF7C4FB1B480078FAF761FF41EC1A0B1A
:105660009FED190B53EC102BFAF7D9FE41EC190BF7
:10567000FAF78EFF0446FAF75FFF41EC180B53EC84
:10568000182B13A10E48FEF70FFEFCF731FFC08860
:1056900000EB001084B20A492046FCF79FFB002073
:1056A0000849087041F2883002490860B5E70000F7
:1056B0002800002024060020202020202020000098
:1056C0004C060020260000200000000000001440CE
:1056D00020252E31662F730000000000000000001E
:1056E00000000000000000000000000000000000BA
:1056F00000000000000000000000000000000000AA
:105700000000000000000000000080018001800116
:105710008001800180018001800180018001800181
:105720008001800100000000800180010000000075
:10573000000000000000000000000000CC00CC00D1
:10574000CC00CC00CC00CC00000000000000000029
:105750000000000000000000000000000000000049
:105760000000000000000000000000000000000039
:1057700000000000600C600C600C30063006FE1F5C
:10578000FE1F300638071803FE1FFE1F18031803FC
:105790008C018C018C01000000008000E003F80FF8
:1057A0009C0E8C1C8C188C009800F801E007800E71
:1057B000801C8C188C189C18B80CF00FE00380002B
:1057C00080000000000000000000000000000E1833
:1057D0001B0C110C11061106110311039B018E0104
:1057E000C038C06C60446044304430441844186C85
:1057F0000C380000000000000000E001F003380752
:10580000180618063003F001F000F8009C310E3342
:10581000061E061C061C063FFC73F021000000005B
:105820000000000000000000000000000C000C0060
:105830000C000C000C000C00000000000000000038
:105840000000000000000000000000000000000058
:1058500000000000000000000000000200038001C2
:10586000C000C00060006000300030003000300038
:10587000300030003000300060006000C000C00028
:105880008001000300020000000020006000C00052
:1058900080018001000300030006000600060006E8
:1058A00000060006000600060003000380018001D8
:1058B000C0006000200000000000000000000000A8
:1058C00000000000C000C000D806F807E001300367
:1058D0003807000000000000000000000000000089
:1058E00000000000000000000000000000000000B8
:1058F0000000000080018001800180018001FC3FE8
:10590000FC3F8001800180018001800100000000D7
:105910000000000000000000000000000000000087
:105920000000000000000000000000000000000077
:105930000000000000000000000080018001000164
:1059400000018000000000000000000000000000D6
:105950000000000000000000000000000000000047
:10596000E007E00700000000000000000000000069
:105970000000000000000000000000000000000027
:105980000000000000000000000000000000000017
:1059900000000000000000000000C000C000000087
:1059A00000000000000000000000000C000C0006D9
:1059B000000600060003000300038003800180014D
:1059C0008001C000C000C000600060000000000056
:1059D00000000000000000000000E003F007380EA7
:1059E000180C0C180C180C180C180C180C180C1897
:1059F0000C180C18180C380EF007E003000000001B
:105A00000000000000000000000000018001C00153
:105A1000F0019801880180018001800180018001EE
:105A20008001800180018001800180010000000070
:105A300000000000000000000000E003F80F180C58
:105A40000C180C1800180018000C00060003800148
:105A5000C000600030001800FC1FFC1F00000000A8
:105A600000000000000000000000E001F807180E30
:105A70000C0C0C0C000C0006C003C007000C001836
:105A800000180C180C18180CF807E00300000000B0
:105A900000000000000000000000000C000E000FDD
:105AA000000F800DC00C600C600C300C180C0C0C3E
:105AB000FC3FFC3F000C000C000C000C0000000040
:105AC00000000000000000000000F80FF80F1800B0
:105AD00018000C00EC03FC071C0E001C001800183A
