:020000040800F2
:10000000182A0020C1010008191500081511000860
:10001000791400083B0800082928000800000000A7
:100020000000000000000000000000005D24000847
:10003000E50B000800000000B91D0008C1250008FC
:10004000DF010008DF010008DF010008DF01000810
:10005000DF010008DF010008990C0008DF0100083B
:10006000DF010008DF010008DF010008DF010008F0
:10007000DF010008DF010008DF010008DF010008E0
:10008000DF010008DF010008DF010008DF010008D0
:10009000DF010008DF010008DF010008DF010008C0
:1000A000DF010008DF010008DF010008DF010008B0
:1000B000DF010008DF010008DF010008DF010008A0
:1000C000DF010008DF010008DF010008DF01000890
:1000D000DF010008DF010008DF010008DF01000880
:1000E000B90C0008DF010008DF010008DF0100088B
:1000F000DF010008DF010008DF010008DF01000860
:10010000DF010008DF010008DF010008DF0100084F
:10011000DF010008DF010008DF010008DF0100083F
:10012000DF0100080D0A0008DF010008DF010008F8
:10013000DF010008DF010008DF010008DF0100081F
:10014000DF010008DF010008DF010008DF0100080F
:10015000DF010008DF010008DF010008DF010008FF
:10016000DF010008DF010008DF010008DF010008EF
:10017000DF010008DF01000875090008DF01000841
:10018000DF010008DF010008DF010008DF010008CF
:10019000DF010008DF010008DF010008DF010008BF
:1001A000DF010008DF010008DF010008DFF80CD0E4
:1001B00000F0CAFA0048004775380008182A0020E5
:1001C000074880470748804707480047FEE7FEE7A3
:1001D000FEE7FEE7FEE7FEE7FEE7FEE7FEE7FEE7F7
:1001E0005926000809230008AD0100082DE9FE4F3B
:1001F000804681EA0300C00F0C46009021F00041C8
:1002000023F00045B8EB0200A94105D24046214643
:1002100090461C460B46024623F00040104347D050
:10022000270DC7F30A00C3F30A510290401A019048
:1002300040286BDAC3F3130040F4801B0098924609
:1002400020B10023D2EB030A63EB0B0B0198594654
:10025000C0F14002504600F053F906460D465046A4
:100260005946019A00F05BF910EB08006141002447
:1002700087EA115284EAE7731A4340D0009A62B3C6
:10028000019A012A4FEA075215DC001B61EB0201BB
:100290004FF0004202EA0752CDE90042001C41F54E
:1002A000801132462B4600F092F903B0BDE8F08F82
:1002B00040462146F9E7001B61EB0201001C41F5B5
:1002C000801300185B412018A2F5001747EB0301CB
:1002D00040EAD570B6196D4111E06D084FEA360657
:1002E00045EAC0754FEA0752001B61EB0201001C92
:1002F00041F5801149084FEA30000019514132465A
:100300002B4603B0BDE8F04F00F052B9009801222F
:1003100040000023D0EB020263EBE073009821461B
:100320004FEAE074B8EB000061EB0401E9E783F009
:1003300000435BE781F0004158E72DE9FE4F81EA79
:10034000030404F0004421F0004100944FF0000B3E
:1003500023F0004350EA01045ED052EA03045BD06C
:10036000C3F30A54C1F30A552C44A4F2F3340194A4
:10037000A0FB0254C1F3130141F48011C3F3130332
:1003800043F4801301FB024400FB034E840A970AE6
:1003900044EA815447EA8357A4FB076802958D0A13
:1003A00005FB07854FEA932C04FB0C542705029D9F
:1003B0004FEA065847EA1637B5EB08056EEB070C0F
:1003C000870E920E47EA811742EA8312A7FB0201C9
:1003D000B6EB0B0164EB00042B0D43EA0C335E1803
:1003E00044EB1C50DA465146E7FB0201C5F3130407
:1003F0004FEA0B3343EA14534FEA0432019C43EAB9
:100400000603A4F10C040294009CCDE900B400F0B2
:10041000DEF803B0BDE8F08F00200146F9E70EB525
:10042000C10F80EAE0700844CA07002140F233435C
:100430008DE80E000A460B4600F0C9F803B000BD77
:1004400000F0004230F000400AD0C10D01F56071AB
:10045000C0F3160042EA0151C20840071143704739
:1004600000200146704701F0004330B421F0004104
:1004700050EA010206D00A0DA2F56072C1F3130121
:10048000002A02DC30BC00207047440F44EAC1045B
:10049000C100E01830BC00EBC25000F052B82DE9AA
:1004A000F05F0546002092469B46884606468146F8
:1004B00040241BE0284641464746224600F056F9B4
:1004C00053465A46C01A914110D311461846224647
:1004D00000F016F82D1A67EB01084F46224601205E
:1004E000002100F00DF817EB00094E41201EA4F189
:1004F0000104DFDC484631462A464346BDE8F09F0A
:10050000202A04DB203A00FA02F1002070479140D3
:10051000C2F1200320FA03F3194390407047202AC8
:1005200006DBCB17203A41FA02F043EAE07306E01B
:1005300041FA02F3D040C2F120029140084319462B
:1005400070470029A8BF7047401C490008BF20F031
:100550000100704710B4B0FA80FC00FA0CF050EAC9
:10056000010404BF10BC704749B1CCF1200421FA4A
:1005700004F411FA0CF118BF012121430843A3EB45
:100580000C01CB1D4FEA00614FEA102042BF002052
:1005900010BC704700EBC35010440029A4BF10BC2E
:1005A0007047401C490008BF20F0010010BC704794
:1005B00010B5141E73F1000408DA401C41F100016B
:1005C00092185B411A4301D120F0010010BD2DE9C2
:1005D000F04D92469B4611B1B1FA81F202E0B0FAB9
:1005E00080F220329046FFF78BFF04460F4640EA28
:1005F0000A0041EA0B0153465A46084313D01146FC
:1006000053EA010019D0C8F14002504600F0AEF89C
:1006100005460E46504659464246FFF771FF0843CD
:1006200005D0012004E020463946BDE8F08D0020C9
:10063000054346EAE0762C4337430A986305E40A0B
:10064000A0EB08000022FD0A44EA47540A3002D514
:1006500000200146E9E7010510196941DDE9084577
:1006600000196941BDE8F04DA2E72DE9F04D81EA9E
:10067000030404F0004B21F0004514464FF0000A3B
:1006800023F0004150EA050220D054EA01021DD0B7
:10069000C5F30A570246C5F31303C1F31300C1F3B0
:1006A0000A5640F4801543F48013A7EB0608101B8C
:1006B000D64608F2FD3873EB050002D308F10108B5
:1006C00001E092185B41B8F1000F03DA0020014607
:1006D000BDE8F08D00204FF48011064684460EE000
:1006E000171B73EB050705D3121B63EB05030643CA
:1006F0004CEA010C49084FEA300092185B4150EA7D
:100700000107EDD152EA030012D082EA040083EA25
:100710000501084305D0101BAB4106D2012200237E
:1007200006E000224FF0004302E06FF00102531098
:100730001AEB06004CEB085110EB0A0041EB0B01E1
:10074000BDE8F04DFFF734BF064C074D06E0E0680A
:1007500040F0010394E8070098471034AC42F6D308
:10076000FFF728FDB8390008E8390008202A04DB23
:10077000203A21FA02F00021704721FA02F3D0401A
:10078000C2F1200291400843194670470EB540F26D
:10079000334102910021CDE900110A460B46FFF7D3
:1007A00016FF03B000BD70B5C1F30A5201F0004559
:1007B0000024C1F3130140F2FF3341F480119A4247
:1007C00001DA002070BD40F233439A42A2F2334274
:1007D00003DC5242FFF7CAFF00E090402C43F1D007
:1007E000404270BD70B58C1810F8015B15F007031E
:1007F00001D110F8013B2A1106D110F8012B03E0BA
:1008000010F8016B01F8016B5B1EF9D12B0705D4C1
:100810000023521E0DD401F8013BFAE710F8013B0A
:10082000CB1A921C03E013F8015B01F8015B521E26
:10083000F9D5A142D8D3002070BD00BFFEE700006B
:10084000F0B500202DE0194D441C2C5DE410E100B2
:10085000441C2C5D6407A50E144C245C641105EB4C
:100860008402124C245CE406230E40F22B1511FB8B
:1008700005F540F24B2612FB06F63544C3EBC306E2
:10088000C6EB831605EB460505F5FA754FF47A7647
:10089000B5FBF6F500EBD0767610054FBD55841C00
:1008A000A0B2B0F5F05FCEDBF0BD0000000000D0DC
:1008B0007406002030B500201CE0104C235CDC17CF
:1008C00003EB5474E1100D4C235CDC1703EB9474C0
:1008D000A210C2F3C20303EBC103DCB2012303EB9A
:1008E0004005074B5C5501EB4213DCB2044B03F8A7
:1008F0001040401CB0F5706FDFD330BD740600208F
:10090000001E00D030B10749096841F00101054AD5
:10091000116005E00349096821F00101014A1160F5
:100920007047000000000550014948617047000011
:100930000000055030B10749096841F48041054A7B
:10094000116005E00349096821F48041014A116002
:100950007047000000000550014600200022044BB3
:100960001B6903EA01020AB1012000E00020704780
:100970000000055010B50120FFF7EEFF01280CD153
:1009800000200649088006480078401C0449087089
:10099000012004490870FFF7C7FF10BD2C0000209C
:1009A000260000203800002029B1074AD2680243FF
:1009B000054BDA6006E0044AD268C3439BB21A4092
:1009C000014BDA60704700000000055000210E4A1C
:1009D000126844F201039A430B4B1A601A461168DD
:1009E00040F6F2729143028843881A4383881A437F
:1009F000C3881A4303891A4343891A4383891A43D4
:100A00001143014A116070470000055070B5174945
:100A1000174800F06BF8012826D116480088401CC2
:100A2000144908800846008813490988884202D181
:100A3000002010490880114A12885400E21704EB84
:100A4000927291100E4A128853000E4A1288094D74
:100A50002D88521B521E0C4D03FB025000F0BCFDB2
:100A60000249034800F012F870BD00000088001031
:100A7000286402402C00002048000020460000208E
:100A80004200002044000020000000D00246094B34
:100A90009A4201D2084801E00648103801F000539C
:100AA0001BB1064B0B40C36002E0044B0B4083605C
:100AB0007047000010640240006002407D0F7D0F0F
:100AC00021B1026842F00102026003E0026822F0F4
:100AD000010202607047014600200A6802F001022C
:100AE0000AB1012000E000207047000070B5024606
:100AF000002000240025124EB24201D2114B01E029
:100B00000F4B103B104E0E4036B11E2606EAD12484
:100B1000166806EA040502E0566906F0800501F051
:100B200000560EB15C6800E01C68084E344004EAD0
:100B3000010616B10DB1012000E0002070BD0000DB
:100B400010640240006002403C0F3C0F7D0F7D0F9F
:100B500010B501F080034BB122B1436943F080032B
:100B6000436103E0436923F08003436180290BD094
:100B70002AB1036801F01E042343036004E0036804
:100B800001F01E04A343036010BD000010B5002255
:100B90000268134B1A40CC680B6823434C6923430B
:100BA0008C692343CC6923430C6A23434C6A234357
:100BB0008C6A23434C6B23438C6B23431A430260A0
:100BC000426922F00702D1E90B3423431A43426100
:100BD0000B6943604B6883608B68C36010BD000085
:100BE0003F801CF07047000000B587B00121084627
:100BF00001F0E4F80121102001F030F907220A2168
:100C00001D4800F03FFA072209211B4800F03AFA7C
:100C100000208DF81A0001208DF81B0002208DF8AD
:100C200018000002059002208DF8190005A912484D
:100C300000F0E0F902208DF818004002059005A9A7
:100C40000D4800F0D7F94FF4E13001900020ADF8E5
:100C50000800ADF80A00ADF80C00ADF810000C204B
:100C6000ADF80E0001A9054801F070FD012103480F
:100C700001F052FD07B000BD00000240001001402D
:100C800001B504490098086000BF024800680028C8
:100C9000FBD108BDDC05002010B5012000F02AF8CA
:100CA00038B10448006808B100F0C6FB012000F02C
:100CB0001BF810BD2800002010B54FF4005000F0C4
:100CC00019F870B107480068012803D100200549D0
:100CD000086002E00120034908604FF4005000F072
:100CE00003F810BD2800002001490860704700008B
:100CF000143C014001460020034A12680A400AB130
:100D0000012000E000207047143C014000212349ED
:100D10008279002A3AD00A46126803689A430B4641
:100D20001A600A1D126803689A430B1D1A60027943
:100D300011440A6803681A430A60184A08321268A4
:100D400003689A43154B08331A601A1D126803682A
:100D50009A43124B0C331A604279102A0ED11A1F93
:100D6000126803681A430D4B08331A601A1D126883
:100D700003681A43094B0C331A600DE007494279A6
:100D800011440A6803681A430A6005E002791144B5
:100D90000A6803689A430A6070470000003C0140FB
:100DA0001FB50121052001F009F80121880301F098
:100DB00055F800F0B2FB0120029000208DF80C00E5
:100DC0008DF80F0002A9184800F014F90021084618
:100DD00001F046FB0120009000208DF8040008205F
:100DE0008DF8050001208DF806006846FFF78EFF9C
:100DF0004FF40050029002A90C4800F0FBF80D21BE
:100E0000022001F02DFB4FF40050009000208DF8DF
:100E100004000C208DF8050001208DF806006846BE
:100E2000FFF774FF1FBD00000000024000080240F1
:100E300010B5024600200023102A03D14FF02044B1
:100E4000636E0FE0B2F5807F02D10A4C236809E09F
:100E5000B2F5805F03D1074C2034236802E0054CD3
:100E6000D434236803EA01048C4201D0002000E05E
:100E7000012010BD840000A00021D0E900231A4306
:100E800083685B1E42EA4312C36842EA4321014A77
:100E900011607047500100A070B5002200210023AE
:100EA00000240568AD00A5F1C045D5F840216FF3D9
:100EB0000E02D0E901563543C6683543066935430D
:100EC0004669354386693543C6693543066A354305
:100ED000466A35432A43056835B90568AD00A5F172
:100EE000C045C5F8402111E03B4D2B686FF30E0360
:100EF000D0E907563543466A35432B43364D2B60C0
:100F00000568AD00A5F1C045C5F84021056875BB71
:100F1000314D0835066855F8261001F07041856A94
:100F20002D686D1E866A7668761E45EA0616856A05
:100F3000AD686D1E46EA0526856AED686D1E46EAB7
:100F40000536856A2D8A6D1E46EA0546856AAD8A94
:100F50006D1E46EA0556856A2D7E6D1E46EA0565BC
:100F600029431D4D0835066845F8261032E0FFE795
:100F7000194D0835066855F8261001F07041856A4C
:100F80002D686D1E866A7668761E45EA0616856AA5
:100F9000AD686D1E46EA0526856A2D8A6D1E46EAF5
:100FA000054529430C4D08352C6804F07044856ACA
:100FB000ED686D1E2E03856AAD8A6D1E46EA0555E5
:100FC0002C434FF02045C5F84841034D08350668CD
:100FD00045F8261070BD0000400100A004490968D2
:100FE00041EA40014FF02042C2F85411704700001E
:100FF000540100A0F0B50A4600210023002400BFE0
:101000003DE0012505FA01F3156805EA03049C4259
:1010100034D105684F000326BE40B54305601579FD
:101020004E00B5400668354305601579012D02D0A4
:101030001579022D16D185684F000326BE40B543B1
:10104000856055794E00B5408668354385604568B2
:1010500001268E40B5434560456896798E40B6B20C
:1010600035434560C5684F000326BE40B543C560A3
:10107000D5794E00B540C6683543C560491C102976
:10108000BFD3F0BDF0B5002300244D07ED0E02FAEA
:1010900005F3CE1000F1200555F826504E07F70E47
:1010A0000F26BE40B543CF1000F1200646F827506A
:1010B000CE1000F1200555F8265045EA0304CE1065
:1010C00000F1200545F82640F0BD418370470183BB
:1010D0007047000010B50246501E00EB800044012E
:1010E000481E04EB4003024800EB5300007810BD9B
:1010F0007406002010B50246501E00EB800044012B
:10110000481E04EB4003024800EB5300007810BD7A
:101110007415002002E002A001F034FCFBE700009F
:101120000D0A20686172646661756C7421000000AC
:1011300021B1028842F48062028004E002884FF606
:10114000FF331A400280704770B502460024002524
:1011500000230020958A138B1B0445EA030626F022
:101160007F4404EA01068E4201D1012000E0002004
:1011700070BD21B1028842F00102028004E00288C1
:101180004FF6FE731A4002807047000010B5044607
:101190001348844209D10121480500F04FFE002187
:1011A0004FF4001000F04AFE18E00E48844209D1C6
:1011B0000121880500F042FE00214FF4800000F07C
:1011C0003DFE0BE00848844208D10121C80500F02B
:1011D00035FE00214FF4000000F030FE10BD00008D
:1011E0000054004000580040005C004021B10288DB
:1011F00042F48072028004E002884FF6FF631A40D6
:101200000280704721B1028842F40072028004E03B
:1012100002884FF6FF531A40028070472DE9FF47BE
:1012200004460D460026B1460427DFF8CC80A68888
:101230004FF6C0700640684600F020FEDDF80880DA
:101240002E48B8FBF0F01FFA80F946EA0906A6809E
:1012500020884FF6FE710840208000262849286823
:1012600088420CD828684000B8FBF0F087B2042F01
:1012700000DA04273E4309F10100208427E0E888D2
:101280004BF6FF71884206D1286800EB4000B8FB9E
:10129000F0F087B209E0286800EBC00101EB001014
:1012A000B8FBF0F087B247F48047C7F30B0008B9EA
:1012B00047F0010747F4004006434FF4967009FBDE
:1012C00000F04FF47A7190FBF1F0401C2084A6836B
:1012D000208840F00100208026884FF6F530064037
:1012E000A8886989084306432680A8892989084374
:1012F0002081BDE8FF87000000127A0040420F0005
:10130000A08601000146088AC0B2704712B141F0C0
:10131000010101E001F0FE01018270470182704786
:1013200070B52DED048B01240FE001250AE0A9B270
:10133000A0B2FFF7CFFE0646A9B2A0B2324601F036
:10134000DBF96D1C502DF2D9641C302CEDD9012431
:101350000FE001250AE0A9B2A0B2FFF7CBFE0646D6
:10136000A9B2A0B2324601F0B7F96D1C502DF2D9E6
:10137000641C302CEDD9294890ED000ADFED280AD5
:1013800030EE200A80ED000A90ED000ADFED250A1C
:10139000B4EEE00AF1EE10FA03DB9FED230A80EDD4
:1013A000000A1E480068FFF74BF841EC190BB0EE3D
:1013B000490AF0EE690A01F073FBB0EE408AF0EEE4
:1013C000608A51EC180BFFF74EF800EE100ADFEDC3
:1013D000170A20EE200A164880ED000A0F48006820
:1013E000FFF72EF841EC190BB0EE490AF0EE690A4E
:1013F00001F0F2FAB0EE408AF0EE608A51EC180B80
:10140000FFF731F800EE100ADFED080A20EE200A9F
:10141000084880ED000ABDEC048B70BD3C00002044
:10142000CDCCCC3D00009D430000000000004842B0
:10143000300000203400002010B50120FFF762FAD0
:1014400000200B4908704FF47A700A49486200BFC7
:101450000848406A18B1064800780028F8D0FFF71D
:10146000EFF9FFF75DFFFFF725FA01F0DFF910BD97
:1014700038000020E805002000BFFEE710B500F0AE
:10148000F1F8114800F054FB0F480078562808D1B5
:1014900000BF0D48437802783C210CA001F072FA9D
:1014A00007E000BF4A2111A001F06CFA00BF00BFA5
:1014B000FEE700F005FA00F067FA0120FFF73AFABC
:1014C0000120FFF71FFA10BD240000203C3C2D43F3
:1014D000414D4552412D44454255472D3E3E205BEE
:1014E00025645D25782025780D0A0A003C3C2D43B3
:1014F000414D4552412D44454255472D3E3E205BCE
:1015000025645DCEB4BCECB2E2B5BDC9E3CFF1CD8C
:10151000B70D0A0A00000000704708B54FF4C0601C
:1015200000F050F806208DF8000001208DF8010031
:101530008DF802008DF80300684600F007F82820B7
:101540008DF80000684600F001F808BD70B5002174
:1015500000230F22C4781CB3174C246804F4E06401
:10156000C4F5E064C4F30721C1F10404E3B20A4105
:1015700044789C40E1B28478144021430C07210E4A
:101580000E4C05786155047804F01F050124AC4029
:1015900005786D11AD0005F1E025C5F8004109E0C1
:1015A000047804F01F050124AC40054D067876113F
:1015B00045F8264070BD00000CED00E000E400E0BE
:1015C00080E100E002490143024A116070470000D7
:1015D0000000FA050CED00E030B58FB004460D4672
:1015E0000121880500F0EAFB00211C48FFF768FA9A
:1015F00000BF1A48FFF76FFA0028FAD14FF00070C9
:1016000000901748019002940020039004950590E3
:101610004FF48060069080000790400008904011D1
:1016200009904FF440300A9004200B9003200C9056
:101630004FF080700D9000200E9069460748FFF72C
:10164000A5FA01210548FFF73BFA00BF0348FFF761
:1016500042FA0128FAD10FB030BD000028640240E0
:101660002800055000B587B088A001F08BF9012152
:1016700040F2C91000F0A2FB2020059002208DF856
:10168000180003208DF8190000208DF81A000120A1
:101690008DF81B0005A98248FFF7ACFC0D2205213F
:1016A0007F48FFF7EFFC1020059005A97D48FFF764
:1016B000A1FC0D2204217B48FFF7E4FC40200590AB
:1016C00005A97848FFF796FC0D2206217548FFF71B
:1016D000D9FC4FF40070059005A97348FFF78AFC08
:1016E0000D2209217048FFF7CDFC4FF48060059072
:1016F00005A96D48FFF77EFC0D220A216A48FFF715
:10170000C1FC4FF40060059005A96748FFF772FC23
:101710000D220B216448FFF7B5FC4FF48050059073
:1017200005A96148FFF766FC0D220C215E48FFF712
:10173000A9FC4FF48040059005A95B48FFF75AFCCF
:101740000D220E215848FFF79DFC0820059005A9A1
:101750005648FFF74FFC0D2203215448FFF792FC37
:101760004020059005A94E48FFF744FC0D220621B4
:101770004B48FFF787FC8020059005A94848FFF7F4
:1017800039FC0D2207214648FFF77CFC01208DF82B
:10179000180000208DF819008DF81A0001208DF82E
:1017A0001B000820059005A94148FFF723FC0420F1
:1017B000059005A93E48FFF71DFC04213C48FFF7B2
:1017C00084FC08213A48FFF782FC0A20FFF758FA08
:1017D00008213748FFF779FC0A20FFF751FA042166
:1017E0003348FFF774FC0121480500F017FB012185
:1017F000022000F0E3FA042206212E48FFF742FC03
:10180000042207212B48FFF73DFC402005900220D1
:101810008DF8180000208DF8190001208DF81A00AD
:1018200000208DF81B0005A92248FFF7E3FB0422E6
:1018300006212048FFF726FC8020059005A91D48B9
:10184000FFF7D8FB1C48FFF7A1FC0020ADF808000B
:101850004BF6FF70ADF80A00FE20ADF80C004FF417
:101860008060ADF80E000001ADF810001348019043
:1018700001A91148FFF7D2FC01210F48FFF779FCBD
:101880003220FFF7FDF907B000BD00000D0AB3F5E7
:10189000CABCBBAF4750494FBACD4949430D0A00B6
:1018A0000020024000000240001C0240000C0240E8
:1018B000001802400004024000540040801A060054
:1018C00010B586B00121084600F088FA0220ADF874
:1018D00008000020ADF80A002020ADF80C008020A0
:1018E000ADF80E000020ADF81000ADF81200ADF814
:1018F000140002A8FFF76AF81E4A12885400E21783
:1019000004EB927291101C4A1288521E1B4B1B88CA
:101910005A431B4B03EB4200FFF75EFE4FF4C060DF
:10192000FFF750FE39208DF8040000208DF80500E7
:1019300001208DF806008DF8070001A8FFF706FECC
:10194000012210210F48FFF703F94E208DF8040003
:1019500000208DF8050001208DF806008DF80700A5
:1019600001A8FFF7F3FD01210846FFF71DF806B0B7
:1019700010BD00004600002044000020420000206E
:10198000000000D02864024038B504215248FFF717
:101990009CFB0220FFF774F904214F48FFF797FBE7
:1019A0001E20FFF76DF900F08BF91E20FFF768F994
:1019B000002423E0494A02EB84029178474A32F836
:1019C000240000F085F9454931F8240000F0C8F8FA
:1019D000434921F8140000BF084630F81400009075
:1019E0003E4800EB840043883C4830F8242040F215
:1019F000B3313CA000F0C6FF00BF641CD02CD9D38B
:101A00004FF4FA70FFF73CF9052043490870084687
:101A1000007806284FD2DFE800F0034E1221303F55
:101A2000002409E03D4A02EB840291783B4A32F8F7
:101A3000240000F04DF9641C0B2CF3D34AE0002481
:101A400009E0374A02EB84029178354A32F82400E3
:101A500000F03EF9641C0B2CF3D33BE0002409E0BA
:101A6000304A02EB840291782E4A32F8240000F0CA
:101A70002FF9641C2A2CF3D32CE0002409E02A4A15
:101A800002EB84029178284A32F8240000F020F911
:101A9000641C2A2CF3D31DE0002409E0234A02EB46
:101AA00084029178214A32F8240000F011F9641C74
:101AB0002A2CF3D30EE0002409E01A4A02EB840238
:101AC0009178184A32F8240000F002F9641C2A2C9C
:101AD000F3D300BF00BF38BD001802404A00002009
:101AE000742400203C3C2D43414D4552412D44453A
:101AF0004255472D3E3E205B25645D73656E736FD6
:101B0000725F7265675B307825785D3A25782D25A0
:101B1000780D0A0A00000000400000208A0300201F
:101B2000B6030020E20300208A04002032050020D2
:101B300010B5044606A000F025FF43F20A0000F0AD
:101B40000FF8207043F20B0000F00AF8607010BD2F
:101B50000D0AB6C1C9E3CFF1CDB749440D0A000063
:101B600070B5054642F21074002601215148FFF776
:101B70003DFB00BF05E0201EA4F1010401D1FF20C0
:101B800070BD4D494B48FFF7DFFA0028F3D0002223
:101B900078214848FFF7BAFB42F2107405E0201E96
:101BA000A4F1010401D1FF20EAE744494148FFF7CD
:101BB000CBFA0028F3D0290A3E48FFF7AFFB42F2E8
:101BC000107405E0201EA4F1010401D1FF20D7E725
:101BD0003A49891C3748FFF7B7FA0028F2D0354850
:101BE0001430008840F48060324914310880E9B232
:101BF0003048FFF793FB42F2107405E0201EA4F179
:101C0000010401D1FF20BBE72C49891C2948FFF7BB
:101C10009BFA0028F2D027481430008840F48060F6
:101C200024491431088001212248FFF7DFFA42F2EB
:101C3000107405E0201EA4F1010401D1FF209FE7EC
:101C40001D491C48FFF780FA0028F3D001227821B3
:101C50001848FFF75BFB42F2107405E0201EA4F168
:101C6000010401D1FF208BE71349491C1148FFF7FC
:101C70006BFA0028F2D000210E48FFF759FA42F221
:101C8000107405E0201EA4F1010401D1FF2077E7C4
:101C900009493F310748FFF757FA0028F2D00121E0
:101CA0000448FFF7AFFA0348FFF72CFB064630461F
:101CB00066E70000005400400100030082000700B6
:101CC00010B5802143F2080000F002F810BD0000BA
:101CD00070B505460E4642F2107401213348FFF7F5
:101CE00085FA00BF05E0201EA4F1010401D1FF2008
:101CF00070BD2F492D48FFF727FA0028F3D00022A6
:101D000078212A48FFF702FB42F2107405E0201EFA
:101D1000A4F1010401D1FF20EAE726492348FFF797
:101D200013FA0028F3D0290A2048FFF7F7FA42F205
:101D3000107405E0201EA4F1010401D1FF20D7E7B3
:101D40001C49891C1948FFF7FFF90028F2D0E9B2B5
:101D50001648FFF7E3FA42F2107405E0201EA4F1E2
:101D6000010401D1FF20C3E71249891C0F48FFF786
:101D7000EBF90028F2D031460C48FFF7CFFA42F2D7
:101D8000107405E0201EA4F1010401D1FF20AFE78B
:101D90000849891C0548FFF7D7F90028F2D001212E
:101DA0000248FFF72FFA0020A2E70000005400408D
:101DB00001000300820007007047000029B1064AB5
:101DC00012680243044B1A6004E0034A126882431B
:101DD000014B1A60704700003038024029B1064AB2
:101DE00012680243044B1A6004E0034A12688243FB
:101DF000014B1A60704700003438024029B1064A8E
:101E000012680243044B1A6004E0034A12688243DA
:101E1000014B1A60704700003838024029B1064A69
:101E200012680243044B1A6004E0034A12688243BA
:101E3000014B1A60704700004038024029B1064A41
:101E400012680243044B1A6004E0034A126882439A
:101E5000014B1A60704700002038024029B1064A41
:101E600012680243044B1A6004E0034A126882437A
:101E7000014B1A607047000044380240F0B5002161
:101E800000220024022500260223324F3F6807F07B
:101E90000C0121B1042905D0082937D105E02E4FC6
:101EA000076036E02D4F076033E02A4F3F1F3F6841
:101EB000C7F38056274F3F1F3F6807F03F036EB1BF
:101EC000264FB7FBF3F7DFF88CC0ACF1040CDCF85D
:101ED00000C0CCF3881C07FB0CF40CE01E4FB7FBD2
:101EE000F3F7DFF870C0ACF1040CDCF800C0CCF301
:101EF000881C07FB0CF4174F3F1F3F68C7F30147CF
:101F00007F1C7D00B4FBF5F7076002E0124F07600D
:101F100000BF00BF0F4F3F6807F0F0010909104FE5
:101F20007A5C0768D74047600A4F3F6807F4E05182
:101F3000890A0B4F7A5C4768D7408760054F3F6836
:101F400007F46041490B064F7A5C4768D740C76089
:101F5000F0BD0000083802400024F40040787D0104
:101F6000140000201CB50121FC20FFF727FF0220F0
:101F70008DF804008DF8050000208DF806008DF81E
:101F80000700012000906946D948FFF733F80C227A
:101F90000021D748FFF776F8022000906946D44820
:101FA000FFF728F80C220121D148FFF76BF8042035
:101FB00000906946CE48FFF71DF80C220221CC485C
:101FC000FFF760F8082000906946C948FFF712F84B
:101FD0000C220321C648FFF755F8102000906946EF
:101FE000C348FFF707F80C220421C148FFF74AF85D
:101FF000202000906946BE48FEF7FCFF0C22052118
:10200000BB48FFF73FF84FF4805000906946B8484E
:10201000FEF7F0FF0C221146B548FFF733F84FF4F6
:10202000005000906946B248FEF7E4FF0C220D21F3
:10203000AF48FFF727F84FF4804000906946AC485E
:10204000FEF7D8FF0C220E21A948FFF71BF84FF42A
:10205000004000906946A648FEF7CCFF0C220F21F5
:10206000A348FFF70FF8012000906946A148FEF74A
:10207000C1FF0C2200219F48FFF704F802200090C6
:1020800069469C48FEF7B6FF0C2201219948FEF7ED
:10209000F9FF4FF48040009069469748FEF7AAFF89
:1020A0000C220E219448FEF7EDFF4FF40040009003
:1020B00069469148FEF79EFF0C220F218E48FEF7DD
:1020C000E1FF0120009069468B48FEF793FF0C2248
:1020D00000218948FEF7D6FF022000906946864815
:1020E000FEF788FF0C2201218348FEF7CBFF8020FA
:1020F000009069468148FEF77DFF0C2207217F484A
:10210000FEF7C0FF4FF48070009069467B48FEF7F1
:1021100071FF0C2208217948FEF7B4FF4FF40070DC
:10212000009069467548FEF765FF0C220921734847
:10213000FEF7A8FF4FF48060009069466F48FEF7F5
:1021400059FF0C220A216D48FEF79CFF4FF40060F6
:10215000009069466948FEF74DFF0C220B21674845
:10216000FEF790FF4FF48050009069466348FEF7F9
:1021700041FF0C2211466148FEF784FF4FF40050E6
:10218000009069465D48FEF735FF0C220D215B4843
:10219000FEF778FF4FF48040009069465748FEF7FD
:1021A00029FF0C220E215548FEF76CFF4FF400402A
:1021B000009069465148FEF71DFF0C220F214F4841
:1021C000FEF760FF4FF48070009069464A48FEF7C2
:1021D00011FF0C2208214848FEF754FF4FF400700D
:1021E000009069464448FEF705FF0C220921424849
:1021F000FEF748FF4FF48060009069463E48FEF7C6
:10220000F9FE0C220A213C48FEF73CFF40200090DA
:1022100069463B48FEF7EEFE0C2206213848FEF7E1
:1022200031FF1020009069463248FEF7E3FE0C2291
:1022300004213048FEF726FF2020009069462D48F3
:10224000FEF7D8FE0C2205212A48FEF71BFF0120CD
:10225000009069462B48FEF7CDFE0C22002129484C
:10226000FEF710FF4FF40060009069462048FEF72B
:10227000C1FE0C220B211E48FEF704FF4FF4004064
:10228000009069461B48FEF7B5FE0C220F21194845
:10229000FEF7F8FE4FF48070009069461548FEF78F
:1022A000A9FE0C2208211348FEF7ECFE80200090C6
:1022B00069461348FEF79EFE0C2207211048FEF7E0
:1022C000E1FE0220009069460C48FEF793FE0C22C6
:1022D00001210A48FEF7D6FE012000906946074812
:1022E000FEF788FE0C2200210448FEF7CBFE1CBD41
:1022F0000014024000180240000C0240001002408E
:10230000001C02400008024000B593B0FFF72AFE0F
:1023100001210846FFF772FD02200190072002907C
:102320000420039007200490022005900690079057
:10233000012008900020099004200A9010200B90A2
:1023400040200C904FF4C0700D9000200E904FF480
:1023500000600F90002010904FF40050119001A8E1
:10236000129008A8FEF798FD00F002F813B000BD27
:102370001FB5002401200090082001900120029048
:102380000020039000BF20210120FEF751FD00280E
:10239000F9D16846FEF770FD0A2000F04DF80220E2
:1023A000009008200190012002900020039000BFBF
:1023B00020210120FEF73CFD0028F9D16846FEF7F8
:1023C0005BFD032000900820019004200290002073
:1023D000039000BF20210120FEF72AFD0028F9D13B
:1023E0006846FEF749FD00BF20210120FEF720FDD1
:1023F0000028F9D16846FEF73FFD40F23124042061
:1024000000900820019001200290039400BF202139
:102410000120FEF70DFD0028F9D16846FEF72CFDDE
:1024200040F26A50FEF7DAFD00BF20210120FEF7DE
:10243000FFFC0028F9D11FBD01B581B0002000903C
:10244000054901984843009002E00098401E009022
:1024500000980028F9D10CBDA0860100704700004B
:1024600030B500228B071C0F0F2303FA04F20B4B2D
:102470008C1053F824309343084C8D1044F82530C9
:1024800023468C1053F824308C07240F00FA04F4F0
:102490002343024C8D1044F8253030BD08380140EC
:1024A0000CB50020019000904148006840F4803055
:1024B0003F49086000BF3E48006800F400300090CB
:1024C0000198401C0190009818B90198B0F5A04FF0
:1024D000F1D13748006800F4003010B101200090BD
:1024E00001E0002000900098012860D13048403081
:1024F000006840F080502E49403108602D48006847
:1025000040F440402B4908602948083000682849B9
:10251000083108600846006840F40040086008463A
:10252000006840F4A05008602348091F0860081F95
:10253000006840F08070091F086000BF1C480068F8
:1025400000F000700028F9D01A48006840F480308C
:102550001849086000BF1748406800F48030002820
:10256000F9D01448006840F400301249086000BFF8
:102570001048406800F400300028F9D040F205709F
:102580000E4908600A480830006820F00300084936
:10259000083108600846006840F00200086000BF8B
:1025A00003480830006800F00C000828F8D10CBD82
:1025B0000038024000700040195A4007003C0240B9
:1025C00010B500F07DF800240CE0084850F8240015
:1025D00030B1064850F82400401E044941F8240058
:1025E000601CC4B20A2CF0DB10BD0000E80500201E
:1025F00030B5164800684FF47A72B0FBF2F1481E0D
:10260000B0F1807F01D301201BE0481E4FF0E02293
:10261000506150170F22002807DA13071D0E0C4BCC
:1026200000F00F04241F1D5503E013071C0E094B77
:102630001C5400BF00204FF0E02290610720106181
:10264000002008B100BFFEE730BD00000000002000
:1026500018ED00E000E400E010B51548006840F413
:102660007000134908601348006840F001001149E8
:10267000086000200F49083108600E4800680E49C4
:1026800008400C4908600D48091D0860081F0068D3
:1026900020F48020091F0860002006490C310860E2
:1026A000FFF7FEFE4FF0006001498039086010BD61
:1026B00088ED00E000380240FFFFF6FE10300024F5
:1026C0000448006820B103480068401E01490860C2
:1026D00070470000DC05002030B5441E04EB840484
:1026E00065014C1E05EB4403024C04EB53042270BD
:1026F00030BD00007406002030B5441E04EB840495
:1027000065014C1E05EB4403024C04EB530422709C
:1027100030BD00007415002021B1828942F40052BE
:10272000828104E082894DF6FF731A4082817047EE
:1027300002460020B1F5007F00D100BF13880B4096
:102740000BB1012000E00020704700002DE9FF4799
:1027500005460E460024A14600BFA046B08900B140
:1027600000BF2C8A24F44054F08804432C82AC89A6
:1027700041F20C608443B088318908437189084371
:102780000443AC81AC8A24F44074B0890443AC8225
:102790006846FFF773FB2048854202D01F488542F8
:1027A00002D1DDF80C9001E0DDF80890A88900F472
:1027B000004040B109EBC90000EB09103168490045
:1027C000B0FBF1F707E009EBC90000EB0910316835
:1027D0008900B0FBF1F76420B7FBF0F00401200999
:1027E000642101FB1078A88900F4004040B1322038
:1027F00000EBC800B0FBF1F000F00700044308E074
:10280000322000EB08106421B0FBF1F000F00F0063
:1028100004432C81BDE8FF870010014000140140F3
:10282000C1F308028280704700BFFEE738B5032479
:1028300021465148FFF7F4FF00BF80214E48FFF7C3
:1028400077FF0028F9D0FC2421464B48FFF7E8FF2A
:1028500000BF80214848FFF76BFF0028F9D0684689
:10286000464991ED000A00F0E6FF9DF80040214640
:102870004148FFF7D5FF00BF80213F48FFF758FFD1
:102880000028F9D09DF8014021463B48FFF7C8FFDA
:1028900000BF80213848FFF74BFF0028F9D09DF892
:1028A000024021463448FFF7BBFF00BF8021324879
:1028B000FFF73EFF0028F9D09DF8034021462E483F
:1028C000FFF7AEFF00BF80212B48FFF731FF002844
:1028D000F9D068462A4991ED000A00F0ACFF9DF856
:1028E000004021462448FFF79BFF00BF802122487B
:1028F000FFF71EFF0028F9D09DF8014021461E4831
:10290000FFF78EFF00BF80211B48FFF711FF002853
:10291000F9D09DF8024021461748FFF781FF00BF1C
:1029200080211548FFF704FF0028F9D09DF80340E7
:1029300021461148FFF774FF00BF80210E48FFF7C2
:10294000F7FE0028F9D0FC2421460B48FFF768FF6A
:1029500000BF80210848FFF7EBFE0028F9D00324D0
:1029600021460548FFF75CFF00BF80210248FFF7C2
:10297000DFFE0028F9D038BD0010014030000020F3
:10298000340000200FB4054B10B503A9044A029887
:1029900000F014FD10BC5DF814FB00005138000875
:1029A000E005002003B401984100009850EAC120DE
:1029B00018BF04204A0D18BF40F0010040F2FF721A
:1029C000B2EB515F08BF40F00200012808BF0520AC
:1029D00002B070470000000010B52F499FED2C1B7E
:1029E0002DED020B84B0059820F000408842D8BF3E
:1029F0009DED040B2DDD2949884209D1049840B989
:102A00004FF0010000F0D4FC00F0A2FC06B010BDB5
:102A100005DB9DED040B00F08FFC06B010BD684691
:102A20009DED040B00F0A0F810F0030004BF9DED35
:102A3000021B9DED000B0CD001280ED09DED021B5A
:102A40009DED000B022817D0012000F0DDFB06B041
:102A500010BD00F0A5FA06B010BD9DED021B9DED66
:102A6000000B012000F0D0FB51EC100B81F0004175
:102A700006B041EC100B10BD00F092FA51EC100BB7
:102A800081F0004106B041EC100B10BD00000000C9
:102A90000000000000000000FB21E93F0000F07F83
:102AA00010B52F499FED2C1B2DED020B84B005981E
:102AB00020F000408842DCBF00209DED040B32DD99
:102AC0002849884209D1049840B94FF0010000F02C
:102AD0006FFC00F03DFC06B010BD05DB9DED040B66
:102AE00000F02AFC06B010BD68469DED040B00F016
:102AF0003BF810F0030011D0012818D09DED021B07
:102B00009DED000B02281AD000F04AFA51EC100B90
:102B100081F0004106B041EC100B10BD9DED021B91
:102B20009DED000B012000F06FFB06B010BD9DED88
:102B3000021B9DED000B00F033FA06B010BD012022
:102B400000F062FB51EC100B81F0004106B041EC4B
:102B5000100B10BD0000000000000000000000008D
:102B6000FB21E93F0000F07F2DE9F14F04462DEDF8
:102B7000020B2DED088B8AB09FEDE70B80ED020B69
:102B8000139EE74826F0004585420ADC9DED120BB6
:102B9000002084ED000B0AB0BDEC088B03B0BDE84B
:102BA000F08FE0489FEDE0AB9FEDE1BBA84247DD31
:102BB000E14F9FEDE39B9FEDE48B9DED120B53ECFA
:102BC0001A2B51EC100B002E1CDDFDF7B0FB41EC75
:102BD000100BBD4208D053EC1B2B51EC100BFDF732
:102BE000A6FBC4E900010BE053EC192B51EC100BD0
:102BF000FDF79DFB53EC182BFDF799FBC4E9000191
:102C00000120C8E7FDF7F2FA41EC100BBD4208D0F5
:102C100053EC1B2B51EC100BFDF7E8FAC4E9000153
:102C20000BE053EC192B51EC100BFDF7DFFA53ECD2
:102C3000182BFDF7DBFAC4E900014FF0FF30AAE7DB
:102C4000C348A84279DB9DED120B51EC100B00F04C
:102C5000E6FD41EC180B9FEDC00B53EC102BFDF77C
:102C60006CFB9FEDBF1B53EC112BFDF7BFFAFDF77B
:102C70009AFD0746FDF7D3FB41EC190B53EC1A2BD9
:102C8000FDF75BFB53EC182BFDF754FB41EC180BE5
:102C900053EC1B2B51EC190BFDF74FFBDFF8C8A2CF
:102CA00041EC100B4FEA15580125FA4453EC102B58
:102CB00051EC180BFDF73BFB032DC4E900013DD09F
:102CC000C1F30A5005EB4511A8EB00001139814210
:102CD00034DA0AEB051BB0EE48AA9BED000BF0EED0
:102CE00068AA53EC102B51EC190BFDF726FB41ECB5
:102CF0001B0B51EC1A0B53EC1B2BFDF718FB41EC93
:102D0000180B51EC1A0B53EC182BFDF710FB53EC7E
:102D10001B2BFDF70CFB9BED020B41EC1A0B53EC4C
:102D2000102B51EC190BFDF708FB53EC1A2BFDF798
:102D3000FEFA41EC100B6D1CB8E70EE0002EA8BFA8
:102D40003846BFF628AF94ED000B51EC100B81F024
:102D50000041C4E9000178421DE7C6F3130040F4C6
:102D6000801EC6F30A50A0F2F530471100F01F058F
:102D7000C5F12000DDF848B00890002006900790CB
:102D80000520EC467949002D07EB0002794408BF85
:102D900051F8221009D051F8223001EB8201AB40EA
:102DA0004A68089922FA01F11943A1FB0E26A1FBFA
:102DB0000B131A449A4234BF0123002303EB060885
:102DC0000CEB8003D3E901A60E448E4234BF0121EF
:102DD000002192448A4411B1924502D903E0924500
:102DE00001D2012100E00021C3E901A641444CF8D1
:102DF0002010011EA0F10100C4DC029800F1005077
:102E0000850F0298DDE903678000DDF81480FDF787
:102E100006FB41EC1A0B3046FDF7B8FC9FED541B46
:102E200053EC112BFDF789FA41EC1B0B3846FDF7EB
:102E3000ADFC9FED511B53EC112BFDF77EFA41ECDD
:102E4000180B4046FDF7A2FC9FED4D1B53EC112BD8
:102E5000FDF773FA41EC190B51EC180B53EC192BDD
:102E6000FDF7C4F953EC1B2BFDF7C0F953EC1A2BFB
:102E7000FDF7BCF9CDE90801002008909DED080B95
:102E800053EC1A2B51EC100BFDF751FA53EC1B2BA2
:102E9000FDF74DFA53EC182BFDF749FA53EC192BBB
:102EA000FDF748FA9FED381B53EC112BFDF745FA5F
:102EB0009FED370B41EC180B53EC102B9DED080BDD
:102EC00051EC100BFDF739FA53EC182BFDF78EF986
:102ED0009FED310B41EC180B53EC102B9DED080BC3
:102EE00051EC100BFDF729FA53EC182BFDF77EF986
:102EF00041EC100B139810F0004F06D06D4251ECCE
:102F0000100B81F0004141EC100B284684ED000BC2
:102F100041E600000000000000000000000000008A
:102F2000FB21E93F7CD9024000004054FB21F93FDE
:102F30003163621A61B4D03DFB21F93F000000000B
:102F40000000601A61B4D03D7370032E8A19A33B50
:102F5000FB2139410000000083C8C96D305FE43FA8
:102F6000000000000000E03F1A0C0000680B0000A9
:102F7000000000000000103E000000000000103CB7
:102F8000000000000000103A182D4454FB21F93DC8
:102F90003326A611460B113C00000054FB21F93DDD
:102FA00010B52DED040B2DED088B82B0B0EE419ADB
:102FB000F0EE619A0B9820F000449FED4BABB4F11A
:102FC000795F11DA9DED0A0B51EC100BFDF7EBFB6D
:102FD000002801BFB0EE4A0AF0EE6A0A02B0BDEC6A
:102FE000088B04BF04B010BD9DED0A0B53EC102BF1
:102FF00051EC100BFDF7A1F941EC180B3C480621F0
:10300000B0EE480AF0EE680A784400F081F853EC1C
:10301000182B51EC100BFDF790F99DED0A0B41ECCC
:103020001B0B53EC192B51EC100BFDF786F941ECFF
:10303000190B53EC1B2B51EC180BFDF77EF953ECDD
:10304000192BFDF774F99FED2C0B41EC190B53EC88
:10305000102B51EC180BFDF770F941EC100B2848C0
:10306000844210DA53EC192B51EC100BFDF75FF989
:1030700053EC1A2BFDF75EF941EC100B02B0BDECDE
:10308000088B04B010BD1F48A042BCBF9FED1E1BA3
:103090008DED001B06DBA4F50010019000200090D0
:1030A0009DED001B51EC100B53EC112BFDF73FF97C
:1030B0009DED000B41EC180B53EC102B51EC1A0B4F
:1030C000FDF735F941EC1A0B53EC192B51EC180BA9
:1030D000FDF72DF953EC1A2BFDF72CF941EC100BF1
:1030E000CCE7000000000000000000000000F03FFE
:1030F0008C08000000000000000000000000E03F1D
:103100003333D33F0000E93F000000000000D23F0E
:1031100070B504462DED028B4D1E00EBC500B0EEE0
:10312000408AF0EE608A90ED000B35F0060017D073
:1031300053EC182B51EC100BFDF7FFF841EC100B82
:103140006D1E04EBC50090ED001B51EC100B53EC11
:10315000112BFDF74BF841EC100B35F00600E7D1D1
:10316000022D36D0042D1CD0062D1CBFBDEC028BC9
:1031700070BD53EC182B51EC100BFDF7DEF894EDFD
:103180000A1B53EC112BFDF731F853EC182BFDF70C
:10319000D4F894ED081B53EC112BFDF727F841EC04
:1031A000100B53EC182B51EC100BFDF7C6F894EDF7
:1031B000061B53EC112BFDF719F853EC182BFDF7F8
:1031C000BCF894ED040B53EC102BFDF70FF841EC19
:1031D000100B53EC182B51EC100BFDF7AEF894EDDF
:1031E000021B53EC112BFDF701F853EC182BFDF7E4
:1031F000A4F894ED001B53EC112BFCF7F7FFBDEC8A
:10320000028B41EC100B70BD31B504462DED040B63
:103210002DED0A8BB0EE41BAF0EE61BA0B989DED40
:103220000A0B20F00040B0F1795F0DDA51EC100B81
:10323000FFF7B8FB042808BF00F09AF89DED0A0BD1
:10324000BDEC0A8B05B030BD53EC102B51EC100BCC
:10325000FDF773F841EC180B9DED0A0B53EC182B9E
:1032600051EC100BFDF769F841EC190B2C48B0EE4E
:10327000480AF0EE680A05217844FFF749FF9FED00
:103280002ACBB0EE40AAF0EE60AA9CB353EC1C2B04
:1032900051EC190BFDF751F841EC1C0B53EC1A2BB8
:1032A00051EC190BFDF749F89FED210B41EC190B7F
:1032B00053EC102B51EC1B0BFDF73FF853EC192B83
:1032C000FDF735F853EC182BFDF737F853EC1B2BB3
:1032D000FDF72DF853EC1C2BFDF729F89DED0A1B8B
:1032E00053EC112BFDF726F8BDEC0A8B05B041EC31
:1032F000100B30BDFFE753EC1A2B51EC180BFDF708
:103300001CF853EC1C2BFCF771FF53EC192BFDF749
:1033100014F89DED0A1B53EC112BFCF767FFE3E754
:103320001407000000000000495555555555C5BF0C
:10333000000000000000E03F10B553EC102B51ECF2
:10334000100BFCF753FF41EC100B10BD0000000008
:103350009FED050B10B553EC102B51EC100BFDF746
:1033600084F941EC100B10BD0000000000000000CB
:103370009FED050B10B553EC102B51EC100BFCF727
:10338000DCFF41EC100B10BD00000000000000103D
:1033900002E008C8121F08C1002AFAD1704770471E
:1033A000002001E001C1121F002AFBD1704700007C
:1033B0000149086070470000E40500202DE9FF4F37
:1033C0008DB00F460546002606E025280BD0DDE926
:1033D0000F1290476D1C761C28780028F5D111B08B
:1033E0003046BDE8F08F0024A246A1460122EC49F8
:1033F00000E0044315F8013F203B02FA03F00842C5
:10340000F7D128782A2810D06FF02F022878A0F161
:103410003001092914D80AEB8A0102EB410144F07A
:10342000020400EB010A6D1CF0E701CF5FEA000A1D
:1034300003D544F40054CAF1000A44F002046D1CA0
:1034400028782E2817D115F8010F44F004042A28F3
:103450000ED06FF02F022878A0F1300109290AD888
:1034600009EB890102EB410100EB01096D1CF2E758
:1034700057F8049B6D1C28786C280FD006DC4C286C
:1034800017D068280DD06A2814D104E0742810D011
:103490007A280FD10DE044F400140AE044F48014BB
:1034A00001E044F440146978814202D104F58014AB
:1034B0006D1C6D1C2A786E2A1FD00CDC632A31D05B
:1034C00004DC002A8BD0582A11D1A3E0642A68D0EA
:1034D000692A0CD165E0732A2ED004DC6F2A73D0E0
:1034E000702A04D19BE0752A6FD0782A6ED01046DE
:1034F000DDE90F129047761C50E1C4F30250022818
:1035000006D0032809D0042801CF09D0066045E180
:1035100001CFF117C0E9006140E101CF06803DE134
:1035200006703BE117F8040B8DF8000000208DF8C1
:103530000100EB46012003E057F804BB4FF0FF30D9
:1035400061074FF0000102D40DE008F10101884647
:1035500049450FDA8045F8DB1BF808100029F4D143
:1035600008E008F1010188468142FADB1BF80810E7
:103570000029F6D1DDE90F23AAEB08008146214698
:1035800000F036F9304400EB080604E0DDE90F12E4
:103590001BF8010B9047B8F10108F7D221464846C5
:1035A000F7E00A21C4F302534FF0000B0891022BFD
:1035B00004D001CFC117032B09D00AE0FF1D27F06B
:1035C0000707F7E8020108E032E01FE020E000B260
:1035D000C117042B01D140B2C117031E71F10003C2
:1035E00007DA4FF0000CD0EB0C006CEB01012D233F
:1035F00002E0230504D52B238DF82430012303E0BA
:10360000E30701D02023F7E7984658E00A2110E0AD
:1036100010210EE010204FF0000B08900CE010215C
:103620004FF0000B44F004044FF00809089103E048
:1036300008214FF0000B0891C4F30253022B04D071
:1036400001CF0021032B06D006E0FF1D27F007075E
:10365000F7E8020103E080B2042B00D1C0B24FF0C2
:10366000000823072BD5702A07D0DDF820C08CF086
:10367000100C5CEA0B0C05D00EE040238DF82430D2
:10368000012308E050EA010306D030238DF82430EE
:103690008DF8252002239846DDF820C08CF0080C18
:1036A0005CEA0B0C0BD150EA010301D1630706D58C
:1036B00030238DF824304FF00108A9F10109582A70
:1036C00004D038A20B9208AA0A920BE03AA2F9E7BA
:1036D0005B46089AFCF7E3FE0B9B9B5C0A9A521E22
:1036E0000A92137050EA0102F2D10A98ADEB000081
:1036F00000F1200B600702D524F4803401E04FF084
:103700000109D94502DDA9EB0B0000E0002000EB28
:103710000B0141440890AAEB010AE00306D4DDE95D
:103720000F232146504600F063F806444FF000098D
:1037300008E009A911F80900DDE90F12904709F125
:103740000109761CC145F4DBE0030CD5DDE90F234C
:103750002146504600F04CF8064404E0DDE90F1223
:1037600030209047761C0899481E08900029F5DC07
:1037700008E00A980A990078491C0A91DDE90F12BD
:103780009047761CBBF10001ABF1010BF1DC214647
:103790005046DDE90F2300F019F806446D1C1BE6C6
:1037A0000928010030313233343536373839616217
:1037B00063646566000000003031323334353637DB
:1037C0003839414243444546000000002DE9F041AC
:1037D000044600251E461746880404D405E03946F1
:1037E0002020B0476D1C641EF9D52846BDE8F08145
:1037F0002DE9F041044600251E469046C80301D538
:10380000302700E02027880404D505E041463846EB
:10381000B0476D1C641EF9D52846BDE8F08182B022
:10382000CDE9000121F0004001909DED000B02B0B8
:1038300051EC100B704701B52DED020B69460A786B
:1038400002704A7842708A788270CA78C2700EBD5F
:1038500070B504460D46E1B20548FEF7E1FF00BF32
:1038600080210348FEF764FF0028F9D0204670BD90
:1038700000100140FDF7B8F9FEF7BAFEFDF790FA27
:10388000FDF7FCFD04E00348006808B9FDF7D4FD2E
:10389000F9E70000280000204C5555555555A53F27
:1038A0007751C1166CC156BF9015CB19A001FA3ED5
:1038B000AD529C804F7E92BEC4B1B4BD9EEE213EFF
:1038C000D43888BEE9FAA8BD00004054FB21F93F76
:1038D0003163621A61B4D03D0000601A61B4D03D1A
:1038E0007370032E8A19A33B0000002E8A19A33B94
:1038F000C14920259A837B390000000000000000A8
:103900006E83F9A22915444ED15727FCC0DD34F54A
:10391000999562DB4190433CAB6351FE61C5BBDED0
:103920003A6E24B7E0D24D42EA2E49061C92D109E4
:103930001CEB1DFE3EA729B1F53582E88444BB2E61
:1039400026709CE9417E5FB439D69139F4395383AE
:103950008B5F849C3B28F9BDFF97F81F0F9805DE0D
:103960008B112FEF1F6D0A5ACF7E366DB709CB270B
:10397000663F464F2DEA5F9EC7BA27757BF1E5EBA0
:10398000F739073DEA92528AB15FFB6B085D8D1FE4
:10399000A6F810111111813FD561C119A0012ABFEC
:1039A0007DFEB157E31DC73EEB9C2B8AE6E55ABE70
:1039B0007CD5CF5A3AD9E53DE8390008000000200F
:1039C000E8050000E4070008DC3D0008000000D026
:1039D000003C0000E4070008DC3D0008E80500208A
:1039E00030240000A0330008118495BA0A68090148
:1039F000020304060708090CA910011A12503A30F4
:103A000004140331111C083082041A420C120314EE
:103A10001730FF1A18041434301A143730131408EE
:103A20003101143036361431360E143236E2143386
:103A30003612142136E0140437A01403375A141533
:103A4000377814173701140B37601405371A14052B
:103A50003902140639101401390A24313712133689
:103A60000814013633142D306014203652141B37DD
:103A700020141C475014133A4323183A14193AF8E7
:103A800014353613143636031434364014223601F6
:103A900014013C3414043C2814053C9823063C14BF
:103AA000073C081A080814093C1C140A3C9C140B17
:103AB0003C40231038141138101A120814083764C7
:103AC000140140022405401A22301A04C0140E309A
:103AD000581A2E0C1113436F141F50012B0E44F56E
:103AE00012A7140F3A3014103A281A1B08141E3A61
:103AF0002614113A60241F3A141358231401581441
:103B00001402580F1A0304140458121405582614EA
:103B100006580C1B0758801358051A09041A0A0C7A
:103B2000140B580D1A0C08140D5803230E581A0FB5
:103B3000041A100C14115809141258071A130C1AED
:103B40001414141558011A160C1A172C1A18341AB2
:103B500019081A1A44141B58061A1C0C141D580E66
:103B6000141E5829141F5817142058111A21041410
:103B700022581514235828142458461A25801A262A
:103B8000281A2708142858641A2908142A582414B3
:103B90002B58221A2C081A2D041A2E4C1A2F1014E6
:103BA000305840143158421A32141A33281A340843
:103BB0001A35181A36041A3710143858441A39149A
:103BC0001A3A0C1A3B601A3C2C143D58CE14805102
:103BD000FF148151F223825114835114148451250E
:103BE00014855124148651091A87041A88041489EB
:103BF0005175148A5154148B51E0148C51B2148DA8
:103C00005142148E513D148F5156149051461491C7
:103C100051F81492510414935170149451F01A9560
:103C20000414965103149751011A981814995112BB
:103C30001A9A081A9B64149C5106149D5182149E72
:103C4000513814805401148154081482541414837C
:103C5000542814845451148554651486547114875F
:103C6000547D1488548714895491148A549A148B5F
:103C700054AA148C54B8148D54CD148E54DD148F62
:103C800054EA1490541D1481531E1482535B148300
:103C900053081484530A1485537E1486538814875A
:103CA000537C1488536C14895310148A5301148B59
:103CB00053981480550614835540148455101A895E
:103CC00004238A55148B55F8241D504019401401C3
:103CD00053301A02302303531A04101A05101A061F
:103CE00008140753161A09081A0A10140B5304145F
:103CF0000C53062325501408300214123203140802
:103D0000380114093840230A38140B38F01A100807
:103D1000141138101A12081C133804241A13045AE8
:103D2000A32C1A022C1A802C1A012C0A17E02C142E
:103D30003530411436307214073C081420384114D1
:103D40001438311A15041119281A01041A0204141E
:103D50000338BE1404380A1405383F140638061C0C
:103D60000738E4601A03607A2060140C3807140DD9
:103D700038691A0E181C0F382164120623183614DD
:103D800012362914093752140C370314023A091455
:103D9000033A631A14081A15081404400214023076
:103DA0001C140630C31413470314074404140B46B1
:103DB00035140C4622143748221A24C4140150A387
:103DC0002303350938A8211C0938C8A8210C9D0BEC
:103DD0003878A85A50A80A5F30A8E10001FF01FF17
:103DE00001FF01FF01FF01FF01FF01FF01FF01FFD3
:103DF00001FF01FF01FF01FF01FF01FF01FF01FFC3
:103E000001FF01FF01FF01FF01FF01FF01FF01FFB2
:103E100001FF01FF01FF01FF01FF01FF01FF01FFA2
:103E200001FF01FF01FF01FF01FF01FF01FF01FF92
:103E300001FF01FF01FF01FF01FF01FF01FF01FF82
:103E400001FF01FF01FF01FF01FF01FF01FF01FF72
:083E500001FF01FF013C00002D
:04000005080001AD41
:00000001FF
