:020000040800F2
:10000000482A0020C101000879240008B115000821
:100010003923000867080008813A00080000000042
:10002000000000000000000000000000B5360008DD
:100030000910000800000000192D000819380008F8
:10004000DF010008DF010008DF010008DF01000810
:10005000DF010008DF010008BD100008DF01000813
:10006000DF010008DF010008DF010008DF010008F0
:10007000DF010008DF010008DF010008DF010008E0
:10008000DF010008DF010008DF010008DF010008D0
:10009000DF010008DF010008DF010008DF010008C0
:1000A000DF010008DF010008DF010008DF010008B0
:1000B000DF010008DF010008DF010008DF010008A0
:1000C000DF010008DF010008DF010008DF01000890
:1000D000DF010008DF010008DF010008DF01000880
:1000E000ED100008DF010008DF010008DF01000853
:1000F000DF010008DF010008DF010008DF01000860
:10010000DF010008DF010008DF010008DF0100084F
:10011000DF010008DF010008DF010008DF0100083F
:10012000610B0008090C0008DF010008DF0100086E
:10013000DF010008DF010008DF010008DF0100081F
:10014000DF010008DF010008DF010008DF0100080F
:10015000DF010008DF010008DF010008DF010008FF
:10016000DF010008DF010008DF010008DF010008EF
:10017000DF010008DF010008A1090008DF01000815
:10018000DF010008DF010008DF010008DF010008CF
:10019000DF010008DF010008DF010008DF010008BF
:1001A000DF010008DF010008DF010008DFF80CD0E4
:1001B00000F00CFB0048004719440008482A0020C2
:1001C000074880470748804707480047FEE7FEE7A3
:1001D000FEE7FEE7FEE7FEE7FEE7FEE7FEE7FEE7F7
:1001E000B138000805330008AD0100082DE9FE4FC5
:1001F000804681EA0300C00F0C46009021F00041C8
:1002000023F00045B8EB0200A94105D24046214643
:1002100090461C460B46024623F00040104347D050
:10022000270DC7F30A00C3F30A510290401A019048
:1002300040286BDAC3F3130040F4801B0098924609
:1002400020B10023D2EB030A63EB0B0B0198594654
:10025000C0F14002504600F0ECF906460D4650460B
:100260005946019A00F0F4F910EB080061410024AE
:1002700087EA115284EAE7731A4340D0009A62B3C6
:10028000019A012A4FEA075215DC001B61EB0201BB
:100290004FF0004202EA0752CDE90042001C41F54E
:1002A000801132462B4600F02BFA03B0BDE8F08FE8
:1002B00040462146F9E7001B61EB0201001C41F5B5
:1002C000801300185B412018A2F5001747EB0301CB
:1002D00040EAD570B6196D4111E06D084FEA360657
:1002E00045EAC0754FEA0752001B61EB0201001C92
:1002F00041F5801149084FEA30000019514132465A
:100300002B4603B0BDE8F04F00F0EBB90098012296
:1003100040000023D0EB020263EBE073009821461B
:100320004FEAE074B8EB000061EB0401E9E783F009
:1003300000435BE781F0004158E72DE9FE4F81EA79
:10034000030404F0004421F0004100944FF0000B3E
:1003500023F0004350EA01045ED052EA03045BD06C
:10036000C3F30A54C1F30A552C44A4F2F3340194A4
:10037000A0FB0254C1F3130141F48011C3F3130332
:1003800043F4801301FB024400FB034E840A970AE6
:1003900044EA815447EA8357A4FB076802958D0A13
:1003A00005FB07854FEA932C04FB0C542705029D9F
:1003B0004FEA065847EA1637B5EB08056EEB070C0F
:1003C000870E920E47EA811742EA8312A7FB0201C9
:1003D000B6EB0B0164EB00042B0D43EA0C335E1803
:1003E00044EB1C50DA465146E7FB0201C5F3130407
:1003F0004FEA0B3343EA14534FEA0432019C43EAB9
:100400000603A4F10C040294009CCDE900B400F0B2
:1004100077F903B0BDE8F08F00200146F9E72DE938
:10042000F04D81EA030404F0004B21F0004514462E
:100430004FF0000A23F0004150EA050220D054EAB0
:1004400001021DD0C5F30A570246C5F31303C1F3D9
:100450001300C1F30A5640F4801543F48013A7EB50
:100460000608101BD64608F2FD3873EB050002D3D0
:1004700008F1010801E092185B41B8F1000F03DABE
:1004800000200146BDE8F08D00204FF480110646A3
:1004900084460EE0171B73EB050705D3121B63EBB5
:1004A000050306434CEA010C49084FEA3000921854
:1004B0005B4150EA0107EDD152EA030012D082EA13
:1004C000040083EA0501084305D0101BAB4106D2A6
:1004D0000122002306E000224FF0004302E06FF00B
:1004E000010253101AEB06004CEB085110EB0A0006
:1004F00041EB0B01BDE8F04D00F0F3B80EB540F252
:10050000334102910021CDE900110A460B4600F06B
:10051000F7F803B000BD00F0004230F000400AD010
:10052000C10D01F56071C0F3160042EA0151C20825
:1005300040071143704700200146704730B5041E44
:1005400071F1000404DB4FF00044404264EB010110
:10055000141E73F1000405DB1C464FF000435242A9
:1005600063EB0403994208BF904230BD01F00043A1
:1005700030B421F0004150EA010206D00A0DA2F584
:100580006072C1F31301002A02DC30BC0020704706
:10059000440F44EAC104C100E01830BC00EBC25073
:1005A00000F068B830B50B46014600202022012437
:1005B00009E021FA02F59D4205D303FA02F5491B31
:1005C00004FA02F52844151EA2F10102F1DC30BD47
:1005D0002DE9F05F0546002092469B468846064678
:1005E000814640241BE0284641464746224600F00B
:1005F000FFF853465A46C01A914110D31146184687
:10060000224600F016F82D1A67EB01084F462246E5
:100610000120002100F00DF817EB00094E41201ECB
:10062000A4F10104DFDC484631462A464346BDE8D2
:10063000F09F202A04DB203A00FA02F100207047E4
:100640009140C2F1200320FA03F319439040704710
:10065000202A06DBCB17203A41FA02F043EAE07386
:1006600006E041FA02F3D040C2F120029140084373
:10067000194670470029A8BF7047401C490008BFB1
:1006800020F00100704710B4B0FA80FC00FA0CF0C2
:1006900050EA010404BF10BC704749B1CCF12004FA
:1006A00021FA04F411FA0CF118BF01212143084387
:1006B000A3EB0C01CB1D4FEA00614FEA102042BFB3
:1006C000002010BC704700EBC35010440029A4BFA9
:1006D00010BC7047401C490008BF20F0010010BC4E
:1006E000704710B5141E73F1000408DA401C41F184
:1006F000000192185B411A4301D120F0010010BDA6
:100700002DE9F04D92469B4611B1B1FA81F202E01B
:10071000B0FA80F220329046FFF78BFF04460F4676
:1007200040EA0A0041EA0B0153465A46084313D0F7
:10073000114653EA010019D0C8F14002504600F0BA
:1007400057F805460E46504659464246FFF771FF98
:10075000084305D0012004E020463946BDE8F08D6D
:100760000020054346EAE0762C4337430A986305A8
:10077000E40AA0EB08000022FD0A44EA47540A30CC
:1007800002D500200146E9E7010510196941DDE9BC
:10079000084500196941BDE8F04DA2E7C1F30A52CE
:1007A000C1F3130140F2FF3341F480119A4202DA9F
:1007B00000200146704740F233439A42A2F233428E
:1007C00002DC524200F014B8FFF733BF064C074D6D
:1007D00006E0E06840F0010394E807009847103411
:1007E000AC42F6D3FFF7E6FCF86E0008286F00086D
:1007F000202A04DB203A21FA02F00021704721FA76
:1008000002F3D040C2F120029140084319467047DC
:1008100070B58C1810F8015B15F0070301D110F8C2
:10082000013B2A1106D110F8012B03E010F8016BEF
:1008300001F8016B5B1EF9D12B0705D40023521E72
:100840000DD401F8013BFAE710F8013BCB1A921CDA
:1008500003E013F8015B01F8015B521EF9D5A142D8
:10086000D8D3002070BD00BFFEE70000F0B5002027
:100870002DE0194D441C2C5DE410E100441C2C5D5E
:100880006407A50E144C245C641105EB8402124C21
:10089000245CE406230E40F22B1511FB05F540F213
:1008A0004B2612FB06F63544C3EBC306C6EB831694
:1008B00005EB460505F5FA754FF47A76B5FBF6F5C6
:1008C00000EBD0767610054FBD55841CA0B2B0F574
:1008D000F05FCEDBF0BD0000000000D0A4060020D9
:1008E00030B500201CE0104C235CDC1703EB547483
:1008F000E1100D4C235CDC1703EB9474A210C2F3DF
:10090000C20303EBC103DCB2012303EB4005074B39
:100910005C5501EB4213DCB2044B03F81040401C61
:10092000B0F5706FDFD330BDA4060020001E00D0EC
:1009300030B10749096841F00101054A116005E03D
:100940000349096821F00101014A11607047000064
:100950000000055001494861704700000000055043
:1009600030B10749096841F48041054A116005E04A
:100970000349096821F48041014A11607047000071
:1009800000000550014600200022044B1B6903EAC9
:1009900001020AB1012000E000207047000005506C
:1009A00010B50120FFF7EEFF01280CD10020064909
:1009B000088006480078401C04490870012004495A
:1009C0000870FFF7C7FF10BD36000020260000208A
:1009D0003800002029B1074AD2680243054BDA608B
:1009E00006E0044AD268C3439BB21A40014BDA6066
:1009F000704700000000055000210E4A126844F2C2
:100A000001039A430B4B1A601A46116840F6F272C2
:100A10009143028843881A4383881A43C3881A4340
:100A200003891A4343891A4383891A431143014AAC
:100A3000116070470000055010B50121C80502F093
:100A40007DF900214FF4000002F078F910BD00009C
:100A500001460020034A52680A400AB1012000E022
:100A60000020704700B0024070B500210022002332
:100A70000024344D2D68344E3540324E35603546B5
:100A80002D68066835432F4E356035466D6B25F071
:100A90000705756335466D6B46683543294E7563AA
:100AA000456835B9C5682902058A2A04057D2B06E3
:100AB00021E04568012D05D1C5682902058A2A046F
:100AC000002318E04568022D05D1C5686901056954
:100AD000EA0200230FE04568032D06D1C5686901CD
:100AE0000569AA024569EB0305E0C56829010569A6
:100AF0002A0245692B0341EA0205866835431D43F6
:100B0000104EB66B35430F4EB5638569F5633546B8
:100B10002D6C6FF30D05356435462D6CC669354374
:100B2000084E3564858C2C0435466D6C05F04045C7
:100B3000756435466D6C066A26433543014E75640F
:100B400070BD000000B00240FCE0FCFF03480068FC
:100B500040F00100014908607047000000B0024009
:100B600010B51549154800F0D3F901281ED11448D5
:100B70000088401C1249088008460088612802DB72
:100B80000120088012E00F4A128853000C4A128894
:100B9000521E0D4C03FB0240094A1288521E0B4B99
:100BA0004FF4C86404FB023100F06EF802490348B8
:100BB00000F0D2F810BD0000208000101064024048
:100BC000340000204E000020000000D0003C00D087
:100BD00008B50121880502F0A1F838208DF8000041
:100BE00000208DF8010001208DF802008DF803002F
:100BF000684601F05BFC01221021024800F0BAF9BE
:100C000008BD00001064024070B51749174800F095
:100C10007FF9012826D116480088401C1449088015
:100C20000846008813490988884202D100201049EB
:100C30000880114A12885400E21704EB9272911056
:100C40000E4A128853000E4A1288094D2D88521BF5
:100C5000521E0C4D03FB025001F06EFC024903488A
:100C600000F07AF870BD000000880010286402408F
:100C70003600002054000020520000204E000020CA
:100C800050000020000000D030B58FB004460D4663
:100C90000121880502F042F8204800F083F800BFE7
:100CA0001E4800F02BF90028FAD10090019402951B
:100CB00080200390502004904FF400700590400075
:100CC00006904000079080000890002009904FF4A3
:100CD00040300A9004200B9003200C904FF080705D
:100CE0000D9000200E9069460C4800F061F90C4907
:100CF0000A4800F017F801221021084800F03AF9DC
:100D00000121064800F042F800BF0448183000F006
:100D1000F5F80128F9D10FB030BD00001064024091
:100D2000200000100246094B9A4201D2084801E017
:100D30000648103801F000531BB1064B0B40C3604E
:100D400002E0044B0B4083607047000010640240D7
:100D5000006002407D0F7D0F0246094B9A4201D28E
:100D6000084801E00648103801F000531BB1064B5B
:100D70000B40C36002E0044B0B40836070470000EF
:100D800010640240006002407D0F7D0F21B10268B7
:100D900042F00102026003E0026822F001020260F8
:100DA00070470000016821F001010160002101602D
:100DB00041608160C1600161212141614A498842ED
:100DC00004D13D21484A103A91608CE046491831DF
:100DD000884205D14FF47461434A103A916082E031
:100DE00041493031884205D14FF474113E4A103ADE
:100DF000916078E03C494831884205D14FF07461F8
:100E0000394A103A91606EE037496031884204D126
:100E10003649354A103AD16065E033497831884225
:100E200004D13349304A103AD1605CE02E49903108
:100E3000884204D12F492C4A103AD16053E02A4904
:100E4000A831884205D14FF03D51274A103AD16070
:100E500049E02949884204D13D21274A083A1160D6
:100E600041E025491831884205D14FF47461224A86
:100E7000083A116037E020493031884205D14FF4FB
:100E800074111D4A083A11602DE01B49483188420F
:100E900005D14FF07461184A083A116023E01649F1
:100EA0006031884204D11149134A121F11601AE0BF
:100EB00011497831884204D10D490F4A121F11603F
:100EC00011E00D499031884204D10A490A4A121FA3
:100ED000116008E00849A831884204D14FF03D5123
:100EE000054A121F11607047106002403D0000204B
:100EF000400F002000003D20106402400146002009
:100F00000A6802F001020AB1012000E000207047E7
:100F100070B50246002000240025124EB24201D2D4
:100F2000114B01E00F4B103B104E0E4036B11E2608
:100F300006EAD124166806EA040502E0566906F0BE
:100F4000800501F000560EB15C6800E01C68084E98
:100F5000344004EA010616B10DB1012000E0002082
:100F600070BD000010640240006002403C0F3C0F66
:100F70007D0F7D0F10B501F080034BB122B14369A5
:100F800043F08003436103E0436923F0800343613E
:100F900080290BD02AB1036801F01E0423430360AB
:100FA00004E0036801F01E04A343036010BD0000C9
:100FB00010B500220268134B1A40CC680B6823431B
:100FC0004C6923438C692343CC6923430C6A234334
:100FD0004C6A23438C6A23434C6B23438C6B23431F
:100FE0001A430260426922F00702D1E90B3423431D
:100FF0001A4342610B6943604B6883608B68C3602E
:1010000010BD00003F801CF07047000000B587B0A5
:101010000121084601F082FE0121102001F0DEFED0
:1010200007220A211D4800F04FFA072209211B4818
:1010300000F04AFA00208DF81A0001208DF81B00FC
:1010400002208DF818000002059002208DF819008A
:1010500005A9124800F0F0F902208DF818004002AE
:10106000059005A90D4800F0E7F94FF4E130019033
:101070000020ADF80800ADF80A00ADF80C00ADF89E
:1010800010000C20ADF80E0001A9054802F08AFC02
:101090000121034802F06CFC07B000BD00000240D3
:1010A0000010014001B504490098086000BF0248E3
:1010B00000680028FBD108BD1006002010B50120F3
:1010C00000F03AF850B106A002F002FD06480068B0
:1010D00008B100F09DFB012000F028F810BD0000D1
:1010E0004B6579310A0000003000002010B54FF444
:1010F000005000F021F888B109480068012803D1A8
:1011000000200749086002E001200549086005A0A9
:1011100002F0DEFC4FF4005000F008F810BD0000B3
:10112000300000204B6579320A0000000149086058
:1011300070470000143C014001460020034A126839
:101140000A400AB1012000E000207047143C014031
:10115000002123498279002A3AD00A46126803689E
:101160009A430B461A600A1D126803689A430B1DC6
:101170001A60027911440A6803681A430A60184A1F
:101180000832126803689A43154B08331A601A1D17
:10119000126803689A43124B0C331A604279102A82
:1011A0000ED11A1F126803681A430D4B08331A60D8
:1011B0001A1D126803681A43094B0C331A600DE0BC
:1011C0000749427911440A6803681A430A6005E036
:1011D000027911440A6803689A430A607047000064
:1011E000003C01401FB50121052001F097FD0121C0
:1011F000880301F0F3FD01F040F901200290002086
:101200008DF80C008DF80F0002A9184800F014F9B1
:101210000021084602F050FA0120009000208DF8CD
:10122000040008208DF8050001208DF806006846AE
:10123000FFF78EFF4FF40050029002A90C4800F017
:10124000FBF80D21022002F037FA4FF40050009015
:1012500000208DF804000C208DF8050001208DF889
:1012600006006846FFF774FF1FBD00000000024043
:101270000008024010B5024600200023102A03D1C6
:101280004FF02044636E0FE0B2F5807F02D10A4C2C
:10129000236809E0B2F5805F03D1074C203423684E
:1012A00002E0054CD434236803EA01048C4201D0E7
:1012B000002000E0012010BD840000A00021D0E942
:1012C00000231A4383685B1E42EA4312C36842EA62
:1012D0004321014A11607047500100A070B50022FF
:1012E0000021002300240568AD00A5F1C045D5F814
:1012F00040216FF30E02D0E901563543C6683543ED
:10130000066935434669354386693543C6693543C1
:10131000066A3543466A35432A43056835B9056888
:10132000AD00A5F1C045C5F8402111E03B4D2B684B
:101330006FF30E03D0E907563543466A35432B4316
:10134000364D2B600568AD00A5F1C045C5F84021BC
:10135000056875BB314D0835066855F8261001F053
:101360007041856A2D686D1E866A7668761E45EA2C
:101370000616856AAD686D1E46EA0526856AED6823
:101380006D1E46EA0536856A2D8A6D1E46EA0546BB
:10139000856AAD8A6D1E46EA0556856A2D7E6D1EEC
:1013A00046EA056529431D4D0835066845F82610AF
:1013B00032E0FFE7194D0835066855F8261001F0B0
:1013C0007041856A2D686D1E866A7668761E45EACC
:1013D0000616856AAD686D1E46EA0526856A2D8A61
:1013E0006D1E46EA054529430C4D08352C6804F06E
:1013F0007044856AED686D1E2E03856AAD8A6D1E88
:1014000046EA05552C434FF02045C5F84841034DA9
:101410000835066845F8261070BD0000400100A0A0
:101420000449096841EA40014FF02042C2F85411D2
:1014300070470000540100A0F0B50A4600210023C7
:10144000002400BF3DE0012505FA01F3156805EA17
:1014500003049C4234D105684F000326BE40B543C7
:10146000056015794E00B54006683543056015796D
:10147000012D02D01579022D16D185684F00032663
:10148000BE40B543856055794E00B540866835430A
:101490008560456801268E40B5434560456896796C
:1014A0008E40B6B235434560C5684F000326BE4046
:1014B000B543C560D5794E00B540C6683543C560B3
:1014C000491C1029BFD3F0BDF0B5002300244D07FF
:1014D000ED0E02FA05F3CE1000F1200555F8265066
:1014E0004E07F70E0F26BE40B543CF1000F1200681
:1014F00046F82750CE1000F1200555F8265045EA51
:101500000304CE1000F1200545F82640F0BD4183CC
:1015100070470183704700002DE9F04180460C467A
:101520001248007820B901F0CBFF01200F49087064
:101530002512E6B2A5F1A101C1EB011202EB4111A6
:1015400006EB4101A13901EB4101C90001EB410169
:10155000C800C11700EB5171CF1007F5AA0148224E
:10156000404601F085FF0020BDE8F081080600201C
:1015700010B50246501E00EB80004401481E04EBEB
:101580004003024800EB5300007810BDA406002081
:1015900010B50246501E00EB80004401481E04EBCB
:1015A0004003024800EB5300007810BDA415002052
:1015B00002E002A002F08CFAFBE700000D0A2068AE
:1015C0006172646661756C742100000021B102884B
:1015D00042F48062028004E002884FF6FF331A4032
:1015E0000280704770B502460024002500230020C9
:1015F000958A138B1B0445EA030626F07F4404EA10
:1016000001068E4201D1012000E0002070BD21B111
:10161000028842F00102028004E002884FF6FE7365
:101620001A4002807047000010B5044613488442F7
:1016300009D10121480501F0C1FB00214FF4001040
:1016400001F0BCFB18E00E48844209D10121880555
:1016500001F0B4FB00214FF4800001F0AFFB0BE080
:101660000848844208D10121C80501F0A7FB0021E8
:101670004FF4000001F0A2FB10BD00000054004038
:1016800000580040005C004021B1028842F48072A2
:10169000028004E002884FF6FF631A400280704720
:1016A00021B1028842F40072028004E002884FF601
:1016B000FF531A40028070472DE9FF4704460D464C
:1016C0000026B1460427DFF8CC80A6884FF6C0700C
:1016D0000640684601F092FBDDF808802E48B8FB12
:1016E000F0F01FFA80F946EA0906A68020884FF636
:1016F000FE710840208000262849286888420CD8BE
:1017000028684000B8FBF0F087B2042F00DA042705
:101710003E4309F10100208427E0E8884BF6FF7181
:10172000884206D1286800EB4000B8FBF0F087B291
:1017300009E0286800EBC00101EB0010B8FBF0F0F5
:1017400087B247F48047C7F30B0008B947F0010799
:1017500047F4004006434FF4967009FB00F04FF445
:101760007A7190FBF1F0401C2084A683208840F021
:101770000100208026884FF6F5300640A888698948
:10178000084306432680A889298908432081BDE8AB
:10179000FF87000000127A0040420F00A08601007F
:1017A0000146088AC0B2704712B141F0010101E060
:1017B00001F0FE01018270470182704770B501247B
:1017C0000FE001250AE0A9B2A0B2FFF7D1FE06465C
:1017D000A9B2A0B2324602F0BBF86D1C502DF2D96E
:1017E000641C302CEDD901240FE001250AE0A9B2D8
:1017F000A0B2FFF7CDFE0646A9B2A0B2324602F073
:1018000097F86D1C502DF2D9641C302CEDD970BDA9
:1018100010B50120FFF78CF800200D4908704FF437
:101820007A700C49486200BF0A48406A18B10848FB
:1018300000780028F8D0FFF719F8FFF7BFFFFFF78F
:101840004FF802F01FF904490448FFF71DFA10BDD4
:101850003800002018060020003C00D0000000D016
:10186000F0B58BB004460025002600271D480088EF
:1018700000F47840C5121B48007800F01F07194893
:10188000008800F4FC604611FFF7D6F84FF44030B2
:1018900001900220029004960397059504F40040FD
:1018A00008B1FF2000E0002006900F480068079074
:1018B000002008904FF4F07009904FF448700A909F
:1018C00001A8FFF7D1F8FFF741F900BF0220FFF7A9
:1018D000BFF80028FAD00348008800F089FB0BB05D
:1018E000F0BD0000400000204400002030B5054657
:1018F000002409E020222146284600F06BF8094820
:1019000000688088204484B2B4F5487F09DA05482D
:1019100000688088204480B202490968898888422A
:10192000E8DA30BD3C0000202DE9F04F93B00746C7
:101930008846914600BF00264FF4487078434FEA2E
:10194000400B4644494601A8FFF7E6FD002535E077
:1019500005EB450001A90C5C240205EB4500401C89
:10196000085C0443240205EB4500801C085C04432A
:101970004FF0000A1BE004F4000048B11248008850
:1019800012490968022202FB061121F80B0008E047
:101990000F4800880D490968022202FB061121F850
:1019A0000B00761C64000AF1010000F0FF0ABAF196
:1019B000180FE0DB06F54276681CC5B2182DC7DBB0
:1019C00013B0BDE8F08F000040000020440000206C
:1019D0004200002070B505460E461446A4F12000D2
:1019E000C4B207480068016805480068C0886043C1
:1019F00001EB40023146284600F044F870BD00007B
:101A00003C0000202DE9F04107460C4600251DE072
:101A100020787E280BDC227829463846FFF7DAFF4B
:101A2000174800688088284485B2641C0EE0268828
:101A3000300200EB262086B2324629463846FFF7B0
:101A400073FF05F1180085B2A41C00BFB5F5487FEF
:101A500014DA0B4800688088284480B20849096875
:101A60008988884201DB012000E00020217809B14B
:101A7000012100E0002108400028C9D1BDE8F08123
:101A80003C0000202DE9F04104460D46134600BFFE
:101A9000002200BF00204FF4487767437E002844AF
:101AA00000214DE000223FE0294F3F68BF884FF002
:101AB0000C0C97FBFCF74FEAC70C802707FA0CF7D2
:101AC000174133F811C007EA0C0727B9204F3F68C8
:101AD000BF880C2F0DDD33F811704FF0010C0CFA9C
:101AE00002FC07EA0C078FB9194F3F68BF880C2F1B
:101AF0000CDD184F3F88DFF860C0DCF800C04FF005
:101B0000020808FB00CC2CF806700BE0134F3F884E
:101B1000DFF844C0DCF800C04FF0020808FB00CC3E
:101B20002CF80670401C521C094F3F68BF88974232
:101B3000BAD8074F3F68BF88C7F548773844491C73
:101B4000034F3F68FF888F42ACD8BDE8F0810000AA
:101B50003C00002042000020440000204000002003
:101B60001CB5012140F2FF1001F0D8F804200090CC
:101B700002208DF805008DF8040000208DF8060085
:101B80008DF807006946AF48FFF756FC0E22022188
:101B9000AC48FFF799FC082000906946A948FFF778
:101BA0004BFC0E220321A748FFF78EFC4FF48070F8
:101BB00000906946A348FFF73FFC0E220821A14888
:101BC000FFF782FC0120009069469F48FFF734FC34
:101BD000092200219C48FFF777FC4FF40060009039
:101BE00069469A48FFF728FC0E220B219748FFF719
:101BF0006BFC4FF48050009069469448FFF71CFC42
:101C00000E220C219148FFF75FFC022000906946EC
:101C10008D48FFF711FC092201218B48FFF754FC86
:101C20004020009069468A48FFF706FC0E220621F4
:101C30008748FFF749FC2020009069468548FFF758
:101C4000FBFB0E2205218348FFF73EFC402000905D
:101C500069468048FFF7F0FB0E2206217D48FFF71A
:101C600033FC4FF40050009069467648FFF7E4FBE0
:101C70000E220D217348FFF727FC4FF4806000907F
:101C800069467348FFF7D8FB09220A217048FFF71D
:101C90001BFC4FF40040009069466A48FFF7CCFBFC
:101CA0000E220F216748FFF70FFC012000906946C4
:101CB0006948FFF7C1FB0E2200216748FFF704FCCB
:101CC0008020009069466548FFF7B6FB0E22072189
:101CD0006248FFF7F9FB0420009069465E48FFF771
:101CE000ABFB0E2202215C48FFF7EEFB10200090B8
:101CF00069465848FFF7A0FB0E2204215548FFF71C
:101D0000E3FB4FF48050009069465148FFF794FB85
:101D10000E220C214E48FFF7D7FB40200090694669
:101D20004F48FFF789FB0E2206214D48FFF7CCFBF9
:101D30004FF40060009069464548FFF77DFB0E2296
:101D40000B214348FFF7C0FB102000906946424832
:101D5000FFF772FB0E2204213F48FFF7B5FB082076
:101D6000009069463948FFF767FB0E220321374888
:101D7000FFF7AAFB4FF48070009069463248FFF7E6
:101D80005BFB0E2208213048FFF79EFB4FF40070EA
:101D9000009069462C48FFF74FFB0E2209212A4884
:101DA000FFF792FB8020009069462948FFF744FB2B
:101DB0000E2207212648FFF787FB4FF48060009032
:101DC00069462548FFF738FB0E220A212248FFF713
:101DD0007BFB4FF40070009069461F48FFF72CFB17
:101DE0000E2209211C48FFF76FFB4FF48060009022
:101DF00069461C48FFF720FB0E220A211948FFF70D
:101E000063FB1020009002208DF8050001208DF862
:101E1000040000208DF8060001208DF807006946B7
:101E20000F48FFF709FB8020009069460C48FFF738
:101E300003FB10210A48FFF76CFB80210848FFF7DD
:101E400068FB1CBD001C0240000402400000024070
:101E5000001802400010024000200240000802402A
:101E6000000C024000140240014800687047000066
:101E70003C00002000B58FB00121880600F0AEFFC5
:101E80000121C80500F04AFFFFF76AFE002000901C
:101E90000190029003900C900D900E900422072167
:101EA0004FF4C07001F050F84FF4803001F03AF870
:101EB000012001F043F800BF3D2001F013F8002895
:101EC000FAD00020049005902E200690172007904D
:101ED00040F24E30089040F2F710099040F2623024
:101EE0000A9040F20D200B90684600F0C3F80FB046
:101EF00000BD000000B591B02F20019040F24E309F
:101F000002901820039040F2F710049002200590F0
:101F1000FF20069000200790089009900A904FF447
:101F200080600B9005200C9040F243600E90C01E24
:101F30000F904FF4F070109015480D9001A91548BE
:101F400000F069F90320059013480D904FF4C0602C
:101F50000B9007200C9001A90E48803000F05BF92F
:101F6000012000F0E3F901210A4800F049F90121BC
:101F70000848803000F044F9012000F0D7F9074804
:101F800000F018F8012000F063F811B000BD000067
:101F9000003C00D08468014000F40BD0E80500202C
:101FA000024A1080024A1180704700004000002061
:101FB0004200002001490860704700003C000020FA
:101FC00030B90749074A11600021074A116005E04E
:101FD0000649044A11600121034A1160704700005C
:101FE000003C00D0440000204800002000F40BD04A
:101FF00001490880704700004000002010B50446E9
:102000000848006820B92146074800F0F7F804E0C6
:1020100021460548803000F0F1F8012000F086F9F3
:1020200010BD0000480000208468014030B107491D
:10203000096841F00101054A116005E0034909689A
:1020400021F00101014A1160704700001868014049
:1020500030B10749096841F48031054A116005E053
:102060000349096821F48031014A1160704700007A
:1020700018680140F0B5002100220023002400254B
:1020800000265B4F3F68DFF86CC107EA0C07DFF8FA
:1020900060C1CCF80070078A390467463F68D0F801
:1020A00014C04CEA010C47EA0C07DFF844C1CCF835
:1020B00000700CF104073F68DFF838C107EA0C072D
:1020C000DFF82CC10CF1040CCCF80070078B3A043B
:1020D00067463F68D0F81CC04CEA020C47EA0C0780
:1020E000DFF80CC10CF1040CCCF800700CF1040703
:1020F0003F68DFF800C107EA0C07DFF8F4C00CF115
:10210000080CCCF80070078C3B0467463F68D0F899
:1021100024C04CEA030C47EA0C07DFF8D4C00CF1EA
:10212000080CCCF800700CF104073F68DFF8C4C05D
:1021300007EA0C07DFF8B8C00CF10C0CCCF8007003
:10214000078D3C046746D7F800C0C76A27434CEAAE
:10215000070C274F0C37C7F800C03F1D3F68DFF85A
:1021600098C007EA0C07DFF888C00CF1100CCCF817
:102170000070D0E9007C47EA0C07D0F808C047EAB5
:102180000C07D0F80CC047EA0C07DFF864C00CF16C
:10219000100CDCF800C047EA0C07DFF854C00CF163
:1021A000100CCCF80070476B3D02078E3E04104FB8
:1021B00024373F6807F07F47DFF834C00CF1240C68
:1021C000CCF8007046EA0507D0F838C047EA0C079B
:1021D000DFF81CC00CF1240CDCF800C047EA0C0747
:1021E000DFF80CC00CF1240CCCF80070F0BD00003E
:1021F0000868014000F800F08F88FE0F41617047C9
:1022000021B1026842F00102026003E0026822F09C
:102210000102026070472DE9F041002400250026EC
:10222000002200270023B1F804C04FEA0C44D0F884
:1022300004C00CF4704CC0F804C0D1F800C04CEAE3
:10224000040CC0F804C0B1F80CC04FEA0C45D0F83B
:1022500008C00CF4704CC0F808C0D1F808C04CEAB3
:10226000050CC0F808C0D0F810C02CF0070CC0F85E
:1022700010C0D1F810C0C0F810C0D1F81CC04FEA8F
:102280000C26B1F820C04FEA0C4291F824C04FEA66
:102290000C67D0F818C09C46C0F818C0D1F818C018
:1022A0004CEA060C4CEA020C4CEA070CC0F818C0C9
:1022B000D0F814C02CF0FF0CC0F814C0D1F814C032
:1022C000C0F814C0D0F81CC040F207782CEA080C03
:1022D000C0F81CC0D1E90AC84CEA080CC0F81CC000
:1022E000D0F828C09C46C0F828C0D1F830C0C0F84B
:1022F00028C0B1F838C04FEA0C43D0F82CC00CF01D
:10230000E02CC0F82CC0D1F834C04CEA030CC0F863
:102310002CC0D0F830C06FF30A0CC0F830C0D1F830
:102320003CC0C0F830C0BDE8F08100000149086041
:10233000704700002468014000BFFEE710B51FA0F1
:1023400001F0C6FBFFF790FDC08800EB400101EBF8
:10235000001084B222A12046FFF754FB00F032F9AE
:10236000214800F095FB20480078562808D100BF8E
:102370001D484378027838211CA001F0A9FB12E027
:102380004FF47C40FFF734FEFFF76EFD00241FA1E1
:102390002046FFF737FB00BF3F21274801F098FB9D
:1023A00000BF00BFFEE700F03BFA00F09DFA0120FD
:1023B000FEF7D6FA0120FEF7BBFA10BD0D0A535402
:1023C0004D3332463432392044434D4920C7FDB69F
:1023D000AF4F5635363430C0FDB3CC0D0A00000087
:1023E0004F56353634300000240000203C3C2D434D
:1023F000414D4552412D44454255472D3E3E205BBF
:1024000025645D25782025780D0A0A0020202020EB
:102410002020202020C3BBD3D0BCECB2E2B5BD4FFE
:102420005635363430A3ACC7EBD6D8D0C2BCECB2EC
:10243000E9C1ACBDD3A1A300B46E000810B5FFF78D
:1024400019FDFFF757FD0120FFF7F0FD0020FFF712
:10245000B7FDFF20FFF7D2FD4FF40040FFF700FA71
:102460000120FFF7ADFDFF20FFF7C8FD47F6FF7025
:10247000FFF7F6F910BD7047704708B54FF4C0601C
:1024800000F050F806208DF8000001208DF80100C2
:102490008DF802008DF80300684600F007F8282048
:1024A0008DF80000684600F001F808BD70B5002105
:1024B00000230F22C4781CB3174C246804F4E06492
:1024C000C4F5E064C4F30721C1F10404E3B20A4196
:1024D00044789C40E1B28478144021430C07210EDB
:1024E0000E4C05786155047804F01F050124AC40BA
:1024F00005786D11AD0005F1E025C5F8004109E052
:10250000047804F01F050124AC40054D06787611CF
:1025100045F8264070BD00000CED00E000E400E04E
:1025200080E100E002490143024A11607047000067
:102530000000FA050CED00E030B58FB004460D4602
:102540000121880500F0EAFB00211C48FEF71EFC73
:1025500000BF1A48FEF7D2FC0028FAD14FF00070F5
:102560000090174801900294002003900495059074
:102570004FF4806006908000079040000890401162
:1025800009904FF440300A9004200B9003200C90E7
:102590004FF080700D9000200E9069460748FEF7BE
:1025A00007FD01210548FEF7F1FB00BF0348FEF7D8
:1025B000A5FC0128FAD10FB030BD0000286402400C
:1025C0002800055000B587B088A001F081FA0121EC
:1025D00040F2C91000F0A2FB2020059002208DF8E7
:1025E000180003208DF8190000208DF81A00012032
:1025F0008DF81B0005A98248FEF71EFF0D2205215C
:102600007F48FEF761FF1020059005A97D48FEF781
:1026100013FF0D2204217B48FEF756FF4020059052
:1026200005A97848FEF708FF0D2206217548FEF738
:102630004BFF4FF40070059005A97348FEF7FCFEB0
:102640000D2209217048FEF73FFF4FF4806005908E
:1026500005A96D48FEF7F0FE0D220A216A48FEF733
:1026600033FF4FF40060059005A96748FEF7E4FECC
:102670000D220B216448FEF727FF4FF48050059090
:1026800005A96148FEF7D8FE0D220C215E48FEF731
:102690001BFF4FF48040059005A95B48FEF7CCFE78
:1026A0000D220E215848FEF70FFF0820059005A9BE
:1026B0005648FEF7C1FE0D2203215448FEF704FFE1
:1026C0004020059005A94E48FEF7B6FE0D220621D2
:1026D0004B48FEF7F9FE8020059005A94848FEF713
:1026E000ABFE0D2207214648FEF7EEFE01208DF8D5
:1026F000180000208DF819008DF81A0001208DF8BF
:102700001B000820059005A94148FEF795FE04200E
:10271000059005A93E48FEF78FFE04213C48FEF7D0
:10272000F6FE08213A48FEF7F4FE0A20FEF7BAFC4E
:1027300008213748FEF7EBFE0A20FEF7B3FC042120
:102740003348FEF7E6FE0121480500F027FB012192
:10275000022000F0E3FA042206212E48FEF7B4FE20
:10276000042207212B48FEF7AFFE402005900220EF
:102770008DF8180000208DF8190001208DF81A003E
:1027800000208DF81B0005A92248FEF755FE042203
:1027900006212048FEF798FE8020059005A91D48D7
:1027A000FEF74AFE1C48FEF73FFF0020ADF8080088
:1027B0004BF6FF70ADF80A00FE20ADF80C004FF4A8
:1027C0008060ADF80E000001ADF8100013480190D4
:1027D00001A91148FEF770FF01210F48FEF717FF0E
:1027E0003220FEF75FFC07B000BD00000D0AB3F514
:1027F000CABCBBAF4750494FBACD4949430D0A0047
:102800000020024000000240001C0240000C024078
:10281000001802400004024000540040801A0600E4
:1028200010B586B00121084600F098FA0220ADF8F4
:1028300008000020ADF80A002020ADF80C00802030
:10284000ADF80E000020ADF81000ADF81200ADF8A4
:10285000140002A8FEF7D0F81E4A12885400E217AE
:1028600004EB927291101C4A1288521E1B4B1B885B
:102870005A431B4B03EB4200FFF75EFE4FF4C06070
:10288000FFF750FE39208DF8040000208DF8050078
:1028900001208DF806008DF8070001A8FFF706FE5D
:1028A000012210210F48FEF765FB4E208DF8040031
:1028B00000208DF8050001208DF806008DF8070036
:1028C00001A8FFF7F3FD01210846FEF783F806B0E3
:1028D00010BD000052000020500000204E000020DB
:1028E000000000D02864024038B504215248FEF7A9
:1028F0000EFE0220FEF7D6FB04214F48FEF709FE2C
:102900001E20FEF7CFFB00F08BF91E20FEF7CAFB5E
:10291000002423E0494A02EB84029178474A32F8C6
:10292000240000F085F9454931F8240000F0C8F88A
:10293000434921F8140000BF084630F81400009005
:102940003E4800EB840043883C4830F8242040F2A5
:10295000B3313CA001F0BCF800BF641CD02CD9D32B
:102960004FF4FA70FEF79EFB0520434908700846B5
:10297000007806284FD2DFE800F0034E1221303FE6
:10298000002409E03D4A02EB840291783B4A32F888
:10299000240000F04DF9641C0B2CF3D34AE0002412
:1029A00009E0374A02EB84029178354A32F8240074
:1029B00000F03EF9641C0B2CF3D33BE0002409E04B
:1029C000304A02EB840291782E4A32F8240000F05B
:1029D0002FF9641C2A2CF3D32CE0002409E02A4AA6
:1029E00002EB84029178284A32F8240000F020F9A2
:1029F000641C2A2CF3D31DE0002409E0234A02EBD7
:102A000084029178214A32F8240000F011F9641C04
:102A10002A2CF3D30EE0002409E01A4A02EB8402C8
:102A20009178184A32F8240000F002F9641C2A2C2C
:102A3000F3D300BF00BF38BD00180240560000208D
:102A4000A42400203C3C2D43414D4552412D44459A
:102A50004255472D3E3E205B25645D73656E736F66
:102A6000725F7265675B307825785D3A25782D2531
:102A7000780D0A0A000000004C0000209603002098
:102A8000C2030020EE030020960400203E05002033
:102A900010B5044606A001F01BF843F20A0000F04E
:102AA0000FF8207043F20B0000F00AF8607010BDC0
:102AB0000D0AB6C1C9E3CFF1CDB749440D0A0000F4
:102AC00070B5054642F21074002601215148FEF708
:102AD000DBFD00BF05E0201EA4F1010401D1FF20B1
:102AE00070BD4D494B48FEF77DFD0028F3D0002214
:102AF00078214848FEF758FE42F2107405E0201E87
:102B0000A4F1010401D1FF20EAE744494148FEF75E
:102B100069FD0028F3D0290A3E48FEF74DFE42F237
:102B2000107405E0201EA4F1010401D1FF20D7E7B5
:102B30003A49891C3748FEF755FD0028F2D0354840
:102B40001430008840F48060324914310880E9B2C2
:102B50003048FEF731FE42F2107405E0201EA4F169
:102B6000010401D1FF20BBE72C49891C2948FEF74D
:102B700039FD0028F2D027481430008840F48060E6
:102B800024491431088001212248FEF77DFD42F2DC
:102B9000107405E0201EA4F1010401D1FF209FE77D
:102BA0001D491C48FEF71EFD0028F3D001227821A4
:102BB0001848FEF7F9FD42F2107405E0201EA4F15A
:102BC000010401D1FF208BE71349491C1148FEF78E
:102BD00009FD0028F2D000210E48FEF7F7FC42F272
:102BE000107405E0201EA4F1010401D1FF2077E755
:102BF00009493F310748FEF7F5FC0028F2D00121D2
:102C00000448FEF74DFD0348FEF7CAFD0646304670
:102C100066E7000000540040010003008200070046
:102C200010B5802143F2080000F002F810BD00004A
:102C300070B505460E4642F2107401213348FEF786
:102C400023FD00BF05E0201EA4F1010401D1FF20F7
:102C500070BD2F492D48FEF7C5FC0028F3D0002297
:102C600078212A48FEF7A0FD42F2107405E0201EEC
:102C7000A4F1010401D1FF20EAE726492348FEF729
:102C8000B1FC0028F3D0290A2048FEF795FD42F256
:102C9000107405E0201EA4F1010401D1FF20D7E744
:102CA0001C49891C1948FEF79DFC0028F2D0E9B2A6
:102CB0001648FEF781FD42F2107405E0201EA4F1D3
:102CC000010401D1FF20C3E71249891C0F48FEF718
:102CD00089FC0028F2D031460C48FEF76DFD42F227
:102CE000107405E0201EA4F1010401D1FF20AFE71C
:102CF0000849891C0548FEF775FC0028F2D001211F
:102D00000248FEF7CDFC0020A2E70000005400407E
:102D100001000300820007007047000029B1064A45
:102D200012680243044B1A6004E0034A12688243AB
:102D3000014B1A60704700003038024029B1064A42
:102D400012680243044B1A6004E0034A126882438B
:102D5000014B1A60704700001038024029B1064A42
:102D600012680243044B1A6004E0034A126882436B
:102D7000014B1A60704700003438024029B1064AFE
:102D800012680243044B1A6004E0034A126882434B
:102D9000014B1A60704700003838024029B1064ADA
:102DA00012680243044B1A6004E0034A126882432B
:102DB000014B1A60704700004038024029B1064AB2
:102DC00012680243044B1A6004E0034A126882430B
:102DD000014B1A60704700002038024029B1064AB2
:102DE00012680243044B1A6004E0034A12688243EB
:102DF000014B1A607047000044380240F0B50021D2
:102E000000220024022500260223324F3F6807F0EB
:102E10000C0121B1042905D0082937D105E02E4F36
:102E2000076036E02D4F076033E02A4F3F1F3F68B1
:102E3000C7F38056274F3F1F3F6807F03F036EB12F
:102E4000264FB7FBF3F7DFF88CC0ACF1040CDCF8CD
:102E500000C0CCF3881C07FB0CF40CE01E4FB7FB42
:102E6000F3F7DFF870C0ACF1040CDCF800C0CCF371
:102E7000881C07FB0CF4174F3F1F3F68C7F301473F
:102E80007F1C7D00B4FBF5F7076002E0124F07607E
:102E900000BF00BF0F4F3F6807F0F0010909104F56
:102EA0007A5C0768D74047600A4F3F6807F4E051F3
:102EB000890A0B4F7A5C4768D7408760054F3F68A7
:102EC00007F46041490B064F7A5C4768D740C760FA
:102ED000F0BD0000083802400024F40040787D0175
:102EE0001400002010B501460022002300204A11E2
:102EF000012A02D10A4C236808E0022A03D1084CB7
:102F00007034236802E0064C7434236801F01F0219
:102F1000012494401C400CB1012000E0002010BDB1
:102F20000038024001460020034A106820F4403077
:102F300008431060704700008C3802400149086760
:102F4000704700000000474210B5830143EA016367
:102F500043EA0273014C236010BD00008838024030
:102F60001CB50121FC20FFF7D9FE02208DF80400DA
:102F70008DF8050000208DF806008DF8070001206F
:102F800000906946D948FEF757FA0C220021D7482D
:102F9000FEF79AFA022000906946D448FEF74CFAF0
:102FA0000C220121D148FEF78FFA042000906946D7
:102FB000CE48FEF741FA0C220221CC48FEF784FAF3
:102FC000082000906946C948FEF736FA0C22032112
:102FD000C648FEF779FA102000906946C348FEF70C
:102FE0002BFA0C220421C148FEF76EFA2020009033
:102FF0006946BE48FEF720FA0C220521BB48FEF7C1
:1030000063FA4FF4805000906946B848FEF714FA0E
:103010000C221146B548FEF757FA4FF400500090C5
:103020006946B248FEF708FA0C220D21AF48FEF7B8
:103030004BFA4FF4804000906946AC48FEF7FCF92B
:103040000C220E21A948FEF73FFA4FF400400090F1
:103050006946A648FEF7F0F90C220F21A348FEF7B7
:1030600033FA012000906946A148FEF7E5F90C22E9
:1030700000219F48FEF728FA0220009069469C48EC
:10308000FEF7DAF90C2201219948FEF71DFA4FF4F8
:103090008040009069469748FEF7CEF90C220E2139
:1030A0009448FEF711FA4FF40040009069469148A9
:1030B000FEF7C2F90C220F218E48FEF705FA012017
:1030C000009069468B48FEF7B7F90C220021894829
:1030D000FEF7FAF90220009069468648FEF7ACF93F
:1030E0000C2201218348FEF7EFF980200090694609
:1030F0008148FEF7A1F90C2207217F48FEF7E4F989
:103100004FF48070009069467B48FEF795F90C22D9
:1031100008217948FEF7D8F94FF40070009069460D
:103120007548FEF789F90C2209217348FEF7CCF99E
:103130004FF48060009069466F48FEF77DF90C22DD
:103140000A216D48FEF7C0F94FF40060009069460F
:103150006948FEF771F90C220B216748FEF7B4F9B4
:103160004FF48050009069466348FEF765F90C22E1
:1031700011466148FEF7A8F94FF4005000906946E7
:103180005D48FEF759F90C220D215B48FEF79CF9CA
:103190004FF48040009069465748FEF74DF90C22E5
:1031A0000E215548FEF790F94FF400400090694613
:1031B0005148FEF741F90C220F214F48FEF784F9E0
:1031C0004FF48070009069464A48FEF735F90C22AA
:1031D00008214848FEF778F94FF4007000906946DE
:1031E0004448FEF729F90C2209214248FEF76CF900
:1031F0004FF48060009069463E48FEF71DF90C22AE
:103200000A213C48FEF760F94020009069463B489F
:10321000FEF712F90C2206213848FEF755F9102066
:10322000009069463248FEF707F90C220421304825
:10323000FEF74AF92020009069462D48FEF7FCF879
:103240000C2205212A48FEF73FF90120009069462B
:103250002B48FEF7F1F80C2200212948FEF734F93B
:103260004FF40060009069462048FEF7E5F80C2214
:103270000B211E48FEF728F94FF4004000906946E4
:103280001B48FEF7D9F80C220F211948FEF71CF94C
:103290004FF48070009069461548FEF7CDF80C2277
:1032A00008211348FEF710F9802000906946134862
:1032B000FEF7C2F80C2207211048FEF705F902209C
:1032C000009069460C48FEF7B7F80C2201210A4825
:1032D000FEF7FAF80120009069460748FEF7ACF8BF
:1032E0000C2200210448FEF7EFF81CBD0014024038
:1032F00000180240000C024000100240001C024076
:103300000008024000B593B0FFF72AFE01210846ED
:10331000FFF734FD02200190072002900420039063
:103320000720049002200590069007900120089045
:103330000020099004200A9010200B9040200C904F
:103340004FF4C0700D9000200E904FF400600F906D
:10335000002010904FF40050119001A8129008A87E
:10336000FDF7BCFF00F002F813B000BD1FB500244C
:10337000012000900820019001200290002003907D
:1033800000BF20210120FDF775FF0028F9D1684614
:10339000FDF794FF0A2000F04DF80220009008206D
:1033A0000190012002900020039000BF2021012005
:1033B000FDF760FF0028F9D16846FDF77FFF032085
:1033C000009008200190042002900020039000BF8C
:1033D00020210120FDF74EFF0028F9D16846FDF7B6
:1033E0006DFF00BF20210120FDF744FF0028F9D127
:1033F0006846FDF763FF40F2312404200090082066
:10340000019001200290039400BF20210120FDF7CC
:1034100031FF0028F9D16846FDF750FF40F26A50AD
:10342000FDF7FEFF00BF20210120FDF723FF00284C
:10343000F9D11FBD01B581B0002000900549019868
:103440004843009002E00098401E00900098002839
:10345000F9D10CBDA086010021B1028842F04002E2
:10346000028004E002884FF6BF731A400280704762
:1034700070B505460C4616464020104908800320CA
:1034800000F090F8C4F3074000F08CF8C4F3072074
:1034900000F088F8E0B200F085F804E0FF2000F0CA
:1034A00081F828706D1C301EA6F101018EB2F5D195
:1034B00040200249891E088070BD00001A14024095
:1034C00000B587B001212020FFF728FC0121080565
:1034D000FFF784FC052207213048FDF7F5FF0522A0
:1034E00008212E48FDF7F0FF052209212B48FDF7A2
:1034F000EBFF8020009002208DF805008DF804007D
:1035000000208DF8060003208DF8050000208DF8BE
:10351000070069462148FDF78FFF4FF48070009047
:1035200069461E48FDF788FF4FF400700090694619
:103530001A48FDF781FF4020009001208DF804001B
:1035400069461648FDF778FF402014491831088075
:103550000020ADF808004FF48270ADF80A0000209A
:10356000ADF80C000220ADF80E000120ADF81000FF
:103570004002ADF812000820ADF814000020ADF8AC
:1035800016000720ADF8180002A9054800F054F80D
:1035900001210348FFF760FF07B000BD001402409F
:1035A0000050014010B504464FF48050194908609E
:1035B0000AE018490868411E164A116020B9002027
:1035C00000F058F8C0B210BD0221134800F026F8F0
:1035D0000028EED02146104800F02CF84FF480501F
:1035E0000C4908600AE00B490868411E094A11604D
:1035F00020B9012000F03EF8C0B2E4E701210648FE
:1036000000F00CF80028EED0034800F010F8C0B22B
:10361000D9E700000C0600200050014002460020BF
:1036200013890B400BB1012000E0002070470146D8
:10363000888970478181704710B50022028802F4A2
:1036400041520B884C8823438C882343CC882343E6
:103650000C8923434C8923438C892343CC892343FE
:103660001A430280838B4FF2FF74234083830B8ABB
:10367000038210BD10B50446214602A000F028FACE
:10368000002010BD3C3C2D464C4153482D45525224
:103690004F522D3E3E2053504920B5C8B4FDB3AC27
:1036A000CAB1216572726F72436F6465203D202537
:1036B000640A00007047000030B500228B071C0F21
:1036C0000F2303FA04F20B4B8C1053F8243093436E
:1036D000084C8D1044F8253023468C1053F82430C4
:1036E0008C07240F00FA04F42343024C8D1044F895
:1036F000253030BD083801400CB500200190009005
:103700004148006840F480303F49086000BF3E48AF
:10371000006800F4003000900198401C019000986F
:1037200018B90198B0F5A04FF1D13748006800F4FE
:10373000003010B10120009001E0002000900098BE
:10374000012860D130484030006840F080502E4958
:10375000403108602D48006840F440402B49086023
:103760002948083000682849083108600846006880
:1037700040F4004008600846006840F4A05008602B
:103780002348091F0860081F006840F08070091F67
:10379000086000BF1C48006800F000700028F9D0E5
:1037A0001A48006840F480301849086000BF174884
:1037B000406800F480300028F9D01448006840F4D4
:1037C00000301249086000BF1048406800F4003023
:1037D0000028F9D040F205700E4908600A48083008
:1037E000006820F0030008490831086008460068B6
:1037F00040F00200086000BF03480830006800F095
:103800000C000828F8D10CBD0038024000700040C0
:10381000195A4007003C024010B500F07DF8002422
:103820000CE0084850F8240030B1064850F8240055
:10383000401E044941F82400601CC4B20A2CF0DB8D
:1038400010BD00001806002030B5164800684FF47F
:103850007A72B0FBF2F1481EB0F1807F01D30120F3
:103860001BE0481E4FF0E022506150170F22002845
:1038700007DA13071D0E0C4B00F00F04241F1D5513
:1038800003E013071C0E094B1C5400BF00204FF02F
:10389000E022906107201061002008B100BFFEE720
:1038A00030BD00000000002018ED00E000E400E062
:1038B00010B51548006840F47000134908601348BB
:1038C000006840F001001149086000200F490831EC
:1038D00008600E4800680E4908400C4908600D4811
:1038E000091D0860081F006820F48020091F086077
:1038F000002006490C310860FFF7FEFE4FF0006023
:1039000001498039086010BD88ED00E000380240B0
:10391000FFFFF6FE103000240448006820B1034881
:103920000068401E01490860704700001006002032
:1039300030B5441E04EB840465014C1E05EB4403C2
:10394000024C04EB5304227030BD0000A40600209A
:1039500030B5441E04EB840465014C1E05EB4403A2
:10396000024C04EB5304227030BD0000A41500206B
:1039700021B1828942F40052828104E082894DF6AD
:10398000FF731A408281704702460020B1F5007F24
:1039900000D100BF13880B400BB1012000E00020D4
:1039A000704700002DE9FF4705460E460024A1465A
:1039B00000BFA046B08900B100BF2C8A24F4405457
:1039C000F08804432C82AC8941F20C608443B088B7
:1039D00031890843718908430443AC81AC8A24F4DB
:1039E0004074B0890443AC826846FFF707FA204868
:1039F000854202D01F48854202D1DDF80C9001E0DB
:103A0000DDF80890A88900F4004040B109EBC90036
:103A100000EB091031684900B0FBF1F707E009EB52
:103A2000C90000EB091031688900B0FBF1F7642090
:103A3000B7FBF0F004012009642101FB1078A8898C
:103A400000F4004040B1322000EBC800B0FBF1F0C0
:103A500000F00700044308E0322000EB0810642166
:103A6000B0FBF1F000F00F0004432C81BDE8FF87AC
:103A70000010014000140140C1F308028280704729
:103A800000BFFEE770B500240EE0002606E00948FE
:103A9000055D294608A000F01BF8761C502EF6D3D1
:103AA00007A000F015F8641C302CEED305A000F040
:103AB0000FF870BDA40600202530336420000000FC
:103AC0000D0A00000D0A0D0A0D0A0D0A0000000083
:103AD0000FB4054B10B503A9044A029800F0EEF8A4
:103AE00010BC5DF814FB0000F5430008140600202C
:103AF0000FB4084B10B504A902AA039800F0DEF831
:103B0000044602A9002000F070FC204610BC5DF8BD
:103B100014FB0000EB43000802E008C8121F08C1B4
:103B2000002AFAD170477047002001E001C1121F3E
:103B3000002AFBD1704700002DE9FF5F82B0002111
:103B4000DDE90430020DDDF840B0034318D044F63F
:103B50001050A2F2FF3242431514119801281FD0D1
:103B6000A5EB0B00401C5FEA000A4FF000064E4F29
:103B7000DFF83891B046504615D5CAF1000413E07D
:103B8000119801244AA3012801D16FEA0B01029880
:103B9000119AC0E90031C0E9024206B0BDE8F09FC9
:103BA000CBF10000DFE704460021404A491842EB10
:103BB0000450CDE9001012E0E00707D032463B4642
:103BC00040464946FCF7B9FB8046894632463B46AB
:103BD00010461946FCF7B1FB06460F466410002C50
:103BE000EAD1DDE90401DDE90023BAF1000F06DACC
:103BF000FCF7A3FB42464B46FCF79FFB05E0FCF7B6
:103C00000EFC42464B46FCF70AFC04460E460022D8
:103C1000284BFCF793FC03D84FF0FF30014607E038
:103C20000022254B20463146FCF7E0FAFCF7B6FDB2
:103C3000102409E0002C0ADB0A220023FCF7C8FC50
:103C4000039B30321A55641E50EA0102F2D1641C03
:103C5000039AC4F111031444119A012A03D00122DA
:103C600008430DD10AE0084304D000204FF0110BA7
:103C7000119072E7A3EB0B056D1E0DE05B4504DDB3
:103C80004FF0000205F1010504E003DA4FF00002F5
:103C9000A5F10105002AECD002981199C0E9023182
:103CA000C0E9004579E70000000014400000F03F43
:103CB000300000000000F0430000E03F2DE9FF4F1E
:103CC00095B09B468946064600250FE2252877D108
:103CD00000242746F84A0121059400E0044316F821
:103CE000013F203B01FA03F01042F7D130782A2837
:103CF00011D06FF02F033078A0F13002092A16D8C6
:103D0000059A44F0020402EB820203EB42021044E3
:103D1000761C0590EFE759F8042B0592002A03DA88
:103D2000504244F40054059044F00204761C30786C
:103D30002E2816D116F8010F44F004042A280DD0BD
:103D40006FF02F023078A0F13003092B09D807EB70
:103D5000870302EB4303C718761CF3E759F8047B8B
:103D6000761C30786C280FD006DC4C2817D06828D9
:103D70000DD06A2814D104E0742810D07A280FD10D
:103D80000DE044F400140AE044F4801401E044F42B
:103D900040147278824202D104F58014761C761C9D
:103DA000307866280BD013DC582877D009DC00283F
:103DB00075D04528F6D04628F4D047281AD19DE181
:103DC00018E0632835D0642879D0652812D195E1B0
:103DD000702873D008DC6728F1D069286FD06E286E
:103DE0000DD06F2806D1B5E073282CD0752875D07A
:103DF000782874D05A46179990476D1C75E1C4F322
:103E00000250022809D003280DD0D9F80010042848
:103E10000DD00D6009F1040967E1D9F80010EA1727
:103E2000C1E90052F6E7D9F800100D80F2E70D70F5
:103E3000F0E719F8041B8DF8001000208DF8010040
:103E4000EA46012003E059F804AB4FF0FF30610768
:103E50004FF0000102D40DE008F101018846B9429B
:103E60000FDA8045F8DB1AF808100029F4D108E0D1
:103E700008F1010188468142FADB1AF8081000298E
:103E8000F6D105985B46A0EB080721463846179AFD
:103E900000F094FA284400EB080507E04DE029E122
:103EA0000DE01AF8010B5A4617999047B8F101082E
:103EB000F7D25B4621463846179A13E142E00A22C0
:103EC0000092C4F302524FF0000A022A08D059F8B7
:103ED00004CB032A4FEAEC710AD00DE029E02AE076
:103EE00009F1070121F00702F2E802C1914609E059
:103EF0000FFA8CFC4FEAEC71042A03D14FFA8CFCC8
:103F00004FEAEC71002907DA0A460021DCF1000CC7
:103F100061EB02012D2202E0220504D52B228DF84F
:103F20000420012203E0E20701D02022F7E79046B7
:103F300059E00A2102E010220DE010214FF0000AA2
:103F400000910BE010224FF0000A44F0040408270F
:103F5000009203E008224FF0000A0092C4F30252DC
:103F6000022A05D059F804CB0021032A08D009E021
:103F700009F1070121F00702F2E802C1914605E0CC
:103F80001FFA8CFC042A01D10CF0FF0C4FF0000842
:103F9000220728D5702806D0009B83F0100353EA2F
:103FA0000A0305D00EE040228DF80420012208E02B
:103FB0005CEA010206D030228DF804208DF805005D
:103FC00002229046009B83F0080353EA0A030AD1B9
:103FD0005CEA010201D1620705D530228DF8042088
:103FE0004FF001087F1E582804D034A003900EA87B
:103FF00002900DE036A0F9E753466046009AFCF7C0
:10400000E7FA84460398825C0298401E0290027090
:104010005CEA0100F0D1029806A9081A00F1200A12
:10402000600702D524F4803400E00127574502DD03
:10403000A7EB0A0000E0002000EB0A0100900598C1
:104040004144401A0590E00306D45B462146179A86
:10405000059800F0B3F90544002706E001A85A4688
:10406000C05D179990476D1C7F1C4745F6DBE00348
:104070000CD55B462146179A059800F09FF9054438
:1040800004E030205A46179990476D1C0099481E4D
:1040900000900029F5DC08E0029802995A46007861
:1040A000491C0291179990476D1CBAF10001AAF1C1
:1040B000010AF1DC65E100000928010030313233EA
:1040C0003435363738396162636465660000000054
:1040D000303132333435363738394142434445463E
:1040E0000000000000F058F90544761C30780028E4
:1040F0007FF4ECAD19B02846BDE8F08F620700D41C
:10410000062709F1070222F0070CFCE80223E1462A
:1041100003F000485FEA080C02D00FF2702C0DE0AB
:104120005FEA045C02D50FF2682C07E05FEAC47C0A
:1041300002D00FF2602C01E0AFF2700C4FF0FF38AC
:1041400023F00043CDF850C065280CD006DC45288C
:1041500009D046281DD047283DD13DE0662818D01B
:1041600067287ED138E00021112F01DB112000E00B
:10417000781CCDE9000106A90EA8FFF7DDFCDDE9FA
:104180000F010E9A03910021009207F1010A049198
:104190004DE04FF000400097CDE9011006A90EA8B0
:1041A000FFF7CAFCDDE90F0203920E9B1199002272
:1041B000DDF80CA00093049211B9791C00EB010A00
:1041C000B7EB0A0004D4C0F1FF3007F1010A0490F4
:1041D000AAEB0700019044E0012F00DA012700213B
:1041E000112F01DD112000E03846CDE9000106A9BC
:1041F0000EA8FFF7A1FCDDE90F010E9A0391002143
:1042000004910092BA4621070CD40399514500DA73
:104210008A46BAF1010F05DD009AAAF10101515C4D
:10422000302908D0B84202DA10F1040F06DA012171
:10423000CDE9011015E0AAF10101E9E7002805DC4C
:10424000049901440491AAEB000102E0411C51458C
:1042500000DD8A460499401A401C01904FF000404E
:104260000290200704D40198504501DBCDF804806A
:1042700000208DF84F0002980DF14F07B0F1004F6C
:1042800025D02B200E9002984FF0020800280CDA5F
:10429000404202902D200E9007E00A210298FCF780
:1042A00081F93031029007F8011DB8F10001A8F141
:1042B0000108F2DC02980028EFD1791E0E980870F0
:1042C000307800F0200040F0450007F8020D12A8F9
:1042D000C01B00F107081498007800B1012000EB22
:1042E0000A01019801EBE07105984144401A401E13
:1042F0000590E00306D45B462146179A059800F026
:104300005DF805441498007818B15A4617999047FB
:104310006D1CE00324D55B462146179A059800F0F2
:104320004DF805441CE00498002807DBDDE9030193
:10433000884203DD0098405C179901E0179930200E
:104340005A469047049805F10105401C04900198D5
:10435000401E019004D12E205A46179990476D1C9B
:10436000BAF10001AAF1010ADDDC05E017F8010B42
:104370005A46179990476D1CB8F10001A8F1010841
:10438000F4DC5B462146179A0598ABE62D00000049
:104390002B000000200000002DE9F041044600251C
:1043A0001E461746880404D405E039462020B0474D
:1043B0006D1C641EF9D52846BDE8F0812DE9F04159
:1043C000044600251E469046C80301D5302700E06C
:1043D0002027880404D505E041463846B0476D1CC7
:1043E000641EF9D52846BDE8F0810A68531C0B60AD
:1043F0001070704770B504460D46E1B20548FFF7EE
:104400003BFB00BF80210348FFF7BEFA0028F9D02C
:10441000204670BD001001402DED068BFCF7F6FD27
:10442000FEF729F8FFF710FAFCF7DCFEFEF706F8B6
:10443000FDF784FFFCF7CCFB42E02248006808B996
:10444000FDF7E6F920480068D0BB47F6FF714FF44E
:104450007C40FDF7A5FDFDF707FDC08800EB0010CF
:1044600084B22046FDF742FA18480078FCF746F877
:1044700041EC1A0B9FED160B53EC102BFBF7CFFF03
:1044800041EC190BFCF772F80446FCF744F841ECD8
:10449000180B53EC182B10A11148FFF729FBFDF75F
:1044A000E3FCC08800EB001084B20D492046FDF704
:1044B000A9FA00200549087041F2883002490860D5
:1044C000BBE7000030000020180600202600002076
:1044D000000000000000144020252E31662F7300DC
:1044E0004006002000000000000000000000000066
:1044F00000000000000000000000000000000000BC
:1045000000000000000000000000000000000000AB
:104510000000000000008001800180018001800116
:104520008001800180018001800180018001800183
:104530000000000080018001000000000000000079
:104540000000000000000000CC00CC00CC00CC003B
:10455000CC00CC00000000000000000000000000C3
:10456000000000000000000000000000000000004B
:10457000000000000000000000000000000000003B
:10458000600C600C600C30063006FE1FFE1F30060B
:1045900038071803FE1FFE1F180318038C018C0137
:1045A0008C01000000008000E003F80F9C0E8C1CC2
:1045B0008C188C009800F801E007800E801C8C1885
:1045C0008C189C18B80CF00FE003800080000000ED
:1045D000000000000000000000000E181B0C110C71
:1045E00011061106110311039B018E01C038C06C26
:1045F00060446044304430441844186C0C38000067
:10460000000000000000E001F0033807180618065B
:104610003003F001F000F8009C310E33061E061C3A
:10462000061C063FFC73F0210000000000000000A3
:1046300000000000000000000C000C000C000C004A
:104640000C000C0000000000000000000000000052
:10465000000000000000000000000000000000005A
:10466000000000000000000200038001C000C00044
:10467000600060003000300030003000300030005A
:104680003000300060006000C000C0008001000306
:1046900000020000000020006000C00080018001D6
:1046A00000030003000600060006000600060006E0
:1046B000000600060003000380018001C0006000C6
:1046C00020000000000000000000000000000000CA
:1046D000C000C000D806F807E0013003380700002A
:1046E00000000000000000000000000000000000CA
:1046F00000000000000000000000000000000000BA
:1047000080018001800180018001FC3FFC3F80012D
:104710008001800180018001000000000000000095
:104720000000000000000000000000000000000089
:104730000000000000000000000000000000000079
:1047400000000000000080018001000100018000E5
:104750000000000000000000000000000000000059
:10476000000000000000000000000000E007E0077B
:104770000000000000000000000000000000000039
:104780000000000000000000000000000000000029
:104790000000000000000000000000000000000019
:1047A000000000000000C000C00000000000000089
:1047B000000000000000000C000C000600060006CF
:1047C0000003000300038003800180018001C0001A
:1047D000C000C00060006000000000000000000099
:1047E000000000000000E003F007380E180C0C1861
:1047F0000C180C180C180C180C180C180C180C1899
:10480000180C380EF007E003000000000000000064
:1048100000000000000000018001C001F0019801CB
:104820008801800180018001800180018001800178
:104830008001800180018001000000000000000074
:10484000000000000000E003F80F180C0C180C1812
:1048500000180018000C000600038001C000600072
:1048600030001800FC1FFC1F0000000000000000CA
:10487000000000000000E001F807180E0C0C0C0C02
:10488000000C0006C003C007000C001800180C182C
:104890000C18180CF807E0030000000000000000EE
:1048A000000000000000000C000E000F000F800D43
:1048B000C00C600C600C300C180C0C0CFC3FFC3F66
:1048C000000C000C000C000C0000000000000000B8
:1048D000000000000000F80FF80F180018000C008E
:1048E000EC03FC071C0E001C0018001800180C1824
:1048F0001C0C180EF807E003000000000000000088
:10490000000000000000C007F00F381C1818180045
:104910000C00CC03EC0F3C0E1C1C0C180C180C18D3
:10492000181C380EF007E003000000000000000033
:10493000000000000000FC1FFC1F000C0006000629
:10494000000380038001C001C000E000600060003F
:104950007000300030003000000000000000000057
:10496000000000000000E003F007380E180C180CDF
:10497000180C3806F007F007180C0C180C180C1857
:104980000C18380CF80FE0030000000000000000D5
:10499000000000000000E003F007380E1C0C0C18AB
:1049A0000C180C181C1C381EF81BE0190018000C01
:1049B000000C1C0EF807F0010000000000000000D1
:1049C00000000000000000000000000000000000E7
:1049D00080018001000000000000000000000000D5
:1049E00000000000800180010000000000000000C5
:1049F00000000000000000000000000000000000B7
:104A000080018001000000000000000000000000A4
:104A10000000000080018001000100018000000012
:104A20000000000000000000000000000000000086
:104A3000000000000010001C800FE003F8001800C8
:104A4000F800E003800F001C0010000000000000D0
:104A50000000000000000000000000000000000056
:104A600000000000F81F000000000000F81F000018
:104A70000000000000000000000000000000000036
:104A80000000000000000000000000000000000026
:104A90000000000008003800F001C007001F0018E7
:104AA000001FC007F00138000800000000000000EF
:104AB000000000000000E003F80F180C0C180C18A0
:104AC0000018000C000600038001C000C000C000F8
:104AD00000000000C000C000000000000000000056
:104AE0000000000000000000E00718180420C229A0
:104AF000224A114409440944094409221113E20CD1
:104B0000024004201818E007000000000000000028
:104B100000000000000080038003C006C006C0063D
:104B2000600C600C301830183018F83FF83F1C70DB
:104B30000C600C6006C006C0000000000000000011
:104B4000000000000000FC03FC0F0C0C0C180C18FB
:104B50000C180C0CFC07FC0F0C180C300C300C3033
:104B60000C300C18FC1FFC070000000000000000C7
:104B7000000000000000C007F01F38381C300C7027
:104B80000660060006000600060006000600066035
:104B90000C701C30F01FE007000000000000000057
:104BA000000000000000FE03FE0F060E06180618A7
:104BB000063006300630063006300630063006185D
:104BC0000618060EFE0FFE030000000000000000A5
:104BD000000000000000FC3FFC3F0C000C000C003B
:104BE0000C000C00FC1FFC1F0C000C000C000C0047
:104BF0000C000C00FC3FFC3F000000000000000027
:104C0000000000000000F83FF83F180018001800EE
:104C100018001800F81FF81F1800180018001800D6
:104C20001800180018001800000000000000000024
:104C3000000000000000E00FF83F3C780E6006E046
:104C400007C00300030003FE03FE03C007C006C045
:104C50000EC03CF0F83FE00F000000000000000034
:104C60000000000000000C300C300C300C300C3018
:104C70000C300C30FC3FFC3F0C300C300C300C3056
:104C80000C300C300C300C30000000000000000034
:104C9000000000000000800180018001800180018F
:104CA00080018001800180018001800180018001FC
:104CB00080018001800180010000000000000000F0
:104CC00000000000000000060006000600060006C6
:104CD000000600060006000600060006000618068C
:104CE00018063807F003E001000000000000000093
:104CF00000000000000006300618060C0606060339
:104D00008601C60066007600DE008E0106030606F8
:104D1000060C0618063006600000000000000000C7
:104D2000000000000000180018001800180018000B
:104D300018001800180018001800180018001800B3
:104D400018001800F81FF81F000000000000000005
:104D50000000000000000EE01EF01EF01EF036D82D
:104D600036D836D836D866CC66CC66CCC6C6C6C66B
:104D7000C6C6C6C686C386C3000000000000000089
:104D80000000000000000C301C303C303C306C3027
:104D90006C30CC30CC308C310C330C330C360C36C0
:104DA0000C3C0C3C0C380C300000000000000000F3
:104DB000000000000000E007F81F1C380E700660BD
:104DC00003C003C003C003C003C003C003C0066028
:104DD0000E701C38F81FE007000000000000000003
:104DE000000000000000FC0FFC1F0C380C300C30E1
:104DF0000C300C300C18FC1FFC070C000C000C00D5
:104E00000C000C000C000C00000000000000000072
:104E1000000000000000E007F81F1C380E7006605C
:104E200003E003C003C003C003C003C007E0066380
:104E30000E3F1C3CF83FE0F700C0000000000000FF
:104E4000000000000000FE0FFE1F0638063006308E
:104E500006300638FE1FFE0706030606060C061877
:104E60000618063006300660000000000000000052
:104E7000000000000000E003F80F1C0C0C180C18D8
:104E80000C001C00F803E00F001E0038063006304E
:104E90000E301C1CF80FE0070000000000000000AE
:104EA000000000000000FE7FFE7F80018001800185
:104EB00080018001800180018001800180018001EA
:104EC00080018001800180010000000000000000DE
:104ED0000000000000000C300C300C300C300C30A6
:104EE0000C300C300C300C300C300C300C300C30E2
:104EF0000C301818F81FE007000000000000000048
:104F000000000000000003600630063006300C1878
:104F10000C180C18180C180C380E300630067007D8
:104F200060036003C001C001000000000000000039
:104F30000000000000000360C361C361C361663309
:104F4000663366336633663366336C1B6C1B6C1BCF
:104F50002C1A3C1E380E380E000000000000000025
:104F60000000000000000FE00C7018303018700CCA
:104F7000600EC00780038003C003E006700C301C85
:104F800018180C300E6007E0000000000000000060
:104F900000000000000003C006600C301C38381808
:104FA000300C6006E007C0038001800180018001B1
:104FB00080018001800180010000000000000000ED
:104FC000000000000000FC7FFC7F00600030001843
:104FD000000C000600038001C000600030001800D3
:104FE0000C000600FE7FFE7F0000000000000000B5
:104FF000000000000000E003E003600060006000CB
:1050000060006000600060006000600060006000A0
:105010006000600060006000600060006000E0030D
:10502000E00300000000300030006000600060001D
:10503000C000C000C000C0018001800180010003E9
:10504000000300030006000600000000000000004E
:10505000000000000000E003E00300030003000381
:105060000003000300030003000300030003000328
:105070000003000300030003000300030003E00338
:10508000E003000000000000C001C00160036003F5
:10509000600330063006180C180C000000000000F9
:1050A0000000000000000000000000000000000000
:1050B00000000000000000000000000000000000F0
:1050C00000000000000000000000000000000000E0
:1050D000000000000000FFFFFFFF000000000000D4
:1050E0000000000000000C000C000C000C000C0084
:1050F0000C000000000000000000000000000000A4
:10510000000000000000000000000000000000009F
:10511000000000000000000000000000000000008F
:10512000F003F8071C0C0C0C000FF00FF80C0C0C23
:105130000C0C1C0FF80FF01800000000000000001D
:1051400000000000000018001800180018001800E7
:10515000D803F80F380C1818181818181818181839
:105160001818380CF80FD8030000000000000000E9
:10517000000000000000000000000000000000002F
:10518000C003F007300E180C1800180018001800A3
:10519000180C300EF007C0030000000000000000F3
:1051A0000000000000000018001800180018001887
:1051B000C01BF01F301C18181818181818181818C9
:1051C0001818301CF01FC01B000000000000000079
:1051D00000000000000000000000000000000000CF
:1051E000C003F00F300C1818F81FF81F1800180033
:1051F0003818301CF00FC00700000000000000004D
:10520000000000000000800FC00FC000C000C00000
:10521000F007F007C000C000C000C000C000C00020
:10522000C000C000C000C00000000000000000007E
:10523000000000000000000000000000000000006E
:10524000E00DF80F180E0C0C0C0C0C0C0C0C0C0CCC
:105250000C0C180EF80FE00D000C0C0C1C06F807D7
:10526000F0010000000018001800180018001800D5
:10527000D807F80F381C1818181818181818181804
:10528000181818181818181800000000000000005E
:10529000000000000000C000C0000000000000008E
:1052A000C000C000C000C000C000C000C000C000FE
:1052B000C000C000C000C0000000000000000000EE
:1052C000000000000000C000C0000000000000005E
:1052D000C000C000C000C000C000C000C000C000CE
:1052E000C000C000C000C000C000C000C000F80086
:1052F0007800000000000C000C000C000C000C00FA
:105300000C0C0C060C038C01CC006C00FC009C0106
:105310008C030C030C060C0C0000000000000000C5
:10532000000000000000C000C000C000C000C000BD
:10533000C000C000C000C000C000C000C000C0006D
:10534000C000C000C000C00000000000000000005D
:10535000000000000000000000000000000000004D
:105360007C3CFF7EC7E383C183C183C183C183C10A
:1053700083C183C183C183C100000000000000001D
:10538000000000000000000000000000000000001D
:105390009807F80F381C1818181818181818181823
:1053A000181818181818181800000000000000003D
:1053B00000000000000000000000000000000000ED
:1053C000C003F00F300C18181818181818181818EF
:1053D0001818300CF00FC00300000000000000009F
:1053E00000000000000000000000000000000000BD
:1053F000D803F80F380C1818181818181818181897
:105400001818380CF80FD8031800180018001800E6
:105410001800000000000000000000000000000074
:10542000C01BF01F301C1818181818181818181856
:105430001818301CF01FC01B0018001800180018A6
:105440000018000000000000000000000000000044
:10545000B007F00370003000300030003000300042
:10546000300030003000300000000000000000007C
:10547000000000000000000000000000000000002C
:10548000E003F003380E180C3800F003C007000CDE
:10549000180C380EF007E0030000000000000000C8
:1054A00000000000000000008000C000C000C0003C
:1054B000F007F007C000C000C000C000C000C0007E
:1054C000C000C000C007800700000000000000000E
:1054D00000000000000000000000000000000000CC
:1054E000181818181818181818181818181818183C
:1054F0001818381CF01FE019000000000000000020
:10550000000000000000000000000000000000009B
:105510000C18180C180C180C3006300630066003F6
:1055200060036003C001C001000000000000000033
:10553000000000000000000000000000000000006B
:10554000C141C141C3616363636363633636363609
:1055500036361C1C1C1C1C1C000000000000000037
:10556000000000000000000000000000000000003B
:105570001C38381C300C6006600360036003600355
:105580006006300C381C1C380000000000000000D1
:10559000000000000000000000000000000000000B
:1055A0001830301830187018600C600CE00CC00611
:1055B000C00680038003800380018001C001F000E9
:1055C000700000000000000000000000000000006B
:1055D000FC1FFC1F000C000600038001C0006000DF
:1055E00030001800FC1FFC1F00000000000000003D
:1055F00000000000000000038001C000C000C000E7
:10560000C000C000C00060006000300060004000CA
:10561000C000C000C000C000C000C0008001000386
:1056200000000000000080018001800180018001F5
:105630008001800180018001800180018001800162
:105640008001800180018001800180018001800152
:105650008001000000006000C000C00180018001E6
:1056600080018001800100030003000600030001A7
:10567000800180018001800180018001C000600004
:10568000000000000000000000000000000000001A
:1056900000000000F010F81F080F000000000000DC
:1056A00000000000000000000000000000000000FA
:1056B00000000000000000000000000000000000EA
:1056C00000000000000000000000000000000020BA
:1056D00000200020002000200020002000000020EA
:1056E00000000000000000500050005000000000CA
:1056F00000000000000000000000000000000009A1
:1057000000090012007F0012007F00120024002414
:105710000000000000100038005400500050003815
:1057200000140054005400380010000000008030C5
:1057300000490049004AC032200520092009C01054
:10574000000000000000000C0012001200140018FD
:10575000002500230023801D000000000000004001
:1057600000400040000000000000000000000000B9
:1057700000000000000000080010001000200020C1
:105780000020002000200020001000100000004039
:105790000020002000100010001000100010001069
:1057A00000200020000000200070002000500000B9
:1057B00000000000000000000000000000000000E9
:1057C000000000080008007F00080008000000003A
:1057D00000000000000000000000000000000000C9
:1057E0000000000000000020002000400000000039
:1057F0000000000000000000007000000000000039
:105800000000000000000000000000000000000098
:105810000000000000000020000000000000001058
:105820000010001000200020002000200040004058
:105830000000000000000010002800440044004464
:105840000044004400280010000000000000001088
:105850000030005000100010001000100010001068
:105860000000000000000030004800440004000870
:10587000001000200040007C00000000000000300C
:1058800000480004000800100008004400480030F0
:105890000000000000000008001800180028002880
:1058A0000048007C00080008000000000000003CE8
:1058B0000020004000700048000400440048003010
:1058C00000000000000000180024004000500068A4
:1058D0000044004400280010000000000000007C8C
:1058E000000400080010001000100020002000201C
:1058F00000000000000000100028004400280010F4
:1059000000280044002800100000000000000010E3
:10591000002800440044002C00140004004800301B
:105920000000000000000000000000200000000057
:105930000000000000000020000000000000000047
:105940000000002000000000000000000000002017
:10595000002000400000000000040008003000406B
:1059600000300008000400000000000000000000FB
:105970000000007C00000000007C0000000000002F
:10598000000000000000000000400020001800049B
:105990000018002000400000000000000000003857
:1059A0000064004400040008001000100000001013
:1059B000000000000000800F4010A02EA0512051D8
:1059C000205120512053C04D2020401000000008DD
:1059D0000014001400140022003E00220041004187
:1059E000000000000000003C002200220022003CD9
:1059F000002200220022003C000000000000000EF7
:105A00000011002100200020002000210011000EC4
:105A1000000000000000003C0022002100210021C5
:105A2000002100210022003C000000000000003E98
:105A3000002000200020003E002000200020003E2A
:105A4000000000000000003E002000200020003C7C
:105A50000020002000200020000000000000000EB8
:105A60000011002100200027002100210011000E5C
:105A70000000000000000021002100210021003F63
:105A80000021002100210021000000000000002072
:105A90000020002000200020002000200020002006
:105AA00000000000000000080008000800080008CE
:105AB00000080048004800300000000000000022FC
:105AC0000024002800280038002800240024002298
:105AD0000000000000000020002000200020002026
